:100000000C9475170C949D170C949D170C949D17C8
:100010000C949D170C949D170C949D170C949D1790
:100020000C949D170C949D170C940A270C947C2714
:100030000C949D170C949D170C949D170C949D1770
:100040000C949D170C949D170C949D170C949D1760
:100050000C949D170C949D170C949D170C94A6213D
:100060000C949D170C949D170C949D170C949D1740
:100070000C949D170C949D170C949D170C949D1730
:100080000C940B220C949D170C949D170C949D17A7
:100090000C949D170C949D170C949D170C949D1710
:1000A0000C949D170C949D170C949D17BE1ACE1A94
:1000B000CE1A151B151B371B371B371BA21BE41B46
:1000C000481C021B751C941CD61C621D1C1B1C1B8F
:1000D000CF1DCF1D443214339E355033C233A2346A
:1000E000AA344C35FE320808000C0C1E1E3F0C3F93
:1000F000123F0C1E000C0000000C0C1E1E3F1E3F89
:100100000C1E000C0C1E000C08080030207050F86B
:1001100018FE0A1F060F040E000C0038183C0C1EB7
:10012000081C081C041E1C3E183C08080C1E043F3A
:100130001E3F0C1E0C1E0C1E040E00060006040EB4
:100140000C1E0C1E0C1E1E3F043F0C1E080800183F
:10015000183C247E7AFF7AFF3C7E183C0018000091
:100160000000007E7EFF7EFF007E000000000C107D
:100170000303DFDFFFFFFEFEFFFFFFFFFFFFFEFECB
:100180007F7F3F3F1F1F0F0F000001010D0D0F0F5D
:100190000F0F07070303010100000000000000002B
:1001A0000070307830F810F888FC40F858FEA6FF50
:1001B0001AFF027F043E001C000000000000000047
:1001C00000010003030702070107040F00040000F9
:1001D000001C0C1E0CBE84FE42FFE0FE7CFEBCFE3A
:1001E0005CFEB8FC70F8007000000001010302071B
:1001F00001070007020700030103000100000000DF
:10020000000302DFC6FF68FE16FF56FFAAFF44FE8A
:10021000327F1A3F0A1F000F00000001000D040F7B
:10022000030F0207010300010000000000000000AE
:100230000F0F1F1F3F3F7F7FFEFEFFFFFFFFFFFFF0
:10024000FEFEFFFFDFDF03030000000000000000F0
:100250000101030307070F0F0F0F0D0D0101000030
:10026000001C043E027F1AFFA6FF58FE40F888FCDF
:1002700010F830F83078007000000004040F010717
:100280000207030700030001000000000000000057
:10029000007070F8B8FC5CFEBCFE7CFEE0FE42FF25
:1002A00084FE0CBE0C1E001C0000000000010103B7
:1002B0000003020700070107020701030001000015
:1002C000000F0A1F1A3F327F44FEAAFF56FF16FF97
:1002D00068FEC6FF02DF000300000000000000000F
:1002E000000101030207030F040F000D00010000CD
:1002F0001820008000800080008000800080008046
:1003000030B078F870F0F0F0F0F0F8F8F8F8F8F8AD
:10031000F8F8F0F0F0F0F0F07878303000000000FD
:10032000000000FFFFFF01FFFDFFFDFF01FF01FFD8
:1003300001FFFFFF00FFFFFFFFFFFFFFFFFFFFFFCA
:10034000FFFFFFFFFFFFFFFF7E7EFCFCF8F8E0E011
:10035000C0C0001F1F3F207F40FF80FFBFFF5FFF27
:10036000A0FFDFFFE0FFF0F0F9F9FFFFFFFFFFFF65
:10037000FFFFFFFFFFFFFFFFFCFCFEFE7F7F3F3F15
:100380001F1F000000000000000000010001838327
:10039000FFFFFFFFFFFFFFFFFFFFFFFFF3F3070775
:1003A00007070F0FFFFFFFFFFFFFFFFFFEFEF8F83D
:1003B000E0E00080008000800080008000800080FD
:1003C00000B030F860F060F0A0F070F8B0F870F8AD
:1003D000B0F860F060F060F03078003000000000AD
:1003E000000000FFFFFF01FFFDFFFDFF01FF01FF18
:1003F00001FFFFFFE0FF53FFA8FF50FF40FF54FF46
:1004000057FF4BFFA5FF3CFF1C7E68FCE0F8C0E0F7
:1004100000C0001F1F3F207F40FF80FFBFFF5FFF26
:1004200020FF9FFF40FF20F010F9E1FFE8FFE8FF09
:1004300021FFD5FF12FF80FF28FC70FE2E7F1F3F9B
:10044000001F000000000000000000010001018307
:1004500082FFD5FFDEFFBDFFFAFF70FF01F3030748
:100460000007060F05FFA2FFD5FFDEFFD8FEA0F8AC
:1004700000E000000000000000000000000000009C
:100480000018183C30F8B0F850F838FC58FC38FC2C
:10049000D8FCB0F8B0F830F8183C001800000000A4
:1004A0000000000000FFFEFF02FFFAFFFAFF02FF5C
:1004B00002FF02FFFEFF01FF54FFA8FF20FF2AFFFB
:1004C000ABFFA5FF52FF1EFF0E3F347E70FCE0F035
:1004D00000E00000003F3F7F40FF81FF01FF7EFF03
:1004E000BEFF40FF3F7F00FF68FC70FF14FF44FF2A
:1004F00090FF3AFF193F001F143E387F173F0F1F30
:10050000000F0000000000000000000101030103D3
:1005100000010000000000000007078F88FFC5FFF2
:10052000D6FFFFFFFCFF00FCF0F800F00000000029
:1005300000000000000000000000000000000000BB
:10054000006060F0C0E0C0E040E0E0F060F0E0F0AB
:1005500060F0C0E0C0E0C0E060F0006000000000BB
:100560000000000000000000FEFEFEFEFEFEFEFE9B
:10057000FEFEFEFEFEFFFEFFFFFFFEFF81FFA8FF67
:10058000AFFF56FF62FFB8FFB8FC30F80030000044
:1005900000000000000000007F7FFFFFFFFFFFFF63
:1005A000FFFFFFFFFFFFFFFFFFFF7FFF14FF42FF83
:1005B00056FFA6FF67FF036701030001000000006C
:1005C0000000000000000000000000000101030323
:1005D00007070707030301030007048F88FFC5FF10
:1005E000D2FFFCFFF8FC00F8F0F800F0000000007B
:1005F000000000000000000030307878F0F0F0F0EB
:10060000F0F0F8F8F8F8F8F8F8F8F0F0F0F070F02A
:1006100078F830B00080008000800080008000808A
:100620000080C0C0E0E0F8F8FCFC7E7EFFFFFFFF2A
:10063000FFFFFFFFFFFFFFFFFFFFFFFFFFFF00FFC9
:10064000FFFF01FF01FF01FFFDFFFDFF01FFFFFFB6
:1006500000FF1F1F3F3F7F7FFEFEFCFCFFFFFFFFF1
:10066000FFFFFFFFFFFFFFFFFFFFF9F9F0F0E0FFE3
:10067000DFFFA0FF5FFFBFFF80FF40FF207F1F3F26
:10068000001FE0E0F8F8FEFEFFFFFFFFFFFFFFFFA7
:100690000F0F07070707F3F3FFFFFFFFFFFFFFFF42
:1006A000FFFFFFFF83830001000100000000000046
:1006B00000000000000000000030307860F060F0C2
:1006C00060F0B0F870F8B0F870F8A0F060F060F08A
:1006D00030F800B000800080008000800080008042
:1006E000008000C0C0E0E0F868FC1C7E3CFFA5FF75
:1006F0004BFF57FF54FF40FF50FFA8FF53FFE0FFA1
:10070000FFFF01FF01FF01FFFDFFFDFF01FFFFFFF5
:1007100000FF001F1F3F2E7F70FE28FC80FF12FF8E
:10072000D5FF21FFE8FFE8FFE1FF10F920F040FFCF
:100730009FFF20FF5FFFBFFF80FF40FF207F1F3F25
:10074000001F00E0A0F8D8FEDEFFD5FFA2FF05FFE6
:10075000060F0007030701F370FFFAFFBDFFDEFF7E
:10076000D5FF82FF018300010001000000000000AE
:1007700000000000000000000018183C30F8B0F83D
:10078000B0F8D8FC38FC58FC38FC50F8B0F830F819
:10079000183C0018000000000000000000000000ED
:1007A000000000E0E0F070FC347E0E3F1EFF52FFC0
:1007B000A5FFABFF2AFF20FFA8FF54FF01FFFEFFAC
:1007C00002FF02FF02FFFAFFFAFF02FFFEFF00FF37
:1007D0000000000F0F1F173F387F143E001F193F06
:1007E0003AFF90FF44FF14FF70FF68FC00FF3F7F5B
:1007F00040FFBEFF7EFF01FF81FF40FF3F7F003FC4
:10080000000000000000000000F0F0F800FCFCFF19
:10081000FFFFD6FFC5FF88FF078F0007000000001D
:1008200000000001010301030001000000000000BE
:100830000000000000000000006060F0C0E0C0E0C8
:10084000C0E060F0E0F060F0E0F040E0C0E0C0E068
:1008500060F00060000000000000000000000000E8
:10086000000000000000003030F8B8FCB8FF62FF64
:1008700056FFAFFFA8FF81FFA0FF01FFFCFF04FFB1
:1008800004FE04FEF4FEF4FE04FEFCFE00FE000086
:10089000000000000000000000010103036767FF83
:1008A000A6FF56FF42FF14FFC6FF80FF7FFF80FFB9
:1008B0007CFFFCFF03FF03FF80FF7FFF007F000042
:1008C000000000000000000000F0F0F800F8F8FC64
:1008D000FCFFD2FFC5FF88FF058F01070003000161
:1008E00001030207020701030001000000000000ED
:1008F00000000000000000000000000000000000F8
:1009000000C0C0E080C080C080C0C0E0C0E0C0E0E7
:10091000C0E080C080C080C0C0E000C00000000017
:100920000000000000F8F0F810F8D0F8D0F810F847
:1009300010F810F9F1FF0DFFA2FF41FF02FF51FF78
:100940005EFF2DFF85FF51FF70F970F8E0F000E0C9
:100950000000000000FFFFFF00FF0FFF15FFCAFFB0
:10096000D4FF0CFFEDFF08FF24FF5DFF4DFF49FFA3
:1009700054FFABFF1BBF071F03070003000100016B
:1009800000000000000101030207040F089F8BFF15
:10099000D5FFDAFFBDFFF8FF73FF0FFF0EFF51FF1A
:1009A000ADFFA5FFD0FF64FE78FCB8FCD8FCF0F8E2
:1009B00000F00000000000F8E8FC94FE2CFE083C6B
:1009C00000080000000C08DC50F828FC18FC28FC8B
:1009D00008FCD8FC90F860F060F060F020701030F7
:1009E000000000000000000101030007050F0E1FBA
:1009F000061F0A1F041E00FF54FFA8FF20FF2AFF46
:100A0000ABFFA5FF52FF1EFF0E3F347E70FCE0F0EF
:100A100000E00000000000000000000000000000F6
:100A2000000000E0E0F090F808FD70FFF4FFF4FF34
:100A300018FFEAFF29FF80FF14BE387F173F0F1F02
:100A4000000F000000000000000000000000008017
:100A500080FCD4FFDDFFBCFFFBFF70FF00F1010352
:100A60000007060F05FFA2FFD6FFDCFED8FCA0F8AA
:100A700000E00C0800D858FC60F858FD61FF5DFFED
:100A80005DFF61FF58FD60F858FC00D8060800388B
:100A9000287C74FE74FE287C00380030307A7AFF9F
:100AA0007AFF307A003008087878FEFEFFFFFFFFFB
:100AB000FFFFFFFFFFFF7E7E007838FE56FF3EFF00
:100AC00052FF4AFF26FF007E006C4CFE46FF4EFFA1
:100AD00044FF48FF26FF007E080878783C3C3F3FF3
:100AE0007F7F7F7F7F7F7F7F3F3F3078183C183F3D
:100AF000277F317F197F297F123F000C0C1E06EFE4
:100B0000EEFF72FFBEFF7EFF3C7E3F3F7F7F7F7F19
:100B10007F7F7F7F3F3F3C3C7878123F297F197F62
:100B2000317F277F183F183C30783C7E7EFFBEFF28
:100B300072FFEEFF06EF0C1E000C08081414BEBE78
:100B4000FFFFFFFFFFFFFFFF5E5E0C0C001414BEF3
:100B5000BEFF9EFFB6FF5EFF0C5E000C001A1A7F00
:100B60004FFF8FFF9BFF4FFF367F00360C1018188A
:100B7000FCFCFEFEFEFEFEFEFEFEFEFEFCFCF8F8A9
:100B8000E0E0C0C00000000000006161F3F3FFFF7F
:100B9000FFFFFFFFFFFF9F9F0F0F070703030018D3
:100BA00018FCC4FEDCFEC4FE98FE64FE28FCC0F8FF
:100BB000C0E000C0000000000000006160F392FF90
:100BC0000AFF60FF96FF0A9F020F03070003000061
:100BD000000C0C7E62FF6EFF62FF4CFFB2FF14FE42
:100BE00060FCA0F000E00000000C0C1E001F11BF14
:100BF000A9FF45FF20FFC4FF0ADF010B00010B1016
:100C00000C0C1E1E7F7FFFFFFFFFFFFFFEFEFCFCA4
:100C1000E0E0C0C080800C0C1E1E1F1FBFBFFFFF86
:100C2000FFFFFFFFFFFFDFDF0B0B01010018183C88
:100C300024FEACFEBCFE5CFE18FC40F880C00080C8
:100C400000000000006060F292FF0AFF60FF96FF64
:100C50000A9F020F03070003000C081E067F48FFCF
:100C60004AFF1EFF8CFE20FC40E080C00080000C8C
:100C70000C1E001F11BFA9FF45FF20FFC4FF0ADFA4
:100C8000010B00010018183C24FEACFEBCFE5CFE0B
:100C900018FC00FE8CFE74FE007C000E06EFE0F7F0
:100CA00012FF0A1F021F1D3F20FFC0E100C000000D
:100CB0000508004C4CFFF3FF4CFF004C005C5CFE51
:100CC000F6FF5CFE005C180800FF01FF00FF01FF5B
:100CD00000FF03FF03FF00FF03FF07FF07FF07FFFE
:100CE00007FF07FF07FF03FF00FF03FF03FF00FFEE
:100CF00001FF00FF01FF00FF10087FFF41FF7DFFA4
:100D00007DFF7DFF7DFF7FFF00FF7FFF41FF7DFFB8
:100D10007DFF7DFF7DFF7FFF00FF80FFBEFF82FF25
:100D200082FF82FF82FF80FFFFFF80FFBEFF82FF06
:100D300082FF82FF82FF80FFFFFF08080C1E043F36
:100D40001E3F0C1E0C1E0C1E040E00060006040E98
:100D50000C1E0C1E0C1E1E3F043F0C1E100302072F
:100D6000020702070207020702070207020702073B
:100D7000020702070007020700070207000210032C
:100D80000002020700070207000702070207020726
:100D9000020702070207020702070207020702070B
:100DA0001010000000000000008080D0D0F8E8FCA7
:100DB000DCFEBCFE6CFE7CFE08FC000800000000AF
:100DC000000000000000000000E3E3F7F5FF36FF3D
:100DD000183F063F16FFF8FFA3FF80E300C00000A6
:100DE0000000000000000000000000000000000003
:100DF00000800080008000800000000000000000F3
:100E000000000000006060F070F8B8FC5CFEDAFFE3
:100E1000D7FF2FFF5BFF5FFF02FFE8FEA0F880E037
:100E20000080000000000000000000C8C8FCE4FED4
:100E3000EEFF5EFFB6FFBEFF04FE000400000000F0
:100E400000000000000000000000000101E3E3F7E3
:100E5000F5FF96FF40FF367F003F000000000000D6
:100E60000000000000000000000000000000000082
:100E70000080008000800080000000000000000072
:100E80000000000000C0C0E040F8B8FC7CFE7AFF23
:100E900097FF4FFFDBFFDFFF02FF000200000000B3
:100EA000000000F0F0F818FC183C307848FC24FEF4
:100EB0006EFFDEFFB6FFBEFF44FEC0E480C00080D0
:100EC000000000030307040F008480E0A0F030FF5F
:100ED000173F061F021F14FFF0FFA1F381E30081FB
:100EE0000000000000000080008000000000000002
:100EF00000800080008000800000000000000000F2
:100F00000000003E3E7F43FF03C786CF44EECAFF8A
:100F1000D7FF2FFF5BFF5FFF02FFE0F2A0F080E052
:100F20000080000000000000008080C0C0E2E2F706
:100F3000E4FEEEFFDEFFDEFFDEFFC4FE20F460F025
:100F4000207000000000000303E7E2F7B1FB93FF0D
:100F50000B9F030F0B1F1BFFF1FFA0F180E0008030
:100F6000000000000000000000000000008080C0C1
:100F7000008080C080C080C080C000800000000071
:100F8000000000000000003030F8A8FC5CFEBCFF50
:100F9000BDFF3BFFB7FFAFFF4FFFA1FF60F160F068
:100FA000207000000000000000C0C0E8E8FCF4FE73
:100FB000EEFF5EFF36FFBEFF84FE008400000000EF
:100FC00000000000000000000032327F093F1D3F9A
:100FD0000C1F011F0D1F040F01070001000000007E
:100FE000000000000000008080C0C0FAEAFFDCFFC3
:100FF000BCFE5CFE5CFE18FC0098000000000000D7
:1010000000000000000000030307076F217F287F16
:101010001A3F1B7F7AFFB1FF83F7008300000000B7
:1010200000000000000000000000000000000000C0
:1010300000000000000000000000000000000000B0
:10104000000060F020F030F850F828FC58FE64FEF4
:101050000CFE5CFE0CFE34FE40FC4CFF2AFF6CFED6
:1010600000FC000000000000000808FC7CFE6CFE94
:10107000BCFEDCFEE8FCD0F880D000800000000060
:1010800000000000000000C080E3A3FFF8FF16FF8F
:10109000063F183F36FFF5FFE3F700E300000000CE
:1010A0000000000000000000000000000080008040
:1010B0000080008000000000000000000000000030
:1010C0000000008080E0A0F8E8FE02FF5FFF5BFF09
:1010D0002FFFD7FFDAFF5CFEB8FC70F860F000600D
:1010E0000000000000000000000404FEBEFFB6FF88
:1010F0005EFFEEFFE4FEC8FC00C800000000000038
:1011000000000000000000000000003F367F40FFAC
:1011100096FFF5FFE3F701E3000100000000000087
:1011200000000000000000000000000000800080BF
:1011300000800080000000000000000000000000AF
:101140000000000000000000000202FFDFFFDBFFE4
:101150004FFF97FF7AFF7CFEB8FC40F8C0E000C06C
:1011600000000000008080C0C0E444FEBEFFB6FF67
:10117000DEFF6EFF24FE48FC3078183C18FCF0F8C7
:1011800000F00000008181E3A1F3F0FF14FF021FD3
:10119000061F173F30FFA0F080E00084040F030714
:1011A000000300000000000000000000008000803C
:1011B000008000800000000000000080008000002F
:1011C0000000008080E0A0F0E0F202FF5FFF5BFF24
:1011D0002FFFD7FFCAFF44EE86CF03C743FF3E7FF2
:1011E000003E207060F020F4C4FEDEFFDEFFDEFF74
:1011F000EEFFE4FEE2F7C0E280C0008000000000E5
:1012000000000000008080E0A0F1F1FF1BFF0B1F39
:10121000030F0B9F93FFB1FBE2F703E7000300000E
:101220000000000000000000008080C080C080C07E
:1012300080C0008080C0008000000000000000002E
:101240000000207060F060F1A1FF4FFFAFFFB7FF1B
:101250003BFFBDFFBCFF5CFEA8FC30F80030000087
:101260000000000000000000008484FEBEFF36FF86
:101270005EFFEEFFF4FEE8FCC0E800C000000000E6
:10128000000000000000000000010107040F0D1F16
:10129000011F0C1F1D3F093F327F0032000000007C
:1012A00000000000000000000000009818FC5CFE38
:1012B0005CFEBCFEDCFFEAFFC0FA80C000800000DC
:1012C0000000000000000000008383F7B1FF7AFFF8
:1012D0001B7F1A3F287F217F076F03070003000051
:1012E00000000000000000000000000000000000FE
:1012F00000000000000000000000000000000000EE
:10130000000000FC6CFE2AFF4CFF40FC34FE0CFE8B
:101310005CFE0CFE64FE58FE28FC50F830F820F00D
:1013200060F008080000006060F8B8FDB1FB60F1F3
:1013300000600000004040E0E0F4E4FEE0F4E0F093
:1013400040E000400000007070FD9DFF9EFF70FEB9
:10135000007000000808777770777707777757274E
:10136000502552057275030100012F010B01010187
:101370000301170100012B572697271B158B2357B5
:1013800026886675B34867EB47976B77334515C872
:10139000E1620D4AA650FC2A09212903FEFC000F38
:1013A0009F50A8020500FC828181818182FC070098
:1013B00000000F00000007070000070700000707F4
:1013C00000000F0F00000707000F0F0F0F000700AE
:1013D00007000700000007000F0007000F000B06C2
:1013E0000C041E0C0C0400003B043B7810000000B1
:1013F00000000000000000000000000000000000ED
:101400000000000000000000000080408040C0801C
:1014100000000000000000000000000000000000CC
:1014200000000000000000008000804020102050DC
:10143000E0C080000000000000008040804080C0CC
:10144000800000000000000000000000000000001C
:101450000000000000000000A87C80408040A8FC44
:1014600000F000000000800080808080808080404C
:1014700020108804A854E8D8B070E0402010080478
:10148000820180412A172E55E3C18B172EDCF8F814
:10149000F0C08080C0C0C0408040205028140A05A1
:1014A00002018040A07060400005AB75EADCB874B2
:1014B000E2C18040A0D1EA77AF170A040201825549
:1014C000EEDCB874E8D0B870E040A0408040E0D0D6
:1014D0008A151F111F152A1F2A7FE0C08017063F9B
:1014E0000906003E051F001F203E00222518003E71
:1014F0002511003D211ED5F08D14A1C881CFD9F151
:10150000AF20001A06222518003E050100330C33D7
:10151000001200003E211F003E0501003E0501169D
:1015200006222518003E050100330C33001200008E
:101530003E211F003F013E0F063E041F003E2511C5
:10154000003F2010003F09060F063F0906003F201C
:1015500010003E051F00033C0322063E2119003EF9
:10156000051F003F023F003E2511000000003E2104
:101570001F000F300F003E2511001F0936080877A5
:10158000777077770777775727502552057275035D
:101590000100012F010B0101010301170100012BC3
:1015A000572697271B158B235726886675B34867E0
:1015B000EB47976B77334515C8E1620D4AA650FC9F
:1015C0002A09212903FEFC000F9F50A8020500FCF8
:1015D000828181818182FC1010000000008060E423
:1015E000EAEE5EBEC480000000000000CEDF1F16E1
:1015F00016160BCFCF9F1E0C00000000008060F479
:10160000F2F66EBEC48000000000001CDEDF0F0E8C
:101610000A1617DFDF9F0E0000301867EB47976B45
:101620007733452B572697271B158B67EB47976B0F
:101630007733452B572697271B158B67EB47976BFF
:10164000773345000000000000000015C8E1620D7E
:101650004AA650235726886675B34815C8E1620D1F
:101660004AA650235726886675B34815C8E1620D0F
:101670004AA650000000000000000023572688669C
:1016800075B34815C8E1620D4AA6502357268866EF
:1016900075B34815C8E1620D4AA65000000000006D
:1016A00000000000000000000000007810000000B2
:1016B000000000000000000000000000000000002A
:1016C0000000000000000000000080408040C0805A
:1016D000000000000000000000000000000000000A
:1016E000000000000000000080008040201020501A
:1016F000E0C080000000000000008040804080C00A
:101700008000000000000000000000000000000059
:101710000000000000000000A87C80408040A8FC81
:1017200000F0000000008000808080808080804089
:1017300020108804A854E8D8B070E04020100804B5
:10174000820180412A172E55E3C18B172EDCF8F851
:10175000F0C08080C0C0C0408040205028140A05DE
:1017600002018040A07060400005AB75EADCB874EF
:10177000E2C18040A0D1EA77AF170A040201825586
:10178000EEDCB874E8D0B870E040A0408040E0D013
:101790008A151F111F152A1F2A7FE0C0801B060211
:1017A0003E01003E041F003E251100000000003EE7
:1017B0002511003F011E003F211E281000000000DF
:1017C000000000000000000000003E051F001F098F
:1017D0003600023E01000000000000000000000092
:1017E00000000000182A221C00223E21003C043880
:1017F00000382410003C040800183428003C083C41
:1018000000183428003C043800083F042810000069
:10181000000000000000000000003E2113003E21F7
:101820001F003D211E003E251100000000000000A9
:101830000000000000003054443800724A46003076
:10184000487800F8483000F84830003068500070A0
:10185000483E007C422600704838007820781F10EF
:101860003E051F00000018A4780018243C003C0826
:101870003C001834280000001F24380018207C0089
:10188000000000000000000064544C007C44440050
:101890001038100010381000000000000000172061
:1018A000F8080808C88810204080000000000000E8
:1018B00000000000000000FF0050003F201F00C09B
:1018C000201F00E0F010F0E00070F080F0F0FF006A
:1018D000FF00FF413E817E817E0003070407030075
:1018E0000000000F070F080B0A0A0A05020100009A
:1018F00000000000000000000000000020208040E8
:1019000020100A8F0A102040800000000000000014
:101910000000000000000000000000000000FF00C8
:101920005000FF0027B494F4E70060F090B020105E
:1019300010FCFE101000FCFE00E0F090F0E0FF0054
:10194000FF007F807317D413F7000206040703001B
:10195000000F070000000F07000307040602000144
:1019600002052A7A2A05020100000000000000009A
:1019700000000000000000000000000000000B025A
:1019800046000601460000008C00410018010000DE
:101990008C004100180100008C004100180100007B
:1019A0008C0000008C0000008C0000008C00060100
:1019B000180106014600060146004100180100001A
:1019C0008C0083008C0000008C0041001801000096
:1019D0008C004100180100008C0000008C00000009
:1019E0008C004100180101800B06060F1F3E1F0FDF
:1019F00006003B043B2307047C0200447C42007E3B
:101A0000047E007C4A22000201444A3000000000AB
:101A10003E407C007E120C00005E1306222518005A
:101A20003E2113003E211F001F0936003E251110E4
:101A300010000000000000008080D0D0F8E8FCDC3E
:101A4000FEBCFE6CFE7CFE08FC00080000000000EE
:101A50000000000000000000E3E3F7F5FF36FF1888
:101A60003F063F16FFF8FFA3FF80E300C000000021
:101A70000000000000000000000000000000000066
:101A80008000800080008000000000000000000056
:101A9000000000006060F070F8B8FC5CFEDAFFD770
:101AA000FF2FFF5BFF5FFF02FFE8FEA0F880E00072
:101AB00080000000000000000000C8C8FCE4FEEE4A
:101AC000FF5EFFB6FFBEFF04FE0004000000000042
:101AD000000000000000000000000101E3E3F7F552
:101AE000FF96FF40FF367F003F000000000000002F
:101AF00000000000000000000000000000000000E6
:101B000080008000800080000000000000000000D5
:101B100000000000C0C0E040F8B8FC7CFE7AFF97EF
:101B2000FF4FFFDBFFDFFF02FF00020000000000AD
:101B30000000F0F0F818FC183C307848FC24FE6EE9
:101B4000FFDEFFB6FFBEFF44FEC0E480C0008000A1
:101B50000000030307040F008480E0A0F030FF17AB
:101B60003F061F021F14FFF0FFA1F381E300810075
:101B70000000000000008000800000000000000065
:101B80008000800080008000000000000000000055
:101B900000003E3E7F43FF03C786CF44EECAFFD717
:101BA000FF2FFF5BFF5FFF02FFE0F2A0F080E0008D
:101BB00080000000000000008080C0C0E2E2F7E486
:101BC000FEEEFFDEFFDEFFDEFFC4FE20F460F0204D
:101BD0007000000000000303E7E2F7B1FB93FF0B86
:101BE0009F030F0B1F1BFFF1FFA0F180E00080009F
:101BF0000000000000000000000000008080C00025
:101C00008080C080C080C080C000800000000000D4
:101C10000000000000003030F8A8FC5CFEBCFFBDF6
:101C2000FF3BFFB7FFAFFF4FFFA1FF60F160F02068
:101C30007000000000000000C0C0E8E8FCF4FEEE08
:101C4000FF5EFF36FFBEFF84FE0084000000000040
:101C5000000000000000000032327F093F1D3F0CF1
:101C60001F011F0D1F040F010700010000000000ED
:101C70000000000000008080C0C0FAEAFFDCFFBC6A
:101C8000FE5CFE5CFE18FC009800000000000000F6
:101C9000000000000000030307076F217F287F1A60
:101CA0003F1B7F7AFFB1FF83F70083000000000035
:101CB0000000000000000000000000000000000024
:101CC0000000000000000000000000000000000014
:101CD0000060F020F030F850F828FC58FE64FE0C4C
:101CE000FE5CFE0CFE34FE40FC4CFF2AFF6CFE0046
:101CF000FC000000000000000808FC7CFE6CFEBC3C
:101D0000FEDCFEE8FCD0F880D0008000000000007F
:101D1000000000000000C080E3A3FFF8FF16FF06EC
:101D20003F183F36FFF5FFE3F700E3000000000037
:101D300000000000000000000000000080008000A3
:101D40008000800000000000000000000000000093
:101D500000008080E0A0F8E8FE02FF5FFF5BFF2F3D
:101D6000FFD7FFDAFF5CFEB8FC70F860F00060009F
:101D700000000000000000000404FEBEFFB6FF5E8D
:101D8000FFEEFFE4FEC8FC00C800000000000000F9
:101D9000000000000000000000003F367F40FF967A
:101DA000FFF5FFE3F701E300010000000000000081
:101DB0000000000000000000000000008000800023
:101DC0008000800000000000000000000000000013
:101DD00000000000000000000202FFDFFFDBFF4FF9
:101DE000FF97FF7AFF7CFEB8FC40F8C0E000C0001F
:101DF000000000008080C0C0E444FEBEFFB6FFDEED
:101E0000FF6EFF24FE48FC3078183C18FCF0F80008
:101E1000F00000008181E3A1F3F0FF14FF021F0630
:101E20001F173F30FFA0F080E00084040F0307007D
:101E3000030000000000000000000000800080009F
:101E40008000800000000000000080008000000092
:101E500000008080E0A0F0E0F202FF5FFF5BFF2F58
:101E6000FFD7FFCAFF44EE86CF03C743FF3E7F0084
:101E70003E207060F020F4C4FEDEFFDEFFDEFFEEE9
:101E8000FFE4FEE2F7C0E280C00080000000000036
:101E9000000000008080E0A0F1F1FF1BFF0B1F039A
:101EA0000F0B9F93FFB1FBE2F703E7000300000075
:101EB00000000000000000008080C080C080C08062
:101EC000C0008080C0008000000000000000000012
:101ED00000207060F060F1A1FF4FFFAFFFB7FF3B44
:101EE000FFBDFFBCFF5CFEA8FC30F8003000000026
:101EF00000000000000000008484FEBEFF36FF5E8C
:101F0000FFEEFFF4FEE8FCC0E800C00000000000A7
:101F10000000000000000000010107040F0D1F0178
:101F20001F0C1F1D3F093F327F00320000000000E0
:101F3000000000000000000000009818FC5CFE5C3F
:101F4000FEBCFEDCFFEAFFC0FA80C000800000009B
:101F500000000000000000008383F7B1FF7AFF1B40
:101F60007F1A3F287F217F076F03070003000000CF
:101F70000000000000000000000000000000000061
:101F80000000000000000000000000000000000051
:101F90000000FC6CFE2AFF4CFF40FC34FE0CFE5C93
:101FA000FE0CFE64FE58FE28FC50F830F820F0606D
:101FB000F0130622251800023E01003E051F003ED8
:101FC0002119003E25114F280000000000000000EC
:101FD0000000000000000000000000000000000001
:101FE000000000FE010501F117551557115111119F
:101FF0001151511111111111515111F1010501FE30
:1020000000000000000000000000000000000000D0
:10201000000000000000007E0834007E027C0044C6
:102020007C42007C0A02007C4A2200002020202002
:1020300040807F000000FF004040685C6848000866
:102040004040406060786C706000FF000000FF005E
:102050000000000000000000000000000000000080
:1020600000000000000000000000E000E000C0A050
:10207000E000E0000000E080400000000000000000
:10208000007D02C4C8C1B97979B9C1C1C1010101DA
:1020900001010101010101018181004020AF2020E7
:1020A0002020202000007E207E007C083E00447C12
:1020B00042007E120C000000000702070007000328
:1020C00000070402000700030000010101010101F3
:1020D000BD402313031D1E1E1D030303000000004B
:1020E000000C1E1E0C204347474340405F404040C9
:1020F000404040000040C02000E000C000E040E060
:1021000000E020C0000000007A423C003E407C001D
:102110007C4226007E083400000404040402017E90
:1021200080A08080808080808080F090D090D0904F
:10213000F08080808080808080A0807F0000000010
:10214000000000000403000003040700070007006C
:102150000701001E2C000000000000000080C0E00D
:10216000F0F8FCFEFFFEFCF8F0E0C080000000008C
:102170000000008040E0F0F8FCFEFFFFFFFFFFFFE3
:10218000FFFFFFFFFFFFFFFFFFFFFFFEFCF8F0E098
:10219000C0070F9EFDFBF70FDFBF7FFFFFFFFFFFB5
:1021A000FFFFFFFFFFFFFFFFFFFF1F0F071F0F1EB8
:1021B0003F7FF3E1C000FFFF0F1E3D7BF70FFFFFE6
:1021C0001F0F071F0FFFC3E180C0E07E3F0000002C
:1021D000000103000F1F3C78F0E0C000C3E180C0A5
:1021E000E07E3F1F0F070301000000000000000019
:1021F000000000000000000103000F0703010000C1
:10220000000000000000000000080B0002020201B4
:10221000000904000001020200000524001001056D
:10222000240101010424020605240600010705819A
:102230000310004009040100020A00000007050223
:102240000240000007058302400000040309041255
:10225000010002EF02014041233680000101020328
:102260000141726475696E6F204C4C430041726489
:1022700075626F790003083E211F223F2039252215
:1022800011251B06043F0725191E2538013D033A79
:10229000251B07291E0508004CF34C00005CF65C6A
:1022A0000000000000003E5B4F5B3E3E6B4F6B3E0C
:1022B0001C3E7C3E1C183C7E3C181C577D571C1C49
:1022C0005E7F5E1C00183C1800FFE7C3E7FF0018A4
:1022D000241800FFE7DBE7FF30483A060E2629798D
:1022E0002926407F050507407F05253F5A3CE73CEE
:1022F0005A7F3E1C1C08081C1C3E7F14227F22149F
:102300005F5F005F5F06097F017F006689956A60F5
:102310006060606094A2FFA29408047E040810200C
:102320007E201008082A1C08081C2A08081E101005
:1023300010100C1E0C1E0C30383E3830060E3E0EAF
:1023400006000000000000005F000000070007001A
:10235000147F147F14242A7F2A1223130864623600
:10236000495620500008070300001C22410000418C
:10237000221C002A1C7F1C2A08083E0808008070C6
:1023800030000808080808000060600020100804F9
:10239000023E5149453E00427F400072494949464C
:1023A0002141494D331814127F1027454545393CCA
:1023B0004A494931412111090736494949364649B7
:1023C00049291E00001400000040340000000814D9
:1023D0002241141414141400412214080201590952
:1023E000063E415D594E7C1211127C7F49494936A7
:1023F0003E414141227F4141413E7F494949417F20
:10240000090909013E414151737F0808087F0041D5
:102410007F41002040413F017F081422417F40401E
:1024200040407F021C027F7F0408107F3E414141F3
:102430003E7F090909063E4151215E7F091929465F
:10244000264949493203017F01033F4040403F1F75
:102450002040201F3F4038403F63140814630304AA
:102460007804036159494D43007F4141410204080A
:102470001020004141417F040201020440404040DD
:1024800040000307080020545478407F2844443813
:102490003844444428384444287F3854545418005D
:1024A000087E090218A4A49C787F080404780044DC
:1024B0007D40002040403D007F1028440000417FC7
:1024C00040007C047804787C080404783844444450
:1024D00038FC1824241818242418FC7C0804040848
:1024E000485454542404043F44243C4040207C1C61
:1024F0002040201C3C4030403C44281028444C9054
:1025000090907C4464544C440008364100000077AD
:102510000000004136080002010204023C26232686
:102520003C1EA1A161123A4040207A3854545559BA
:1025300021555579412154547841215554784020F2
:10254000545579400C1E527212395555555939540B
:1025500054545939555454580000457C41000245A3
:102560007D420001457C40F0292429F0F0282528EF
:10257000F07C545545002054547C547C0A097F4912
:1025800032494949323248484832324A4848303A5A
:102590004141217A3A42402078009DA0A07D3944F3
:1025A0004444393D4040403D3C24FF2424487E497A
:1025B00043662B2FFC2F2BFF0929F620C0887E09AC
:1025C0000320545479410000447D413048484A3248
:1025D000384040227A007A0A0A727D0D19317D2630
:1025E00029292F28262929292630484D4020380816
:1025F00008080808080808382F10C8ACBA2F102897
:1026000034FA00007B000008142A142222142A1431
:10261000089500220095AA005500AAAA55AA55AA15
:10262000000000FF00101010FF00141414FF001031
:1026300010FF00FF1010F010F0141414FC0014141C
:10264000F700FF0000FF00FF1414F404FC1414173B
:10265000101F10101F101F1414141F00101010F062
:10266000000000001F101010101F10101010F010AC
:10267000000000FF101010101010101010FF1000BC
:102680000000FF140000FF00FF00001F10170000F3
:10269000FC04F414141710171414F404F40000FFCD
:1026A00000F714141414141414F700F71414141766
:1026B0001410101F101F141414F4141010F010F044
:1026C00000001F101F0000001F14000000FC140079
:1026D00000F010F01010FF10FF141414FF1410106D
:1026E000101F00000000F010FFFFFFFFFFF0F0F0F0
:1026F000F0F0FFFFFF0000000000FFFF0F0F0F0FC3
:102700000F38444438447C2A2A3E147E02020606CE
:10271000027E027E0263554941633844443C0440D2
:102720007E201E2006027E020299A5E7A5991C2A9A
:10273000492A1C4C7201724C304A4D4D3030487859
:102740004830BC625A463D3E494949007E0101017C
:102750007E2A2A2A2A2A44445F444440514A44405B
:1027600040444A51400000FF0103E080FF000008A0
:10277000086B6B083612362436060F090F06000068
:1027800018180000001010003040FF0101001F0168
:10279000011E00191D1712003C3C3C3C00000000CB
:1027A0000001020408102040801008C601FFFF0F3E
:1027B000C003C003C003C013C003C003C003C003F1
:1027C000C013C003C003C003C00FC0FFFF01F60C5D
:1027D0006908830003FF03FF03FC03F003C003C089
:1027E00043C003C003C043C003C003C043C003C011
:1027F00003C0FFCFFFCF03C003C003C0FFCFFFCF95
:1028000003C003C003C0FFCFFFCF03C003C003C09A
:1028100043C003C003C00000AA3A0030AA3A000037
:10282000AA0E000CAA0E0000AA030003AA030000CF
:102830000000000000000000000000000000AA03EB
:102840000003AA03000000000000000000000000D8
:102850000000000000000000000000000000000078
:10286000AA030003AA030000000000FC03CF033307
:1028700003CF033303CF033303CF033303CF033338
:1028800003CF03FF03C003C03FC3FFC3FFC3FFC0A9
:1028900003C003C043C003C003C043C003C003C0A0
:1028A00043C003C003C0193507350A910EC112C1D8
:1028B00017C11CB721B725B729B72D142E3236B74B
:1028C000381439323B32422442B7453247B749B710
:1028D0004A4259A35A356135645F088600FFC0FF3C
:1028E000C0FFC0FFC0FFC0FFC0FFC0FFC0FFC03FB0
:1028F000C00FC003C043C003C003C043C003C00334
:10290000C043C003C003C003CC03FC03FC03FC03AF
:10291000FC03FC03F003C003C043C003C003C000BA
:10292000000000AA0E000CAA0E0000000003030322
:102930000F033F03FF03FC03F003C043C003C003C6
:10294000C003C043C003C003C003C043C003C003EF
:10295000F003FC03FF03F003FF03FF033F030F0338
:10296000030303030303030303030003000303033D
:102970000303000300030303030300030003030333
:1029800003033003C00303030303C303C303C303ED
:1029900003030303030303030303031B3503350688
:1029A000A61533163319C11E632BC131C135A43CA2
:1029B000A53C323F824A834C0446824E8350044AEF
:1029C00082528354044E82568358045232574658DA
:1029D000325A2408860000C000C000C000C004C0F5
:1029E00000C000C000C000C004C000C000C000C0E3
:1029F000C0FFC0FFC0FFC0FFC0FF00FF00FF03FF1C
:102A000003FF03FC03FC0FFC0FFC0FF00FF03FF083
:102A10003FF03FC03FC0FFC0FFC0FFC0FFC0031575
:102A200004230962101008C601FFFF00C000C000A7
:102A3000C000C000C000C000C000C000C000C00096
:102A4000C000C000C000C0FFFF01E10E5C084500EF
:102A50003FF03FF03FF03FF00FFC0FFC0FFC3FF06A
:102A6000FFC0FFC0FFC03FF03FFC3FFC3FC03FC086
:102A70003FD00FC00FFC0FFC0FFC0FC03FD03FC07A
:102A80003FC03FFC3FFD3FFC3FFD3FFC3FFD3FFCA7
:102A90000FFC03F000C00000000800000000002050
:102AA00000000000000800000000002000200000DE
:102AB00000000000000000000000000200AA00AAC0
:102AC00000AA00020000000000000000000000005A
:102AD000000200AA00AA00AA0002000000000000F4
:102AE00000000000000000AA008A0002008A00AA7C
:102AF000008A0002008A00AA008A0002008A00AA56
:102B0000008A0002008A00AA1233053509761133C3
:102B10001376184127912E053191343237143A90AB
:102B20004232421445734E325132553259600806D2
:102B300000FFC0FFC0FFC0FFC0FFC0FFC0FFC0FF5D
:102B4000C0FFC0FFC0FFC03FC00FC003C0CFC00365
:102B500000000003C000D003C00FC003C003C303C4
:102B6000CF03CF43CF0FCF03CD03CF03CF03CF038B
:102B7000CF0FC00FF003F403F003F003F00FF003E6
:102B8000C003C000C00000000003C003000F003FEE
:102B9000C003D003C0CFC003C003C00300000003C4
:102BA00000000000C003C003C00FD003C003C0CFAB
:102BB000C003C003C003F000FC03F000C000C2006B
:102BC000C000D000C200C000C000C200C000C000F1
:102BD000C200C000C003FF03FF43FF03FF03FF0366
:102BE000FF03FF03FC03F00FF03FF03FF03FF03F27
:102BF000F0133505350966153619361D631F652432
:102C0000342866320636423A353D3540834E83518C
:102C10008354325373553256300844000AA80AA828
:102C200002A002A002A00280028002800280028034
:102C300002A002A002A002A80AA80AAA000000009E
:102C4000000000000000000000FF00FF00FF00FC8B
:102C500000F000C000C000C000C000C000D000C034
:102C600000C000C000C000D003C000C00FC003C03F
:102C7000FFC33FC0FFC3FFCFFFCFFFC006C1071494
:102C80001084218623862E86311008C501FFFF039C
:102C9000F003C013C303C003C013C003C003C013B9
:102CA000C003C003C013C303C003F0FFFF01D60D70
:102CB0006508430000FF00FF40FF00FF00FF000029
:102CC000000000020002000200020000000000FFFD
:102CD00040FF00FF00FF00FF40FF00FF00FC00F08E
:102CE00000F400F000F000F000F000F000F000F060
:102CF00000F200F280F680F080F080F080F080FA40
:102D000000FA00F800F000F000F000F400F000F02D
:102D100000000000000000000000000000000000B3
:102D200000000000000000000000000000FF00FFA5
:102D300000FF00000000000000000000000000FF95
:102D400040FF00FF00FF0000000000000000000046
:102D50000000000300034003000300CF00FF00F069
:102D600000C000000000000000000000000000AAF9
:102D700000AA00AA00AA0AAA0AAA0AAA0AAA17323C
:102D80000363104017651935213522352362243538
:102D900024063005340438323D04415348044B3294
:102DA000503253045504570459045B325E6508469B
:102DB0000000C000C000C000C000C000C000D000C3
:102DC000C000C000C000D000C000C000C000C000F3
:102DD000C000C000C000C000D000C000C000C000E3
:102DE000F000FC0000000000FC00FC00FC00FC0007
:102DF000F000C000C000C000C000D000C000C00093
:102E0000C000C000C000D000C000C000C000C000B2
:102E1000C000D000C000C000C000C000C000C000A2
:102E2000F000F000F000C000C000C000D000C00002
:102E3000C000C000C000C000C000D000C000C00082
:102E4000C000D000C000F000FC00FD00FC00FC0051
:102E5000C000C000D000C000C000C000C000C00062
:102E6000C000D000C000C000C000C000F000FC00E6
:102E7000FF00FF00FF00FF00FF00FF1635053508CB
:102E8000560F35114514541E8629862C3529352CAC
:102E900066343438663E8547854A644E33506654FE
:102EA00035563559866232621808450000F000F048
:102EB00000F000F000F400F000F000FC00FD00FC69
:102EC00000F000F000F000C000D000C000F000F4FE
:102ED00000F000C000C000D000C000C00003063FEA
:102EE000213F03063F3F3F00D13511241FBECFEFE6
:102EF000DAE0DEBFCDBF12E0A0E0B1E0E4E7FEE63D
:102F000002C005900D92A231B107D9F727E0A2E1E6
:102F1000B2E001C01D92A83FB207E1F717E1C5E793
:102F2000D7E104C02197FE010E943237C437D10790
:102F3000C9F70E944D310C9438370C9400002F9241
:102F40003F924F925F926F927F928F929F92AF9239
:102F5000BF92CF92DF92EF92FF920F931F93CF9386
:102F6000DF93809132038823D9F0EDEDF4E1E49111
:102F7000E69520E04DED54E160E270E080E490E001
:102F80008E1B91090E94992A84E00E943D238111A1
:102F900015C088E00E943D23811110C00C943C2193
:102FA0000E94032284FF0EC088E00E943D238823F4
:102FB00049F081E0809332030C943C21109232035B
:102FC0000C943C2180913103882321F0815080931F
:102FD000310356C680912803882369F0815080937D
:102FE0002803811108C010922703809147038111A3
:102FF00002C010922C0380912603882341F0815057
:1030000080932603811103C081E080932503809182
:103010002C03882309F461C280912803811130C0F8
:103020008091240381112CC084E00E943D238823D9
:1030300051F0109223038EE0809324036AE070E045
:103040008FE991E01BC080E80E943D238823C1F0F6
:103050008091F107882371F081508093F10781E01E
:10306000809323038EE0809324036AE070E08FE373
:1030700093E004C065E070E082E690E00E94772A69
:1030800080912803811133C0909122038091240301
:1030900091110DC081110BC080912103882359F03B
:1030A00088E00E943D2381110C94B82004C0811156
:1030B0001EC091110CC090912103992329F00E9408
:1030C000032291E084FF90E09093220310C00E94BD
:1030D000032284FD0CC048EC51E060912F038091E5
:1030E0002D0390912E030E94532C80932203209154
:1030F0002203211103C0C8ECD1E002C0C4ECD1E02E
:1031000080911D03882311F0815017C03091200356
:1031100080911E0390911F0382549F4F90931F0331
:1031200080931E033323F1F097FD0AC010921F0312
:1031300010921E031092200384E080931D0341C06F
:10314000211103C0E8ECF1E002C0E4ECF1E068EE2C
:1031500073E00E941E3721E0AF018DE293E00E94F0
:103160008F2D2FC068EE73E00E941E3716161706CB
:103170003CF421E0AE018DE293E00E948F2D17C058
:103180008E0121E040E060912F0380912D0390910A
:103190002E030E94022E81110AC060912F036F5FDF
:1031A000AE0180912D0390912E030E94532C8093A9
:1031B000210380912103882321F010921F03109294
:1031C0001E0390912803911111C080912403811155
:1031D00008C00E94032285FDD8C70E94032286FDF5
:1031E000DBC780912103811110922703F090270300
:1031F000FF2029F120917A0730917B07911106C0B9
:1032000080912203882331F064E005C0923110F0F0
:1032100061E001C062E070E0C9010E940A37892BB9
:1032200071F48E0120E04F2D60912F0380912D03CA
:1032300090912E030E94022E882309F4B3C7809137
:103240002403882309F44EC08150809324038930DD
:1032500008F048C09091230360912F03992331F126
:10326000883009F03FC081E080931B0340912D031B
:1032700050912E0320911C03211103C086E090E0A1
:1032800002C082EF9FEF840F951F909336038093C7
:10329000350380912203811102C08EE001C086E0D7
:1032A000681B60933703209334031CC08091220372
:1032B000811102C08BE001C084E0681BE0912D0306
:1032C000F0912E0380911C03811103C080E090E0F7
:1032D00002C088EE9FEF02E022E048E18E0F9F1FC0
:1032E0000E94E52E80912F03813514F010922C035B
:1032F00080911B038823E1F120913503309136033F
:1033000080913403811103C083E090E002C08DEF0F
:103310009FEF820F931F9093360380933503609144
:103320003703615001E024E048E00E94E52E81115E
:1033300010921B03009135031091360340EC51E0CD
:1033400060913703C8010E94532C811110921B0316
:1033500020912A0330912B03C80108968217930706
:103360002CF020583F4F2017310714F410921B0304
:103370008B819A81E0902F032981E21A2881C090E5
:103380002D03D0902E03C21AD10800E212E04BE1C7
:10339000A42E42E0B42EC0E0D0E059E0552E360114
:1033A000690E711C0E2C000CFF084701880E911C41
:1033B000D8018C9186FF49C08F7009F046C0F50195
:1033C00020818DEF820F823008F43FC0529EF001C1
:1033D0001124E45FFE4F3381628112978C919181B9
:1033E0007081D50111964D915C911297471B51093F
:1033F0004615570554F5460F511DC416D5062CF534
:10340000891B082E000C990B88159905F4F4830F7D
:10341000911DE816F906CCF4203109F0DEC6F8015A
:10342000108280914803909149038C599F4F90934B
:1034300049038093480328E230E04AE252E06EE11B
:1034400070E085E594E00E94572A2196085F1F4F9F
:10345000B8E0AB0EB11CC032D10509F0A9CFC0E075
:10346000D0E0809147038823C1F190912603911108
:1034700034C0209791F191E049815A8120912D0328
:1034800030912E03421753070CF090E090931C03E9
:10349000911102C09FEF01C091E09093270398E142
:1034A000909328031092200310921D03109224037E
:1034B000815080934703882319F088E7809326037F
:1034C00082E0809350032FE030E044EC50E069E16B
:1034D00070E080ED90E00E94572A00E212E0EBE1FC
:1034E000CE2EE2E0DE2EF1E2EF2EF2E0FF2EC2E27F
:1034F000D2E0AEE1AA2EA2E0BA2EBFE18B2EB2E05E
:103500009B2E8CE0282E312C99E0492E5524539483
:1035100023E0622E712CF801208127FF9CC3822FAB
:103520008F70E9F08150207F282B2083811193C375
:10353000D4018C91882309F488C3D6018C918D30F5
:1035400021F425FFCFC185E0CEC18E3019F425FDD1
:10355000B7C2B4C28F30F9F0D7015C927CC326FFAA
:103560005AC3F6014081842F90E08431910508F020
:1035700072C3FC01EA5AFF4F0C94323725FF6BC32C
:1035800088818F5F8883883219F4D8011C9263C3C5
:103590008C3009F060C3F70150825DC380917A07D7
:1035A00090917B07B3010E940A37892B09F053C31E
:1035B000922F9072413019F4992329F002C0911191
:1035C00002C08FEF01C081E0D60111964D915C9150
:1035D0001297480F511D87FD5A9512965C934E9392
:1035E000119788818F5F873111F0888334C31882E7
:1035F000992321F02F7DF80120832DC32062D8016B
:103600002C9329C3F50180818F5F8083843421F559
:103610008091F3079091F407892B19F0D8011C923F
:103620001BC08CEFF501808317C080917A079091C1
:103630007B0787709927E7C2449EA0011124445F4D
:103640005E4F20E062E0C60101960E948F2DD601F8
:103650008C91813109F4FFC280917A0790917B07A8
:10366000B1010E940A37892B09F4DCC5F4C28091AC
:103670007A0790917B07B3010E940A37892B09F0E2
:103680004AC024FF17C088818F5F88838A3009F081
:1036900042C0F50140814A50D60111966D917C914E
:1036A000129782E10E941B30F80180818F7E808317
:1036B000188231C0D60111966D917C911297522FCC
:1036C000507225FD03C08FEF9FEF02C081E090E0B4
:1036D000860F971FF6019283818338813F5F38837D
:1036E0003731C9F41882552321F02F7DD8012C934E
:1036F00012C0463061F440912D0350912E03841B7B
:10370000950B8E3591051CF42061F8012083D801BA
:103710008C9180628C93F801808184FF04C0E3E087
:10372000D701EC9398C280917A0790917B078770BC
:103730009927892B09F08FC2D7018C91823009F02B
:10374000CFC0D0C025FD11C0D60111968D919C919E
:10375000129740912D0350912E03841B950B8A35AF
:1037600091051CF42062F8012083D8018C9185FF1B
:1037700072C220917A0730917B0720FD1EC0F601AE
:1037800081819281019792838183883F9F4F0CF4BE
:103790001C9288818F5F888364E10E94FE3680FDE1
:1037A00003C08FEF9FEF02C081E090E0D5014C9104
:1037B000840F911D47FD9A958C9327703327232BF7
:1037C00009F049C2F7016DC124FD1DC088818C3309
:1037D00018F48F5F888346C0F60181819281409101
:1037E0002D0350912E03BC016F53710946175707E3
:1037F000CCF1815B9F4F84179507A4F12061D8011C
:103800002C9318822FC0F60141815281322F3072E1
:1038100025FD03C08FEF9FEF02C081E090E0840F91
:10382000951FD60112969C938E93119788818F5F76
:103830008883883649F4332311F02F7D01C020623C
:103840002F7EF801208318829881892F837051F090
:10385000D5018C91943310F09FEF01C091E0890F56
:10386000F501808380917A0790917B076AE070E090
:103870000E940A37892B09F0EEC1D8018C91F7011B
:1038800085FF0FC18081853009F009C184E00FC137
:1038900080917A0790917B07B3010E940A37892BA8
:1038A000E1F488818E3110F48F5F888388818E31B6
:1038B000A1F4F6016181728180912D0390912E0314
:1038C0009B01281B390B2E3531053CF4D5014C9159
:1038D000445083E10E941B3018828881843110F0AB
:1038E00082E001C081E0F70194C180912D039091A5
:1038F0002E030396D60111964D915C911297841771
:1039000095071CF02062F8012083D8018C9185FF77
:10391000A2C120E048E751E061E0C60101960E94A3
:103920008F2D811184C497C140917A0750917B07F4
:10393000CA0183709927892B99F524FF0FC0822F24
:103940008F7EF801808325FF03C02F7C208302C077
:1039500080628083988187E5891B8883F601618175
:103960007281D8019C91892F807295FD03C02FEF41
:103970003FEF02C021E030E0260F371FF60132830F
:10398000218328812F5F2883273551F418828823CB
:1039900021F09F7DD8019C9303C09062F801908331
:1039A000CA0166E170E00E940A376CC080917A0714
:1039B00080FD5BC0F60161817281322F307225FD7E
:1039C00003C08FEF9FEF02C081E090E0680F791F86
:1039D000D60112967C936E93119788818F5F8883AE
:1039E0008836A9F4332311F02F7D01C02062F8013D
:1039F0002083188280911A028F5F80931A0283308D
:103A000031F424FF02C02F7E208310921A0280918D
:103A10001A028230E0F4D4012C9130E0285F3F4F4D
:103A2000809119028F5F8093190290E0281739075F
:103A3000E4F4F50140818BE00E941B3010921902E2
:103A400069E170E088E891E00E94772A0EC09881D1
:103A5000892F837051F0D5018C91943310F09FEF32
:103A600001C091E0890FF501808380911A028230B4
:103A700018F088818433F0F080917A0790917B0769
:103A80008F709927892B09F0E6C0D8018C91F70136
:103A900085FF07C08081863011F086E008C085E090
:103AA00006C08081823011F082E001C081E0D70140
:103AB0008C93D1C0F801808185FD02C083E0F7CFEF
:103AC00087E0F5CF24FF08C02F7CF80120831092F7
:103AD0001A021882D7015C92F801808185FF0BC021
:103AE00098819F5F9883943609F0B5C08F7D80835D
:103AF000D7015C92AFC0E0911902B8E0EB9FF001F2
:103B00001124D4018C91873018F080E090E002C03D
:103B100088E190E020911A022770E20FF11DE80F72
:103B2000F91FE255FC4EE491EE2329F088818D3097
:103B300010F088E001C081E0D7018C9388818F5F0D
:103B40008883803109F087C0EE2379F0D5014C914C
:103B50004E1BF6016181728183E10E941B3069E195
:103B600070E088E891E00E94772A188280911A021A
:103B70008F5F80931A02883109F06DC0D8018C9153
:103B800080628C93F701408210921A028091190290
:103B90008F5F63E00E94FE36909319025CC0D601ED
:103BA00011962D913C9112972150310912963C9318
:103BB0002E931197E0917A07F0917B07423189F4B7
:103BC00048818EEF840FD5019C91890F8C934830EA
:103BD00040F4CF016AE070E00E940A37892B09F4B3
:103BE00035C3D5018C91853444F480912A0390919A
:103BF0002B0308972817390714F4D8011C92CF011A
:103C0000B1010E940A37892B31F5F70180818F5F5E
:103C10008170808320C088818F5F88838830D9F449
:103C2000D7018C918F5F8C938330A1F4F601808152
:103C3000833019F430E1308305C0843049F4E1E188
:103C4000D601EC932064D8012C93F701108202C0B6
:103C5000D8011C921882085F1F4FB8E0CB0ED11C10
:103C6000E8E0EE0EF11C2896F8E0AF0EB11C28E05B
:103C7000820E911C3BE1C31633E0D30609F04BCC16
:103C800080913003811162C080914A0390914B036F
:103C9000009729F0019790934B0380934A038091FA
:103CA000EF0720912D0330912E032450310948E075
:103CB000849FC00111248217930744F48091F20776
:103CC0008F5F8093F2070E94E42B3DC0E091F307E1
:103CD000F091F407309719F08481882379F32091CB
:103CE0002C0380914A0390914B03222311F00097FB
:103CF00069F510922C031092F107009719F41092B5
:103D000046030BC08C579C4F90934B0380934A0300
:103D10008091460381508093460387E080934F0350
:103D20008CE880934C037EE5E72EFF24F39401E3B7
:103D300010E026E930E042E650E064E670E084EC12
:103D400090E00E942F2A81E08093300320912A0383
:103D500030912B0380912D0390912E03A901495E90
:103D60005F4F481759076CF0489797FD05C090932F
:103D70002B0380932A0320C010922B0310922A0356
:103D80001BC0265D3F4F28173907B4F48A979093DC
:103D90002B0380932A032091EF0730E02051310953
:103DA00063E0220F331F6A95E1F72817390724F4DF
:103DB00030932B0320932A03809129038823A1F0B9
:103DC00080912A0390912B036CE170E00E941E37D2
:103DD000FB0120E04BEE53E164E070E080E190E015
:103DE0008E1B9F0B0E94992AC0912A03D0912B030E
:103DF0009E01D7FF02C0295F3F4F53E035952795BD
:103E00005A95E1F7E22E33278901005F1F4F2E2DCF
:103E100030E0021713070CF450C043E0220F331FA9
:103E20004A95E1F76901CC1ADD0AB12C912CA12C3D
:103E3000F12CAE2DA1708A2E8091F007B816D8F51E
:103E40006B2D8E2D0E942A2C811108C0911031C03B
:103E5000AA2079F1882091F023E011C0823021F46A
:103E600020911802F12C1CC0833029F48110F2C17A
:103E7000B0FC09C0EFC12091120203C022E09924D6
:103E80009394A12C0DC0FF2009F4F0C120911702DA
:103E900080911302882311F0AA24A394FF24F394A1
:103EA00088E0B89EB001112444E553E1C6010E94A8
:103EB000992AB394C1CFE394AACF0BE112E081E237
:103EC000E82E82E0F82E99E0D92EF7013197808113
:103ED00087FF38C08F74D70113978823F9F0F80152
:103EE0008081D89EF0011124E45FFE4F4781508508
:103EF0006C91062E000C770B8581681B710987FD7C
:103F000073952481D80111968D919C911297821BF3
:103F1000910927FD9395F701208110C06C91062E21
:103F2000000C770B6A507109D80111968D919C9104
:103F300012970497F701208142E253E18C1B9D0BFD
:103F40000E94932A085F1F4FF8E0EF0EF11C23E058
:103F50000B31120709F0B9CF80912C03E0917A0759
:103F6000F0917B078823A9F180912803811133C048
:103F70009091240391111AC080912103882369F143
:103F8000809127038823D1F0CF016CE070E00E947C
:103F90000A37892B31F48091330391E0982790936D
:103FA00033038091330381110BC008C08091230338
:103FB000811108C0983030F024E005C020E003C033
:103FC00022E001C026E080912203882339F02F5F90
:103FD00005C02AE003C029E001C028E0CF018370BA
:103FE0009927892B41F480912803811104C0809185
:103FF0002603811134C180912503882309F44CC024
:1040000010911C03111102C080E001C08BE0280F49
:1040100060912F03062E000C770B6051710980917F
:104020002D0390912E03089740EA5DE08C1B9D0BB9
:104030000E94932A809124038150873068F58091F3
:104040002303811129C0111103C04CE55DE002C0BA
:104050004EE75DE060912F03062E000C770B8091F8
:104060002203811103C08CE090E002C084E090E064
:10407000681B790B20912D0330912E03111103C081
:1040800088E090E002C088EE9FEF820F931F20E04F
:104090008C1B9D0B0E94932A80911B03882389F01F
:1040A00060913703062E000C770B809135039091B9
:1040B000360320911C034AE35DE08C1B9D0B0E949C
:1040C000932A25E04091470360E070E080E090E0B3
:1040D0000E94CE2D00E027E04DE060E070E086E336
:1040E00090E00E9450250AEF20E04EED53E160E0A1
:1040F00070E087E390E00E9448234091F10750E090
:1041000020E060E070E084E490E00E941C2D80914B
:104110004A0390914B036CE370E00E940A37AB01B5
:1041200022E060E070E080E890E00E941C2DE091C9
:10413000F307F091F407309709F49EC02CE0448116
:104140006AE370E088E290E0DF91CF911F910F91D8
:10415000FF90EF90DF90CF90BF90AF909F908F90A7
:104160007F906F905F904F903F902F900C94CE2D4A
:104170001092210381E08093200384EE93EF9093CB
:104180001F0380931E030C945B188FEF809327030B
:1041900081E080931C032AC881E08093270310925A
:1041A0001C0324C80F2DFF0C110B80912D0390913F
:1041B0002E03AE0160912F03800F911F0E94532C9C
:1041C00081113DC880912D0390912E03080F191F76
:1041D00010932E0300932D0332C8213158F423305D
:1041E00008F433C933E0CC0FDD1F3A95E1F7C55E23
:1041F000DD4F37C92131B1F78091F1078D5F809391
:10420000F107809148039091490388539F4F909301
:10421000490380934803D8011C9228E230E04AEA1F
:1042200058E00DC9D7018C918F5F817041CCF801A6
:1042300080818F7B80832FE030E044EC50E069E1A7
:1042400070E080ED90E00E94572A05CD81E0840F58
:104250008883C7CCFF2069F02091160219CE909177
:10426000250381E0892780932503C5CE209115027F
:104270000FCE209114020CCEDF91CF911F910F91A0
:10428000FF90EF90DF90CF90BF90AF909F908F9076
:104290007F906F905F904F903F902F900895CF92B6
:1042A000DF92EF92FF920F931F93CF93DF936C01F6
:1042B0007A018B01C0E0D0E0CE15DF0589F0D8018E
:1042C0006D918D01D601ED91FC910190F081E02D71
:1042D000C6010995892B11F47E0102C02196ECCF0D
:1042E000C701DF91CF911F910F91FF90EF90DF9069
:1042F000CF900895A5E5B3E02FB7F8947D918D9107
:104300009C9166B52FBFA89B05C06F3F18F47F5FD7
:104310008F4F9F4F22E0660F771F881F991F2A95A6
:10432000D1F70895FC010E947A21319728F0685155
:104330007C4F8F4F9F4FF9CFAB01FC010E947A2138
:10434000641775078E079F07C8F308950F930FB77B
:104350000F931F9211248F939F93EF93FF93E9E59F
:10436000F3E08091540391E08D5F8D3710F08D570D
:104370009395809354038081890F80839181911D4F
:1043800091830281011D02838381811D838309271B
:104390000F70092702950093530335D081110093C4
:1043A0005103803989F400915203901B963070F0CC
:1043B00087E7809300088093010888E198E0809364
:1043C000600090936000FFCF909352038091E607C6
:1043D000815018F08093E60759F3E5E5F3E080811A
:1043E000918101968083918382819381811D911DAA
:1043F00082839383FF91EF919F918F911F900F91F3
:104400000FBF0F9118958FB18095807F669B886054
:104410001C9B846008951F920F920FB60F92112477
:104420002F933F934F935F936F937F938F939F93BC
:10443000AF93BF93EF93FF9380913A0390913B0327
:10444000A0913C03B0913D03892B8A2B8B2B81F1EA
:104450008091390381110BC098B180E4892788B914
:1044600080913803882319F088B1805888B98091E9
:104470003A0390913B03A0913C03B0913D03181681
:1044800019061A061B06B4F480913A0390913B0377
:10449000A0913C03B0913D030197A109B10980931C
:1044A0003A0390933B03A0933C03B0933D0302C0B7
:1044B0000E948129FF91EF91BF91AF919F918F91C0
:1044C0007F916F915F914F913F912F910F900FBE10
:1044D0000F901F90189580914403E0914203F09152
:1044E0004303882349F0CF010296909343038093BE
:1044F0004203859194910895CF01029690934303CE
:10450000809342038081918108952FB7F89483E0CE
:104510008093E9009091E800892F807295FF04C094
:104520009091F20080E4891B2FBF0895CF93DF9311
:104530001F92CDB7DEB76983DC01ED91FC9102805B
:10454000F381E02D41E050E0BE016F5F7F4F0995A0
:104550000F90DF91CF91089583E08093E9008091DF
:10456000F200882319F08AE38093E80008950E94FE
:10457000852290E008958F929F92AF92BF92CF9242
:10458000DF92EF92FF920F931F93CF93DF936C0113
:104590005B017A0180910701882309F458C080915A
:1045A0006203882309F453C08091600380FF05C033
:1045B0008091E00082608093E000E70110E00AEF64
:1045C00083E0882E9AE3992E2097C1F10E948522DC
:1045D000811107C00150D9F181E090E00E94922141
:1045E000F3CF282F30E0C217D3070CF48C2F4FB72E
:1045F000F8948092E9009091E80095FF1DC0282F63
:1046000030E0C21BD30BF501982F915020F081911F
:104610008093F100FACFA20EB31E112319F09092ED
:10462000E80009C08091E80085FD06C09092E8008E
:1046300011E0209709F010E04FBFC6CF1111C6CF8F
:104640005D9884E680935F031E141F0444F081E0AC
:1046500090E0F6019383828380E090E001C0C7017F
:10466000DF91CF911F910F91FF90EF90DF90CF904E
:10467000BF90AF909F908F90089520917D07282341
:1046800029F490917C07982381E009F480E0089553
:104690006F927F928F929F92AF92BF92CF92DF9252
:1046A000EF92FF920F931F93CF93DF9300D000D030
:1046B000CDB7DEB76C014115510509F4DEC1A0E0AC
:1046C000B0E0FA0190E015918591211511F4911552
:1046D000B1F047E0480F479546954695033009F4F9
:1046E000440F419FA001249FE00DF11D259FF00D77
:1046F000109629F0949FA00DB11D959FB00D112427
:104700000F3F21F4109602E009F001E0E12EF12CB8
:10471000A6014E0D5F1D141615060CF0AEC190E8F3
:10472000C916D1040CF0A9C19B01280F311D121626
:1047300013060CF0A2C1603471050CF09EC13097D5
:1047400009F49BC1962F9770992E5B0177FF03C0E8
:1047500097E0A90EB11C93E0B594A7949A95E1F760
:104760002A2D77FF04C0992011F02FEF2A0DD7FED4
:1047700005C0AA24BB24AC18BD0802C0A12CB12CD2
:10478000403851051CF030E83C1901C0312F3A196E
:10479000422F022E000C550B2F3F1CF4742E7094E8
:1047A00001C0712C91E0682F677009F490E0869544
:1047B00086958695980F490F511D4930510514F083
:1047C00098E0921B9719270DB60140E82403600D6D
:1047D000711D11246A0D7B1D719EA00CB11C11244A
:1047E000AF014A0D5B1DE1E0F0E06F01092C02C052
:1047F000CC0CDD1C0A94E2F7033009F4FAC0A0F4F3
:10480000013009F4ADC0023009F037C18FEF8C9D43
:1048100080018D9D100D1124009510951C830B8334
:104820008C80792E720E27C00A3F31F00B3F09F0C1
:1048300024C1B92EB20E80C0B92EB20E4BC0FA01FF
:10484000E80FF91FE491EC9D5001ED9DB00C11248F
:10485000BA82A98227FD04C0EC91E023AE2AAC9273
:10486000911012C001961196831748F32F5F4E0DD9
:104870005F1D60587F4F271509F4FFC0DB01AD595C
:10488000BC4F80E090E0F0CF273064F7FD01E058A6
:10489000FF4FB080B820AA80BA28B082E3CFFA01D7
:1048A000E80FF91FE491EC9D8001ED9D100D11249E
:1048B0001A83098327FD03C0EC910E2B0C939110F2
:1048C00012C001961196831750F32F5F4E0D5F1D96
:1048D00060587F4F2B1509F4D0C0DB01AD59BC4F98
:1048E00080E090E0F0CF273064F78D0100581F4F33
:1048F000F801A080EA81AE2AF801A082E2CFFA0195
:10490000E00FF11FE491EC9DC001ED9D900D11248D
:104910009A83898327FD04C080959C9189238C9379
:10492000911013C00F5F1F4F1196031740F32F5FB5
:104930004E0D5F1D60587F4F2B1509F49EC0DB01A3
:10494000AD59BC4F00E010E0F0CF27305CF7FD011F
:10495000E058FF4F8A818095908189238083E2CF40
:10496000AA0DBB1D892E820E281509F486C0CB0125
:104970008D599C4F5C0100E010E0031790F5FD019C
:10498000E00FF11FE491EC9DC001ED9D900D11240D
:10499000809590959C838B83FA01E00FF11FE49141
:1049A000EC9D3001ED9D700C11247A82698227FD07
:1049B00005C0F50190818923682A6082992059F009
:1049C00027304CF4F501E058FF4F90818C8189230A
:1049D0009A81892B80830F5F1F4FFFEFAF1ABF0AA9
:1049E000CCCF2F5F4E0D5F1DAE0DBF1D60587F4FAA
:1049F000BBCF632E712CFA01EA0DFB1DDB01AD5913
:104A0000BC4F60E870E08B0106191709E618F7083B
:104A1000B701660F771F592FE32ECF93DF93ED0178
:104A2000EF96EF9622966590A590992059F06C9C90
:104A30003001AC9C500127302CF4F880B094FB205E
:104A4000F728F99222233AF0FC90A094FA20F62855
:104A5000FD920C942C2511963A9529F75A9551F010
:104A60003E2D23951124E60FF11DA00FB11DC00F9F
:104A7000D11DD9CFDF91CF9111240F900F900F90BE
:104A80000F90DF91CF911F910F91FF90EF90DF90EA
:104A9000CF90BF90AF909F908F907F906F90089530
:104AA0008F929F92AF92BF92CF92DF92EF92FF923E
:104AB0000F93CF93DF936B01EC014C01840E911C9B
:104AC0005B01A20EB11CC815D905F4F47601D7FE1E
:104AD00011C0E12CF12C0EC0E816F9069CF4C03888
:104AE000D10528F4402FB701CE010E94A12A2FEF53
:104AF000E21AF20AC50121E4A216B1046CF380E4C3
:104B000090E0EACF2196DFCFDF91CF910F91FF9018
:104B1000EF90DF90CF90BF90AF909F908F900895CF
:104B2000E3E6F3E0A0E0B8E000800EBC8111012CC8
:104B30001197A0FDFDCF0192B9F70DB40895FC01C6
:104B400080916203811103C08FEF9FEF08959FB79B
:104B5000F89482E08093E9002091F20030E0121690
:104B6000130614F421E030E02115310559F028989E
:104B700084E6809361038091F10080838091F2004C
:104B8000882319F09FBFC90108958BE68093E80040
:104B9000F9CF80918E0781110DC082E080938A0742
:104BA00084E080938B0710928D0710928C0781E030
:104BB00080938E078AE897E00895FC0184859585A7
:104BC00097FD0BC09FB7F89482E08093E900809135
:104BD000F2009FBF90E0019608959FB7F89482E09D
:104BE0008093E9008091F2009FBF90E0089540918A
:104BF000EA075091EB072091E8073091E907421747
:104C00005307B4F49091E8009570E1F39091E800B7
:104C100092FD19C08093F1008091EA079091EB0713
:104C200001968F739927892B19F48EEF8093E800F2
:104C30008091EA079091EB0701969093EB078093A0
:104C4000EA0781E0089580E00895CF92DF92EF9225
:104C5000FF920F931F93CF93DF931F92CDB7DEB7D1
:104C6000182F062FE42E862F880F8E5F99830E94BF
:104C7000F72583E00E94F725F12EC12E9981D92EC8
:104C80008C2D8F19801798F4F601E7FE02C08491ED
:104C900001C080810E94F725182F80E00E94F7252F
:104CA0008123FFEFCF1ADF0A8111EACF01C081E033
:104CB0000F90DF91CF911F910F91FF90EF90DF90B8
:104CC000CF900895DF92EF92FF920F931F93CF93AF
:104CD000DF93D82E8A017B01E40EF51EEB01CE1581
:104CE000DF0571F0D7FE03C0FE01849101C0888109
:104CF0000E94F72521968111F2CF8FEF9FEF01C01F
:104D0000C801DF91CF911F910F91FF90EF90DF903D
:104D10000895615030F02091F100FC01208301964C
:104D2000F8CF289884E6809361030895CF93DF93AA
:104D30001F92CDB7DEB7FC018485958597FD05C030
:104D40002FEF3FEF358724870BC0CE0101960E94DD
:104D50009F25019719F4898190E002C08FEF9FEFA2
:104D60000F90DF91CF9108950F931F93CF93DF930F
:104D70001F92CDB7DEB78C01FC018485958597FF26
:104D80000EC0CE0101960E949F25019719F429813A
:104D900030E002C02FEF3FEFF80135872487F8019C
:104DA000848595850F90DF91CF911F910F91089584
:104DB0000F931F93CF93DF931F92CDB7DEB782E09F
:104DC000898342E450E069E072E280E80E94622652
:104DD0000E94C925DC0112960D911C9113970115B3
:104DE000110569F0D801ED91FC910280F381E02D6D
:104DF000BE016F5F7F4FC801099597FF07C089818A
:104E00000F90DF91CF911F910F910895F8010085C8
:104E10001185E5CF1F920F920FB60F9211248F9339
:104E20009F938091E1009091E100937F9093E10046
:104E300083FF0FC01092E90091E09093EB00109275
:104E4000EC0092E39093ED001092620398E090934F
:104E5000F00082FF20C093E09093E9009091F2006F
:104E6000992319F09AE39093E80090915F039923B6
:104E700039F090915F03915090935F03992389F1EA
:104E800090916103992339F090916103915090932F
:104E90006103992341F184FF10C08091E2008E7E6E
:104EA00081608093E2008091E1008F7E8093E10039
:104EB000809160038E7E806111C080FF16C080915A
:104EC000E2008E7E80618093E2008091E1008E7E20
:104ED0008093E100809160038E7E81608093600307
:104EE00004C05D9ACDCF289AD6CF9F918F910F9015
:104EF0000FBE0F901F9018951F920F920FB60F9232
:104F00001124CF92DF92EF92FF920F931F932F9372
:104F10003F934F935F936F937F938F939F93AF9341
:104F2000BF93EF93FF93CF93DF93CDB7DEB76C972B
:104F3000DEBFCDBF1092E9008091E80083FFBAC1C7
:104F400068E0CE0145960E94892682EF8093E800B2
:104F50008D8987FF05C09091E80090FFFCCF03C0CA
:104F60009EEF9093E800982F907609F0C6C09E8936
:104F70002F89188D91110CC0803829F48091E70792
:104F80008093F10002C01092F1001092F10047C12D
:104F9000422F50E0512B913051F4811140C14130EA
:104FA000510509F03CC18091E7078D7F0BC093301C
:104FB00061F4811134C14130510509F030C1809153
:104FC000E70782608093E7072AC1953041F480911A
:104FD000E80080FFFCCF20682093E30020C19630DA
:104FE00009F05FC0EB8CFC8C1092E9001092EB078B
:104FF0001092EA07123091F51092E9071092E80733
:105000000E94D82699E0BE016F5F7F4FDB01E92F38
:105010001D92EA95E9F799831A8391E09E8390EABD
:1050200098879AEF99872091EA073091EB07275FDD
:105030003F4F3C832B838D831092E9001092EB0746
:105040001092EA07F092E907E092E80749E050E0A1
:1050500080E00E9462260E94D826E1C0F092E90713
:10506000E092E8070E94C925DC011296ED90FC90C1
:105070001397E114F10409F4BFC0D701ED91FC913D
:105080000480F581E02DBE016B5E7F4FC70109955D
:10509000009719F00CF0C3C0C6C0F701E084F1849A
:1050A000E8CF973009F4BFC0983021F481E08093B5
:1050B000F100B5C0993009F0B2C0837009F0B3C0F7
:1050C000E3EFF1E081E021E036E39081992361F0A4
:1050D0008093E9002093EB0091919093EC00309342
:1050E000ED008F5F873089F78EE78093EA0010929A
:1050F000EA008F898093620392C08B8D9C8D109201
:10510000E9001092EB071092EA079093E907809369
:10511000E807898D811155C08E899D89913A59F48E
:10512000813209F080C047E050E060E071E080E04B
:105130000E94622674C0913209F075C0833289F4EE
:10514000888D90E0982F88272F89822BA0E0B0E0EF
:105150008093080190930901A0930A01B0930B0179
:105160005EC0803269F48091E80082FFFCCF67E086
:1051700080E091E00E9489268BEF8093E80006C0D2
:10518000823209F04CC08F89809307018091000121
:1051900090910101A0910201B0910301803B9440E4
:1051A000A105B10509F083C08091070180FD7FC092
:1051B00088E78093E607809164008F7D8093640088
:1051C0002EC00E94C925DC0112960D911C911397E7
:1051D0000115110541F1D801ED91FC910190F0818B
:1051E000E02DBE016B5E7F4FC8010995811117C08C
:1051F000F80100851185ECCF113009F44EC0133051
:1052000091F48F89882309F445C0823081F440E805
:1052100067E08DE692E20E942526882321F08EEF3A
:105220008093E80047C081E28093EB0043C0813067
:1052300029F440E86BE081E692E2EDCF833099F704
:105240000E94C925DC011296ED90FC9013978E0107
:105250000F5F1F4F6801E114F10479F0D701ED9160
:10526000FC910680F781E02DB801C7010995080F70
:10527000111DF701E084F184EECFD8011C92F601F4
:1052800001900020E9F73197BF016C197D0940E0DA
:10529000C601C1CF6BE472E202C06FE472E2611535
:1052A000710509F2FB01449150E080E841CF109272
:1052B000E607B5CF6C960FB6F894DEBF0FBECDBF34
:1052C000DF91CF91FF91EF91BF91AF919F918F911E
:1052D0007F916F915F914F913F912F911F910F910E
:1052E000FF90EF90DF90CF900F900FBE0F901F9028
:1052F000189580913E0308950895089580E090E008
:105300000895CF92DF92EF92FF920F931F93CF9366
:10531000DF930E946B22811520E8920761F480914F
:1053200071008D7F8093710010929100469847988C
:105330001092F7078BC021E02093F707813020E817
:10534000920751F48091400390914103909343035D
:10535000809342030E946B2297FD05C02091F607BF
:10536000222309F43FC02091F50721113BC021E021
:1053700020933803EC01DF77209769F481E0809374
:10538000390346983FE9C32E3FE0D32EE12CF12CA0
:10539000CAEFD0E014C08E0120E030E060E472E497
:1053A0008FE090E0A90198010E94AE3669017A0170
:1053B00081E0C81AD108E108F10810923903E091A0
:1053C0007107F09172070995811103C081E0809304
:1053D0003903809138038823B9F180913903811111
:1053E00033C003C010923803C5CF46992DC0479AE9
:1053F0000E946B22009771F09C01DE010E94EF3643
:10540000DC01CB0129E0B595A795979587952A955D
:10541000D1F703C08FEF9FEFDC01109290002AE0DC
:1054200020939100D0929900C092980080933A0303
:1054300090933B03A0933C03B0933D038091710094
:1054400082608093710002C04798D2CFDF91CF91E4
:105450001F910F91FF90EF90DF90CF900895EF9202
:10546000FF920F931F93DC01E1E7F0E090819D7FB5
:10547000908310924403E3E6F7E0F0934303E09354
:105480004203F0934103E0934003B183A08373830D
:105490006283558344833783268311870087F3868D
:1054A000E2861F910F91FF90EF900C948129DC010F
:1054B000E1E7F0E090819D7F908310924403E3E662
:1054C000F7E0F0934303E0934203F0934103E0934A
:1054D0004003B183A08373836283558344833783FE
:1054E000268380E090E8918780870C9481299C0135
:1054F000E1E7F0E090819D7F908310924403E3E622
:10550000F7E0F0934303E0934203F0934103E09309
:105510004003318320837383628380E090E8958326
:1055200084830C9481290F9303E00E9448230F91F8
:1055300008950F9302E00E9448230F9108950C9460
:105540009221E1EAF7E290E1969FD001A078112440
:10555000A80F6770E60FF11D9491AD59BC4F44231D
:1055600019F08C91982B03C090958C9198239C9363
:1055700008952F923F924F925F926F927F928F92F7
:105580009F92AF92BF92CF92DF92EF92FF920F93D2
:105590001F93CF93DF93CDB7DEB727970FB6F8945D
:1055A000DEBF0FBECDBFFC016A3069F42589818959
:1055B000928938E0239F800D911D1124928B818B5D
:1055C000108A1786A6C06D3009F4A3C09F838E830E
:1055D00035882489298333893A8361887288E784EE
:1055E000F08880E8E816F104C4F0AE81BF815596DA
:1055F0002C915597422F50E01F968D919C9150977A
:10560000B6E02B9F800D911D1124EE81FF81908BC0
:1056100087872689211167C07CC0F0E46F1671046A
:1056200024F7C70125E0329E800D911D1124181624
:105630001906DCF6432C512CC30138E0339E800D53
:10564000911D11241816190684F685E0689F8001C3
:1056500011240F551D4D20E0F8012490253009F448
:10566000212C430158E020FC02C0398101C03A815D
:1056700031110BC0F9818A81F81307C0269451506B
:10568000840C951C5111EFCF25C067018C2D8E190C
:105690008315A0F754018A2D88198315B8F490E872
:1056A000C916D10478F4A0E4AA16B10458F4432F23
:1056B000B501C6012C833B835D830E94A12A5D81D5
:1056C0003B812C81BFEFAB1ABB0AE5CFEFEFCE1ABF
:1056D000DE0ADCCF2F5FE40CF51C0F5F1F4F263076
:1056E00009F0BACF82CF6AEF64039001659F300D55
:1056F000112420583F4F281739075CF4AE81BF8131
:10570000ED91FC9111970190F081E02D6AE0CD01BF
:10571000099581E090E027960FB6F894DEBF0FBEA2
:10572000CDBFDF91CF911F910F91FF90EF90DF9050
:10573000CF90BF90AF909F908F907F906F905F9031
:105740004F903F902F900895FF920F931F93CF9308
:10575000DF93F82EAB01FB010491C82FD0E0259612
:1057600083E0CC0FDD1F8A95E1F7069510E020E07D
:10577000BE0180E490E0801B910B0E94992A8091E9
:105780003F03F8121BC0229720914E0345E952E2D5
:10579000BE0187E390E0801B910B0E94992A209123
:1057A0004E0345E952E2BE01C8018C5B9F4FDF9179
:1057B000CF911F910F91FF900C94992ADF91CF9177
:1057C0001F910F91FF900895EF92FF920F931F93F7
:1057D0008091F3079091F407892BB9F086E08093CC
:1057E0004F0380E580934C038EE5E82EFF24F3946D
:1057F00008E811E026E930E044EC50E064E670E0AF
:1058000082E690E00E942F2A06C085E080934F0335
:1058100088E280934C031F910F91FF90EF900895C1
:1058200010924F03109245038CE380934C03109227
:105830003F0381E080934D0385E0809347031092FE
:10584000F207809346031092490310924803109286
:10585000F10708959091F007E62FF0E0899FE00DA1
:10586000F11D1124F595E795F595E7958091EC07E5
:105870009091ED07E80FF91FE491637070E0660FF7
:10588000771FF0E083E090E0062E02C0880F991F9A
:105890000A94E2F7E823F923CF0102C09595879592
:1058A0006A95E2F708952F923F924F925F926F921E
:1058B0007F928F929F92AF92BF92CF92DF92EF92A0
:1058C000FF920F931F93CF93DF9300D01F92CDB71A
:1058D000DEB7FA0120816C01C21AD1088181681BF0
:1058E000D7FE02C081E092C04281A62E062E000C97
:1058F000BB0883819501280F311D2150310937FFE5
:1059000002C0295F3F4F53E0359527955A95E1F73F
:10591000722F37FF02C080E079C08091F00790E0DD
:1059200028173907C4F7C601840F911D7C0131E0A7
:10593000E31AF108F7FE04C07C0146E0E40EF11C16
:1059400023E0F594E7942A95E1F78091EF0790E042
:10595000E816F90624F07C0151E0E51AF108460149
:1059600093E0959487949A95E1F767FD695F659553
:10597000659565956A8367FD1A828F01240183E02E
:10598000440C551C8A95E1F72A80220C220C220C2B
:10599000E814F9040CF4BFCF3A8020E03201E8E0CB
:1059A0006E0E711C73155CF1632D882D29837B832A
:1059B0000E942A2C9091EE0729817B818917E0F0C3
:1059C000F80133818281A601480F511D4416550606
:1059D0009CF4C614D70484F4822F820D082E000C88
:1059E000990BA501430F511D841795072CF40896B8
:1059F000A816B9060CF476CF3394285FD3CF5FEFA7
:105A0000851A950A88E0480E511CC2CF0F900F905E
:105A10000F90DF91CF911F910F91FF90EF90DF904A
:105A2000CF90BF90AF909F908F907F906F905F903E
:105A30004F903F902F9008956F927F929F92AF92D8
:105A4000BF92CF92DF92EF92FF920F931F93CF936B
:105A5000DF93CDB7DEB72A970FB6F894DEBF0FBE3F
:105A6000CDBF5C016B01022FBA0180E090E02AE01B
:105A7000AE014F5F5F4F7A010E945736F7010190E8
:105A80000020E9F73197EE19FF099E2E013051F001
:105A900038F0023051F41E2F1195110F110F05C06F
:105AA00010E003C01E2F1195110FA10EB11C17FDA0
:105AB000BA94EE0FEE0F41E04E0F00E027E0B60182
:105AC000C50101970E9450253701862D8E19891531
:105AD00090F4F30121913F0120532A3008F020E097
