:100000000C94FB090C94230A0C94230A0C94230AE5
:100010000C94230A0C94230A0C94230A0C94230AAC
:100020000C94230A0C94230A0C94E90B0C945B0C9B
:100030000C94230A0C94230A0C94230A0C94230A8C
:100040000C94230A0C94230A0C94230A0C94230A7C
:100050000C94230A0C94230A0C94230A0C94421245
:100060000C94230A0C94230A0C94230A0C94230A5C
:100070000C94230A0C94230A0C94230A0C94230A4C
:100080000C9444130C94230A0C94230A0C94230A12
:100090000C94230A0C94230A0C94230A0C94230A2C
:1000A0000C94230A0C94230A0C94230A44083E411E
:1000B0004132263241413E414155555D3E41413537
:1000C0002541493E4141352541493E1131464631A0
:1000D000110E0000364949222249493E414132264B
:1000E0003241413E4241353541423E5151555545DF
:1000F000463835083E41413511113E414155555D67
:100100003E4141352541493E414135150D3E414174
:1001100055555D3E41415D555522053D41413D05E9
:1001200002002E512E002E512E3B083E4141263218
:100130002641413E414155555D3E41415E50505042
:100140003E41415E5050502000003E41415D4941DA
:10015000223E41415D5D41413E4141322641413EA9
:10016000414155555D2224083E41413226324141EC
:100170003E41415D5D41413E31414F4F41313E4144
:100180004155555D3E515155554546382D0802059E
:100190003D41413D053E41415D5D41413E00003EE6
:1001A00041413511113E41415E5050503C42413574
:1001B0003541423E1131464631110E42083C424122
:1001C000353541423E4141322641413E113146469C
:1001D00031110E00003E4141555141463E21414EF4
:1001E00041211E053D41413D0502053D41413D0581
:1001F0003E41415D5D41413E4141322641413E2209
:10020000083E41413511113E4141352541493E41AC
:100210004155555D3E5151555545463E51515555F7
:10022000454638F0F89C8E8783878E9CF8F0000056
:10023000FEFF0303030303070EFCF80000FEFF03A9
:1002400003030303070EFCF80000FFFF000000009B
:10025000000000FFFF0000FEFF8383838383C7EE5F
:100260007C380000F8FC0E07030303070EFCF800BF
:10027000003F7FE0C08080C0E07F3FFFFF010101C1
:1002800001010101FFFF0000FFFF0C0C0C0C1C3EE4
:1002900077E3C100007FFFC0C0C0C0C0E0703F1F57
:1002A00000001F3F70E0C0C0C0E0703F1F00007F33
:1002B000FFC1C1C1C1C1E3773E1C00001F3F70E018
:1002C000C0C0C0E0703F1F000000000001FFFF0140
:1002D000000000D5F08D14A1C881CFD9F1AF200066
:1002E0001B10007C38FCA8FC48FC50FC70F800F89F
:1002F000E0FCA8FE2CFE44FED4FF07FFD5FF47FF1D
:100300005CFF54FECCFE28FEE0FCD0F8F0F860F86C
:1003100070FC38FCB0FC00F8000000010001000394
:1003200001030003000300070207010F050F010F7F
:100330000007010F050F010F050F010F0007000750
:10034000020702070007010300030001000121303A
:10035000000000000000000000000000000000009D
:10036000000000000080008080C0C0E0E0F8F8FCE1
:10037000FCFEF8FCE0F8C0E080C0008000800000D7
:10038000000000000000000000000000000000006D
:10039000000000000000000000000000000000005D
:1003A00000000082028783CFCDFFDEFFDEFFECFF7F
:1003B000F2FFFEFFFEFFCCFFB1FF79FF7BFFB3FF33
:1003C00002B70082000000000000000000000000F2
:1003D000000000000000000000000000000000001D
:1003E000008202E763F7F3FFF3FF6BFF9DFFFDFF62
:1003F000FEFFFEFFFEFFFEFFFEFFFDFFCDFFB3FF92
:100400007BFF7BFFB3FF02B700820000000000000B
:10041000000000000000000000000000000000825A
:10042000028783C7C3E7E3FFFAFFF8FFFDFF7DFF05
:100430007DFF7EFF7EFF4EFF36FF7AFF79FF35FF9F
:10044000CDFFF9FFFBFFE3FFC3E783C7028700820D
:1004500000000000000000000000000000C2C2E731
:10046000E3F7E3F7C1F321F3F1FBF8FFE4FFDAFF71
:10047000BCFFBCFF5BFF67FF7FFF7FFF7FFFFEFFCF
:10048000FEFFFEFFCCFFB0FD79FF79FFB1FB83F7E4
:1004900083C70287008200000000000202070307F2
:1004A000020701070107020701030103010300F925
:1004B00078FD4CFF44FF54FF47FF55FF47FF5CFFAB
:1004C00074FF4CFF78FD00F90103010301030307EA
:1004D0000307030703070307020700020D100000CC
:1004E00000000000002020F0E0F0F0F8E0F020F044
:1004F00000200000000000000000000000000001DB
:1005000001030103000101030103000100000000D9
:100510000000000000A0A0F808BC20F8E0F4F4FE01
:10052000E0F420F808BCA0F800A0000000000000E3
:100530000003020701030103000101030103020795
:10054000000300000000002020F00024042E20F40E
:10055000E0F2F2FFE0F220F4042E002420F000206C
:10056000000101030009081D010B01030001010343
:10057000010B081D000901030001000058020B02D5
:100580005802BA02C201BA029600BA025802100317
:1005900058027003C2017003960070038403700355
:1005A0002C0110032C0170032C01A40358029302A8
:1005B000580210035802BA0258020B025802BA023B
:1005C000C201BA029600BA02580210035802700320
:1005D000C201700396007003840370032C011003A2
:1005E0002C0170032C01A40358029302580210033B
:1005F0005802BA02580200002C0117042C011704FB
:100600002C0170032C019704840317042C01170498
:100610002C01A4032C01A4038403A4032C01A40330
:100620002C0110032C0117048403A4032C01A40340
:100630002C0170032C01700358020B025802BA02FD
:10064000C201BA029600BA0258021003580270039F
:10065000C201700396007003840370032C01100321
:100660002C0170032C01A4035802930258021003BA
:100670005802BA02580200802110000000000080D9
:10068000008080C080C0C0E0E0F0F0F8F8FCFCFE24
:10069000FCFEFCFEFCFE7EFF7EFF7EFF7EFF7EFFFB
:1006A000FCFEFCFEFCFEFCFEF8FCF0F8E0F0C0E016
:1006B00080C080C0008000800000000000020207AF
:1006C00003070307030703070307010301030103EC
:1006D0000001000100010001000000000000000016
:1006E00000000001000100010001010301030103FA
:1006F00003070307030703070307020700020000BD
:1007000000000000000000000000008080C0C0F079
:10071000F0F8F0F8F8FCF8FCF8FCFCFEFCFEFCFE3F
:10072000FCFEFCFEF8FCF8FCF8FCF0F8F0F8C0F079
:1007300080C00080000000000000000000000000F9
:10074000000000000004040E060F060F0307030755
:10075000030701030103010300010001000100017F
:100760000001000100010001000101030103010378
:10077000030703070307060F060F040E000400001B
:100780000000000000000000000000000000000069
:100790000000008080C0C0F0F0F8F8FCF8FCFCFE1F
:1007A000FCFEFCFEFCFEFCFEF8FCF8FCF0F8C0F0E1
:1007B00080C0008000000000000000000000000079
:1007C0000000000000000000000000000004040E13
:1007D000060F060F070F070F03070307030703079B
:1007E00001030103010301030103030703070307D7
:1007F0000307070F070F060F060F040E0004000083
:1008000000000000000000000000000000000000E8
:1008100000000000000000000000008080C0C0F068
:10082000F0F8F8FCFCFEFCFEFCFEF8FCF0F8C0F072
:1008300080C00080000000000000000000000000F8
:1008400000000000000000000000000000000000A8
:10085000000000000004040E060F060F070F070F2C
:10086000030703030103010301030103010303075A
:100870000307070F070F060F060F040E0004000002
:100880000000000000000000000000000000000068
:100890000000000000000000000000000000000058
:1008A0000000008080C0C0F0F0F8F8FCF0F8C0F064
:1008B00080C0008000000000000000000000000078
:1008C0000000000000000000000000000000000028
:1008D0000000000000000000000000000004040E02
:1008E000060F060F030703070103010301030103BA
:1008F000010303070307060F060F040E00040000A0
:1009000000000000000000000000000000000528BA
:1009100000000000000000000000000000000000D7
:1009200000000000000000000000000000000000C7
:10093000000000000000000000F0F0F858FCF0F8A3
:1009400000F00000000000000000000000000000B7
:100950000000000000000000000000000000000097
:1009600000F0F0F858FCF0F800F000FFFFFF55FF32
:10097000FFFF00FF0000000000000000000000007A
:10098000000000000000000000F0F0F858FCF0F853
:1009900000F000FFFFFF55FFFFFF00FF00FFFFFF1C
:1009A00055FFFFFF00FF00000000000000000000F6
:1009B00000F0F0F858FCF0F800F000FFFFFF55FFE2
:1009C000FFFF00FF00FFFFFF55FFFFFF00FF00FFDD
:1009D000FFFF55FFFFFF00FF00F0F0F858FCF0F8B4
:1009E00000F000FFFFFF55FFFFFF00FF00FFFFFFCC
:1009F00055FFFFFF00FF00FFFFFF55FFFFFF00FF58
:100A000000FFFFFF55FFFFFF00FF08083E41415D6B
:100A10005D41413E22555D41415E50203A4545557C
:100A20005551512E225D55555541413E0E1111171C
:100A30003741413E2E5151555545453A3E4141556C
:100A40005545453A02053D454531110E3E4141555A
:100A50005541413E2E5151555541413E08083844BB
:100A6000100C3A2048B0007008304C906000B0483C
:100A7000203A0C1044380060904C300870008040E0
:100A8000FF05090911112121414181810101010164
:100A90000101010101010101010101010101010146
:100AA0000101010101010101010101010101010136
:100AB0000101010101010101010101010101010126
:100AC0000101010101010101010101010101010116
:100AD0000101010101010101010101010101010106
:100AE00001010101010101010101010101010101F6
:100AF000010101018181414121211111090905FFF4
:100B0000FF000000000000000000000001010202E0
:100B1000FC0404040404040404040404040404049D
:100B2000040404040404FC444404040404FC040415
:100B30000404040404040404040404040404040475
:100B40000404040404040404040404040404040465
:100B50000404040404040404040404040404040455
:100B6000040404040404040404040404040404FC4D
:100B7000020201010000000000000000000000FF70
:100B8000FF00F010D05090A0A02040404080000016
:100B9000FF00000000000000000000000000000056
:100BA000000000000000FF00008C840400FF000033
:100BB0000000000000000000000000000000000035
:100BC000000000000000000000000000FF01FD0523
:100BD000058505252525058515950505FD01FF00DC
:100BE000000000000000000000000000000000FF06
:100BF00000008040404020A0A09050D010F000FFA6
:100C0000FF00FF00FF868CFF00FF99FE00FF000041
:100C1000FF000000000000000000000000000000D5
:100C2000000000000000FF202000000404FF00007E
:100C300000000000000000000000000000000000B4
:100C40000000000000000000000000001F1017144A
:100C500015141514151415141514151417101F0058
:100C6000000000000000000000000000000000FF85
:100C70000000FF00FE99FF00FF8C86FF00FF00FFD1
:100C8000FF00FF00FE3A72FE00FE32FE00FF000091
:100C9000FF00000000000000000000000000804095
:100CA000201008048201C0806040406080C0018242
:100CB0000408102040800000000000000000000038
:100CC00000000000000000000080605008180818B4
:100CD00008180818081808180818081808180850DC
:100CE000608000000000000000000000000000FF25
:100CF0000000FF00FE32FE00FE723AFE00FF00FF21
:100D0000FF001F101714120B0A090504040300004A
:100D1000FF00000000000000000000000000FF5580
:100D20000000AAFC02010000000000000000010217
:100D3000FCAA000055FF00000000000000000000B9
:100D40000000000000F0080454FB89848884888433
:100D50008884888488848884888488848884888433
:100D600089FB540408F0000000000000000000FFB0
:100D7000000003040405090A0B121417101F00FFDA
:100D8000FF000000000000000000000080804080A4
:100D9000BFA0A0A0A0A0A0A020202020A0307F6500
:100DA000E0606267EC686C6CEC686C6CEC686C6CB6
:100DB000E7626060E57F3020A02020A0A0A0A0A076
:100DC000A0A0A0A020232408B848493889282928B1
:100DD000A9282928A9282928A9282928A92809389B
:100DE000C9483808A42320A0A0A0A0A0A0A0A0BF0C
:100DF000404080800000000000000000000000FF74
:100E0000FFA090908888A4848A82A1818880AF897D
:100E1000888AA88A888BAE898F80A2808880A280E9
:100E20008880A2808880A2808880A2808880A2801A
:100E30008880A2808880A2808880AF89888AA88ADA
:100E4000888BAE898F80A2808880A2808880A280D3
:100E50008880A2808880A2808880A2808880A280EA
:100E60008880A2808880AF89888AA88A888BAE898A
:100E70008F80A2808981A2828484A8889090A0FF1C
:100E8000080B000202020100090400000102020036
:100E900000052400100105240101010424020605B7
:100EA0002406000107058103100040090401000227
:100EB0000A00000007050202400000070583024007
:100EC00000000403090412010002EF020140412363
:100ED000368000010102030141726475696E6F2062
:100EE0004C4C430041726475626F79000102040842
:100EF0001020408000000000003E5B4F5B3E3E6BD8
:100F00004F6B3E1C3E7C3E1C183C7E3C181C577DA3
:100F1000571C1C5E7F5E1C00183C1800FFE7C3E7EF
:100F2000FF0018241800FFE7DBE7FF30483A060E01
:100F30002629792926407F050507407F05253F5A48
:100F40003CE73C5A7F3E1C1C08081C1C3E7F1422B8
:100F50007F22145F5F005F5F06097F017F00668963
:100F6000956A606060606094A2FFA29408047E04A9
:100F70000810207E201008082A1C08081C2A0808CF
:100F80001E101010100C1E0C1E0C30383E3830068F
:100F90000E3E0E06000000000000005F000000078B
:100FA000000700147F147F14242A7F2A12231308B9
:100FB000646236495620500008070300001C224195
:100FC000000041221C002A1C7F1C2A08083E080839
:100FD00000807030000808080808000060600020E9
:100FE000100804023E5149453E00427F40007249CC
:100FF0004949462141494D331814127F1027454570
:1010000045393C4A49493141211109073649494985
:1010100036464949291E00001400000040340000F3
:10102000000814224114141414140041221408025C
:10103000015909063E415D594E7C1211127C7F49CF
:101040004949363E414141227F4141413E7F494924
:1010500049417F090909013E414151737F08080850
:101060007F00417F41002040413F017F0814224121
:101070007F404040407F021C027F7F0408107F3E7B
:101080004141413E7F090909063E4151215E7F09E8
:10109000192946264949493203017F01033F40404F
:1010A000403F1F2040201F3F4038403F631408143A
:1010B0006303047804036159494D43007F41414172
:1010C0000204081020004141417F04020102044053
:1010D00040404040000307080020545478407F28D7
:1010E0004444383844444428384444287F385454CD
:1010F000541800087E090218A4A49C787F080404F0
:101100007800447D40002040403D007F102844008E
:1011100000417F40007C047804787C08040478381F
:1011200044444438FC1824241818242418FC7C084F
:10113000040408485454542404043F44243C4040CC
:10114000207C1C2040201C3C4030403C442810287F
:10115000444C9090907C4464544C440008364100C8
:101160000000770000004136080002010204023C42
:101170002623263C1EA1A161123A4040207A385411
:10118000545559215555794121545478412155548C
:10119000784020545579400C1E52721239555555DD
:1011A00059395454545939555454580000457C41C8
:1011B0000002457D420001457C40F0292429F0F0E1
:1011C000282528F07C545545002054547C547C0A32
:1011D000097F4932494949323248484832324A48FF
:1011E00048303A4141217A3A42402078009DA0A0FF
:1011F0007D39444444393D4040403D3C24FF242453
:10120000487E4943662B2FFC2F2BFF0929F620C06F
:10121000887E090320545479410000447D413048C0
:10122000484A32384040227A007A0A0A727D0D1903
:10123000317D2629292F28262929292630484D4065
:1012400020380808080808080808382F10C8ACBA61
:101250002F102834FA00007B000008142A142222E0
:10126000142A14089500220095AA005500AAAA5530
:10127000AA55AA000000FF00101010FF001414145B
:10128000FF001010FF00FF1010F010F0141414FCF9
:10129000001414F700FF0000FF00FF1414F404FC16
:1012A000141417101F10101F101F1414141F0010F7
:1012B0001010F0000000001F101010101F10101070
:1012C00010F010000000FF1010101010101010107F
:1012D000FF10000000FF140000FF00FF00001F10BF
:1012E000170000FC04F414141710171414F404F479
:1012F0000000FF00F714141414141414F700F7146A
:101300001414171410101F101F141414F4141010B8
:10131000F010F000001F101F0000001F140000005C
:10132000FC140000F010F01010FF10FF141414FF54
:10133000141010101F00000000F010FFFFFFFFFF4F
:10134000F0F0F0F0F0FFFFFF0000000000FFFF0FE3
:101350000F0F0F0F38444438447C2A2A3E147E0273
:10136000020606027E027E02635549416338444408
:101370003C04407E201E2006027E020299A5E7A5BD
:10138000991C2A492A1C4C7201724C304A4D4D302E
:101390003048784830BC625A463D3E494949007E53
:1013A0000101017E2A2A2A2A2A44445F44444051EA
:1013B0004A444040444A51400000FF0103E080FF9E
:1013C000000008086B6B083612362436060F090F2A
:1013D00006000018180000001010003040FF010146
:1013E000001F01011E00191D1712003C3C3C3C006F
:1013F000000000002F1B11241FBECFEFDAE0DEBF7C
:10140000CDBF11E0A0E0B1E0E8EAF8E302C005904A
:101410000D92A834B107D9F726E0A8E4B1E001C0E5
:101420001D92AC31B207E1F719E0CBEFD9E004C06F
:101430002197FE010E94471CCA3FD107C9F70E94AD
:1014400080140C94521C0C940000FC0180918301C8
:10145000811103C08FEF9FEF08959FB7F89482E04A
:101460008093E9002091F20030E01216130614F484
:1014700021E030E02115310559F0289884E6809369
:1014800082018091F10080838091F200882319F01D
:101490009FBFC90108958BE68093E800F9CF2FB76D
:1014A000F89483E08093E9009091E800892F80729E
:1014B00095FF04C09091F20080E4891B2FBF08952E
:1014C0008091B70581110DC082E08093B30584E05F
:1014D0008093B4051092B6051092B50581E0809313
:1014E000B70583EB95E00895CF93DF931F92CDB7B7
:1014F000DEB76983DC01ED91FC910280F381E02D80
:1015000041E050E0BE016F5F7F4F09950F90DF9182
:10151000CF91089583E08093E9008091F2008823C1
:1015200019F08AE38093E80008950E944F0A90E042
:101530000895CF93DF931F92CDB7DEB7FC0184856A
:10154000958597FD05C02FEF3FEF358724870BC0AA
:10155000CE0101960E94250A019719F4898190E035
:1015600002C08FEF9FEF0F90DF91CF9108950F93FF
:101570001F93CF93DF931F92CDB7DEB78C01FC0191
:101580008485958597FF0EC0CE0101960E94250A9D
:10159000019719F4298130E002C02FEF3FEFF801E5
:1015A00035872487F801848595850F90DF91CF9149
:1015B0001F910F910895FC018485958597FD0BC0BF
:1015C0009FB7F89482E08093E9008091F2009FBF7A
:1015D00090E0019608959FB7F89482E08093E90027
:1015E0008091F2009FBF90E008958F929F92AF92FA
:1015F000BF92CF92DF92EF92FF920F931F93CF9300
:10160000DF935C016B017A0180910B01882309F45F
:101610005BC080918301882309F456C080918101C9
:1016200080FF05C08091E00082608093E000E701C8
:1016300010E00AEF83E0882E9AE3992E2097D9F1E3
:101640000E944F0A81110AC0015009F43DC061E0B7
:1016500070E080E090E00E940812F0CF282F30E088
:10166000C217D3070CF48C2F4FB7F8948092E9007F
:101670009091E80095FF1DC0282F30E0C21BD30BCE
:10168000F601982F915020F081918093F100FACFCC
:10169000C20ED31E112319F09092E80009C0809168
:1016A000E80085FD06C09092E80011E0209709F05F
:1016B00010E04FBFC3CF1111C3CF5D9884E6809374
:1016C000B2051E141F0444F081E090E0F5019383FD
:1016D000828380E090E001C0C701DF91CF911F912C
:1016E0000F91FF90EF90DF90CF90BF90AF909F90C1
:1016F0008F900895DF92EF92FF920F931F93CF93F5
:10170000DF93D82E8A017B01E40EF51EEB01CE1586
:10171000DF0571F0D7FE03C0FE01849101C088810E
:101720000E94451421968111F2CF8FEF9FEF01C0E7
:10173000C801DF91CF911F910F91FF90EF90DF9043
:1017400008950F931F93CF93DF931F92CDB7DEB70A
:1017500082E0898342E450E060E87EE080E80E9415
:101760007A0B0E94600ADC0112960D911C9113976E
:101770000115110569F0D801ED91FC910280F3810A
:10178000E02DBE016F5F7F4FC801099597FF07C02D
:1017900089810F90DF91CF911F910F910895F801EA
:1017A00000851185E5CF282FE4E8F1E080E094E0A2
:1017B00040814EBD211511F0119202C031960000FA
:1017C00000C000C000C0019799F70DB407FEFDCF1F
:1017D00008951F920F920FB60F9211248F939F932B
:1017E0008091E1009091E100937F9093E10083FF6D
:1017F0000FC01092E90091E09093EB001092EC0082
:1018000092E39093ED001092830198E09093F000A2
:1018100082FF20C093E09093E9009091F200992319
:1018200019F09AE39093E8009091B205992339F06A
:101830009091B20591509093B205992389F19091BE
:101840008201992339F09091820191509093820105
:10185000992341F184FF10C08091E2008E7E816067
:101860008093E2008091E1008F7E8093E10080917F
:1018700081018E7E806111C080FF16C08091E200E0
:101880008E7E80618093E2008091E1008E7E809365
:10189000E100809181018E7E81608093810104C08E
:1018A0005D9ACDCF289AD6CF9F918F910F900FBE82
:1018B0000F901F9018951F920F920FB60F92112440
:1018C000CF92DF92EF92FF920F931F932F933F934C
:1018D0004F935F936F937F938F939F93AF93BF9338
:1018E000EF93FF93CF93DF93CDB7DEB76C97DEBF57
:1018F000CDBF1092E9008091E80083FFEDC168E060
:10190000CE0145960E94731482EF8093E8008D8982
:1019100087FF05C09091E80090FFFCCF03C09EEFC9
:101920009093E800982F907609F0C6C09E892F8981
:10193000188D91110CC0803829F48091800180931A
:10194000F10002C01092F1001092F10048C1422F44
:1019500050E0512B913051F4811141C1413051057A
:1019600009F03DC1809180018D7F0BC0933061F4FF
:10197000811135C14130510509F031C1809180019B
:101980008260809380012BC1953041F48091E80002
:1019900080FFFCCF20682093E30021C1963009F03E
:1019A0005FC0EB8CFC8C1092E90010927E011092CB
:1019B0007D01123091F510927C0110927B010E9402
:1019C000A10B99E0BE016F5F7F4FDB01E92F1D92F4
:1019D000EA95E9F799831A8391E09E8390EA9887C4
:1019E0009AEF998720917D0130917E01275F3F4FCB
:1019F0003C832B838D831092E90010927E0110921C
:101A00007D01F0927C01E0927B0149E050E080E0B2
:101A10000E947A0B0E94A10BE2C0F0927C01E0923E
:101A20007B010E94600ADC011296ED90FC901397F6
:101A3000E114F10409F4C0C0D701ED91FC910480D8
:101A4000F581E02DBE016B5E7F4FC70109950097C0
:101A500019F00CF0C4C0C7C0F701E084F184E8CFEE
:101A6000973009F4C0C0983021F481E08093F100F0
:101A7000B6C0993009F0B3C0837009F0B4C0EBE18F
:101A8000F1E081E021E036E39081992361F08093D9
:101A9000E9002093EB0091919093EC003093ED00DE
:101AA0008F5F873089F78EE78093EA001092EA0013
:101AB0008F898093830193C08B8D9C8D1092E90058
:101AC00010927E0110927D0190937C0180937B01A6
:101AD000898D811156C08E899D89913A59F4813240
:101AE00009F081C047E050E064E071E080E00E94CE
:101AF0007A0B75C0913209F076C0833289F4888DF3
:101B000090E0982F88272F89822BA0E0B0E0809367
:101B1000000190930101A0930201B09303015FC003
:101B2000803269F48091E80082FFFCCF67E084E0B6
:101B300091E00E9473148BEF8093E80006C082321C
:101B400009F04DC08F8980930B0180917F0188231C
:101B500019F0EEEFFAE002C0E0E0F8E08091040155
:101B600090910501A0910601B0910701803B94403E
:101B7000A105B10509F07BC080910B0180FF93C0E6
:101B800076C00E94600ADC0112960D911C91139799
:101B90000115110541F1D801ED91FC910190F08101
:101BA000E02DBE016B5E7F4FC8010995811117C002
:101BB000F80100851185ECCF113009F44EC01330C7
:101BC00091F48F89882309F445C0823081F440E87C
:101BD00067E084EE9EE00E94F21A882321F08EEFE7
:101BE0008093E80079C081E28093EB0075C081307A
:101BF00029F440E86BE088ED9EE0EDCF833099F763
:101C00000E94600ADC011296ED90FC9013978E0101
:101C10000F5F1F4F6801E114F10479F0D701ED91D6
:101C2000FC910680F781E02DB801C7010995080FE6
:101C3000111DF701E084F184EECFD8011C92F6016A
:101C400001900020E9F73197BF016C197D0940E050
:101C5000C601C1CF62EC7EE002C066EC7EE0611599
:101C6000710509F2FB01449150E080E840CF0FB6C6
:101C7000F894A8958091600088618093600010922C
:101C800060000FBEA895EE3F2AE0F20739F0809180
:101C9000FE0A9091FF0A91838083A1CF1092FF0AE0
:101CA0001092FE0A9CCFEE3F8AE0F80731F0808167
:101CB00091819093FF0A8093FE0A87E797E79183CB
:101CC00080839BE088E10FB6F894A895809360002C
:101CD0000FBE9093600083CF6C960FB6F894DEBF72
:101CE0000FBECDBFDF91CF91FF91EF91BF91AF912B
:101CF0009F918F917F916F915F914F913F912F9124
:101D00001F910F91FF90EF90DF90CF900F900FBE3B
:101D10000F901F901895CF92DF92EF92FF920F9342
:101D20001F93CF93DF936C017A018B01C0E0D0E069
:101D3000CE15DF0589F0D8016D918D01D601ED91A9
:101D4000FC910190F081E02DC6010995892B11F4D9
:101D50007E0102C02196ECCFC701DF91CF911F9188
:101D60000F91FF90EF90DF90CF9008953FB7F894D8
:101D70008091180690911906A0911A06B0911B0641
:101D800026B5A89B05C02F3F19F00196A11DB11DD6
:101D90003FBFBA2FA92F982F8827820F911DA11D11
:101DA000B11DBC01CD0142E0660F771F881F991F4E
:101DB0004A95D1F7089580915201E0915001F09138
:101DC0005101882349F0CF010296909351018093ED
:101DD0005001859194910895CF01029690935101FD
:101DE000809350018081918108954F925F927F92FC
:101DF0008F929F92AF92BF92CF92DF92EF92FF921B
:101E00000F931F93CF93DF9300D000D0CDB7DEB7F1
:101E100029011C2DA02EB12C9C012A0D3B1D121650
:101E200013060CF0BCC1803891050CF0B8C1FB0161
:101E3000EE0DF11D1E161F060CF0B1C160347105C8
:101E40000CF0ADC14115510509F4A9C1FB0177FFA3
:101E500004C0EE27FF27E61BF70BAE2FA770FA2E64
:101E6000FB0177FD3796A3E0F595E795AA95E1F795
:101E7000AE2F77FF07C0FF2029F0AFEFAE0F68E06D
:101E80006F19F62E97FF05C0EE27FF27E81BF90B09
:101E900002C0E0E0F0E02038310524F020E8722EA6
:101EA000781A01C0702E7E1A6A2F0A2E000C770B4A
:101EB000AF3F1CF4D62ED09401C0D12C21E03E2D92
:101EC000377009F420E0E694E694E694E20E6E0D95
:101ED000711D693071051CF028E0E22EEA1AED1838
:101EE0003D2D3A0FDC0120E83203A00DB11D112475
:101EF000AE0FBF1FD09EE00DF11D11244E0F5F1FCE
:101F000081E090E04C010F2C02C0880C991C0A94CF
:101F1000E2F7133009F403C1A0F4113009F4B5C09D
:101F2000123009F03CC18FEF889DB001899D700D82
:101F30001124609570957C836B835C802E2D230F1C
:101F40002BC01A3F31F01B3F09F029C12E2D230F62
:101F500088C02E2D230F51C0FA01E00FF11FE4912C
:101F6000E89D6001E99DD00C1124DA82C98237FD19
:101F700007C0FC01E080EE2DE623CE2AFC01C082E2
:101F8000F11013C00F5F1F4F0196071528F33F5F35
:101F90004A0D5B1DA058BF4F321709F400C1CD0197
:101FA0008C579E4F00E010E0F0CF37305CF7FC011B
:101FB000E058FF4FD080D520CA80DC28D082E2CF05
:101FC000FA01E60FF71FE491E89D8001E99D100DED
:101FD00011241A83098337FD04C0FC011081012BF1
:101FE0000083F11013C06F5F7F4F0196671540F3B8
:101FF0003F5F4A0D5B1DA058BF4F321709F4CFC099
:10200000CD018C579E4F60E070E0F0CF37305CF729
:102010008C0100581F4FF801E080EA81EE2AF80198
:10202000E082E1CFFA01E00FF11FE491E89DC001E9
:10203000E99D900D11249A83898337FD05C0809511
:10204000FB01908189238083F11014C00F5F1F4F23
:102050006F5F7F4F071530F33F5F4A0D5B1DA05840
:10206000BF4F321709F49BC0BD016C577E4F00E093
:1020700010E0F0CF373054F7FB01E058FF4F8A8172
:102080008095908189238083E1CFC2018E0F9F1FAD
:102090002E2D230F321709F482C0BD016C577E4FDD
:1020A0006B0100E010E0071590F5FC01E00FF11F57
:1020B000E491E89DB001E99D700D11246095709543
:1020C0007C836B83FA01E00FF11FE491E89D20010E
:1020D000E99D500C11245A82498237FD05C0F60152
:1020E00070816723462A4082FF2059F037304CF434
:1020F000F601E058FF4F70816C8167237A81672B6E
:1021000060830F5F1F4FFFEFCF1ADF0ACCCF3F5F17
:102110004A0D5B1D8A0D9B1DA058BF4FBBCFC72C1E
:10212000D12CE40FF51FAC57BE4F60E870E06C197E
:102130007D09AC18BD088501000F111F572D2E2DEC
:10214000CF93DF93ED01C058DF4FA590C590FF20DE
:1021500059F0A89C5001C89C600137302CF4E880ED
:10216000D094ED20EB28E99233233AF0EC90C09420
:10217000EC20EA28ED920C94BE1011965A9529F79E
:102180002A9551F0572D33951124E00FF11DA60F1C
:10219000B11DC60FD11DD9CFDF91CF9111240F9062
:1021A0000F900F900F90DF91CF911F910F91FF90A3
:1021B000EF90DF90CF90BF90AF909F908F907F90E7
:1021C0005F904F9008958091480108952F923F921B
:1021D0004F925F926F927F928F929F92AF92BF9237
:1021E000CF92DF92EF92FF920F931F93CF93DF93E3
:1021F000CDB7DEB72C970FB6F894DEBF0FBECDBFBC
:102200009C838B836A30A1F4DC015C962C915C97F3
:1022100058968D919C915997B8E02B9F800D911DF8
:102220001124EB81FC81918F808F178A168ACEC092
:102230006D3009F4CBC0AB81BC815C96BC91B98791
:10224000EB81FC81F38DFC87AB81BC815A967C903D
:102250005A9758964D905C90599756968D919C91AF
:10226000579780389105BCF0EB81FC81248D422F7B
:1022700050E086899789F6E02F9F800D911D1124EB
:10228000AB81BC8157969C938E9356975D962C910B
:10229000211187C09BC0B0E44B1651042CF79C0160
:1022A0006984E5E06E9E200D311D1124121613067F
:1022B000DCF6E62CF12C920148E0649E200D311DE5
:1022C00011241216130684F6A5E06A9FB0011124AA
:1022D000FB01EC50F14F1F011A86F10114912A8580
:1022E000253009F410E06201B8E0AB2E10FD02C009
:1022F0009C8401C0972C91100AC03C85371107C0FF
:102300001695AA94CE0CDF1CA110F0CF3DC09C0105
:102310002B87622F681B5985651790F7B601E62F4A
:10232000EC194985E41768F52038310538F5603433
:10233000710520F57A8369834CEE5EE058874F8300
:10234000AB01ECEEFEE0A0E16A2E8B84042F087F47
:10235000609ED0011124A80DB11D4770E40FF11D3E
:10236000B490BE83AD83AC57BE4F992019F0EC9169
:10237000BE2A03C0B094EC91BE22BC926F5F7F4F27
:10238000CECF2F5F3F4FC4CF2A852F5F2A878E0D78
:102390009F1DA1014F5F5F4F1A01263009F09DCFAD
:1023A00063CF6AEF64039001659F300D11242058BC
:1023B0003F4F2817390754F48B819C81DC01ED9144
:1023C000FC910190F081E02D6AE0099581E090E0B8
:1023D0002C960FB6F894DEBF0FBECDBFDF91CF9124
:1023E0001F910F91FF90EF90DF90CF90BF90AF9033
:1023F0009F908F907F906F905F904F903F902F9025
:1024000008950895089580E090E008950E944D1C7D
:102410008F929F92AF92BF92CF92DF92EF92FF92F4
:102420006B017C010E94B60E4B015C01C114D1040A
:10243000E104F104F1F00E94B60EDC01CB01881931
:102440009909AA09BB09883E9340A105B10570F31B
:1024500021E0C21AD108E108F10888EE880E83E075
:10246000981EA11CB11CC114D104E104F10419F798
:10247000DDCFFF90EF90DF90CF90BF90AF909F9017
:102480008F9008951F920F920FB60F9211242F93E1
:102490003F938F939F93AF93BF9380914901909106
:1024A0004A01A0914B01B0914C013091170623E0F5
:1024B000230F2D3720F40196A11DB11D05C026E87C
:1024C000230F0296A11DB11D209317068093490189
:1024D00090934A01A0934B01B0934C018091180650
:1024E00090911906A0911A06B0911B060196A11DA4
:1024F000B11D8093180690931906A0931A06B09305
:102500001B06BF91AF919F918F913F912F910F909B
:102510000FBE0F901F901895E1E7F0E080818D7F4E
:102520008083109291004698479810924D0108952B
:10253000CF92DF92EF92FF920F931F93CF93DF938F
:102540000E94DB0E811520E8920751F4DF91CF91B4
:102550001F910F91FF90EF90DF90CF900C948C1211
:1025600021E020934D01813020E8920751F48091C1
:102570004E0190914F0190935101809350010E9420
:10258000DB0E97FD05C020911006222309F440C000
:1025900020910F0621113CC021E020931106EC018F
:1025A000DF77209769F481E08093120646983FE92F
:1025B000C32E3FE0D32EE12CF12CCAEFD0E014C0A3
:1025C0008E0120E030E060E472E48FE090E0A90149
:1025D00098010E94CF1B69017A0181E0C81AD108D5
:1025E000E108F10810921206E0919205F09193052E
:1025F0000995811103C081E0809312068091110634
:10260000882309F43FC08091120681113BC003C0AA
:1026100010921106C4CF469935C0479A0E94DB0E2E
:10262000009771F09C01DE010E94101CDC01CB01BF
:1026300029E0B595A795979587952A95D1F703C079
:102640008FEF9FEFDC01109290002AE02093910021
:10265000D0929900C092980080931306909314062C
:10266000A0931506B0931606809171008260809346
:102670007100DF91CF911F910F91FF90EF90DF904C
:10268000CF9008954798CACF1F920F920FB60F921E
:1026900011242F933F934F935F936F937F938F9367
:1026A0009F93AF93BF93EF93FF9380911306909105
:1026B0001406A0911506B0911606892B8A2B8B2B38
:1026C00081F18091120681110BC098B180E48927B5
:1026D00088B980911106882319F088B1805888B98B
:1026E0008091130690911406A0911506B0911606DC
:1026F000181619061A061B06B4F480911306909159
:102700001406A0911506B09116060197A109B1090A
:102710008093130690931406A0931506B0931606A3
:1027200002C00E949812FF91EF91BF91AF919F91CB
:102730008F917F916F915F914F913F912F910F906A
:102740000FBE0F901F901895CF92DF92EF920F93CC
:102750001F93CF93DF934115510591F1FA01049135
:102760003196E4904E5F5F4F222321F130E0220F3B
:10277000331FC02FD0E0AE2DA695A695A695EA2FC3
:10278000F0E0A1E0B0E01E2D177011F4A0E0B0E081
:10279000AE0FBF1FCA9F6001CB9FD00CDA9FD00C39
:1027A00011242C9DF0012D9DF00D3C9DF00D112468
:1027B0004E0F5F1F23E0C22E20E030E00E94F50E96
:1027C000DF91CF911F910F91EF90DF90CF900895FF
:1027D000CF92DF92EF920F93CF93DF934115510584
:1027E00069F1FA0104913196E4904E5F5F4F222324
:1027F000F9F0C02FD0E0AE2DA695A695A695EA2FAC
:10280000F0E0A1E0B0E03E2D377011F4A0E0B0E0C0
:10281000AE0FBF1FCA9F6001CB9FD00CDA9FD00CB8
:1028200011242C9DF0012D9DF00D11244E0F5F1FE2
:102830002AEFC22E20E030E00E94F50EDF91CF910A
:102840000F91EF90DF90CF9008952D9A0895BC01DD
:1028500080E090E00C9408128FB18095807F669B99
:1028600088601C9B8460089583B7817F83BF83B792
:10287000816083BF889583B78E7F83BF08958EBDA7
:1028800000000DB407FEFDCF089540917D015091E9
:102890007E0120917B0130917C0142175307B4F4F3
:1028A0009091E8009570E1F39091E80092FD19C0D5
:1028B0008093F10080917D0190917E0101968F734C
:1028C0009927892B19F48EEF8093E80080917D0180
:1028D00090917E01019690937E0180937D0181E02D
:1028E000089580E00895615030F02091F100FC01DE
:1028F00020830196F8CF289884E68093820108957A
:10290000CF93DF9300D01F92CDB7DEB7789484B514
:10291000826084BD84B5816084BD85B5826085BDDB
:1029200085B5816085BD80916E00816080936E0069
:10293000109281008091810082608093810080915B
:10294000810081608093810080918000816080930C
:10295000800080919100826080939100809191002D
:1029600081608093910080919000816080939000BD
:102970008091C10084608093C1008091C100826019
:102980008093C1008091C10081608093C1008091DB
:10299000C30081608093C3008091C00082608093F7
:1029A000C0008091C20081608093C20080917A0053
:1029B000846080937A0080917A00826080937A00AC
:1029C00080917A00816080937A0080917A0080689B
:1029D00080937A00109283011092800110928101FD
:1029E0008091D70081608093D70080EA8093D800DF
:1029F00089B5806189BD89B5826089BD09B400FE51
:102A0000FDCF61E070E080E090E00E9408128091CC
:102A1000D8008F7C80618093D8008091E000807F17
:102A20008093E0008091E1008E7E8093E1008DE054
:102A30008093E200559A209AEEEFFFE785919491FA
:102A40008B3F9C4D19F481E080937F0181EC809352
:102A50007C0085B1806F85B9249884B1866E84B975
:102A60005E9A5F988AB1806D8AB9769A6E9881B3C2
:102A7000806F81BB899880B38D7080BB80E58CBDF1
:102A800081E08DBD85E090E00E9427145F9A85E08B
:102A900090E00E9427145E985C98A3EDEA2EA2E0D5
:102AA000FA2E1DE01E0DF70184910E943F14FFEFE6
:102AB000EF1AFF0A1E11F7CF5C9A81E88093640039
:102AC00081E08093650000E014E080E00E943F1404
:102AD00001501109D1F70E942C1487FF1FC05C9888
:102AE00085EA0E943F145C9A2E982F982D98809129
:102AF00064008062809364000E943414FDCF2D989E
:102B00000E942C148478843871F00E942C148471F3
:102B1000843131F188EC90E00E9427140E942C143B
:102B200082FDEDCF3AC00E94251488EC90E00E940F
:102B300027142F9882E090E00E94B91B8F3F29F064
:102B40006FEF82E090E00E94C11B84EF91E00E9451
:102B500027142F9A0E942C1484788438D9F3D5CF67
:102B60000E94251488EC90E00E9427142E9882E0A1
:102B700090E00E94B91B882329F060E082E090E099
:102B80000E94C11B84EF91E00E9427142E9A0E949C
:102B90002C1484718431D9F3BDCF0E94251482E0B6
:102BA00090E00E94B91B882331F03E9A3F9A81E061
:102BB0008093480104C0109248013E983F982E9897
:102BC000EEEE2E2E33243A94512CF4E88F2EF1E0C1
:102BD0009F2E08E010E00E942C1486FF04C02E9A5D
:102BE0002F9A2D9AA9C02CEF22162FEF320619F436
:102BF0002E9A2F9806C038E12316310411F42F9A2B
:102C00002D98952DF40191119FEF80E89193919368
:102C10009193919391939193919391938150B1F763
:102C200040EF24164FEF340694F480E00E94D30B5B
:102C30008BE190E00E94271450EF25165FEF3506D8
:102C400009F062C08AEF90E00E9427145DC09101F4
:102C500037FE04C022273327221933092770332770
:102C6000C10137FC079673E0959587957A95E1F752
:102C700037FE05C00197B801621B730B9B017C01F5
:102C8000F694FE2CEE24F794E79440E050E03801EF
:102C9000621A730AF701E058FF4F5F018F3FFFEFA1
:102CA0009F0744F40196485A5F4F7501403B510518
:102CB00089F7BBCFD701A85EBD4F60E070E08F3FC2
:102CC000EFEF9E0709F473C4FB01E40FF51FED5D00
:102CD000FD4F44906D01CA18DB08CE0CDF1CE42DBB
:102CE000F0E0022E02C0EE0FFF1F0A94E2F7FB8312
:102CF000EA83F6014080EA81FB81E429FB83EA83D1
:102D00004A80F601408253C42FEF221A320A39E179
:102D10002316310409F05FCF8CEB92E00E94271458
:102D20000E942514E0919805F09199050190F08199
:102D3000E02D88E995E0099582E390E00E94271450
:102D40000E942C148111F8CF10927A0181E28093B5
:102D50009F0525E0422E512CEE24E394F12C4EE108
:102D6000242E312C54E8C52E55E0D52E98ECA92EF2
:102D7000B12C2FB7F8948091490190914A01A0910C
:102D80004B01B0914C012FBF4091A4055091A50576
:102D90006091A6057091A7052091A805222341F016
:102DA0002091A005821B8093A9051092A805F7C366
:102DB00084179507A607B70738F4481B423008F474
:102DC000EEC30E943414EBC321E02093A805809346
:102DD000A0059093A105A093A205B093A30520910F
:102DE0009F05820F911DA11DB11D8093A405909395
:102DF000A505A093A605B093A70580919B0590918A
:102E00009C05019690939C0580939B0520E04EE7DE
:102E10005AE060E070E080E090E00E94E8131091DA
:102E20007901212F4CE55AE06AE270E086E290E0F9
:102E30000E94E81380919B0590919C05B2010E942D
:102E40001F1C892B29F421E0210F23702093790185
:102E500010917801112309F468C0EFEFE10FF0E061
:102E6000EE0FFF1FE45FFE4F40815181FA01949005
:102E7000892D869500E4081B60907601709077019B
:102E8000143069F4FAE06F16710444F024E6621617
:102E9000710414F40CE301C008E3081B055020E0A2
:102EA00062E070E0802F90E00E94E8131430E9F5B2
:102EB000302F390D05E0030F44E6641671049CF0D1
:102EC000C30164E670E00E94331C262F4AE05AE0FA
:102ED00062E070E0802F90E039830E94E81339812E
:102EE0000CE0030F04C05AE065167104ACF0C30196
:102EF00064E670E00E94331C6AE070E00E94331CBC
:102F0000262F882E4AE05AE062E070E0802F90E0A1
:102F10000E94E813095F682C262D4AE05AE062E01F
:102F200070E0802F90E00E94E81363E771E07B83FC
:102F30006A833B0101E1802E912CF30121913F0135
:102F4000222341F021504EE059E06FE070E0C401CF
:102F50000E94A413FCE28F0E911C25E982169104B5
:102F600061F720919B0530919C05C90181709927DB
:102F700020FD0EC0309172013130A1F4EA81FB8155
:102F800020812530D8F4FC01ED58FE4F2F5F2083BF
:102F900026E531E03B832A83490166246394712C42
:102FA0000CE237C0323051F4EA81FB8120812223C8
:102FB00029F0FC01ED58FE4F2150E9CF01964A81DE
:102FC0005B814F5F5F4F5B834A8383309105A1F63E
:102FD000DFCF6091700170E080916F0148E756E0AB
:102FE00090E00E94A41380916F0190916E01891767
:102FF000C9F090916D01890F80936F01FFEF6F1AF7
:103000007F0A24E0820E911C36E06316710409F4F5
:1030100047C02FEF260D8091710190E0861597052E
:10302000E9F4D7CF8091700190916C01891731F04C
:1030300090916B01890F80937001E0CF80916A01BC
:10304000813019F452E050936A0180916A01833013
:10305000A9F61092710110926A01D0CFF40180811B
:103060009181009759F2428153814115510531F206
:10307000B701641B750BA3E0660F771FAA95E1F7F4
:10308000635D7F4FAC0141505109049FC001059F12
:10309000900D112448E756E003960E94A413AECF8A
:1030A00080917A01813031F138F0823009F47BC0AF
:1030B000833009F4CBC15BC280919B0590919C0544
:1030C000B1010E941F1C892B41F4133020F41F5FB3
:1030D0001093780102C0109278010E942C1488236A
:1030E00009F445C281E080937A01109278018093BF
:1030F00072013DC280917501853009F038C280911E
:103100006A01811134C280E090E0482FEA81FB819E
:10311000608171819C012F5F3F4F672B81F4880F85
:10312000991F880F991FFC01EA5AFE4FF182E08235
:103130003383228381E0840F809371010AC0C90127
:103140002A813B812C5F3F4F3B832A838530910549
:10315000E1F6909171019923C1F083E080936A01B7
:1031600080936F0180936E0185E080937001A701C9
:10317000491B5109CA01880F880F880F835D80930E
:103180006C0182E080936B01F2C182E080937A014E
:1031900081E080935501109277011092760184E0CE
:1031A00080937801E4C180915401882321F08150FB
:1031B00080935401DCC10E942C1485FF0AC09091B9
:1031C0005501923030F091509093550196E09093D4
:1031D000540186FF0AC090915501933030F49F5FEF
:1031E0009093550196E09093540190916A0192302A
:1031F00009F0B9C0982F9C7109F4B5C060917101B4
:10320000962F10915501A12FB0E09530ECF554E0C8
:103210009502F0011124EA5AFE4F208131812A17CC
:103220003B0781F590914D0191119DC090917100E6
:103230009D7F9093710010925201D0925101C092E3
:103240005001D0924F01C0924E0160E570E0709342
:10325000850560938405B0928705A092860510923B
:10326000890510928805B0928B05A0928A05E0E04E
:10327000F0E8F0938D05E0938C0589830E94981205
:10328000898171C09F5FC1CF00E091E070E09B0138
:1032900021503109402F002E000C550B46175707BF
:1032A00094F44217530769F0440F551F440F551FFC
:1032B000FA01EA5AFE4F408151814A175B0709F42F
:1032C0009F5F0F5FE7CF220F331F220F331FF901DC
:1032D000EA5AFE4F0190F081E02DBF016150710963
:1032E000BCE26B9FA02D1124AD5FA0936F01612FF5
:1032F00070E0AB01415051094B9F402D11244D5FAF
:1033000040936E01A41710F444E001C04CEF4093C9
:103310006D0145E040937001492F50E0D701A41B97
:10332000B50BAA0FAA0FAA0FA35DA0936C0192E0A0
:1033300090936B01E617F70749F0E0917601F09161
:1033400077013196F0937701E0937601F901EA5A1B
:10335000FE4F718360835383428393E090936A01AD
:1033600096E09093540190916A0191114AC08C7833
:1033700009F447C08091550190E024E030E0422FED
:10338000EA81FB81608971896817790769F501977E
:103390009CE2899F802D11248D5F80936F01809323
:1033A0006E01220F331F220F331FF901EA5AFE4F1D
:1033B000828193819701281B390BC901880F880FDF
:1033C000880F835D8093700185E080936C018EEFA0
:1033D00080936B014F5F4093710181E080936A019C
:1033E00086E0809354010DC0215031094A815B81F0
:1033F000445051095B834A832F3F5FEF350709F043
:10340000BECF80916A018111B2C080916601909116
:103410006701039709F0ABC0809168019091690141
:10342000059709F0A4C083E080937A0182E080933D
:1034300072018091760190917701809724F481E068
:103440008093530194C01092530191C080917501F3
:1034500081118DC080919B0590919C056DE270E07B
:103460000E941F1C892B99F4143021F0173061F44D
:1034700084E00BC08091760190917701809714F4DD
:1034800086E003C085E001C087E080937801109159
:103490005301112319F12091550130E021503109D8
:1034A0004CE2429FC001439F900D1124212F4CED0F
:1034B00054E065E070E00D960E94A41380919B0596
:1034C00090919C05B2010E941F1C892B39F4123087
:1034D00010F482E001C081E08093530120915501F6
:1034E000222389F030E0215031094CE2429FC00193
:1034F000439F900D112420E04EE453E06DE070E016
:1035000003960E94A41380914D01811114C08091F3
:1035100071008D7F8093710081E0809352018AE772
:1035200095E0909351018093500190934F018093C7
:103530004E010E9498120E942C148823C1F00E9410
:103540002C148111FCCF0E948C1210927A011092DF
:10355000780110925501EA81FB8111821082138259
:1035600012823496FB83EA83EA56F140A1F7209158
:103570005501222389F030E0215031094CE2429F6D
:10358000C001439F900D112420E040EE52E065E31E
:1035900070E006960E94A41381E00E94D30B80E0A5
:1035A00090E0892B09F4E5CB0E940000DFCB2115C8
:1035B000310581F0FB01E40FF51FED5DFD4FE49156
:1035C000F0E0062C02C0F595E7950A94E2F7DC904E
:1035D000ED29EC936F5F7F4F11966835710509F007
:1035E0006ECB60CBCF92DF92EF92FF920F931F933F
:1035F000CF93DF931F92CDB7DEB7182F062FE42E9F
:10360000862F880F8E5F99830E94451483E00E9465
:103610004514F12EC12E9981D92E8C2D8F1980172A
:1036200098F4F601E7FE02C0849101C080810E94F7
:103630004514182F80E00E9445148123FFEFCF1A14
:10364000DF0A8111EACF01C081E00F90DF91CF91B5
:103650001F910F91FF90EF90DF90CF900895EFEBC7
:10366000F5E01382128288EE93E0A0E0B0E084835C
:103670009583A683B78385E291E0918380838FEF62
:103680009FEF95878487E4E9F5E013821282118623
:10369000128620E1238790878783108A118A128AF5
:1036A000138A148A87E391E09183808385E491E013
:1036B00095838483178A168A118E108E81E0828FFB
:1036C000138E848F158E83EE90E1909393058093F3
:1036D000920580E090E8909391058093900546983C
:1036E0003E9A47983F9A08950F931F93CF93DF9385
:1036F0008C0181E090E00E94B91B80FF32C08AE01B
:1037000090E00E94B91B9FEF980F9E3F50F522E377
:1037100030E0D80157963C932E93569728E330E03B
:1037200059963C932E935897CBE0D0E0D801ED9179
:10373000FC910190F081E02D682FC8010995CE0120
:103740000E94B91B2196C131D10581F780E00E940A
:10375000D30B88EE93E0DF91CF911F910F910C94E2
:103760002714DF91CF911F910F91089504970C9426
:10377000741BF999FECF92BD81BDF89A992780B547
:103780000895262FF999FECF1FBA92BD81BD20BDA5
:103790000FB6F894FA9AF99A0FBE01960895052E7D
:1037A00097FB1EF400940E94E61B57FD07D00E9471
:1037B000EE1B07FC03D04EF40C94E61B509540958D
:1037C000309521953F4F4F4F5F4F089590958095CD
:1037D000709561957F4F8F4F9F4F0895A1E21A2EEC
:1037E000AA1BBB1BFD010DC0AA1FBB1FEE1FFF1FA5
:1037F000A217B307E407F50720F0A21BB30BE40BF5
:10380000F50B661F771F881F991F1A9469F760953B
:103810007095809590959B01AC01BD01CF010895F5
:10382000A29FB001B39FC001A39F700D811D112401
:10383000911DB29F700D811D1124911D0895AA1B29
:10384000BB1B51E107C0AA1FBB1FA617B70710F08B
:10385000A61BB70B881F991F5A95A9F780959095BD
:10386000BC01CD01089597FB072E16F4009407D0F4
:1038700077FD09D00E941F1C07FC05D03EF49095EF
:1038800081959F4F0895709561957F4F0895EE0F34
:10389000FF1F0590F491E02D099481E090E0F894E9
:0838A0000C94521CF894FFCFB8
:1038A800FFFFFFFF00E1000000000000FF01BB0177
:1038B8008C0166012901F200AC0000C18081000082
:1038C8000000000000740AF50A950A8A0ADB0A99C2
:1038D8000AB70A00000000E6108B0E0312021274E9
:0838E8001BFCFF0000B61B00F1
:00000001FF
