:1074000020E8209361001092610081E085BF32E0A6
:1074100035BF87EE84B981EF85B91DB8769A10BA69
:1074200080EF81BB80E58CBD81E08DBD84EF8AB9A2
:1074300084E68BB9A2E2B3E0E3E1F1E003E010E11E
:1074400001900D921A95E1F7A059BF4F0A95B9F72F
:1074500084EA8BB9E7E0F1E042D0E331E9F747D0C5
:10746000109289008AEF8093880030936F0083E048
:107470008093810081E08093D7008AE482BF1092DC
:10748000D8001092E2001092DA001092E10080E839
:1074900008D019BC1EBA1092E00058D489E044D438
:1074A00081E98093D80008950ED09E2F8F2F8F7181
:1074B0008062990F881FE8F713D080E18D1B8F70D1
:1074C000890F0ED080E05E9A5A980AC005D085E0F8
:1074D000FADF06D080FDFDCF5A9A5E98089581911B
:1074E0008EBD8DB5000087FFFCCF8EB50895EAEE06
:1074F000F1E090EB5C98892FF3DF80E1F1DF5C9A9B
:10750000EEDF8AEE8E278F77D9F79395983B91F728
:107510000895E7EDF1E08191908101969083829347
:10752000092E0AF400940091E90106FB5EF0009632
:10753000929111F493959083000C081620F42E9AE2
:107540002F9A2D9A0895937009F42E98913009F48A
:0A7550002F98923009F42D98089549
:10755A0041524455424F59D5F08D14A1C881CFD913
:10756A00F1AF000000FFFFCFCFFFFFFFFFCFCFFF3C
:10757A00FF0000FE067E7E06FE46565616FE06569C
:10758A00461EFE3F61E9E3FFE3EBE3FFE3EBE3FFC4
:10759A00E16B3F120110010200000841233600018D
:1075AA00000201000109023E0002010080320904C2
:1075BA000000010202010005240010010424020453
:1075CA000524060001070582030800FF09040100DB
:1075DA00020A0000000705040210000107058302E1
:1075EA0010000104030904220341007200640075BB
:1075FA000069006E006F0020004C0065006F006E8D
:10760A00006100720064006F001803410072006498
:10761A0000750069006E006F0020004C004C0043AA
:02762A0000005E
:1078000011241FBE8DEF9AE09EBF8DBF04B714BE3A
:1078100088E18093600010926000409100085091D0
:1078200001086F917F919DC00F928F939F931F923C
:107830000FB60F9211244F936F938091DA0080FF5F
:1078400043C02FC00F920FB68F939F93EF93FF9378
:10785000882780938500809384009091E90195FBAF
:1078600076F0E2EDF1E090818917980B919309F49D
:107870005D9A90818917980B908309F4289A7C9BD4
:1078800005C098D319F0C10101961C01FF91EF9139
:107890005CC080E189BD82E189BD09B400FEFDCFF5
:1078A00008958091D80080FF0FC08091DA008E7F0C
:1078B0008093DA008091D90080FF04C0EADF81E084
:1078C0008EBB02C019BC1EBA8091E10080FF0BC0C4
:1078D00025D280FF08C025D28091D8008062E1DDEA
:1078E00019BC85E08EBB8091E10084FF1AC016D2DE
:1078F00084FF17C0CEDF8091D8008F7DD2DD8FEE60
:107900002AD00CD28F7E81600FD28091D90188233A
:1079100031F48091E30087FD02C081E001C084E082
:107920008EBB8091E10083FF0CC0F8D183FF09C0BA
:1079300087EF11D082E08EBB1092D9010BD0F1D12C
:1079400005D26F914F910F901F909F918F910FBE15
:107950000F9018958EEF0090E10008220092E10050
:10796000089510BA80E181BBA0E0B1E0EAE5F5E757
:1079700005900D92A13DE1F71D92BB30E9F701FDA5
:107980000FC000FF03C07C9B0BC008C003FF08C0F2
:107990006757774729F04757574711F00BD359F4EA
:1079A0002FDD7894222433243FD0F4D2B2DDC101FC
:1079B0008C519542C8F3F89481E08093E0001092D6
:1079C0006F0010928100109285001092840081E077
:1079D00085BF15BEB4DD5D9A289A0C94000099D13C
:1079E00007C047D102C0D3D239F095D182FFFBCF77
:1079F00085FFF7CF8091F1000895082E83E08AD1AA
:107A000085FD07C07FD102C0C2D269F084D180FF5A
:107A1000FBCF0092F1008091E90185FB26F05D9893
:107A200084E68093D201089574D182FF3CC1809195
:107A3000E90185FB26F0289884E68093D301CFDF07
:107A4000182FF201853431F488E293E21C01B8D298
:107A50008DE0FAC0843511F4C2DFFACF8C34C1F363
:107A60008035B1F3843721F484E4C7DF80E0ECC0D3
:107A7000813611F489E5E8C0813431F4B0DFF82FA4
:107A8000AEDFE82FB2D2E4CF803711F483E5DCC05B
:107A9000833539F4C0E0D1E08991AFDFC730E1F739
:107AA000D4C0863521F481E3A8DF83E3CDC08637D7
:107AB00061F481E3669B8E5F1C9B8F5F9EDF8FB1BD
:107AC000809582958F708F5BBFC0883799F487DF70
:107AD0008093E901289A84FD28985D9A83FD5D983A
:107AE0002E9A81FD2E982F9A82FD2F982D9A80FD37
:107AF0002D98AECF833731F487E87FDF85E97DDFCE
:107B00008EE1A2C0853639F4E0E8F3E7C4D0E0584E
:107B1000F040E0F79DCF823631F489E56EDF80E0FA
:107B20006CDF80E891C0823419F0873609F078C0A4
:107B30002224332454DFD82F52DFC82F50DF082FE0
:107B40008354843008F07FC010926F001736A9F478
:107B5000033441F483E0A8DCC3DC4FDF2197E1F775
:107B6000BBDC09C006C0063411F4859101C030D2D7
:107B700044DF2197C2F72F014FC00334C9F486E0D8
:107B8000A2DCAADC80E290DCA1DC86E09CDCA4DC48
:107B900082E08ADC24DFA4DCCA95E1F797DCDA9581
:107BA0008D2F8F7091F73296DD2349F72F0132C068
:107BB0004F010634F9F4F437E8F46DD01BC00FDF41
:107BC000063461F4C0FB46F0F43728F4182E81E047
:107BD00087BFE89511243296082E0CC0043449F46E
:107BE000AAEEB1E09F2F9370AE0FB91F8D9331961F
:107BF00001C0F2D121971AF72F01043429F4F37050
:107C0000FE2B41F474DC06C0063421F4F401F43791
:107C100008F43FD08DE0F1DE82E080936F0015C064
:107C20008237E1E049F08634E0E031F08E34E3E081
:107C300019F0813531F4E2E0F0E089E087BF84910A
:107C400003C08B3111F08FE3D8DE83E0B0D15AD07E
:107C500095FF03C009C09BD131F15DD080FFFBCF00
:107C600051D002C094D1F9F056D080FFFBCF84E010
:107C70009ED18BE748C0F437B0F490E40D901D908E
:107C800081E087BFE89532969A95C1F71124E058B4
:107C9000F04085E001C083E001D081E187BFE89535
:107CA00007B600FCFDCF08959091E1018091E201BB
:107CB000913231F0913A61F5813251F538D087C077
:107CC000803231F534D063D1E9F08530D9F023D05A
:107CD00083FD18C082FFF7CF04C08CDE8193615012
:107CE00031F09091F3008091F200892BB1F7C1DF60
:107CF000611549F704C04BD129F0853019F00BD03C
:107D000080FFF9CF8EE79091E80089238093E80007
:107D1000089584E04CD18091E80008958091E200BC
:107D20000895FCDF8E7F80618093E20008952DD15D
:107D3000EAEDF1E067E0089582E061EC09D083E0CC
:107D400061E802D084E060E842E103C080E060E0E6
:107D500042E02DD181E007D01092ED006093EC005D
:107D60004093ED0008959091EB00892B8093EB00F8
:107D7000089560E0923039F0933041F0913099F4F9
:107D8000E3E462E110C0E5E56EE30DC0813018F474
:107D9000E3E964E008C019F4E7E962E204C0823074
:107DA00011F4E9EB68E1F1E008958091E1018823A5
:107DB0004CF402C0ECD051F0AEDF82FFFBCF59CFC4
:107DC000E6D021F0A8DF80FFFBCF9CDF0895409133
:107DD000E7015091E8014617510510F490E028C0E2
:107DE000611511F0462FFACF8DDF40E0F7CFCFD0ED
:107DF00059F1853049F18FDF83FD3BCF8CDF82FD68
:107E000020C080FF15C03091F3002091F20005C022
:107E100081918093F10041502F5F411519F0283076
:107E20003105B0F350E02830310509F451E06ADF44
:107E30004115E9F65523D9F604C0A9D029F08530BB
:107E400019F069DF82FFF9CF14CFE1EEF1E0D2DD66
:107E50008193E93EE1F728DF5EDF83FF91C08091E7
:107E6000E1019091E201913009F170F09330F1F06D
:107E7000953009F444C0963009F456C0983009F49E
:107E800060C0993059F767C0823841F78091E501A9
:107E90008DD02091EB001092E90077D022952695A5
:107EA00021702093F1001092F10052C0882311F04C
:107EB0008230A1F68F71823089F68091E3018823A8
:107EC000D1F42091E501277049F22093E9008091D7
:107ED000EB0080FF10C0933011F480E20BC080E112
:107EE00042DF81E0880F2A95E9F78093EA0010923B
:107EF000EA0088E038DF1092E90047D02AC08823E2
:107F000091F41091E30110680FB7F8943ED04DDF63
:107F100002DF80FFFDCF1093E300103883E009F407
:107F200082E08EBB0FBF2CC08058823048F5809114
:107F3000E3019091E4011DDF603011F126D047DFAD
:107F40001FC08038E9F421D08091D9018093F100DD
:107F5000D9DE2BDF15C0882399F49091E30192308C
:107F600078F49093D90111D020DF8091D901882332
:107F700021F48091E30091E087FD94E09EBBDCDE7C
:107F8000CADE83FF089580E2EEDE87EFBCCE8EB3BB
:107F900088230895FCDF69F08091E9008F931092A7
:107FA000E900B9DE83FF01C050DF8F9187708093B5
:107FB000E9000895E0E0F0E085919491019608953C
:107FC000F201F695E795F999FECFF2BDE1BD08956E
:107FD000F7DFF89A80B508C0F3DF1FBA80BD0FB68F
:107FE000F894FA9AF99A0FBE3196EE0FFF1F2F01FF
:027FF0000895F2
:047FFC003CCEFBDCA0
:040000030000740085
:00000001FF
