:10740000E2EEF1E08DD38193EA3EE1F7F4D40FD5BB
:1074100083FFAEC08091E2019091E301913039F198
:1074200078F0933021F1953009F44DC0963009F48D
:1074300067C0983009F47BC0993009F482C098C0C5
:10744000803809F495C0823809F092C08091E60135
:107450008770A2D08091EB001092E900DFD4829572
:10746000869581708093F1001092F10067C08823A7
:1074700019F0823009F07CC08F71823009F078C039
:107480008091E4018823D9F42091E601277009F462
:107490006FC02093E9008091EB0080FF10C0933013
:1074A00011F480E20BC080E1E8D481E0880F2A95D6
:1074B000E9F78093EA001092EA0088E0DED41092A7
:1074C000E900ACD43CC0882309F052C01091E4011B
:1074D0001F770FB7F894A2D4F3D4A9D480FFFDCFBF
:1074E0008091E3008078812B8093E3008068809313
:1074F000E300112383E009F482E08EBB0FBF38C0A4
:107500008058823008F034C08091E4019091E50108
:107510006091E601AE01B7D4603009F429C07091E2
:10752000E800777F7093E800E0D47AD421C08038F7
:10753000F9F474D48091E1018093F1006DD4C0D44A
:1075400017C08823A9F49091E401923088F466D49E
:107550009093E101B5D48091E101882331F48091C9
:10756000E30087FD02C081E001C084E08EBB71D4DE
:107570005ED483FF089580E280D450C48EB3882304
:1075800069F08091E9008F931092E90050D483FF55
:1075900001C036DF8F9187708093E900089520E85D
:1075A000209361001092610081E085BF32E035BF19
:1075B00087EE84B981EF85B91DB8769A10BA80EF4D
:1075C00081BB80E58CBD81E08DBD89EB8AB988E205
:1075D0008BB9A3E2B3E0E8EAF1E005E010E1019045
:1075E0000D921A95E1F7A059BF4F0A95B9F780EAB5
:1075F0008BB9ECE9F1E068D0E83AE9F76BD0E1E665
:10760000F0E020831082109289008AEF8093880036
:1076100030936F0083E0809381000895E7EDF0E000
:107620008081816080838AE482BFE8ED29D0109256
:10763000E2001092DA001092E10080818F7780835F
:10764000806880838F7D808319BC1EBA1092E1010F
:10765000E0EE80818B7F8083E8ED80818160808394
:1076600080E060E042E0FFD3E1EE0AD0E3D389603E
:10767000E8D3E0EE05D0E8ED808180618083089555
:1076800080818E7F80830895E0E0F0E08591949181
:1076900001960895F695E795F999FECFF2BDE1BD03
:1076A000F89A80B50DC0F695E795F999FECF1FBA07
:1076B000F2BDE1BD80BD0FB6F894FA9AF99A0FBEFB
:1076C0003196EE0FFF1F089581918EBD8DB587FF16
:1076D000FDCF0895EBEEF1E090EB5C98892FF5DF9C
:1076E00080E1F3DF5C9AF0DF8BEE8E278F77D9F79E
:1076F0009395983B91F708958093EA01289A84FD29
:1077000028985D9A83FD5D982E9A81FD2E98589A4F
:1077100082FD58982D9A80FD2D9887FB8FEA0EF4F4
:067720008EEA5C98D2CF56
:1077260041524455424F5900000000000008120122
:107736001001020000084123360001000201000189
:1077460009023E0002010080320904000001020223
:10775600010005240010010424020405240600018A
:10776600070582030800FF09040100020A00000061
:107776000705040210000107058302100001040337
:1077860009042203410072006400750069006E005E
:107796006F0020004C0065006F006E0061007200F3
:1077A60064006F00180341007200640075006900F0
:1077B6006E006F0020004C004C004300D5F08D1485
:1077C600A1C881CFD9F1AF020000FFFFCFCFFFFFE5
:1077D600FFFFCFCFFFFF0000FE067E7E06FE465669
:1077E6005616FE0656461EFE3F61E9E3FFE3EBE34F
:0877F600FFE3EBE3FFE16B3F51
:10780000F89453C0FDCF68CFFBCF0895F9CF08950A
:10781000F7CF0895F5CF0895F3CF0895F1CF0895E8
:10782000EFCF0895EDCF08950F92DFC0E9CF08950F
:10783000E7CF0895E5CF0895E3CF0895E1CF089508
:10784000DFCF08950F92AAC0DBCF0895D9CF089556
:10785000D7CF0895D5CF0895D3CF0895D1CF089528
:10786000CFCF0895CDCF0895CBCF0895C9CF089538
:10787000C7CF0895C5CF0895C3CF0895C1CF089548
:10788000BFCF0895BDCF0895BBCF0895B9CF089558
:10789000B7CF0895B5CF0895B3CF0895B1CF089568
:1078A000AFCF0895ADCF0895ABCF11241FBECDEF5C
:1078B000DAE0DEBFCDBF94B714BE88E180936000EC
:1078C00010926000A0E0B1E0E6E2F7E705900D92CB
:1078D000A83DE1F715E01D92AB3EB107E1F79F939C
:1078E0005EDE9F91E0E0F8E04191508110821292BB
:1078F0006F917F9191FD10C090FF04C07C9B0CC0E4
:10790000C3DEA1F493FF08C06757774729F04757B4
:10791000574711F0B9DE51F481DE7894ECD01CD1D8
:107920002DDE18D0E3D08C549D41C8F3F89481E04B
:107930008093E00010926F001092810010928500F9
:107940001092840081E085BF15BE1AD05D9A289AF6
:107950000C940000EFEDF1E081919081019690830D
:107960008293092E0AF400940091EA0106FB5EF06E
:107970000096929111F493959083000C081620F4D0
:107980002E9A589A2D9A0895937009F42E98913052
:1079900009F45898923009F42D9808950FB68F93F2
:1079A0009F93EF93FF9388278093850080938400B3
:1079B0009091EA0195FB76F0E8EDF1E0908189176E
:1079C000980B919309F45D9A90818917980B908395
:1079D00009F4289A7C9B06C057DE21F087D00196D7
:1079E00090838293FF91EF917CC08F939F931F921E
:1079F0000FB60F9211244F936F938091DA0080FF9E
:107A000019C08091D80080FF15C08091DA008E7F68
:107A10008093DA008091D90080FF0AC080E189BD9F
:107A200082E189BD09B400FEFDCF81E08EBB02C0BA
:107A300019BC1EBA8091E10080FF0CC0FBD180FF11
:107A400009C0FBD18091D80080628093D80019BC16
:107A500085E08EBB8091E10084FF25C0EBD184FFDF
:107A600022C080E189BD82E189BD09B400FEFDCF5D
:107A70008091D8008F7D8093D8008091E1008F7E27
:107A80008093E100D7D18F7EDCD18160DAD1809103
:107A9000E101882331F48091E30087FD02C081E099
:107AA00001C084E08EBB8091E10083FF16C0C2D18B
:107AB00083FF13C08091E100877F8093E10082E023
:107AC0008EBB1092E1018091E1008E7F8093E100F6
:107AD000B4D180E060E042E0C6D16F914F910F9049
:107AE0001F909F918F910FBE0F901895EAEDF1E0D6
:107AF00081919081089580E090E08093DA019093E5
:107B0000DB01089584E048DD08C08AD103C08EB34C
:107B1000882341F08CD182FFFACF89D185FFF5CF40
:107B20008091F1000895082E83E036DD80D185FD37
:107B300008C072D103C08EB3882369F078D180FF6A
:107B4000FACF0092F1008091EA0185FB26F05D9862
:107B500084E68093D801089584E01EDD68D182FF19
:107B60003BC18091EA0185FB26F0289884E680934A
:107B7000D901C8DF182F853451F488E59BE1BDDFBA
:107B800036D1F999FECF81E187BFE89503C08435EE
:107B900019F4B8DF8DE008C18C34E1F38035D1F3FE
:107BA000843721F484E4BFDF80E0FEC0813611F425
:107BB00089E5FAC0813431F4A5DFF82FA3DFE82F7F
:107BC00080DDE6C0803711F483E5EEC0833539F4FB
:107BD000C0E0D1E08991A7DFC730E1F7E6C0863584
:107BE00021F481E3A0DF81E3DFC0863761F481E324
:107BF000669B8E5F1C9B8F5F96DF8FB18095829511
:107C00008F708F5BD1C0883719F47CDF75DDC2CFF0
:107C1000833731F487E887DF85E985DF8EE1C4C0EB
:107C2000853679F4E0E0F0E093E085E097BFE895F1
:107C3000DED087BFE895DBD0E058FF4FF437B1F7CF
:107C4000A9CF8237E1E049F08634E0E031F08E34AC
:107C5000E3E019F0813531F4E2E0F0E089E087BF3C
:107C60008491A2C0823631F489E55DDF80E05BDF7C
:107C700080E89AC0823419F0873609F05EC03BDF95
:107C800041DFD82F3FDFC82F3DDF082F84548330DA
:107C900008F089C010926F00A0D0173609F00EC00E
:107CA00081E187BFE89506C0063411F4859101C0D3
:107CB000F1DC39DF2197C2F795D03BC04F01063484
:107CC00019F5F43708F583E087BFE89590D01CC01C
:107CD00019DF063469F4C0FB4EF0F43728F4182E8F
:107CE00081E087BFE895112432960EC0082E0CC0A3
:107CF000043449F4ABEEB1E09F2F9370AE0FB91F7F
:107D00008D93319601C0CFDC219712F76BD00434EC
:107D100029F4F370FE2B59F4DDDC09C0063439F484
:107D2000F43728F485E0F40187BFE89560D08DE052
:107D3000FADE82E080936F0038C0833439F44DD08E
:107D4000E1DE082E81E087BFE89524CF833651F429
:107D500044D0D8DEE1600C0181E087BFE895319620
:107D600041D018CF8D3641F438D0F43720F485E077
:107D700087BFE8953CD00ECF823529F42ED085916F
:107D8000D2DE849111C0843429F4BCDE26D08BDC91
:107D900029D000CF843629F420D07CDCC4DE22D068
:107DA00004C08B3111F08FE3BEDE83E0F5DB34D00D
:107DB00095FF04C00BC08EB3882371F038D080FFCC
:107DC000FACF2AD003C08EB3882331F030D080FFA1
:107DD000FACF84E0E1DB24D00895E091DC01F0915A
:107DE000DD010895E093DC01F093DD01089507B60D
:107DF00000FCFDCF08959091E2018091E301913262
:107E000039F0913A99F4813289F41ED06ED008C0CD
:107E1000803261F419D0B5D08EE703C087EF01C07E
:107E20008BE79091E80089238093E8000895809182
:107E3000E80008958091E2000895FCDF8E7F01D074
:107E400080618093E2000895E9DF87E091E067E0D8
:107E5000089582E061EC42E006D083E061E802D060
:107E600084E060E842E198DB81E007D01092ED0009
:107E70006093EC004093ED0008959091EB00892B06
:107E80008093EB000895923039F0933041F09130B7
:107E9000A1F48EE062E112C080E26EE30FC0813097
:107EA00018F48EE564E00AC019F482E662E206C0C6
:107EB000823019F484E868E101C060E091E008953F
:107EC0008091E20188235CF403C08EB3882361F0C3
:107ED000AEDF82FFFACFA4CF8EB3882329F0809142
:107EE000E80080FFF9CF98DF0895FC014091E80198
:107EF0005091E9014617510510F490E02FC061152B
:107F000011F0462FFACF88DF40E0F7CF8EB38823F9
:107F100009F433C0853009F432C089DF83FF02C021
:107F200081E0089584DF82FD23C081DF80FF16C0D9
:107F30003091F3002091F20005C081918093F1000F
:107F400041502F5F411519F028303105B0F350E052
:107F50002830310509F451E08EE763DF4115B1F6B1
:107F60005523A1F605C08EB3882339F0853039F04A
:107F70005EDF82FFF8CF80E0089582E0089583E01D
:107F80000895FC01611509F44BDF18C08EB38823F6
:107F900011F1853011F14BDF83FF02C081E00895BC
:107FA00082FFF4CF04C0BCDD8193615031F0909129
:107FB000F3008091F200892BB1F732DF611531F7C0
:107FC00005C08EB3882339F0853039F030DF80FF6B
:0E7FD000F8CF80E0089582E0089583E00895E0
:027FFE00FBDCAA
:040000030000740085
:00000001FF
