:1078000011241FBE8DEF9AE09EBF8DBF04B714BE3A
:1078100088E18093600010926000409100085091D0
:1078200001086F917F9197C00F928F939F931F9242
:107830000FB60F9211244F936F938091DA0080FF5F
:107840003DC029C00F920FB68F939F93EF93FF9384
:1078500088278093850080938400E6E9F1E0908199
:107860008917980B919309F45D9890818917980B6B
:10787000908309F4289857D319F0C10101961C018F
:10788000FF91EF915CC080E189BD82E189BD09B4BF
:1078900000FEFDCF08958091D80080FF0FC0809139
:1078A000DA008E7F8093DA008091D90080FF04C0D7
:1078B000EADF81E08EBB02C019BC1EBA8091E100F4
:1078C00080FF0BC0B3D180FF08C0B3D18091D80036
:1078D000806271D219BC85E08EBB8091E10084FF8B
:1078E0001AC0A4D184FF17C0CEDF8091D8008F7D4D
:1078F00062D28FEE2AD09AD18F7E81609DD1809105
:107900009D01882331F48091E30087FD02C081E06E
:1079100001C084E08EBB8091E10083FF0CC086D162
:1079200083FF09C087EF11D082E08EBB10929D01CA
:107930000BD07FD193D16F914F910F901F909F915A
:107940008F910FBE0F9018958EEF0090E1000822E6
:107950000092E1000895A0E0B1E0E4E6FFE70590C1
:107960000D92A539E1F71D92BB30E9F701FD0DC07D
:1079700000FF01C008C003FF08C06757774729F020
:107980004757574711F0CFD251F4E7D178942224CA
:10799000332439D0B8D2C10180549F41D0F3F89438
:1079A00081E08093E00010926F00109281001092AD
:1079B00085001092840081E085BF15BE5D982898EF
:1079C0000C9400002ED107C0DBD002C099D239F050
:1079D0002AD182FFFBCF85FFF7CF8091F100089578
:1079E000082E83E01FD185FD07C014D102C088D2C4
:1079F00049F019D180FFFBCF0092F1005D9A84E637
:107A00008093960108950DD182FFD5C0289A84E60F
:107A100080939701D7DF182FF201853431F48CE47D
:107A20009DE11C0186D28DE096C0843511F4CADF39
:107A3000FACF8C34C1F38035B1F3843721F484E478
:107A4000CFDF80E088C0813611F489E584C08134BD
:107A500031F4B8DFF82FB6DFE82F80D2E4CF8037DB
:107A600011F483E578C0833539F4C0E0D1E0899121
:107A7000B7DFC730E1F770C0863521F481E3B0DFAE
:107A800082E369C0833731F487E8AADF85E9A8DF9C
:107A90008EE161C0853639F4E0E8F7E784D0E0583C
:107AA000F040E0F7C0CF823631F489E599DF80E01D
:107AB00097DF80E850C0823419F0873609F037C06C
:107AC000222433247FDFD82F7DDFC82F7BDF082FD0
:107AD0008554823008F03EC010926F00173659F47A
:107AE00006C0063411F4859101C02BD279DF2197AD
:107AF000C2F72F0118C04F01063461F454D00AC0F8
:107B000061DF063431F4C0FB16F0182E46D0082E83
:107B100001C01BD22197A2F72F01063411F4F40102
:107B20003AD08DE05DDF82E080936F0015C0823730
:107B3000E1E049F08634E0E031F08E34E3E019F022
:107B4000813531F4E2E0F0E089E087BF849103C041
:107B50008B3111F08FE344DF83E0E2D15BD095FFFE
:107B600003C009C0CDD139F15ED080FFFBCF52D028
:107B700002C0C6D101F157D080FFFBCF84E0D0D145
:107B80008BE749C010D090E40D901D9006D09A95D7
:107B9000D9F7E058F04085E007C081E087BFE8955D
:107BA00011243296089583E001D081E187BFE895E2
:107BB00007B600FCFDCF08959091A5018091A60124
:107BC000913231F0913A61F5813251F538D087C068
:107BD000803231F534D094D1E9F08530D9F023D01A
:107BE00083FD18C082FFF7CF04C0F7DE8193615098
:107BF00031F09091F3008091F200892BB1F7C0DF52
:107C0000611549F704C07CD129F0853019F00BD0FB
:107C100080FFF9CF8EE79091E80089238093E800F8
:107C2000089584E07DD18091E80008958091E2007C
:107C30000895FCDF8E7F80618093E20008955ED11D
:107C4000EEE9F1E067E0089582E061EC09D083E0BD
:107C500061E802D084E060E842E103C080E060E0D7
:107C600042E05ED181E007D01092ED006093EC001D
:107C70004093ED0008959091EB00892B8093EB00E9
:107C8000089560E0923039F0933041F0913099F4EA
:107C9000E7E062E110C0E9E16EE30DC0813018F465
:107CA000E7E564E008C019F4EBE562E204C0823065
:107CB00011F4EDE768E1F1E008958091A5018823D2
:107CC0004CF402C01DD151F0AEDF82FFFBCF58CF84
:107CD00017D121F0A8DF80FFFBCF9CDF08954091F2
:107CE000AB015091AC014617510510F490E028C04B
:107CF000611511F0462FFACF8DDF40E0F7CF00D1AC
:107D000059F1853049F18FDF83FD3ACF8CDF82FD59
:107D100020C080FF15C03091F3002091F20005C013
:107D200081918093F10041502F5F411519F0283067
:107D30003105B0F350E02830310509F451E06ADF35
:107D40004115E9F65523D9F604C0DAD029F085307B
:107D500019F069DF82FFF9CF13CF20E8209361008B
:107D60001092610081E085BF32E035BF209A2898EB
:107D7000559A5D98109289008AEF8093880030931D
:107D80006F0083E08093810081E08093D7008AE4D4
:107D900082BF1092D8001092E2001092DA00109286
:107DA000E10080E808D019BC1EBA1092E00056DF4E
:107DB00089E042DF81E98093D8000895E5EAF1E0A7
:107DC0000CDE8193ED3AE1F7F7DE2DDF83FF91C002
:107DD0008091A5019091A601913009F170F0933046
:107DE000F1F0953009F444C0963009F456C098304B
:107DF00009F460C0993059F767C0823841F7809123
:107E0000A9018DD02091EB001092E90077D0229546
:107E1000269521702093F1001092F10052C0882322
:107E200011F08230A1F68F71823089F68091A7011E
:107E30008823D1F42091A901277049F22093E90009
:107E40008091EB0080FF10C0933011F480E20BC0F2
:107E500080E111DF81E0880F2A95E9F78093EA003D
:107E60001092EA0088E007DF1092E90047D02AC0AC
:107E7000882391F41091A70110680FB7F8943ED0B1
:107E80001CDFD1DE80FFFDCF1093E300103883E0CC
:107E900009F482E08EBB0FBF2CC08058823048F5B9
:107EA0008091A7019091A801ECDE603011F126D0FD
:107EB00016DF1FC08038E9F421D080919D018093A6
:107EC000F100A8DEFADE15C0882399F49091A7018D
:107ED000923078F490939D0111D0EFDE80919D0156
:107EE000882321F48091E30091E087FD94E09EBB1C
:107EF000ABDE99DE83FF089580E2BDDE87EF8BCE97
:107F00008EB388230895FCDF69F08091E9008F9398
:107F10001092E90088DE83FF01C050DF8F918770E7
:107F20008093E9000895E0E0F0E085919491019656
:107F30000895F201F695E795F999FECFF2BDE1BDFE
:107F40000895F7DFF89A80B508C0F3DF1FBA80BD47
:107F50000FB6F894FA9AF99A0FBE3196EE0FFF1FFA
:047F60002F01089550
:107F64004341544859324B120110010200000841A8
:107F740023370001000201000109023E0002010052
:107F840080320904000001020201000524001001EE
:107F9400042402040524060001070582030800FFE7
:107FA40009040100020A0000000705040210000190
:107FB400070583021000010403090422034100722F
:107FC400006400750069006E006F0020004D0069B8
:107FD40000630072006F002000200020001803419D
:107FE4000072006400750069006E006F0020004C90
:067FF400004C00430000F8
:047FFC00C3CDFBDC1A
:040000030000780081
:00000001FF
