:10740000E7EAF1E040D38193EF3AE1F77AD495D4FB
:1074100083FFAEC08091A7019091A801913039F10E
:1074200078F0933021F1953009F44DC0963009F48D
:1074300067C0983009F47BC0993009F482C098C0C5
:10744000803809F495C0823809F092C08091AB0170
:107450008770A2D08091EB001092E90065D48295EC
:10746000869581708093F1001092F10067C08823A7
:1074700019F0823009F07CC08F71823009F078C039
:107480008091A9018823D9F42091AB01277009F4D8
:107490006FC02093E9008091EB0080FF10C0933013
:1074A00011F480E20BC080E16ED481E0880F2A9550
:1074B000E9F78093EA001092EA0088E064D4109221
:1074C000E90032D43CC0882309F052C01091A901D0
:1074D0001F770FB7F89428D479D42FD480FFFDCF2D
:1074E0008091E3008078812B8093E3008068809313
:1074F000E300112383E009F482E08EBB0FBF38C0A4
:107500008058823008F034C08091A9019091AA017E
:107510006091AB01AE013DD4603009F429C0709197
:10752000E800777F7093E80066D400D421C08038EB
:10753000F9F4FAD380919F018093F100F3D346D4FC
:1075400017C08823A9F49091A901923088F4ECD354
:1075500090939F013BD480919F01882331F48091C7
:10756000E30087FD02C081E001C084E08EBBF7D359
:10757000E4D383FF089580E206D4D6C38EB3882374
:1075800069F08091E9008F931092E900D6D383FFD0
:1075900001C036DF8F9187708093E900089520E85D
:1075A000209361001092610081E085BF32E035BF19
:1075B0003F9A4798209A2898559A5D98E1E6F0E01E
:1075C00020831082109289008AEF80938800309384
:1075D0006F0083E0809381000895E7EDF0E0808103
:1075E000816080838AE482BFE8ED29D01092E200B6
:1075F0001092DA001092E10080818F77808380689A
:1076000080838F7D808319BC1EBA10929F01E0EEAB
:1076100080818B7F8083E8ED80818160808380E042
:1076200060E042E0A6D3E1EE0AD08AD389608FD32E
:10763000E0EE05D0E8ED808180618083089580814F
:107640008E7F80830895E0E0F0E08591949101962B
:107650000895F695E795F999FECFF2BDE1BDF89A48
:1076600080B50DC0F695E795F999FECF1FBAF2BD2A
:10767000E1BD80BD0FB6F894FA9AF99A0FBE319623
:06768000EE0FFF1F08954C
:107686004341544859334B1201100102000008418E
:1076960023370001000201000109023E0002010039
:1076A60080320904000001020201000524001001D5
:1076B600042402040524060001070582030800FFCE
:1076C60009040100020A0000000705040210000177
:1076D6000705830210000104030904220341007216
:1076E600006400750069006E006F0020004D00699F
:1076F60000630072006F0020002000200018034184
:107706000072006400750069006E006F0020004C76
:06771600004C00430000DE
:10780000F89421C00000000000000000000000000B
:107810000000000000000000000000000000000068
:1078200000000000000000000F9292C00000000065
:107830000000000000000000000000000000000048
:107840000000000062C011241FBECDEFDAE0DEBFF1
:10785000CDBF04B714BE88E1809360001092600031
:10786000A0E0B1E0E6E8F6E705900D92A539E1F772
:1078700011E01D92AF3AB107E1F7E0E0F8E0419185
:107880005081108212926F917F9101FD0EC000FF16
:1078900002C0D9DEA9F403FF08C06757774729F073
:1078A0004757574711F0CFDE59F479DE96DE7894CA
:1078B000D5D001D163DE18D0CCD08C549D41C8F313
:1078C000F89481E08093E00010926F0010928100A4
:1078D000109285001092840081E085BF15BE11D002
:1078E0005D9828980C940000EDE9F1E08191908179
:1078F000019690838293092E0AF40094000C0816D6
:1079000010F447980895479A08950F920FB68F93F1
:107910009F93EF93FF938827809385008093840043
:10792000E6E9F1E090818917980B919309F45D984D
:1079300090818917980B908309F428987C9B05C047
:1079400082DE19F086D001968BD0FF91EF917CC03A
:107950008F939F931F920FB60F9211244F936F93A3
:107960008091DA0080FF19C08091D80080FF15C097
:107970008091DA008E7F8093DA008091D90080FFB9
:107980000AC080E189BD82E189BD09B400FEFDCF56
:1079900081E08EBB02C019BC1EBA8091E10080FF5D
:1079A0000CC0CED180FF09C0CED18091D8008062BA
:1079B0008093D80019BC85E08EBB8091E10084FFE4
:1079C00025C0BED184FF22C080E189BD82E189BD8E
:1079D00009B400FEFDCF8091D8008F7D8093D80040
:1079E0008091E1008F7E8093E100AAD18F7EAFD19C
:1079F0008160ADD180919F01882331F48091E300B3
:107A000087FD02C081E001C084E08EBB8091E1006F
:107A100083FF16C095D183FF13C08091E100877F5B
:107A20008093E10082E08EBB10929F018091E10083
:107A30008E7F8093E10087D180E060E042E099D1C1
:107A40006F914F910F901F909F918F910FBE0F904C
:107A500018958091980190919901089580E090E0A7
:107A60008093980190939901089584E095DD08C072
:107A70005DD103C08EB3882341F05FD182FFFACF7E
:107A80005CD185FFF5CF8091F1000895082E83E049
:107A900083DD53D185FD08C045D103C08EB3882353
:107AA00049F04BD180FFFACF0092F1005D9A84E655
:107AB00080939601089584E06FDD3FD182FF12C16B
:107AC000289A84E680939701D0DF182F853451F4EB
:107AD00088E59BE1C5DF11D1F999FECF81E187BF30
:107AE000E89503C0843519F4C0DF8DE0E3C08C3421
:107AF000E1F38035D1F3843721F484E4C7DF80E0FB
:107B0000D9C0813611F489E5D5C0813431F4ADDFB7
:107B1000F82FABDFE82FB4DDC1C0803711F483E567
:107B2000C9C0833539F4C0E0D1E08991AFDFC730F7
:107B3000E1F7C1C0863521F481E3A8DF81E3BAC053
:107B4000833731F487E8A2DF85E9A0DF8EE1B2C098
:107B5000853679F4E0E0F0E093E085E097BFE895C2
:107B6000CCD087BFE895C9D0E058FF4FF437B1F7C4
:107B7000BCCF8237E1E049F08634E0E031F08E346A
:107B8000E3E019F0813531F4E2E0F0E089E087BF0D
:107B9000849190C0823631F489E578DF80E076DF29
:107BA00080E888C0823419F0873609F04CC056DF6F
:107BB0005CDFD82F5ADFC82F58DF082F855482305A
:107BC00008F077C010926F008ED0173609F00EC003
:107BD00081E187BFE89506C0063411F4859101C0A4
:107BE00038DD54DF2197C2F783D029C04F01063416
:107BF000C1F4F437B0F483E087BFE8957ED011C0BC
:107C000034DF063469F4C0FB4EF0F43728F4182E44
:107C100081E087BFE8951124329603C0082E01C089
:107C200021DD21976AF764D0063439F4F43728F45B
:107C300085E0F40187BFE89560D08DE027DF82E022
:107C400080936F0038C0833439F44DD00EDF082E96
:107C500081E087BFE89549CF833651F444D005DFF2
:107C6000E1600C0181E087BFE895319641D03DCFBE
:107C70008D3641F438D0F43720F485E087BFE8959D
:107C80003CD033CF823529F42ED08591FFDE84910C
:107C900011C0843429F4E9DE26D0E4DC29D025CFD4
:107CA000843629F420D0D5DCF1DE22D004C08B311B
:107CB00011F08FE3EBDE83E06FDC34D095FF04C07E
:107CC0000BC08EB3882371F038D080FFFACF2AD052
:107CD00003C08EB3882331F030D080FFFACF84E028
:107CE0005BDC24D00895E0919A01F0919B01089506
:107CF000E0939A01F0939B01089507B600FCFDCF35
:107D000008959091A7018091A801913239F0913A9C
:107D100099F4813289F41ED06ED008C0803261F4AB
:107D200019D0B5D08EE703C087EF01C08BE79091E3
:107D3000E80089238093E80008958091E800089581
:107D40008091E2000895FCDF8E7F01D080618093F6
:107D5000E2000895E9DF80EA91E067E0089582E0BB
:107D600061EC42E006D083E061E802D084E060E8A4
:107D700042E112DC81E007D01092ED006093EC004C
:107D80004093ED0008959091EB00892B8093EB00D8
:107D90000895923039F0933041F09130A1F487E0AA
:107DA00062E112C089E16EE30FC0813018F487E50B
:107DB00064E00AC019F48BE562E206C0823019F46F
:107DC0008DE768E101C060E091E008958091A7012E
:107DD00088235CF403C08EB3882361F0AEDF82FF9A
:107DE000FACFA4CF8EB3882329F08091E80080FFDA
:107DF000F9CF98DF0895FC014091AD015091AE019B
:107E00004617510510F490E02FC0611511F0462F70
:107E1000FACF88DF40E0F7CF8EB3882309F433C070
:107E2000853009F432C089DF83FF02C081E0089504
:107E300084DF82FD23C081DF80FF16C03091F30014
:107E40002091F20005C081918093F10041502F5F95
:107E5000411519F028303105B0F350E028303105D4
:107E600009F451E08EE763DF4115B1F65523A1F621
:107E700005C08EB3882339F0853039F05EDF82FF8C
:107E8000F8CF80E0089582E0089583E00895FC0132
:107E9000611509F44BDF18C08EB3882311F18530CA
:107EA00011F14BDF83FF02C081E0089582FFF4CF20
:107EB00004C0E9DD8193615031F09091F30080912D
:107EC000F200892BB1F732DF611531F705C08EB3AF
:107ED000882339F0853039F030DF80FFF8CF80E03B
:0A7EE000089582E0089583E00895FC
:027FFE00FBDCAA
:040000030000740085
:00000001FF
