:100000000C948C060C94B4060C94B4060C94B406B0
:100010000C94B4060C94B4060C94B4060C94B40678
:100020000C94B4060C94B4060C94CF0D0C94D50E1D
:100030000C94B4060C94B4060C94B4060C94B40658
:100040000C94B4060C94B4060C94B4060C94B40648
:100050000C94B4060C94B4060C94B4060C94660983
:100060000C94B4060C94B4060C94B4060C94B40628
:100070000C94B4060C94B4060C94B4060C94B40618
:100080000C94B4060C94B4060C94B4060C94B40608
:100090000C94B4060C94B4060C94B4060C94B406F8
:1000A0000C94B4060C94B4060C94B40613141814EF
:1000B0001D14221427142E1435140C070F07FE06E6
:1000C00002070607300730073007130717071B071B
:1000D0002107250730072B07BC08C108C608D00830
:1000E000DA08240924092409E408EE08F8080209BA
:1000F0000F0924091709BD0BC50BCD0BD50BDC0B64
:10010000E30BEA0BFD0B050C0D0C150C1C0C230C62
:100110002A0CF0F89C8E8783878E9CF8F00000FEF6
:10012000FF0303030303070EFCF80000FEFF0303B5
:10013000030303070EFCF80000FFFF0000000000AF
:100140000000FFFF0000FEFF8383838383C7EE7CF4
:10015000380000F8FC0E07030303070EFCF800004C
:100160003F7FE0C08080C0E07F3FFFFF01010101D1
:10017000010101FFFF0000FFFF0C0C0C0C1C3E777F
:10018000E3C100007FFFC0C0C0C0C0E0703F1F00DF
:10019000001F3F70E0C0C0C0E0703F1F00007FFF45
:1001A000C1C1C1C1C1E3773E1C00001F3F70E0C068
:1001B000C0C0E0703F1F000000000001FFFF010011
:1001C00000008D14A1C881CFD9F1AF02000104094C
:1001D000101924314051646F90A9C4E1FF0610004A
:1001E000080C4662200010306246041208387C4435
:1001F0007C38007C7C141404007C7C1414040012F1
:1002000008387C447C38007C7C18307C7C00000002
:10021000000000071000FCFEFA06FC00000F1F178C
:10022000180F000E18E0101010E03098CC66327AEB
:10023000F206FCFF000000FF803F7FC6D3D8FF001E
:10024000FF00010101000103060C090B090C070E58
:1002500018E0101010E03098CC6632FAF206FCFF7D
:10026000000000FF803F7FDEC0DFFF00FF000101D4
:1002700001000103060C090B090C070E080705FD18
:100280008181FD05EFBA92C692BAEE0E0800FF8199
:1002900081ED8193FEBA92C692BAEE0E10FEFF0374
:1002A0000303333333030347FEFC801F3F303030FA
:1002B000333333333030381F0F0E10F8FC0E070382
:1002C000E3F3F36343474EFCF8070F1C3830313338
:1002D00033193030303F3F0E10FEFF03030333333A
:1002E0003333038387FE7C1F3F3030303F1F1E3C7B
:1002F0003030313F1F08081C3E7F5F4F261C00082E
:1003000008F8FCBEBFBE8CF80008081F3F7FDF67FF
:10031000311F000808081C3E7F5F5F437F08087F8D
:100320005F5F4F6F361C0880400000FEFEFE666671
:10033000E6E6FEBE1C0000000000E01048A848A849
:1003400048A848A848A848A848A848A848A848A82D
:1003500048A848A848A848A848A848A848A848A81D
:1003600048A848A848A848A848A848A848A848A80D
:1003700048A848A848A848A848A848A848A848A8FD
:1003800048A848A848A848A848A848A848A848A8ED
:1003900048A848A848A848A848A848A848A848A8DD
:1003A00048A848A84810E0000000000707878080A0
:1003B000808187070700000000000001020202029E
:1003C000020202020202020202020202020202020D
:1003D00002020202020202020202020202020202FD
:1003E00002020202020202020202020202020202ED
:1003F00002020202020202020202020202020202DD
:1004000002020202020202020202020202020202CC
:1004100002020202020202020202020202020202BC
:1004200002020202020100000000007EFFFFC38101
:1004300081D3F7F7F60000000000384492AA92AA90
:1004400092AA92AA92AA92AA92AA92AA92AA92AACC
:1004500092AA92AA92AA92AA92AA92AA92AA92AABC
:1004600092AA92AA92AA92AA92AA92AA92AA92AAAC
:1004700092AA92AA92AA92AA92AA92AA92AA92AA9C
:1004800092AA92AA92AA92AA92AA92AA92AA92AA8C
:1004900092AA92AA92AA92AA92AA92AA92AA92AA7C
:1004A00092AA92AA92443800000000E0E0E1616163
:1004B00061E0E1C101000000000000008080808058
:1004C000808080808080808080808080808080802C
:1004D000808080808080808080808080808080801C
:1004E000808080808080808080808080808080800C
:1004F00080808080808080808080808080808080FC
:1005000080808080808080808080808080808080EB
:1005100080808080808080808080808080808080DB
:1005200080808080800000000000007F7F7F666602
:1005300066677F7D3800000000000E11242A242AFF
:10054000242A242A242A242A242A242A242A242A3B
:10055000242A242A242A242A242A242A242A242A2B
:10056000242A242A242A242A242A242A242A242A1B
:10057000242A242A242A242A242A242A242A242A0B
:10058000242A242A242A242A242A242A242A242AFB
:10059000242A242A242A242A242A242A242A242AEB
:1005A000242A242A24110E00000000E0E020E0C0EC
:1005B0000040C080C04000000000000000000000BB
:1005C000000000000000000000000000000000002B
:1005D000000080C0602060C000000000000000003B
:1005E000000000000000000080C0602060C000002B
:1005F00000000000000000800080008000AA0200CF
:1006000002000200020002AA0080008000800000B8
:1006100000000000000000000000003E2A144020FE
:10062000001000100020400000008087878187862E
:1006300000040603060400000000000000000000A3
:10064000000000000000000000000000FFFFFF00AD
:10065000FE03010CFE0000FF00000000000000008F
:100660000000FFFFFF00FE0301CC663C00FF00001E
:1006700000000000000000D50000000000000000A5
:100680000000000000000000000000000055000015
:1006900000381638804000200020004080051020DF
:1006A0000040004000201005000000001F1F000057
:1006B00000111B0E1B1100000000000000000000D4
:1006C0000000000000000000000000000707070015
:1006D00003060C193121301F00000000000000004B
:1006E00000000707070003060C193121301F000026
:1006F00000000000000000020002000200AA8000CA
:1007000080008000800080AA000200020003000038
:100710000000000A2040008000800040200A000005
:10072000000000000000000000010204081020404A
:100730008000000000003E5B4F5B3E3E6B4F6B3E17
:100740001C3E7C3E1C183C7E3C181C577D571C1CD4
:100750005E7F5E1C00183C1800FFE7C3E7FF00182F
:10076000241800FFE7DBE7FF30483A060E26297918
:100770002926407F050507407F05253F5A3CE73C79
:100780005A7F3E1C1C08081C1C3E7F14227F22142A
:100790005F5F005F5F06097F017F006689956A6081
:1007A0006060606094A2FFA29408047E0408102098
:1007B0007E201008082A1C08081C2A08081E101091
:1007C00010100C1E0C1E0C30383E3830060E3E0E3B
:1007D00006000000000000005F00000007000700A6
:1007E000147F147F14242A7F2A122313086462368C
:1007F000495620500008070300001C224100004118
:10080000221C002A1C7F1C2A08083E080800807051
:100810003000080808080800006060002010080484
:10082000023E5149453E00427F40007249494946D7
:100830002141494D331814127F1027454545393C55
:100840004A49493141211109073649494936464942
:1008500049291E0000140000004034000000081464
:1008600022411414141414004122140802015909DD
:10087000063E415D594E7C1211127C7F4949493632
:100880003E414141227F4141413E7F494949417FAB
:10089000090909013E414151737F0808087F004161
:1008A0007F41002040413F017F081422417F4040AA
:1008B00040407F021C027F7F0408107F3E4141417F
:1008C0003E7F090909063E4151215E7F09192946EB
:1008D000264949493203017F01033F4040403F1F01
:1008E0002040201F3F4038403F6314081463030436
:1008F0007804036159494D43007F41414102040896
:100900001020004141417F04020102044040404068
:1009100040000307080020545478407F284444389E
:100920003844444428384444287F385454541800E8
:10093000087E090218A4A49C787F08040478004467
:100940007D40002040403D007F1028440000417F52
:1009500040007C047804787C0804047838444444DB
:1009600038FC1824241818242418FC7C08040408D3
:10097000485454542404043F44243C4040207C1CEC
:100980002040201C3C4030403C44281028444C90DF
:1009900090907C4464544C44000836410000007739
:1009A0000000004136080002010204023C26232612
:1009B0003C1EA1A161123A4040207A385454555946
:1009C000215555794121545478412155547840207E
:1009D000545579400C1E5272123955555559395497
:1009E00054545939555454580000457C410002452F
:1009F0007D420001457C40F0292429F0F02825287B
:100A0000F07C545545002054547C547C0A097F499D
:100A100032494949323248484832324A4848303AE5
:100A20004141217A3A42402078009DA0A07D39447E
:100A30004444393D4040403D3C24FF2424487E4905
:100A400043662B2FFC2F2BFF0929F620C0887E0937
:100A50000320545479410000447D413048484A32D3
:100A6000384040227A007A0A0A727D0D19317D26BB
:100A700029292F28262929292630484D40203808A1
:100A800008080808080808382F10C8ACBA2F102822
:100A900034FA00007B000008142A142222142A14BD
:100AA000089500220095AA005500AAAA55AA55AAA1
:100AB000000000FF00101010FF00141414FF0010BD
:100AC00010FF00FF1010F010F0141414FC001414A8
:100AD000F700FF0000FF00FF1414F404FC141417C7
:100AE000101F10101F101F1414141F00101010F0EE
:100AF000000000001F101010101F10101010F01038
:100B0000000000FF101010101010101010FF100047
:100B10000000FF140000FF00FF00001F101700007E
:100B2000FC04F414141710171414F404F40000FF58
:100B300000F714141414141414F700F714141417F1
:100B40001410101F101F141414F4141010F010F0CF
:100B500000001F101F0000001F14000000FC140004
:100B600000F010F01010FF10FF141414FF141010F8
:100B7000101F00000000F010FFFFFFFFFFF0F0F07B
:100B8000F0F0FFFFFF0000000000FFFF0F0F0F0F4E
:100B90000F38444438447C2A2A3E147E020206065A
:100BA000027E027E0263554941633844443C04405E
:100BB0007E201E2006027E020299A5E7A5991C2A26
:100BC000492A1C4C7201724C304A4D4D30304878E5
:100BD0004830BC625A463D3E494949007E01010108
:100BE0007E2A2A2A2A2A44445F444440514A4440E7
:100BF00040444A51400000FF0103E080FF0000082C
:100C0000086B6B083612362436060F090F060000F3
:100C100018180000001010003040FF0101001F01F3
:100C2000011E00191D1712003C3C3C3C0000000056
:100C30000000000000240027002A002D00300000E2
:100C4000000000250028002B002E003100040404C1
:100C50000404030405020202020403020202020663
:100C60000606060606040402020204040408020141
:100C700010408040102040804080080204018040E5
:100C800020100201108010204040200000000200CF
:100C9000090F0000030401000C0000000000000028
:100CA00000000000000000000000080B000202022B
:100CB00001000904000001020200000524001001E7
:100CC000052401010104240206052406000107058C
:100CD000810310004009040100020A00000007051A
:100CE00002024000000705830240000004030904DB
:100CF00012010002EF02014041233680000101028F
:100D0000030141726475696E6F204C4C430041428F
:100D1000503131303600511511241FBECFEFDAE0CB
:100D2000DEBFCDBF11E0A0E0B1E0ECECFBE202C021
:100D300005900D92AA33B107D9F725E0AAE3B1E0F7
:100D400001C01D92A13DB207E1F716E0CCE8D6E064
:100D500004C02197FE010E94D915CB38D107C9F7ED
:100D60000E9405110C94E4150C940000CF92DF92C0
:100D7000EF92FF920F931F93CF93DF936C017A0151
:100D80008B01C0E0D0E0CE15DF0589F0D8016D9170
:100D90008D01D601ED91FC910190F081E02DC6010D
:100DA0000995892B11F47E0102C02196ECCFC70171
:100DB000DF91CF911F910F91FF90EF90DF90CF9037
:100DC0000895362F90E0FC01E557F34F4491FC0164
:100DD000E459F34F2491FC01E35BF34F84918823A2
:100DE00009F451C04423E1F150E0FA013197EF30AA
:100DF000F105B0F5E35AFF4F0C94D915909180009E
:100E00009F7707C0909180009F7D03C090918000E4
:100E1000977F9093800024C094B59F7702C094B5CB
:100E20009F7D94BD1DC0909190009F7707C09091C9
:100E300090009F7D03C090919000977F90939000C9
:100E40000FC09091C0009F7703C09091C0009F7D1C
:100E50009093C00005C09091C200977F9093C2000C
:100E6000E82FF0E0EE0FFF1FE15CF34FA591B49186
:100E70008FB7F894EC91311103C020952E2301C057
:100E80002E2B2C938FBF08953FB7F8948091490182
:100E900090914A01A0914B01B0914C0126B5A89BBD
:100EA00005C02F3F19F00196A11DB11D3FBFBA2FFC
:100EB000A92F982F8827820F911DA11DB11DBC015C
:100EC000CD0142E0660F771F881F991F4A95D1F721
:100ED00008952F923F924F925F926F927F928F92DE
:100EE0009F92AF92BF92CF92DF92EF92FF920F93B9
:100EF0001F93CF93DF93CDB7DEB727970FB6F89444
:100F0000DEBF0FBECDBF9B838A836A30A1F4DC01B4
:100F10005C962C915C9758968D919C915997B8E06E
:100F20002B9F800D911D1124EA81FB81918F808F71
:100F3000178A168AC1C06D3009F4BEC0AA81BB8170
:100F40005C964C915C975B966C905B976E825A9620
:100F50007C905A977F825896CD90DC905997569600
:100F60008D919C91579780389105C4F0AA81BB81DF
:100F70005C962C915C97422F50E056968D919C91F7
:100F80005797B6E02B9F800D911D1124EA81FB81BC
:100F9000978B868B258D21117AC08EC0F0E4CF16F9
:100FA000D10424F79C0155E0459F200D311D1124EB
:100FB00012161306DCF6242E312C9601A8E04A9F67
:100FC000200D311D11241216130684F6B5E06B9F17
:100FD000B0011124FB01EF5CF84F2F0150E0F2014A
:100FE000B490553009F4B12C7601B8E09B2EB0FCDA
:100FF00002C08E8001C08F8081100BC06E807F8008
:10100000671007C0B6949A94E20CF31C9110EFCFCE
:1010100033C09C012983622F681B641798F7B701BE
:10102000E62FEE19E41728F520383105F8F460347E
:101030007105E0F48B01E9E2F7E0A0E16A2E798026
:10104000609ED001A0781124A70D0770E00FF11D5C
:10105000A490BD83AC83A05BBE4F882019F0EC91B7
:10106000AE2A03C0A094EC91AE22AC926F5F7F4F8A
:10107000D7CF2F5F3F4FCECF5F5F820D931D920181
:101080002F5F3F4F2901563009F0A9CF6FCF6AEF8C
:1010900064039001659F300D112420583F4F28179D
:1010A000390754F48A819B81DC01ED91FC91019018
:1010B000F081E02D6AE0099581E090E027960FB677
:1010C000F894DEBF0FBECDBFDF91CF911F910F917E
:1010D000FF90EF90DF90CF90BF90AF909F908F9058
:1010E0007F906F905F904F903F902F90089508955C
:1010F000089580E090E008950E94DF15CF93DF937C
:10110000DB01482F50E0FA01E459F34F9491FA01C2
:10111000E35BF34F2491222399F030E0220F331F39
:10112000F901EF5CF34FC591D491F901E15CF34F04
:10113000259134912FB7F894E881E92BE8832FBFEC
:10114000109711F460E004C0AF3FB10529F461E0ED
:10115000DF91CF910C94E106FA01E557F34FE4914A
:101160004E2F50E0FA013197EF30F10508F06CC0D6
:10117000E459FF4F0C94D91584B5806884BDA7BD90
:1011800068C084B5806284BDA8BD63C080918000C2
:10119000806880938000B0938900A093880059C034
:1011A00080918000806280938000B0938B00A09338
:1011B0008A004FC080918000886080938000B09347
:1011C0008D00A0938C0045C0809190008068809332
:1011D0009000B0939900A09398003BC0809190003C
:1011E000806280939000B0939B00A0939A0031C0DE
:1011F00080919000886080939000B0939D00A093B0
:101200009C0027C08091C00080688093C0008091BE
:10121000C0008F7B8093C000A093CF001AC0809144
:10122000C00080628093C000A093D00012C0809163
:10123000C20088608093C2008091C2008B7F80933F
:10124000C200A093D20005C0A038B1050CF07FCF3A
:1012500079CFDF91CF9108958F929F92AF92BF92F5
:10126000CF92DF92EF92FF926B017C010E944407C4
:101270004B015C01C114D104E104F104F1F00E94BE
:101280004407DC01CB0188199909AA09BB09883EEA
:101290009340A105B10570F321E0C21AD108E1081D
:1012A000F10888EE880E83E0981EA11CB11CC114C1
:1012B000D104E104F10419F7DDCFFF90EF90DF9046
:1012C000CF90BF90AF909F908F9008951F920F92F4
:1012D0000FB60F9211242F933F938F939F93AF9349
:1012E000BF9380913A0190913B01A0913C01B09154
:1012F0003D013091480123E0230F2D3720F4019662
:10130000A11DB11D05C026E8230F0296A11DB11D28
:101310002093480180933A0190933B01A0933C01B4
:10132000B0933D018091490190914A01A0914B01F8
:10133000B0914C010196A11DB11D8093490190937C
:101340004A01A0934B01B0934C01BF91AF919F9183
:101350008F913F912F910F900FBE0F901F90189576
:101360004F925F926F927F928F929F92AF92BF92B5
:10137000CF92DF92EF92FF920F931F93CF93DF9361
:1013800000D000D0CDB7DEB749012C2DA02EB12C56
:10139000DC01AA0DBB1D1A161B060CF0B3C1803868
:1013A00091050CF0AFC1FB01EE0DF11D1E161F06DD
:1013B0000CF0A8C1603471050CF0A4C141155105B1
:1013C00009F4A0C1FB0177FF04C0EE27FF27E61B4D
:1013D000F70B3E2F3770732EFB0177FD379633E006
:1013E000F595E7953A95E1F73E2F77FF07C077200F
:1013F00029F03FEF3E0F68E06719762E97FF05C092
:10140000EE27FF27E81BF90B02C0E0E0F0E0A03870
:10141000B10524F060E8F62EF81A01C0F02EFE1A8D
:10142000632F032E000C770B3F3F1CF4A62FA095D3
:1014300001C0A0E011E0BE2DB77009F410E0E69401
:10144000E694E694E10E6E0D711D693071051CF095
:1014500068E0E62EE31AEA1A3A0F60E83603800DD8
:10146000911D11248E0F9F1FA09FE00DF11D1124CF
:101470004E0F5F1F61E070E0072C02C0660F771F00
:101480000A94E2F7233009F4FCC098F4213009F4FF
:10149000AEC0223009F036C12FEF269F8001279F72
:1014A000100D1124009510951C830B835C80E30EB6
:1014B00027C02A3F29F02B3F09F024C1E30E83C047
:1014C000E30E4EC0FA01EC0DFD1DE491E69F4001D4
:1014D000E79F900C11249A82898237FD04C02C91D9
:1014E0002023822A8C92711014C0EFEFCE1ADE0AEC
:1014F0001196CF1438F33F5F4A0D5B1D80589F4F04
:101500003E1509F4FFC0DC01A05BBE4FC12CD12CFD
:10151000F0CF373054F7FD01E058FF4F20812521EF
:101520009A8029292083E1CFFA01E00FF11FE4918D
:10153000E69F6001E79FD00C1124DA82C98237FD53
:1015400003C02C91C22ACC92711013C00F5F1F4FA1
:1015500011960F1548F33F5F4A0D5B1D80589F4F52
:101560003E1509F4CFC0DC01A05BBE4F00E010E0E7
:10157000F0CF37305CF7FD01E058FF4FD0802A8173
:101580002D292083E3CFFA01EC0DFD1DE491E69FA8
:10159000D001E79FB00D1124BA83A98337FD05C0A0
:1015A000A095F8012081A223A083711015C0FFEF40
:1015B000CF1ADF0A0F5F1F4FCF1428F33F5F4A0D8A
:1015C0005B1D80589F4F3E1509F49CC08C01005B49
:1015D0001E4FC12CD12CF0CF37304CF7F801E0581A
:1015E000FF4F2A812095A0812A232083E0CFD401B8
:1015F000AE0FBF1FE30E3E1509F484C0FC01E05B93
:10160000FE4F4F01C12CD12CCF1498F5FD01EC0DEC
:10161000FD1DE491E69F8001E79F100D11240095C8
:1016200010951C830B83FA01EC0DFD1DE491E69FE0
:101630002001E79F500C11245A82498237FD05C0D2
:10164000F40120810223402A4082772059F037306C
:101650004CF4F401E058FF4F10812C8121231A81B2
:10166000212B2083FFEFCF1ADF0A2FEF821A920A75
:10167000CBCF3F5F4A0D5B1DAA0DBB1D80589F4F0E
:10168000BACFCF2CD12CE40FF51FDC01A05BBE4FED
:10169000AC0140535E4F00E810E00C191D09AC1876
:1016A000BD08AA0CBB1C6F2C2E2DCF93DF93EA0133
:1016B0008590C590772059F0869E4001C69E6001B6
:1016C00037302CF49881D0949D2199299993332314
:1016D0003AF09C91C0949C2198299D930C94710B95
:1016E0001196FA9429F7EA9451F0F62C33951124C7
:1016F000EA0DF11DA00FB11DC00FD11DD9CFDF9193
:10170000CF9111240F900F900F900F90DF91CF91F8
:101710001F910F91FF90EF90DF90CF90BF90AF900F
:101720009F908F907F906F905F904F9008952D9A2B
:101730000895BC0180E090E00C942C098FB1809555
:10174000807F669B88601C9B8460089583B7817F3F
:1017500083BF83B7816083BF889583B78E7F83BF44
:101760000895E09145018E2F90E087309105C0F5F6
:10177000FC01E558FF4F0C94D9158091420180314E
:1017800078F58F5F80934201089580914301803105
:1017900038F58F5F80934301089580914401803133
:1017A000F8F48F5F8093440108959091410181E0A6
:1017B00089278093410108959091400181E0892714
:1017C00080934001089590913F0181E089278093A3
:1017D0003F01089590913E0181E0892780933E0169
:1017E0000895E09145018E2F90E087309105C0F576
:1017F000FC01EE57FF4F0C94D915809142018823CC
:1018000079F18150809342010895809143018823AA
:1018100039F18150809343010895809144018823D8
:10182000F9F081508093440108959091410181E045
:1018300089278093410108959091400181E0892793
:1018400080934001089590913F0181E08927809322
:101850003F01089590913E0181E0892780933E01E8
:101860000895FC0180914F01811103C08FEF9FEF1C
:1018700008959FB7F89482E08093E9002091F200E8
:1018800030E01216130614F421E030E02115310582
:1018900059F0289884E680934E018091F10080836E
:1018A0008091F200882319F09FBFC90108958BE64B
:1018B0008093E800F9CF2FB7F89483E08093E90094
:1018C0009091E800892F807295FF04C09091F200FA
:1018D00080E4891B2FBF0895CF93DF931F92CDB76C
:1018E000DEB76983DC01ED91FC910280F381E02D8C
:1018F00041E050E0BE016F5F7F4F09950F90DF918F
:10190000CF91089583E08093E9008091F2008823CD
:1019100019F08AE38093E80008950E945B0C90E040
:101920000895CF93DF931F92CDB7DEB7FC01848576
:10193000958597FD05C02FEF3FEF358724870BC0B6
:10194000CE0101960E94310C019719F4898190E033
:1019500002C08FEF9FEF0F90DF91CF9108950F930B
:101960001F93CF93DF931F92CDB7DEB78C01FC019D
:101970008485958597FF0EC0CE0101960E94310C9B
:10198000019719F4298130E002C02FEF3FEFF801F1
:1019900035872487F801848595850F90DF91CF9155
:1019A0001F910F910895FC018485958597FD0BC0CB
:1019B0009FB7F89482E08093E9008091F2009FBF86
:1019C00090E0019608959FB7F89482E08093E90033
:1019D0008091F2009FBF90E008958F929F92AF9206
:1019E000BF92CF92DF92EF92FF920F931F93CF930C
:1019F000DF935C016B017A0180910701882309F470
:101A00005BC080914F01882309F456C080914D013D
:101A100080FF05C08091E00082608093E000E701D4
:101A200010E00AEF83E0882E9AE3992E2097D9F1EF
:101A30000E945B0C81110AC0015009F43DC061E0B5
:101A400070E080E090E00E942C09F0CF282F30E079
:101A5000C217D3070CF48C2F4FB7F8948092E9008B
:101A60009091E80095FF1DC0282F30E0C21BD30BDA
:101A7000F601982F915020F081918093F100FACFD8
:101A8000C20ED31E112319F09092E80009C0809174
:101A9000E80085FD06C09092E80011E0209709F06B
:101AA00010E04FBFC3CF1111C3CF5D9884E6809380
:101AB0006E051E141F0444F081E090E0F50193834D
:101AC000828380E090E001C0C701DF91CF911F9138
:101AD0000F91FF90EF90DF90CF90BF90AF909F90CD
:101AE0008F90089580EBE0E5F1E090E15C988EBD89
:101AF0000DB407FEFDCF9EBD0DB407FEFDCF5C9A71
:101B00009F0120583F4F41914EBD0DB407FEFDCFC0
:101B1000E217F307C1F78F5F883B41F70895CF9233
:101B2000EF920F934115510561F0FA01049131963E
:101B3000E4904E5F5F4F22E0C22E20E030E00E9432
:101B4000B0090F91EF90CF900895CF92EF920F933D
:101B50004115510561F0FA0104913196E4904E5F10
:101B60005F4F2AEFC22E20E030E00E94B0090F91B3
:101B7000EF90CF9008958091730581110DC082E0A0
:101B800080936F0584E08093700510927205109227
:101B9000710581E0809373058FE695E008951F92AB
:101BA0000F920FB60F9211248F939F938091E100B3
:101BB0009091E100937F9093E10083FF0FC010921A
:101BC000E90091E09093EB001092EC0092E3909387
:101BD000ED0010924F0198E09093F00082FF20C03A
:101BE00093E09093E9009091F200992319F09AE321
:101BF0009093E80090916E05992339F090916E05CD
:101C0000915090936E05992389F190914E019923FB
:101C100039F090914E01915090934E01992341F1EA
:101C200084FF10C08091E2008E7E81608093E2008C
:101C30008091E1008F7E8093E10080914D018E7E46
:101C4000806111C080FF16C08091E2008E7E8061AD
:101C50008093E2008091E1008E7E8093E10080918C
:101C60004D018E7E816080934D0104C05D9ACDCF81
:101C7000289AD6CF9F918F910F900FBE0F901F90F3
:101C800018954091CF055091D0052091CD05309108
:101C9000CE0542175307B4F49091E8009570E1F334
:101CA0009091E80092FD19C08093F1008091CF05DA
:101CB0009091D00501968F739927892B19F48EEF97
:101CC0008093E8008091CF059091D0050196909384
:101CD000D0058093CF0581E0089580E00895DF92DC
:101CE000EF92FF920F931F93CF93DF93D82E8A0129
:101CF0007B01E40EF51EEB01CE15DF0571F0D7FE7A
:101D000003C0FE01849101C088810E94410E21968A
:101D10008111F2CF8FEF9FEF01C0C801DF91CF910A
:101D20001F910F91FF90EF90DF900895615030F078
:101D30002091F100FC0120830196F8CF289884E6D9
:101D400080934E0108950F931F93CF93DF931F92BB
:101D5000CDB7DEB782E0898342E450E06AEA7CE0F6
:101D600080E80E946F0E0E94BB0DDC0112960D915F
:101D70001C9113970115110569F0D801ED91FC91A3
:101D80000280F381E02DBE016F5F7F4FC80109958E
:101D900097FF07C089810F90DF91CF911F910F911D
:101DA0000895F80100851185E5CF1F920F920FB6B7
:101DB0000F921124CF92DF92EF92FF920F931F9315
:101DC0002F933F934F935F936F937F938F939F9343
:101DD000AF93BF93EF93FF93CF93DF93CDB7DEB76E
:101DE0006C97DEBFCDBF1092E9008091E80083FFC1
:101DF000EDC168E0CE0145960E94960E82EF809379
:101E0000E8008D8987FF05C09091E80090FFFCCF26
:101E100003C09EEF9093E800982F907609F0C6C01B
:101E20009E892F89188D91110CC0803829F48091DA
:101E3000CC058093F10002C01092F1001092F100E5
:101E400048C1422F50E0512B913051F4811141C1D2
:101E50004130510509F03DC18091CC058D7F0BC00B
:101E6000933061F4811135C14130510509F031C120
:101E70008091CC0582608093CC052BC1953041F4D4
:101E80008091E80080FFFCCF20682093E30021C10F
:101E9000963009F05FC0EB8CFC8C1092E900109238
:101EA000D0051092CF05123091F51092CE05109208
:101EB000CD050E94A30E99E0BE016F5F7F4FDB014D
:101EC000E92F1D92EA95E9F799831A8391E09E83A1
:101ED00090EA98879AEF99872091CF053091D005A5
:101EE000275F3F4F3C832B838D831092E900109234
:101EF000D0051092CF05F092CE05E092CD0549E0D5
:101F000050E080E00E946F0E0E94A30EE2C0F092AB
:101F1000CE05E092CD050E94BB0DDC011296ED903E
:101F2000FC901397E114F10409F4C0C0D701ED91BE
:101F3000FC910480F581E02DBE016B5E7F4FC701EF
:101F40000995009719F00CF0C4C0C7C0F701E084F0
:101F5000F184E8CF973009F4C0C0983021F481E0D3
:101F60008093F100B6C0993009F0B3C0837009F0D6
:101F7000B4C0E3E3F1E081E021E036E3908199230E
:101F800061F08093E9002093EB0091919093EC0035
:101F90003093ED008F5F873089F78EE78093EA00FA
:101FA0001092EA008F8980934F0193C08B8D9C8D96
:101FB0001092E9001092D0051092CF059093CE05B3
:101FC0008093CD05898D811156C08E899D89913A66
:101FD00059F4813209F081C047E050E060E071E0DF
:101FE00080E00E946F0E75C0913209F076C0833296
:101FF00089F4888D90E0982F88272F89822BA0E084
:10200000B0E08093080190930901A0930A01B09376
:102010000B015FC0803269F48091E80082FFFCCF41
:1020200067E080E091E00E94960E8BEF8093E800DD
:1020300006C0823209F04DC08F89809307018091DC
:10204000CB05882319F0EEEFFAE002C0E0E0F8E0FB
:102050008091000190910101A0910201B0910301D2
:10206000803B9440A105B10509F07BC08091070138
:1020700080FF93C076C00E94BB0DDC0112960D91CB
:102080001C9113970115110541F1D801ED91FC91B7
:102090000190F081E02DBE016B5E7F4FC801099574
:1020A000811117C0F80100851185ECCF113009F4BA
:1020B0004EC0133091F48F89882309F445C08230D3
:1020C00081F440E867E08EE09DE00E948615882359
:1020D00021F08EEF8093E80079C081E28093EB00DD
:1020E00075C0813029F440E86BE082E09DE0EDCFDF
:1020F000833099F70E94BB0DDC011296ED90FC90A5
:1021000013978E010F5F1F4F6801E114F10479F0FE
:10211000D701ED91FC910680F781E02DB801C70150
:102120000995080F111DF701E084F184EECFD80165
:102130001C92F60101900020E9F73197BF016C195C
:102140007D0940E0C601C1CF6CEE7CE002C060EFCB
:102150007CE06115710509F2FB01449150E080E8D3
:1021600040CF0FB6F894A895809160008861809365
:102170006000109260000FBEA895EE3F2AE0F207C3
:1021800039F08091FE0A9091FF0A91838083A1CF5C
:102190001092FF0A1092FE0A9CCFEE3F8AE0F807E9
:1021A00031F0808191819093FF0A8093FE0A87E746
:1021B00097E7918380839BE088E10FB6F894A89518
:1021C000809360000FBE9093600083CF6C960FB633
:1021D000F894DEBF0FBECDBFDF91CF91FF91EF919D
:1021E000BF91AF919F918F917F916F915F914F912F
:1021F0003F912F911F910F91FF90EF90DF90CF9023
:102200000F900FBE0F901F901895789484B5826040
:1022100084BD84B5816084BD85B5826085BD85B58A
:10222000816085BD80916E00816080936E00109208
:102230008100809181008260809381008091810083
:102240008160809381008091800081608093800014
:1022500080919100826080939100809191008160D3
:102260008093910080919000816080939000809194
:10227000C10084608093C1008091C100826080931E
:10228000C1008091C10081608093C1008091C30032
:1022900081608093C3008091C00082608093C00001
:1022A0008091C20081608093C20080917A00846036
:1022B00080937A0080917A00826080937A00809186
:1022C0007A00816080937A0080917A0080688093A0
:1022D0007A0010924F011092CC0510924D0180911E
:1022E000D70081608093D70080EA8093D80089B5B9
:1022F000806189BD89B5826089BD09B400FEFDCFCA
:1023000061E070E080E090E00E942C098091D800AC
:102310008F7C80618093D8008091E000807F8093E3
:10232000E0008091E1008E7E8093E1008DE080935B
:10233000E200559A209AEEEFFFE7859194918B3F4A
:102340009C4D19F481E08093CB0581EC80937C0057
:1023500085B1806785B9249884B1866684B98BB1CC
:1023600089608BB95F988AB189698AB9769A6E98C3
:1023700081B3806F81BB899880B38D7080BB80E50D
:102380008CBD81E08DBD85E090E00E94990B5F9A45
:1023900085E090E00E94990B5B985C98E2ECF1E09C
:1023A0008AE08E0F94919EBD00000DB407FEFDCF14
:1023B00031968E13F7CF5C9A81E88093640081E0B8
:1023C0008093650080EB20E15C988EBD0DB407FE24
:1023D000FDCF2EBD0DB407FEFDCF5C9A90E81EBC6C
:1023E0000DB407FEFDCF9150D1F78F5F883B61F7A9
:1023F0000E949E0B87FF22C05C9885EA8EBD00007C
:102400000DB407FEFDCF5C9A2E9858982D988091B8
:1024100064008062809364000E94A60BFDCF2D981B
:102420000E949E0B8478843871F00E949E0B847108
:10243000843131F188EC90E00E94990B0E949E0B50
:1024400082FDEDCF3AC00E94970B88EC90E00E948D
:10245000990B589882E090E00E94C3158F3F29F0B5
:102460006FEF82E090E00E94CB1584EF91E00E9434
:10247000990B589A0E949E0B84788438D9F3D5CF53
:102480000E94970B88EC90E00E94990B2E9882E0B6
:1024900090E00E94C315882329F060E082E090E07C
:1024A0000E94CB1584EF91E00E94990B2E9A0E9416
:1024B0009E0B84718431D9F3BDCF0E94970B82E0CB
:1024C00090E00E94C315882331F03E9A519A81E032
:1024D0008093460104C0109246013E9851982E9870
:1024E000CEEEDFEF512C60E5862E61E0962E08E0FF
:1024F00010E00E949E0B86FF04C02E9A589A2D9AD7
:1025000094C0CC3F4FEFD40719F42E9A589805C0C9
:10251000C831D10511F4589A2D98852DF4018111F7
:102520008FEF002481938193819381930394D1F75A
:10253000C03F5FEFD50784F40E94720D8BE190E0FD
:102540000E94990BC03F6FEFD60709F059C08AEF80
:1025500090E00E94990B54C09E01D7FF04C022272F
:1025600033272C1B3D0B27703327CE01D7FD079651
:1025700053E0959587955A95E1F7D7FF05C00197E8
:10258000F801E21BF30B9F017C01F694FE2CEE2474
:10259000F794E79440E050E03801621A730AB701FB
:1025A00060587F4F5B018F3F7FEF970744F40196A0
:1025B000485A5F4F7501403B510589F7BDCFD701A0
:1025C000AC51BE4F60E070E08F3FEFEF9E0709F423
:1025D00009C2FB01E40FF51FEE5EFE4FE4916D01B1
:1025E000CA18DB08CE0CDF1CF0E01F01022E01C070
:1025F000220C0A94EAF7F601408024282082F2C1D6
:102600002196C931D10509F074CF8CEB92E00E947C
:10261000990B0E94970BE0915405F091550501909C
:10262000F081E02D84E595E0099582E390E00E9439
:10263000990B0E949E0B8111F8CF84E680935B0575
:10264000DD24D394CFEFD0E022E0C22E0BEA14E0D9
:1026500030E0E32E30E0F32E80E4B82E95E0A92E92
:102660002FB7F89480913A0190913B01A0913C01E1
:10267000B0913D012FBF409160055091610560917F
:1026800062057091630520916405222341F0209139
:102690005C05821B80936505109264059CC18417BC
:1026A0009507A607B70738F4481B423008F493C1D2
:1026B0000E94A60B90C1D092640580935C05909314
:1026C0005D05A0935E05B0935F0520915B05820FC9
:1026D000911DA11DB11D8093600590936105A0938C
:1026E0006205B09363058091570590915805019656
:1026F000909358058093570547E253E060E070E0FF
:1027000080E090E00E948F0D0E949E0B85FF16C016
:102710004DE153E061E370E080E590E00E94A50D9B
:1027200080914501853020F081508093450104C09F
:10273000833010F40E94F10BD09247010E949E0B4F
:1027400086FF1BC043E153E061E370E08BE590E05E
:102750000E94A50D80914501833058F0833019F413
:10276000A092450108C0863030F48F5F8093450108
:1027700002C00E94B10BD09247010E949E0B87FFBE
:1027800011C049E053E06BE270E086E590E00E9402
:10279000A50D80914501882319F081508093450152
:1027A000D09247010E949E0B84FF11C04FEF52E070
:1027B00066E370E086E590E00E94A50D80914501FA
:1027C000863018F48F5F80934501D09247010E94B4
:1027D0009E0B83FF0CC045EF52E067E370E08CE690
:1027E00090E00E94A50D0E94F10BD09247010E943B
:1027F0009E0B82FF0CC045EF52E06EE270E086E770
:1028000090E00E94A50D0E94B10BD0924701E0918B
:1028100045018E2F90E08730910578F5FC01EA5A4A
:10282000FF4F0C94D91547ED52E060E070E013C003
:1028300049EB52E06EE070E00EC04BE952E06CE113
:1028400070E009C04BE852E06CE270E004C04BE776
:1028500052E066E370E080E090E00DC04FE452E0AB
:102860006CE270E082E290E006C043E252E06CE28B
:1028700070E088E390E00E948F0D70904201F6E0D6
:102880007F9EC001112443E152E06FEF7FEF449639
:102890000E948F0D9090430126E0929EC00111246A
:1028A00043E152E06DE070E044960E948F0D60902D
:1028B000440146E0649EC001112443E152E06BE113
:1028C00070E044960E948F0D80904101811003C0FA
:1028D0004BEE51E002C04FEF51E06CE270E080E15E
:1028E00090E00E948F0D80914001811103C04BEE5A
:1028F00051E002C04FEF51E066E370E080E190E00C
:102900000E948F0D80913F01882341F04DED51E0F1
:102910006EE270E080E390E00E948F0D80913E01B6
:10292000882341F04DED51E06EE270E086E490E0E6
:102930000E948F0D0E94720D80914701882309F437
:102940004AC0E62DF0E0E453FE4F6490E92DF0E03C
:10295000E453FE4F9490E72DF0E0E453FE4FE491F2
:10296000BE016E1B71098AE00E947E08BE016919D2
:10297000710983E00E947E08BE016619710989E031
:102980000E947E08882011F0289801C0289A809122
:102990004001882321F05D9822E330E002C05D9A77
:1029A000FBCF80913F01882321F088B18B2588B926
:1029B00001C0469880913E01882321F08BB18C257F
:1029C0008BB901C0599AC8010197F1F7215031091B
:1029D00041F710924701E114F10409F441CE0E943D
:1029E00000003ACE2115310581F0FB01E40FF51FFF
:1029F000EE5EFE4FE491F0E0062C02C0F595E795FF
:102A00000A94E2F7DC90ED29EC936F5F7F4F11960B
:102A10006835710509F0D8CDCACD0F931F93CF93B8
:102A2000DF938C0181E090E00E94C31580FF31C0EC
:102A30008AE090E00E94C3159FEF980F9E3F48F5F3
:102A400022E330E0D80157963C932E93569728E323
:102A500030E059963C932E935897CBE0D0E0D801C4
:102A6000ED91FC910190F081E02D682FC80109954E
:102A7000CE010E94C3152196C131D10581F70E9474
:102A8000720D88EE93E0DF91CF911F910F910C941E
:102A9000990BDF91CF911F910F91089504970C949A
:102AA0000D15EBE7F5E01382128288EE93E0A0E0CB
:102AB000B0E084839583A683B78380E191E091831E
:102AC00080838FEF9FEF95878487E0E5F5E01382A1
:102AD00012821186128620E1238790878783108ACD
:102AE000118A128A138A148A82E291E09183808388
:102AF00080E391E095838483178A168A118E108E65
:102B000081E0828F138E848F158E0895CF92DF928D
:102B1000EF92FF920F931F93CF93DF931F92CDB746
:102B2000DEB7182F062FE42E862F880F8E5F99832D
:102B30000E94410E83E00E94410EF12EC12E998128
:102B4000D92E8C2D8F19801798F4F601E7FE02C05C
:102B5000849101C080810E94410E182F80E00E9464
:102B6000410E8123FFEFCF1ADF0A8111EACF01C0A6
:102B700081E00F90DF91CF911F910F91FF90EF9027
:102B8000DF90CF900895F999FECF92BD81BDF89A5C
:102B9000992780B50895262FF999FECF1FBA92BDC7
:102BA00081BD20BD0FB6F894FA9AF99A0FBE01962E
:102BB0000895EE0FFF1F0590F491E02D099481E038
:0C2BC00090E0F8940C94E415F894FFCF1A
:102BCC0000E1000000000000FFFFFFFF000000001C
:102BDC006C0CED0C8D0C820CD30C910CAF0C00001A
:102BEC0000006907B606790878080D15FCFF00008F
:0A2BFC004E1500C1808100000000AA
:00000001FF
