:100000000C948E060C94B6060C94B6060C94B606A8
:100010000C94B6060C94B6060C94B6060C94B60670
:100020000C94B6060C94B6060C94CC0D0C94D20E1F
:100030000C94B6060C94B6060C94B6060C94B60650
:100040000C94B6060C94B6060C94B6060C94B60640
:100050000C94B6060C94B6060C94B6060C9468097B
:100060000C94B6060C94B6060C94B6060C94B60620
:100070000C94B6060C94B6060C94B6060C94B60610
:100080000C94B6060C94B6060C94B6060C94B60600
:100090000C94B6060C94B6060C94B6060C94B606F0
:1000A0000C94B6060C94B6060C94B606FA13FF131D
:1000B000041409140E1415141C140E07110700075C
:1000C00004070807320732073207150719071D070B
:1000D0002307270732072D07BE08C308C808D20820
:1000E000DC08260926092609E608F008FA080409AA
:1000F000110926091909C50BCD0BD50BDD0BE40B36
:10010000EB0BF20B050C0D0C150C1D0C240C2B0C21
:10011000320CF0F89C8E8783878E9CF8F00000FEEE
:10012000FF0303030303070EFCF80000FEFF0303B5
:10013000030303070EFCF80000FFFF0000000000AF
:100140000000FFFF0000FEFF8383838383C7EE7CF4
:10015000380000F8FC0E07030303070EFCF800004C
:100160003F7FE0C08080C0E07F3FFFFF01010101D1
:10017000010101FFFF0000FFFF0C0C0C0C1C3E777F
:10018000E3C100007FFFC0C0C0C0C0E0703F1F00DF
:10019000001F3F70E0C0C0C0E0703F1F00007FFF45
:1001A000C1C1C1C1C1E3773E1C00001F3F70E0C068
:1001B000C0C0E0703F1F000000000001FFFF010011
:1001C0000000D5F08D14A1C881CFD9F1AF20000077
:1001D000010409101924314051646F90A9C4E1FF52
:1001E000061000080C466220001030624604120817
:1001F000387C447C38007C7C141404007C7C14140F
:1002000004001208387C447C38007C7C18307C7CEC
:10021000000000000000071000FCFEFA06FC0000D1
:100220000F1F17180F000E18E0101010E03098CCB8
:1002300066327AF206FCFF000000FF803F7FC6D3E3
:10024000D8FF00FF00010101000103060C090B09A2
:100250000C070E18E0101010E03098CC6632FAF25D
:1002600006FCFF000000FF803F7FDEC0DFFF00FFD5
:1002700000010101000103060C090B090C070E081F
:100280000705FD8181FD05EFBA92C692BAEE0E0810
:1002900000FF8181ED8193FEBA92C692BAEE0E10F4
:1002A000FEFF030303333333030347FEFC801F3F8A
:1002B000303030333333333030381F0F0E10F8FC0A
:1002C0000E0703E3F3F36343474EFCF8070F1C38B4
:1002D00030313333193030303F3F0E10FEFF03030F
:1002E0000333333333038387FE7C1F3F3030303F8B
:1002F0001F1E3C3030313F1F08081C3E7F5F4F26D9
:100300001C000808F8FCBEBFBE8CF80008081F3FA0
:100310007FDF67311F000808081C3E7F5F5F437F57
:1003200008087F5F5F4F6F361C0880400000FEFEAC
:10033000FE6666E6E6FEBE1C0000000000E0104817
:10034000A848A848A848A848A848A848A848A8482D
:10035000A848A848A848A848A848A848A848A8481D
:10036000A848A848A848A848A848A848A848A8480D
:10037000A848A848A848A848A848A848A848A848FD
:10038000A848A848A848A848A848A848A848A848ED
:10039000A848A848A848A848A848A848A848A848DD
:1003A000A848A848A848A84810E00000000007078F
:1003B000878080808187070700000000000001021D
:1003C000020202020202020202020202020202020D
:1003D00002020202020202020202020202020202FD
:1003E00002020202020202020202020202020202ED
:1003F00002020202020202020202020202020202DD
:1004000002020202020202020202020202020202CC
:1004100002020202020202020202020202020202BC
:1004200002020202020202020100000000007EFF3E
:10043000FFC38181D3F7F7F6000000000038449233
:10044000AA92AA92AA92AA92AA92AA92AA92AA92CC
:10045000AA92AA92AA92AA92AA92AA92AA92AA92BC
:10046000AA92AA92AA92AA92AA92AA92AA92AA92AC
:10047000AA92AA92AA92AA92AA92AA92AA92AA929C
:10048000AA92AA92AA92AA92AA92AA92AA92AA928C
:10049000AA92AA92AA92AA92AA92AA92AA92AA927C
:1004A000AA92AA92AA92AA92443800000000E0E020
:1004B000E1616161E0E1C101000000000000008035
:1004C000808080808080808080808080808080802C
:1004D000808080808080808080808080808080801C
:1004E000808080808080808080808080808080800C
:1004F00080808080808080808080808080808080FC
:1005000080808080808080808080808080808080EB
:1005100080808080808080808080808080808080DB
:1005200080808080808080800000000000007F7FCD
:100530007F666666677F7D3800000000000E11242C
:100540002A242A242A242A242A242A242A242A243B
:100550002A242A242A242A242A242A242A242A242B
:100560002A242A242A242A242A242A242A242A241B
:100570002A242A242A242A242A242A242A242A240B
:100580002A242A242A242A242A242A242A242A24FB
:100590002A242A242A242A242A242A242A242A24EB
:1005A0002A242A242A242A24110E00000000E0E034
:1005B00020E0C00040C080C04000000000000000FB
:1005C000000000000000000000000000000000002B
:1005D000000000000080C0602060C000000000003B
:1005E000000000000000000000000080C0602060EB
:1005F000C0000000000000000000800080008000BB
:10060000AA020002000200020002AA00800080008C
:1006100080000000000000000000000000003E2AF2
:100620001440200010001000204000000080878748
:100630008187860004060306040000000000000015
:10064000000000000000000000000000000000FFAB
:10065000FFFF00FE03010CFE0000FF000000000091
:100660000000000000FFFFFF00FE0301CC663C001D
:10067000FF000000000000000000D50000000000A6
:10068000000000000000000000000000000000006A
:1006900055000000381638804000200020004080BF
:1006A0000510200040004000201005000000001F41
:1006B0001F000000111B0E1B1100000000000000B5
:1006C0000000000000000000000000000000000723
:1006D00007070003060C193121301F00000000003D
:1006E00000000000000707070003060C1931213045
:1006F0001F000000000000000000020002000200D5
:10070000AA800080008000800080AA000200020011
:100710000300000000000A2040008000800040200C
:100720000A000000000000000000000001020408B0
:100730001020408000000000003E5B4F5B3E3E6B9F
:100740004F6B3E1C3E7C3E1C183C7E3C181C577D6B
:10075000571C1C5E7F5E1C00183C1800FFE7C3E7B7
:10076000FF0018241800FFE7DBE7FF30483A060EC9
:100770002629792926407F050507407F05253F5A10
:100780003CE73C5A7F3E1C1C08081C1C3E7F142280
:100790007F22145F5F005F5F06097F017F0066892B
:1007A000956A606060606094A2FFA29408047E0471
:1007B0000810207E201008082A1C08081C2A080897
:1007C0001E101010100C1E0C1E0C30383E38300657
:1007D0000E3E0E06000000000000005F0000000753
:1007E000000700147F147F14242A7F2A1223130881
:1007F000646236495620500008070300001C22415D
:10080000000041221C002A1C7F1C2A08083E080800
:1008100000807030000808080808000060600020B0
:10082000100804023E5149453E00427F4000724993
:100830004949462141494D331814127F1027454537
:1008400045393C4A4949314121110907364949494D
:1008500036464949291E00001400000040340000BB
:100860000008142241141414141400412214080224
:10087000015909063E415D594E7C1211127C7F4997
:100880004949363E414141227F4141413E7F4949EC
:1008900049417F090909013E414151737F08080818
:1008A0007F00417F41002040413F017F08142241E9
:1008B0007F404040407F021C027F7F0408107F3E43
:1008C0004141413E7F090909063E4151215E7F09B0
:1008D000192946264949493203017F01033F404017
:1008E000403F1F2040201F3F4038403F6314081402
:1008F0006303047804036159494D43007F4141413A
:100900000204081020004141417F0402010204401A
:1009100040404040000307080020545478407F289E
:100920004444383844444428384444287F38545494
:10093000541800087E090218A4A49C787F080404B7
:100940007800447D40002040403D007F1028440056
:1009500000417F40007C047804787C0804047838E7
:1009600044444438FC1824241818242418FC7C0817
:10097000040408485454542404043F44243C404094
:10098000207C1C2040201C3C4030403C4428102847
:10099000444C9090907C4464544C44000836410090
:1009A0000000770000004136080002010204023C0A
:1009B0002623263C1EA1A161123A4040207A3854D9
:1009C0005455592155557941215454784121555454
:1009D000784020545579400C1E52721239555555A5
:1009E00059395454545939555454580000457C4190
:1009F0000002457D420001457C40F0292429F0F0A9
:100A0000282528F07C545545002054547C547C0AF9
:100A1000097F4932494949323248484832324A48C6
:100A200048303A4141217A3A42402078009DA0A0C6
:100A30007D39444444393D4040403D3C24FF24241A
:100A4000487E4943662B2FFC2F2BFF0929F620C037
:100A5000887E090320545479410000447D41304888
:100A6000484A32384040227A007A0A0A727D0D19CB
:100A7000317D2629292F28262929292630484D402D
:100A800020380808080808080808382F10C8ACBA29
:100A90002F102834FA00007B000008142A142222A8
:100AA000142A14089500220095AA005500AAAA55F8
:100AB000AA55AA000000FF00101010FF0014141423
:100AC000FF001010FF00FF1010F010F0141414FCC1
:100AD000001414F700FF0000FF00FF1414F404FCDE
:100AE000141417101F10101F101F1414141F0010BF
:100AF0001010F0000000001F101010101F10101038
:100B000010F010000000FF10101010101010101046
:100B1000FF10000000FF140000FF00FF00001F1086
:100B2000170000FC04F414141710171414F404F440
:100B30000000FF00F714141414141414F700F71431
:100B40001414171410101F101F141414F414101080
:100B5000F010F000001F101F0000001F1400000024
:100B6000FC140000F010F01010FF10FF141414FF1C
:100B7000141010101F00000000F010FFFFFFFFFF17
:100B8000F0F0F0F0F0FFFFFF0000000000FFFF0FAB
:100B90000F0F0F0F38444438447C2A2A3E147E023B
:100BA000020606027E027E026355494163384444D0
:100BB0003C04407E201E2006027E020299A5E7A585
:100BC000991C2A492A1C4C7201724C304A4D4D30F6
:100BD0003048784830BC625A463D3E494949007E1B
:100BE0000101017E2A2A2A2A2A44445F44444051B2
:100BF0004A444040444A51400000FF0103E080FF66
:100C0000000008086B6B083612362436060F090FF1
:100C100006000018180000001010003040FF01010D
:100C2000001F01011E00191D1712003C3C3C3C0036
:100C30000000000000000000240027002A002D0012
:100C4000300000000000250028002B002E0031009D
:100C50000404040404030405020202020403020261
:100C60000202060606060606040402020204040442
:100C7000080201104080401020408040800802049B
:100C80000180402010020110801020404020000010
:100C9000000200090F0000030401000C0000000026
:100CA00000000000000000000000000000080B0031
:100CB00002020201000904000001020200000524F2
:100CC0000010010524010101042402060524060088
:100CD000010705810310004009040100020A000019
:100CE00000070502024000000705830240000004DF
:100CF00003090412010002EF020140412336800083
:100D0000010102030141726475696E6F204C4C430E
:100D10000041424D313330360000381511241FBEDA
:100D2000CFEFDAE0DEBFCDBF11E0A0E0B1E0EAE94D
:100D3000FBE202C005900D92AA33B107D9F725E076
:100D4000AAE3B1E001C01D92A13DB207E1F716E0B0
:100D5000CEE8D6E004C02197FE010E94C015CD3830
:100D6000D107C9F70E9402110C94CB150C94000016
:100D7000CF92DF92EF92FF920F931F93CF93DF9367
:100D80006C017A018B01C0E0D0E0CE15DF0589F05F
:100D9000D8016D918D01D601ED91FC910190F0810A
:100DA000E02DC6010995892B11F47E0102C0219620
:100DB000ECCFC701DF91CF911F910F91FF90EF9082
:100DC000DF90CF900895362F90E0FC01E257F34F6B
:100DD0004491FC01E159F34F2491FC01E05BF34F96
:100DE0008491882309F451C04423E1F150E0FA01D1
:100DF0003197EF30F105B0F5E35AFF4F0C94C01571
:100E0000909180009F7707C0909180009F7D03C0E4
:100E100090918000977F9093800024C094B59F7735
:100E200002C094B59F7D94BD1DC0909190009F77A6
:100E300007C0909190009F7D03C090919000977F94
:100E4000909390000FC09091C0009F7703C0909145
:100E5000C0009F7D9093C00005C09091C200977F15
:100E60009093C200E82FF0E0EE0FFF1FEE5BF34F10
:100E7000A591B4918FB7F894EC91311103C02095EE
:100E80002E2301C02E2B2C938FBF08953FB7F894CB
:100E90008091490190914A01A0914B01B0914C0180
:100EA00026B5A89B05C02F3F19F00196A11DB11DC5
:100EB0003FBFBA2FA92F982F8827820F911DA11D00
:100EC000B11DBC01CD0142E0660F771F881F991F3D
:100ED0004A95D1F708952F923F924F925F926F9269
:100EE0007F928F929F92AF92BF92CF92DF92EF92BA
:100EF000FF920F931F93CF93DF93CDB7DEB7279762
:100F00000FB6F894DEBF0FBECDBF9B838A836A30D5
:100F1000A1F4DC015C962C915C9758968D919C9184
:100F20005997B8E02B9F800D911D1124EA81FB8118
:100F3000918F808F178A168AC1C06D3009F4BEC0A8
:100F4000AA81BB815C964C915C975B966C905B9799
:100F50006E825A967C905A977F825896CD90DC90FC
:100F6000599756968D919C91579780389105C4F06A
:100F7000AA81BB815C962C915C97422F50E05696DB
:100F80008D919C915797B6E02B9F800D911D112458
:100F9000EA81FB81978B868B258D21117AC08EC0CB
:100FA000F0E4CF16D10424F79C0155E0459F200DB5
:100FB000311D112412161306DCF6242E312C960155
:100FC000A8E04A9F200D311D11241216130684F645
:100FD000B5E06B9FB0011124FB01EC5CF84F2F01D1
:100FE00050E0F201B490553009F4B12C7601B8E02C
:100FF0009B2EB0FC02C08E8001C08F8081100BC080
:101000006E807F80671007C0B6949A94E20CF31C40
:101010009110EFCF33C09C012983622F681B6417A6
:1010200098F7B701E62FEE19E41728F520383105B7
:10103000F8F460347105E0F48B01ECE2F7E0A0E134
:101040006A2E7980609ED001A0781124A70D0770C8
:10105000E00FF11DA490BD83AC83A05BBE4F882040
:1010600019F0EC91AE2A03C0A094EC91AE22AC92A0
:101070006F5F7F4FD7CF2F5F3F4FCECF5F5F820D28
:10108000931D92012F5F3F4F2901563009F0A9CFE0
:101090006FCF6AEF64039001659F300D11242058D3
:1010A0003F4F2817390754F48A819B81DC01ED9169
:1010B000FC910190F081E02D6AE0099581E090E0DB
:1010C00027960FB6F894DEBF0FBECDBFDF91CF914C
:1010D0001F910F91FF90EF90DF90CF90BF90AF9056
:1010E0009F908F907F906F905F904F903F902F9048
:1010F00008950895089580E090E008950E94C6152F
:10110000CF93DF93DB01482F50E0FA01E159F34F11
:101110009491FA01E05BF34F2491222399F030E09F
:10112000220F331FF901EC5CF34FC591D491F90103
:10113000EE5BF34F259134912FB7F894E881E92BBA
:10114000E8832FBF109711F460E004C0AF3FB105F2
:1011500029F461E0DF91CF910C94E306FA01E257A4
:10116000F34FE4914E2F50E0FA013197EF30F10543
:1011700008F06CC0E459FF4F0C94C01584B580682A
:1011800084BDA7BD68C084B5806284BDA8BD63C0AE
:1011900080918000806880938000B0938900A09344
:1011A000880059C080918000806280938000B09355
:1011B0008B00A0938A004FC080918000886080934C
:1011C0008000B0938D00A0938C0045C0809190006A
:1011D000806880939000B0939900A09398003BC0E2
:1011E00080919000806280939000B0939B00A093C8
:1011F0009A0031C080919000886080939000B093F5
:101200009D00A0939C0027C08091C00080688093BF
:10121000C0008091C0008F7B8093C000A093CF005E
:101220001AC08091C00080628093C000A093D0005B
:1012300012C08091C20088608093C2008091C20079
:101240008B7F8093C200A093D20005C0A038B10567
:101250000CF07FCF79CFDF91CF9108958F929F923D
:10126000AF92BF92CF92DF92EF92FF926B017C011F
:101270000E9446074B015C01C114D104E104F10452
:10128000F1F00E944607DC01CB0188199909AA09EF
:10129000BB09883E9340A105B10570F321E0C21A55
:1012A000D108E108F10888EE880E83E0981EA11CA1
:1012B000B11CC114D104E104F10419F7DDCFFF9092
:1012C000EF90DF90CF90BF90AF909F908F90089558
:1012D0001F920F920FB60F9211242F933F938F936B
:1012E0009F93AF93BF9380913A0190913B01A0915E
:1012F0003C01B0913D013091480123E0230F2D378F
:1013000020F40196A11DB11D05C026E8230F029609
:10131000A11DB11D2093480180933A0190933B0198
:10132000A0933C01B0933D018091490190914A0105
:10133000A0914B01B0914C010196A11DB11D80936C
:10134000490190934A01A0934B01B0934C01BF9186
:10135000AF919F918F913F912F910F900FBE0F9062
:101360001F9018954F925F926F927F928F929F92EB
:10137000AF92BF92CF92DF92EF92FF920F931F93A3
:10138000CF93DF9300D000D0CDB7DEB749012C2D2D
:10139000A02EB12CDC01AA0DBB1D1A161B060CF0E9
:1013A000B3C1803891050CF0AFC1FB01EE0DF11D0A
:1013B0001E161F060CF0A8C1603471050CF0A4C104
:1013C0004115510509F4A0C1FB0177FF04C0EE27C8
:1013D000FF27E61BF70B3E2F3770732EFB0177FDBF
:1013E000379633E0F595E7953A95E1F73E2F77FF8D
:1013F00007C0772029F03FEF3E0F68E06719762E8F
:1014000097FF05C0EE27FF27E81BF90B02C0E0E0BD
:10141000F0E0A038B10524F060E8F62EF81A01C01B
:10142000F02EFE1A632F032E000C770B3F3F1CF4A7
:10143000A62FA09501C0A0E011E0BE2DB77009F461
:1014400010E0E694E694E694E10E6E0D711D6930AD
:1014500071051CF068E0E62EE31AEA1A3A0F60E81C
:101460003603800D911D11248E0F9F1FA09FE00D4C
:10147000F11D11244E0F5F1F61E070E0072C02C0C8
:10148000660F771F0A94E2F7233009F4FCC098F442
:10149000213009F4AEC0223009F036C12FEF269F6B
:1014A0008001279F100D1124009510951C830B833C
:1014B0005C80E30E27C02A3F29F02B3F09F024C1AE
:1014C000E30E83C0E30E4EC0FA01EC0DFD1DE49166
:1014D000E69F4001E79F900C11249A82898237FD94
:1014E00004C02C912023822A8C92711014C0EFEF3B
:1014F000CE1ADE0A1196CF1438F33F5F4A0D5B1DFA
:1015000080589F4F3E1509F4FFC0DC01A05BBE4F21
:10151000C12CD12CF0CF373054F7FD01E058FF4FEC
:10152000208125219A8029292083E1CFFA01E00F2B
:10153000F11FE491E69F6001E79FD00C1124DA824D
:10154000C98237FD03C02C91C22ACC92711013C0FE
:101550000F5F1F4F11960F1548F33F5F4A0D5B1D3C
:1015600080589F4F3E1509F4CFC0DC01A05BBE4FF1
:1015700000E010E0F0CF37305CF7FD01E058FF4F9E
:10158000D0802A812D292083E3CFFA01EC0DFD1DA7
:10159000E491E69FD001E79FB00D1124BA83A9839F
:1015A00037FD05C0A095F8012081A223A08371100A
:1015B00015C0FFEFCF1ADF0A0F5F1F4FCF1428F3BC
:1015C0003F5F4A0D5B1D80589F4F3E1509F49CC03C
:1015D0008C01005B1E4FC12CD12CF0CF37304CF763
:1015E000F801E058FF4F2A812095A0812A2320830B
:1015F000E0CFD401AE0FBF1FE30E3E1509F484C047
:10160000FC01E05BFE4F4F01C12CD12CCF1498F5AB
:10161000FD01EC0DFD1DE491E69F8001E79F100D9B
:101620001124009510951C830B83FA01EC0DFD1D10
:10163000E491E69F2001E79F500C11245A824982D1
:1016400037FD05C0F40120810223402A4082772023
:1016500059F037304CF4F401E058FF4F10812C81E1
:1016600021231A81212B2083FFEFCF1ADF0A2FEFCE
:10167000821A920ACBCF3F5F4A0D5B1DAA0DBB1D9C
:1016800080589F4FBACFCF2CD12CE40FF51FDC012F
:10169000A05BBE4FAC0140535E4F00E810E00C1958
:1016A0001D09AC18BD08AA0CBB1C6F2C2E2DCF93A6
:1016B000DF93EA018590C590772059F0869E40011E
:1016C000C69E600137302CF49881D0949D219929D1
:1016D000999333233AF09C91C0949C2198299D932F
:1016E0000C94730B1196FA9429F7EA9451F0F62CA6
:1016F00033951124EA0DF11DA00FB11DC00FD11DAE
:10170000D9CFDF91CF9111240F900F900F900F90B0
:10171000DF91CF911F910F91FF90EF90DF90CF90CD
:10172000BF90AF909F908F907F906F905F904F9001
:1017300008952D9A0895BC0180E090E00C942E0944
:101740008FB18095807F669B88601C9B8460089524
:1017500083B7817F83BF83B7816083BF889583B759
:101760008E7F83BF08958EBD00000DB407FEFDCFB0
:101770000895E09145018E2F90E087309105C0F5E6
:10178000FC01E558FF4F0C94C01580914201803157
:1017900078F58F5F809342010895809143018031F5
:1017A00038F58F5F80934301089580914401803123
:1017B000F8F48F5F8093440108959091410181E096
:1017C00089278093410108959091400181E0892704
:1017D00080934001089590913F0181E08927809393
:1017E0003F01089590913E0181E0892780933E0159
:1017F0000895E09145018E2F90E087309105C0F566
:10180000FC01EE57FF4F0C94C015809142018823D4
:1018100079F181508093420108958091430188239A
:1018200039F18150809343010895809144018823C8
:10183000F9F081508093440108959091410181E035
:1018400089278093410108959091400181E0892783
:1018500080934001089590913F0181E08927809312
:101860003F01089590913E0181E0892780933E01D8
:101870000895FC0180914F01811103C08FEF9FEF0C
:1018800008959FB7F89482E08093E9002091F200D8
:1018900030E01216130614F421E030E02115310572
:1018A00059F0289A84E680934E018091F10080835C
:1018B0008091F200882319F09FBFC90108958BE63B
:1018C0008093E800F9CF2FB7F89483E08093E90084
:1018D0009091E800892F807295FF04C09091F200EA
:1018E00080E4891B2FBF0895CF93DF931F92CDB75C
:1018F000DEB76983DC01ED91FC910280F381E02D7C
:1019000041E050E0BE016F5F7F4F09950F90DF917E
:10191000CF91089583E08093E9008091F2008823BD
:1019200019F08AE38093E80008950E94630C90E028
:101930000895CF93DF931F92CDB7DEB7FC01848566
:10194000958597FD05C02FEF3FEF358724870BC0A6
:10195000CE0101960E94390C019719F4898190E01B
:1019600002C08FEF9FEF0F90DF91CF9108950F93FB
:101970001F93CF93DF931F92CDB7DEB78C01FC018D
:101980008485958597FF0EC0CE0101960E94390C83
:10199000019719F4298130E002C02FEF3FEFF801E1
:1019A00035872487F801848595850F90DF91CF9145
:1019B0001F910F910895FC018485958597FD0BC0BB
:1019C0009FB7F89482E08093E9008091F2009FBF76
:1019D00090E0019608959FB7F89482E08093E90023
:1019E0008091F2009FBF90E008958F929F92AF92F6
:1019F000BF92CF92DF92EF92FF920F931F93CF93FC
:101A0000DF935C016B017A0180910701882309F45F
:101A10005BC080914F01882309F456C080914D012D
:101A200080FF05C08091E00082608093E000E701C4
:101A300010E00AEF83E0882E9AE3992E2097D9F1DF
:101A40000E94630C81110AC0015009F43DC061E09D
:101A500070E080E090E00E942E09F0CF282F30E067
:101A6000C217D3070CF48C2F4FB7F8948092E9007B
:101A70009091E80095FF1DC0282F30E0C21BD30BCA
:101A8000F601982F915020F081918093F100FACFC8
:101A9000C20ED31E112319F09092E80009C0809164
:101AA000E80085FD06C09092E80011E0209709F05B
:101AB00010E04FBFC3CF1111C3CF5D9A84E680936E
:101AC0006E051E141F0444F081E090E0F50193833D
:101AD000828380E090E001C0C701DF91CF911F9128
:101AE0000F91FF90EF90DF90CF90BF90AF909F90BD
:101AF0008F900895809150018EBDE1E5F1E08191D4
:101B00000DB407FEFDCF8EBD85E0E035F807B9F7CF
:101B10000DB407FEFDCF0895CF92EF920F934115BC
:101B2000510561F0FA0104913196E4904E5F5F4FE8
:101B300022E0C22E20E030E00E94B2090F91EF9027
:101B4000CF900895CF92EF920F934115510561F018
:101B5000FA0104913196E4904E5F5F4F2AEFC22E56
:101B600020E030E00E94B2090F91EF90CF900895ED
:101B70008091730581110DC082E080936F0584E030
:101B800080937005109272051092710581E0809328
:101B900073058FE695E008951F920F920FB60F928E
:101BA00011248F939F938091E1009091E100937FA6
:101BB0009093E10083FF0FC01092E90091E09093B1
:101BC000EB001092EC0092E39093ED0010924F0125
:101BD00098E09093F00082FF20C093E09093E9009A
:101BE0009091F200992319F09AE39093E800909174
:101BF0006E05992339F090916E05915090936E0582
:101C0000992389F190914E01992339F090914E01D9
:101C1000915090934E01992341F184FF10C080911F
:101C2000E2008E7E81608093E2008091E1008F7EF1
:101C30008093E10080914D018E7E806111C080FF14
:101C400016C08091E2008E7E80618093E2008091D8
:101C5000E1008E7E8093E10080914D018E7E816057
:101C600080934D0104C05D98CDCF2898D6CF9F9129
:101C70008F910F900FBE0F901F9018954091CF0538
:101C80005091D0052091CD053091CE0542175307D4
:101C9000B4F49091E8009570E1F39091E80092FD22
:101CA00019C08093F1008091CF059091D0050196E5
:101CB0008F739927892B19F48EEF8093E800809118
:101CC000CF059091D00501969093D0058093CF05D4
:101CD00081E0089580E00895DF92EF92FF920F93E4
:101CE0001F93CF93DF93D82E8A017B01E40EF51E5C
:101CF000EB01CE15DF0571F0D7FE03C0FE01849124
:101D000001C088810E943E0E21968111F2CF8FEF93
:101D10009FEF01C0C801DF91CF911F910F91FF90FC
:101D2000EF90DF900895615030F02091F100FC01B8
:101D300020830196F8CF289A84E680934E01089577
:101D40000F931F93CF93DF931F92CDB7DEB782E03F
:101D5000898342E450E06DEA7CE080E80E946C0EEA
:101D60000E94B80DDC0112960D911C91139701157C
:101D7000110569F0D801ED91FC910280F381E02D0D
:101D8000BE016F5F7F4FC801099597FF07C089812A
:101D90000F90DF91CF911F910F910895F801008569
:101DA0001185E5CF1F920F920FB60F921124CF929B
:101DB000DF92EF92FF920F931F932F933F934F93D6
:101DC0005F936F937F938F939F93AF93BF93EF93A3
:101DD000FF93CF93DF93CDB7DEB76C97DEBFCDBF58
:101DE0001092E9008091E80083FFEDC168E0CE0128
:101DF00045960E94930E82EF8093E8008D8987FFBD
:101E000005C09091E80090FFFCCF03C09EEF909337
:101E1000E800982F907609F0C6C09E892F89188D0A
:101E200091110CC0803829F48091CC058093F10089
:101E300002C01092F1001092F10048C1422F50E010
:101E4000512B913051F4811141C14130510509F0BC
:101E50003DC18091CC058D7F0BC0933061F4811121
:101E600035C14130510509F031C18091CC05826006
:101E70008093CC052BC1953041F48091E80080FF20
:101E8000FCCF20682093E30021C1963009F05FC0A9
:101E9000EB8CFC8C1092E9001092D0051092CF05CB
:101EA000123091F51092CE051092CD050E94A00E31
:101EB00099E0BE016F5F7F4FDB01E92F1D92EA952C
:101EC000E9F799831A8391E09E8390EA98879AEFC5
:101ED00099872091CF053091D005275F3F4F3C83F4
:101EE0002B838D831092E9001092D0051092CF05BC
:101EF000F092CE05E092CD0549E050E080E00E94EE
:101F00006C0E0E94A00EE2C0F092CE05E092CD05CC
:101F10000E94B80DDC011296ED90FC901397E1142D
:101F2000F10409F4C0C0D701ED91FC910480F58162
:101F3000E02DBE016B5E7F4FC7010995009719F038
:101F40000CF0C4C0C7C0F701E084F184E8CF97303B
:101F500009F4C0C0983021F481E08093F100B6C04C
:101F6000993009F0B3C0837009F0B4C0E3E3F1E045
:101F700081E021E036E39081992361F08093E900CC
:101F80002093EB0091919093EC003093ED008F5FE4
:101F9000873089F78EE78093EA001092EA008F89F4
:101FA00080934F0193C08B8D9C8D1092E90010920D
:101FB000D0051092CF059093CE058093CD05898DE5
:101FC000811156C08E899D89913A59F4813209F068
:101FD00081C047E050E060E071E080E00E946C0E5C
:101FE00075C0913209F076C0833289F4888D90E013
:101FF000982F88272F89822BA0E0B0E080930801DA
:1020000090930901A0930A01B0930B015FC0803245
:1020100069F48091E80082FFFCCF67E080E091E006
:102020000E94930E8BEF8093E80006C0823209F085
:102030004DC08F89809307018091CB05882319F0CB
:10204000EEEFFAE002C0E0E0F8E08091000190914C
:102050000101A0910201B0910301803B9440A105D0
:10206000B10509F07BC08091070180FF93C076C065
:102070000E94B80DDC0112960D911C911397011569
:10208000110541F1D801ED91FC910190F081E02D15
:10209000BE016B5E7F4FC8010995811117C0F80121
:1020A00000851185ECCF113009F44EC0133091F446
:1020B0008F89882309F445C0823081F440E867E0C5
:1020C00081E19DE00E946D15882321F08EEF8093C1
:1020D000E80079C081E28093EB0075C0813029F47B
:1020E00040E86BE085E09DE0EDCF833099F70E94FA
:1020F000B80DDC011296ED90FC9013978E010F5FE6
:102100001F4F6801E114F10479F0D701ED91FC91C2
:102110000680F781E02DB801C7010995080F111D50
:10212000F701E084F184EECFD8011C92F601019012
:102130000020E9F73197BF016C197D0940E0C60125
:10214000C1CF6FEE7CE002C063EF7CE061157105EA
:1021500009F2FB01449150E080E840CF0FB6F894BB
:10216000A895809160008861809360001092600063
:102170000FBEA895EE3F2AE0F20739F08091FE0AE3
:102180009091FF0A91838083A1CF1092FF0A109251
:10219000FE0A9CCFEE3F8AE0F80731F08081918102
:1021A0009093FF0A8093FE0A87E797E791838083E5
:1021B0009BE088E10FB6F894A895809360000FBE6D
:1021C0009093600083CF6C960FB6F894DEBF0FBE7D
:1021D000CDBFDF91CF91FF91EF91BF91AF919F91D3
:1021E0008F917F916F915F914F913F912F911F91AF
:1021F0000F91FF90EF90DF90CF900F900FBE0F9058
:102200001F901895789484B5826084BD84B58160F0
:1022100084BD85B5826085BD85B5816085BD8091B1
:102220006E00816080936E00109281008091810029
:102230008260809381008091810081608093810021
:102240008091800081608093800080919100826005
:1022500080939100809191008160809391008091A2
:1022600090008160809390008091C1008460809391
:10227000C1008091C10082608093C1008091C10043
:1022800081608093C1008091C30081608093C3000E
:102290008091C00082608093C0008091C200816004
:1022A0008093C20080917A00846080937A0080914C
:1022B0007A00826080937A0080917A0081608093B6
:1022C0007A0080917A00806880937A0010924F01A2
:1022D0001092CC0510924D018091D70081608093BF
:1022E000D70080EA8093D80089B5806189BD89B51F
:1022F000826089BD09B400FEFDCF61E070E080E03E
:1023000090E00E942E098091D8008F7C806180939C
:10231000D8008091E000807F8093E0008091E10010
:102320008E7E8093E1008DE08093E200559A209AA2
:102330005D982898EEEFFFE7859194918B3F9C4D37
:1023400019F481E08093CB0581EC80937C0085B10A
:10235000806F85B9249884B1866E84B95E9A5F983F
:102360008AB1806D8AB9769A6E9881B3806F81BB8D
:10237000899880B38D7080BB80E58CBD81E08DBD78
:1023800085E090E00E949B0B5F9A85E090E00E94C0
:102390009B0B5E985C98C2ECD1E01C2F135FFE0192
:1023A00084910E94B30B21961C13F9CF5C9A81E8AB
:1023B0008093640081E080936500C0E0D4E080E019
:1023C0000E94B30B2197D9F70E94A00B87FF1FC073
:1023D0005C9885EA0E94B30B5C9A2E982F982D98F2
:1023E000809164008062809364000E94A80BFDCFFE
:1023F0002D980E94A00B8478843871F00E94A00B65
:102400008471843131F188EC90E00E949B0B0E9432
:10241000A00B82FDEDCF3AC00E94990B88EC90E0B2
:102420000E949B0B2F9882E090E00E94AA158F3F9C
:1024300029F06FEF82E090E00E94B21584EF91E006
:102440000E949B0B2F9A0E94A00B84788438D9F3AA
:10245000D5CF0E94990B88EC90E00E949B0B2E98A0
:1024600082E090E00E94AA15882329F060E082E0D3
:1024700090E00E94B21584EF91E00E949B0B2E9A8F
:102480000E94A00B84718431D9F3BDCF0E94990BB7
:1024900082E090E00E94AA15882331F03E9A3F9A8C
:1024A00081E08093460104C0109246013E983F9817
:1024B0002E98CEEEDFEF512C60E5862E61E0962E51
:1024C00008E010E00E94A00B86FF04C02E9A2F9A0D
:1024D0002D9A94C0CC3F2FEFD20719F42E9A2F9843
:1024E00005C0C831D10511F42F9A2D98852DF4011E
:1024F00081118FEF002481938193819381930394C1
:10250000D1F7C03F4FEFD40784F40E947A0D8BE1DE
:1025100090E00E949B0BC03F5FEFD50709F059C0C8
:102520008AEF90E00E949B0B54C09E01D7FF04C02D
:10253000222733272C1B3D0B27703327CE01D7FDD5
:10254000079653E0959587955A95E1F7D7FF05C013
:102550000197F801E21BF30B9F017C01F694FE2C1E
:10256000EE24F794E79460E070E03801621A730A91
:10257000A70140585F4F5A018F3F5FEF950744F422
:102580000196685A7F4F7501603B710589F7BDCF91
:10259000D701AC51BE4F40E050E08F3FEFEF9E07B8
:1025A00009F407C2FA01E60FF71FEE5EFE4FE49151
:1025B0006D01CA18DB08CE0CDF1CF0E01F01022EF3
:1025C00001C0220C0A94EAF7F601408024282082F8
:1025D000F0C12196C931D10509F074CF8CEB92E09E
:1025E0000E949B0B0E94990BE0915405F0915505B8
:1025F0000190F081E02D84E595E0099582E390E07B
:102600000E949B0B0E94A00B8111F8CF84E680935F
:102610005B05DD24D394CFEFD0E090E4C92E0BEA24
:1026200014E020E0E22E20E0F22E85E0B82E2FB755
:10263000F89480913A0190913B01A0913C01B091B6
:102640003D012FBF40916005509161056091620589
:102650007091630520916405222341F020915C056F
:10266000821B80936505109264059CC184179507B1
:10267000A607B70738F4481B423008F493C10E94FC
:10268000A80B90C1D092640580935C0590935D0582
:10269000A0935E05B0935F0520915B05820F911DAD
:1026A000A11DB11D8093600590936105A093620503
:1026B000B0936305809157059091580501969093CA
:1026C0005805809357054AE253E060E070E080E0EF
:1026D00090E00E948C0D0E94A00B85FF16C040E286
:1026E00053E061E370E080E590E00E94A20D8091EC
:1026F0004501853020F081508093450104C083302E
:1027000010F40E94F90BD09247010E94A00B86FFA3
:102710001BC046E153E061E370E08BE590E00E946E
:10272000A20D80914501833058F0833019F4B092A6
:10273000450108C0863030F48F5F8093450102C0A8
:102740000E94B90BD09247010E94A00B87FF11C0D5
:102750004CE053E06BE270E086E590E00E94A20D51
:1027600080914501882319F0815080934501D092D2
:1027700047010E94A00B84FF11C042E053E066E3D2
:1027800070E086E590E00E94A20D809145018630C0
:1027900018F48F5F80934501D09247010E94A00BEF
:1027A00083FF0CC048EF52E067E370E08CE690E0F6
:1027B0000E94A20D0E94F90BD09247010E94A00B2B
:1027C00082FF0CC048EF52E06EE270E086E790E0D6
:1027D0000E94A20D0E94B90BD0924701E0914501E1
:1027E0008E2F90E08730910578F5FC01EA5AFF4F73
:1027F0000C94C0154AED52E060E070E013C04CEB61
:1028000052E06EE070E00EC04EE952E06CE170E024
:1028100009C04EE852E06CE270E004C04EE752E0BE
:1028200066E370E080E090E00DC042E552E06CE2CB
:1028300070E082E290E006C046E252E06CE270E0B6
:1028400088E390E00E948C0D80904201F6E08F9E1C
:10285000C001112446E152E06FEF7FEF44960E94E1
:102860008C0D6090430126E0629EC001112446E178
:1028700052E06DE070E044960E948C0DA0904401FF
:1028800046E0A49EC001112446E152E06BE170E0F5
:1028900044960E948C0D90904101911003C04EEE21
:1028A00051E002C042E052E06CE270E080E190E072
:1028B0000E948C0D80914001811103C04EEE51E0C9
:1028C00002C042E052E066E370E080E190E00E94E6
:1028D0008C0D80913F01882341F040EE51E06EE283
:1028E00070E080E390E00E948C0D80913E0188238F
:1028F00041F040EE51E06EE270E086E490E00E942C
:102900008C0D0E947A0D80914701882309F44AC0FA
:10291000EA2DF0E0E153FE4F7490E62DF0E0E15334
:10292000FE4FA490E82DF0E0E153FE4FE491BE018C
:102930006E1B71098AE00E948008BE016A19710944
:102940008BE00E948008BE016719710989E00E942E
:102950008008992011F0289A01C0289880914001A0
:10296000882321F05D9A22E330E002C05D98FBCF1E
:1029700080913F01882321F088B18C2588B901C05E
:10298000469880913E01882321F088B1805888B90B
:1029900001C0479AC8010197F1F72150310941F769
:1029A00010924701E114F10409F441CE0E940000A5
:1029B0003CCE2115310581F0FA01E60FF71FEE5EDE
:1029C000FE4FE491F0E0062C02C0F595E7950A94DD
:1029D000E2F7DC90ED29EC934F5F5F4F119648359D
:1029E000510509F0DACDCCCD0F931F93CF93DF9330
:1029F0008C0181E090E00E94AA1580FF31C08AE03E
:102A000090E00E94AA159FEF980F9E3F48F522E3A1
:102A100030E0D80157963C932E93569728E330E048
:102A200059963C932E935897CBE0D0E0D801ED9186
:102A3000FC910190F081E02D682FC8010995CE012D
:102A40000E94AA152196C131D10581F70E947A0D05
:102A500088EE93E0DF91CF911F910F910C949B0B27
:102A6000DF91CF911F910F91089504970C94F41466
:102A7000EBE7F5E01382128288EE93E0A0E0B0E08D
:102A800084839583A683B78380E191E091838083DB
:102A90008FEF9FEF95878487E0E5F5E01382128240
:102AA0001186128620E1238790878783108A118AF6
:102AB000128A138A148A82E291E09183808380E3F0
:102AC00091E095838483178A168A118E108E81E097
:102AD000828F138E848F158E0895CF92DF92EF929E
:102AE000FF920F931F93CF93DF931F92CDB7DEB763
:102AF000182F062FE42E862F880F8E5F99830E9451
:102B00003E0E83E00E943E0EF12EC12E9981D92EF9
:102B10008C2D8F19801798F4F601E7FE02C084917E
:102B200001C080810E943E0E182F80E00E943E0E60
:102B30008123FFEFCF1ADF0A8111EACF01C081E0C4
:102B40000F90DF91CF911F910F91FF90EF90DF9049
:102B5000CF900895F999FECF92BD81BDF89A99273B
:102B600080B50895262FF999FECF1FBA92BD81BD79
:102B700020BD0FB6F894FA9AF99A0FBE01960895FF
:102B8000EE0FFF1F0590F491E02D099481E090E095
:0A2B9000F8940C94CB15F894FFCFD5
:102B9A0000E1000000000000FFFFFFFF000000004E
:102BAA00740CF50C950C8A0CDB0C990CB70C000014
:102BBA0000006B07B8067B087A08F414FCFF0000D3
:0A2BCA00351500C1808100000000F5
:00000001FF
