:100000000C940B120C9433120C9433120C94331284
:100010000C9433120C9433120C9433120C9433124C
:100020000C9433120C9433120C9433120C9433123C
:100030000C9433120C9433120C9433120C9433122C
:100040000C9433120C9433120C9433120C9433121C
:100050000C9433120C9433120C9433120C94782FAA
:100060000C9433120C9433120C9433120C943312FC
:100070000C9433120C9433120C9433120C943312EC
:100080000C9433120C9433120C9433120C943312DC
:100090000C9433120C9433120C9433120C943312CC
:1000A0000C9433120C94FC240C9433121F31343111
:1000B0004D344D344D344731EF311A322532303220
:1000C0004A33BD33A432A432A432A4324D34CE33E9
:1000D0004D34D93151315E338D33A2333A3245320A
:1000E0003C34443410141014091410141E141E143B
:1000F00025142B14B213B213B213B213DD1331143F
:100100003114311436143C143C144614651C6F1C15
:10011000791C651C6F1C6F1C651C651C971C651C7D
:100120006F1C791C831CA21CA21CA21CA21CA21C5A
:100130008D1C7226B92610271C27292733275A27FA
:100140000128682881289F28C228D428F528D5F0BE
:100150008D14A1C881CFD9F1AF2000120000030097
:100160000B0022002900300037003E0050005200F2
:10017000650068006B006E007100780089008F00D8
:100180000701000E40009F9D304030FD0F029F414F
:10019000FE9C02FD03039C02FD03049C02FD03057B
:1001A0009C02FD0306FE25AF28AF2CAFFE25AF282D
:1001B000AF2DAFFE25AF2AAF2EAFFE25AF2AAF2F52
:1001C000AFFE4000FD0F08FD0E09559D2040304157
:1001D000FFFC0A9FCFFE402041015403FD030AFDAE
:1001E000030BFD030CFD030DFE01CFFE04CFFE0645
:1001F000CFFE0BCFFEFD1F08FD370F9F4030FC10D8
:100200004020FC104020FC114020FC10FE41F8A5CD
:1002100043C9FE41FFBF43AFFE0700000A001200C2
:1002200015001E0025002A0000010202403041FF97
:100230009D18FD3F039F401841FDFD3F049F400076
:100240009F01CF06CF05CF0ACFFEFD0206FD0205B6
:10025000FE2DA72AA7FE2DA729A7FE1010FFFFFF3E
:10026000FFFFFFFFFFFFFFFFFFFFFFFFFFFFFFFF9E
:10027000FFFFFFFFFFFFFFFFFFFFFFFFFFFFFFE3AA
:10028000C7FFE7F3FFFFFFFFFFFFFFFFFFFFFFFFDA
:10029000FFFFFFFFFFFFE3C7FFE7F3FFFFFFFFE7FE
:1002A000E79999E7E7FFFFF9F3FFE3F1FFFFFFE3CA
:1002B000C7FFE7F3FFFFF3F3CCCCF3F3FFAF7B7F94
:1002C0007D7F7DABFFEBBD7F7D7F7DABFFAB7D7F1A
:1002D0007D7F7BAFFFAB7D7F7D7FBDEBFFAB7D7F08
:1002E0007D7F7DABFFFFE3C7FFE7F3FFFFAB7D7FC4
:1002F0007F7D7BAFFFEBBD7F7D7F7DABFFFFFFFF92
:10030000FBFFFFBFFFFFFFFEFFFFFFF7FFFFFBFF4E
:10031000FFFFDFFF7FFFFFFFFDFFFFFFBFFFFF7F4F
:100320007FFBFFEFC7DBDBDBD6CFFFFFDFFEDCFDB4
:10033000FDFCFDDFFFF7E3ED6DEDF3F7FFFFFFFFE2
:10034000FFFFFFFFFFFDF1E9D5DBD7CFFFFFFFCFB9
:10035000D7DBD5E9F1FDFFFFFFFFFFFFFFFEFDFB50
:10036000F7E7DBBD7EFEFDFBF7E7DBBD7EFEFDFBB9
:10037000F7E7DBBD7EFEFDFBF7E7DBBD7E00FFFFA1
:100380000066EEEEEEEEEEEE6600FFFF0000FFFF11
:100390000066EEEEEEEEEEEE6600FFFF00FFFFDD24
:1003A000DD7777FFFFFFFFDDDD7777FFFFFFFFDD05
:1003B000DD7777FFFFFFFFDDDD7777FFFFFFDDDD17
:1003C000FFFF7777FFFFDDDDFFFF7777FFFFDDDDE5
:1003D000FFFF7777FFFFDDDDFFFF7777FFCF8739FF
:1003E0007D7DFEFEFEEE6655113377FFFFFFFFDDDC
:1003F000DD7676FEFED68AA9B91B47FFFFCF853989
:100400007D7DFEFEFEEE665531BB7777FFFFDDDDBD
:10041000FFFE7676FED688A9BB9B4777FFAE57AE28
:100420005DAE5DAE57AE57AB57AB57AB57AB57ABA7
:1004300057AE57AE5DAE5DAE57AE57AB57AE57AB8E
:1004400057AB57AB57AE57AE5DAE5DAE57AE5DAE78
:1004500057AE57AB57AB57AB57AE57AE5D3FCFF725
:10046000FBFDFDFEFE7EBE5E3E5E3E5E3E00FFFF8D
:10047000FFFFFFFF0201409028102054025E3E5E05
:100480003E5EBE5EBE7EFEFDFDFBF7CF3F0422500A
:10049000AA14A0400001FFFFFFFFFFFF0020542E21
:1004A00017289482C0E0FFFFFFFFFFBF003F5F3FC0
:1004B0005F3F5F3F5F3F5FAF97CBE5F2FC007FFFA1
:1004C000FFFFFFFFE0C0829528172E5420FCF1EBC0
:1004D000D7AF9F3F5F3F5F3F5F3F5F3F5FFF3F871C
:1004E000DBCDDD2D85C956CE162A56355300A552D3
:1004F000391AA04B0502F1FCFEFEFFFF7F33553693
:100500006A16CE56C9852DDDCDDB873FFF7FFFFF05
:10051000FEFEFCF102054BA01A3952A5002F5F2FF9
:10052000170B058240A05502D4CF952A00D6CC9651
:100530000C50395AA99408E1F3E5AA4500002A9520
:10054000CFD40255A04082050B172F5F2F0045AA7C
:10055000E5F3E10894A95A3950844ED4CE5E3E5E4C
:100560003E5E3E5E3E5E3E5E3E5E3E5E3EE4EAE4F3
:100570004010281C2A5C3A54288048D6CC00946A43
:10058000E70C52A50000FFFFFFFFFFFF000052290C
:100590005C18A5520000FFFFFFFFFFFF0035762A21
:1005A000062A76367135662A162A7636513F5F3F1F
:1005B0005F3F5F3F5F3F5F3F5F3F5F3F5F00FFFF2A
:1005C000FFFFFFFF0000A5520CE76A940000FFFF49
:1005D000FFFFFFFF00005225185C2952000051A2C6
:1005E00075E2440B17AF97AF06A059BA79FFFEFC2E
:1005F000FDFCF0EAD5CFD7CBC3AC5E3C5DF275B263
:10060000610896AF9F2F5F2F168871FA792C598059
:1006100094AB9F2F5F2F5FAE84A0592A59BA79BA45
:100620005106AF97AF970B44E275A251003C5C2E88
:100630009CC3CBD7CFD5EAF0FCFDFCFEFFFFFF3F0C
:100640008F77FBFBFDFDAD53ABD78F3FFFE1CA9525
:100650002A5D2E572B552B552B95AA95C0FFCE18EA
:1006600021FF2118CEFF3F7FD5ABD57F3FFF7FFF16
:10067000AA57AAFF7FFFE78C10FF108CE7FFFF7FD0
:100680003F8F57278BD9FDFDFEFEFEFEFD77089DAF
:100690000FFE3DFAF4E1D7EBD1A7DF8FC7FDFEFED9
:1006A000FEFEFEFEFDFDFEFEFEFEFEFEFDAF1FBFDA
:1006B0004FA7C79F3F9FCF9F4FA75F9F1FFDFEFE86
:1006C000FEFEFDFDD9AB57874FBF7FFFFFA74F9FB2
:1006D000CFA1D3E7D1EAFC3AFD0F5D8877A7CF67BA
:1006E000D1EB7769F51BB07A9CE6DDE2FC29502856
:1006F00084C9D4CAE4E9F3FFFFFFFFFFFFFCE3DE98
:10070000E59E7DB813E97167D3E947EFD7FFFFFF97
:10071000FFFFFFF3E5E8D4CAD588502851A7CF677B
:10072000118B572189D9FCFCFEFEFEFEFC21089DA1
:100730000FFE3DFAF4E1D7EBD1A7DFAFD7FCFEFE09
:10074000FEFEFDFCD9A9518743A947EFD7A74F9FCC
:10075000CFA1D3E7D1EAFC3AFD0F5D885100FDFD42
:10076000FDFD051515151505FDFDFDFD00006F6F5F
:100770006F6C1A6A6A6A6A1A6C6F6F6F00FDFD010E
:10078000F97901F9F9F9F901F9F901FDFD7F7F80A6
:10079000BCB981B8BFBFBF80BFBF807F7F0FF70BE1
:1007A000050505050505050505050BF70F007F8007
:1007B000C0C0E0E0E0E0E0E0C0C0807F0002F2A264
:1007C00052A252F20202F2A252A252F202003F6A76
:1007D000556A553F00003F6A556A553F0002722234
:1007E000522252720202722252225272027F5355D8
:1007F000657F4177417F635D637F41757B02722234
:10080000522252720202722252225272027F417F9F
:10081000417B776F417F417B776F417F7F5E3E5E9B
:100820003E5E3E5E3E5E3E5E3E5E3E5E3E007F7FE4
:10083000730D72336F33731F6E717F7F007AFA7A94
:10084000BA7AFA7AFA7AFA7ABA7AFA7AFA6F6F6F29
:100850006E6F6F6F6F6F6F6F6E6F6F6F6F00BDBF7B
:100860007FFFFFFFFFFFFFFFFF7FBFBD00807E7E9A
:10087000819A9A9A1A9A9A9A9A817E7E8001DADAF5
:10088000C115E5E5E4E4E5E515C1DADA0100DDEEE0
:10089000EEEEEEEEEEEEEEEEEEEEEEDD0000FF2022
:1008A0003636363234323036303620FF00805F50F4
:1008B0009B989B9B189B989B989B505F0001BEBE8A
:1008C000BEBEBEBEBEBEBEBEBEBEBEBE0100FF4000
:1008D0006C606C6C606C606C606C40FF0001FEFED4
:1008E000FEFEFEFEFEFEFEFEFEFEFEFE01F08B6B39
:1008F0006B8BCB8B4BCBCBCB8B6B6B8B70FEFDFBAE
:1009000037C7EBEDEEEEEDEBD727DBBD7EFEFDFB53
:10091000F4C2D5A565E5E5D5C2E4DBBD7EFE0DA339
:100920004159BCBCA4A4B4BC5941A30D7EFEF0C780
:1009300090AF5E405E5E405EAF90C7B07E0000004C
:1009400000000000000000000000000000000000A7
:1009500000000000000000000000000000FF03FB9A
:10096000FB5B5BD97A5A59DB5BFBFB03FFFFFCFBAC
:10097000FBFBFB83737383FBFBFBFBFCFF007E7EB7
:10098000006A6A6A6A6A6A6A6A007E7E00007D019D
:100990007979716D51516D717979017D0000FE0297
:1009A000160A160A160A160A160A02FE00007D0129
:1009B0007979716D51516D717979017D00641812E9
:1009C000184B123512E8157717F31B3C2D7F2CF1CD
:1009D0002C9B2BC929292A292A292A292A1E2BF0AE
:1009E00025841F691AEE1AB429B429B4299D2CDE76
:1009F000297F29A71A4C17080800000000000000F2
:100A000000005500550055005500FF00FF00FF0095
:100A1000FFAAFFAAFFAAFFAAFFFFFFFFFFFFFFFF3A
:100A2000FFFFAAFFAAFFAAFFAAFF00FF00FF00FF27
:100A3000005500550055005500040803000003014F
:100A40000000010000000002010001010008030F86
:100A50000E14090E1505030E05170407010D0503F5
:100A6000130E04030F0606020F0E04190F151204CD
:100A70000E010D0503050E0405170F1214080413CB
:100A80000F0D050601141401030B06010D0F150EC1
:100A90001406040506050E04051408010E0B0710C4
:100AA0000C0119090E070000040D0F1205000705BF
:100AB0000E050D090513040D09131305051605127E
:100AC00019000000011B011C011D011E011F012056
:100AD00001210122012301240125012601270128EA
:100AE0000129012A012B012C012D012E012F01309A
:100AF000013101320133013401350136013701384A
:100B000000010100011302140F03190F1505140849
:100B10000512050604010E07051208120513140F2D
:100B200012051303010C0C04130116050810120F13
:100B300007120513130315130505051115091004F4
:100B40000914050D050C0516050C02151002090EF9
:100B50000314080502091303010912070D0F0E13F0
:100B60001405120301120507120F010D090E0708E3
:100B700005111509101005040513140114130208BA
:100B800010020D1003051810020C160301140B03BC
:100B90000405060313100403190513020E0F020FB8
:100BA00006050914050D1306170501100F0E0501A2
:100BB000120D0F1206010D150C0514050110100C75
:100BC0000505030904051205010E091305080102B4
:100BD00013090E14080504040F170E000000051376
:100BE0000C090E07050B0E09060506120110090572
:100BF000120513170F120403011805050C010E034B
:100C00000505131005011205020C01040504170F58
:100C10000F0C050C090E050E070C05011408051232
:100C200004020F0E0506030F101005120602120F24
:100C30000E1A050409120F0E05131405050C0517ED
:100C400001140512040C0501060406091205071615
:100C50000903140F121904070F0C04040C011314D8
:100C600006051303011005050715011204030F15EE
:100C700012040C010E04040F0E0C1904080F1005C9
:100C800003252525050000000000030E0F170207AD
:100C90000F060205060F1205020914040C011405C3
:100CA00007031205040914130F1309050706120997
:100CB00005040003120F05130B070116090E0001AE
:100CC000140B090E0D0A0F1E12090007010E140F56
:100CD0000913030D0110070E0F1408090E07041461
:100CE000010B0503060F12051314011214040F164D
:100CF0000512000303010E030E0F14060513030172
:100D0000100503070F140401170119061301060546
:100D10000C1905FEFEFEFEFE05060F150E0402016F
:100D20000E0300000002FEFE0200000717050C0380
:100D30000F0D05090112041516090C0C05081012F7
:100D40000F1005121419041408091304120F0104DA
:100D5000060609050C0413051317010D1006060FEE
:100D6000120513140703010E190F0E1304120F03BB
:100D70000B030801130613190D020F0C0A120513B9
:100D8000050D020C090E07050C09070814040205DD
:100D9000010D06050D051207050406120F0D050DC0
:100DA000010709030613150D0D0F0E051408051391
:100DB0000504020F0F0B040C0F0F0B0413010D059C
:100DC000020D050307101306090E13090405031984
:100DD00005140417090C0C040E050504010903137E
:100DE00001170413080F1005051814120106140F3B
:100DF00007070C050701120415020F190B14050152
:100E00000D00012512250725030F0E050D0F0C09F6
:100E10001609051200081501120405020C0104054B
:100E200005100905030504020F131305030112043D
:100E30001300050C05010413000710120513050E1D
:100E4000140615100C0F010407030F0E0E050314F2
:100E5000021003040B050510081012051313090EE8
:100E600007030B05190613050C05031403010E04F3
:100E7000041708050E0512050104190712050C05D3
:100E8000011305040C0F131404170F120D04020FA5
:100E9000150704130E010B04130512100416090E96
:100EA0000504120F0F1404060C010D0804050605B5
:100EB00001140504080110100501120504040000C6
:100EC00000000413050C060205040417050E1403A4
:100ED0000C160C08031209140903010C0513100168
:100EE000120B040301131404060F070C041415124B
:100EF0000C040112020F040401070E04120513145E
:100F0000030215190F86A0A1020003A10486A18C7B
:100F100027A100D10BA3003D00A4FEA5005C86869E
:100F200008A2C5A1C6A10000D00D07000828A2860E
:100F30009D9DFE8686E609095DA146A152A190A16C
:100F4000C3075B0090009E00BD1D7D2A318600A175
:100F500053A22A86A2A154A22A86A2A1FE55003D30
:100F6000005600492A86A21056002A86A1572A86D2
:100F7000FE582A86FE592A860552005C8686035A48
:100F8000FE5B055EA15FA1600445004728044600A2
:100F90005E280446005F280446006028035B005D6D
:100FA000045B005E3C035B005F045B00603C064149
:100FB000001C1B0053064100201B00530641001C6F
:100FC0001B0054064100201B00540640004E0080C8
:100FD0002700000C3E009E004B007EFEC900CA2781
:100FE000040C000D86040E000D8605B5007900B4D2
:100FF00005B5007A00B405B5007B00B40A0F003EC9
:10100000003E0093FE1027000000093E009E003ABB
:1010100000C9FECA0F3F004C0040FE4A004B004D85
:101020008500862F0F4E3C004F0050FE8100823C11
:101030008586A22F0D3E004F00810083FE848686A8
:10104000862F0E8700880089008A293CFE3D008B90
:10105000270DE68CA1008FA1A28EA100C8A18D074B
:101060005B00BB00B400BC030300950B91003F0084
:1010700093FEBA003D00920D000CA0EDE6E6FE00E6
:101080007FA0450047083E009A009B009C27083E31
:1010900000970098009927093E009E8686FE0D2A3B
:1010A000860C3E009E009F00472AA0FE86860C3ECE
:1010B000009E003A005E2AA2FE86860A3E009E003E
:1010C0005F2A86FE86860B3E009E009F00602AFEF9
:1010D00086860BA600A700CE003DFE4B86860C4BF5
:1010E00000AC00AD00AE3CFEAF86860E3A00B0B15B
:1010F00000B23CFEB30007006085114200B600B7A5
:101100003C00B8FE4B00B9003D00BA8504430044E2
:101110002804C40004280609000700032806430029
:101120004A00C33C08C900CA3C009E2AA208CB0062
:10113000CC009E2AA1A1163E00BE00BF003A00903E
:1011400027FEC000C100C7004A003A00B70A532A70
:10115000A02BE6542AA02BA017D2000700C5FE3D05
:10116000004B00D32500D4FED5004B0065FED625EC
:101170001CD70007000300D8FED12500D900D1FEFE
:101180004C00DA2600DBFE4B006500D62F0486DC1F
:10119000E653053E00E48627053AE6A2E5270486E5
:1011A0000C3C27043E000C27038616E806860E3CFE
:1011B000008AE708E63C005800E9004906E6FEEA36
:1011C0000028A2073E0048E800492706BF00130098
:1011D000542702EB27053E00EDA0A0030EE885048E
:1011E00086FEA054053E00BF00F205BF0013007D3F
:1011F00004F30047280C0800010107040F037F5483
:10120000FF57FF077F347F3B7F003F010300010052
:10121000000019187F45FF5AFF0B7F137F5AFF45C7
:10122000FF187F0019000000010103003F3B7F34DD
:101230007F077F57FF54FF037F040F010700010062
:1012400000001B1B7F18FF07FF167F1B7F50FF4509
:10125000FF1C7F001C0000000000010103025F432F
:10126000FF5BFF19FF247F023F0E1F000E000000EE
:1012700000005B43FF54FF177F167F037F18FF19A1
:10128000FF047F001C000000000033317F337F0526
:101290007F2D7F2DFF35FF037F050F000700000026
:1012A000000019187F41FF5AFF167F167F5AFF4131
:1012B000FF187F0019000000010007050F037F35AC
:1012C000FF2DFF2D7F057F337F317F00330000002E
:1012D00000001C047F19FF18FF037F167F177F543F
:1012E000FF43FF005B00000000000E0E1F023F24C2
:1012F0007F19FF5BFF43FF025F0103000100000055
:1013000000001C1C7F45FF50FF1B7F167F07FF1846
:10131000FF1B7F001B00000C0800D8C8FC1CFEA4AB
:10132000FE5AFFDEFFEEFF5EFFBCFE34FEC8FC008F
:10133000D8001C1CFEDAFF6CFEDEFF3EFFBEFF7E07
:10134000FFF4FE68FC00680000006868FCF4FEFC26
:10135000FEFEFFFEFFFEFFFEFFFCFEFCFE68FC0043
:10136000680000006868FCF4FE7EFFBEFF3EFFDE02
:10137000FF6CFEDAFF1CFE001C06087E3F1F3F7E4E
:101380003E0610FFFFFF00FEFF0F3FFF003F0F6014
:101390001800F0FFFFFFFFF00000FEFEFC8E8EFE47
:1013A000FCF800ECFCFC1C3CFCF8F000F8F8F80041
:1013B00000F8F8F80078F8F80100F8F87800FBFB7E
:1013C000FB38333B3800F8F8F8F1C000F8F8F800C3
:1013D0003838F8F870383800FCFCFC0000FCFCFCE5
:1013E00000F6FEFE8E8EFEFCF800FBFFFF8F8F8F57
:1013F0008FDCFFFF7171FFFFFC00FFFFFF071FFF86
:10140000FDF000FFFF7FE0F0FF7F3F001F3F7F7098
:10141000707F3F1E00000F7F3F7F7F0F00006F7FB8
:101420007F73737373007F7F7F01071F7F7F7B0054
:1014300000007F7F7F0000003F7FFFE0E0FF7F37FD
:1014400000FFFFFF071FFFFDF000FFFFFFC787C77B
:10145000C7030303000003030300010101000009A7
:10146000F90900F828D000F028F000F800F8808092
:10147000000000000070887000F828080000FFFFDE
:10148000F708FB0B00F820F800F8A888000000001F
:1014900000F8A85000F8808000F028F000F888706C
:1014A00000F9A989000001010100030303030303FC
:1014B000030810020F595252590F0200005555559A
:1014C0005500001808197DE2DF3F3B15111F9FD919
:1014D000D212D99F1F11153B3FDDE27D190F0F017D
:1014E0000F100F10010E00010E000E0F0112160357
:1014F000021819040201140E010C1003040119054D
:1015000004000F0F0F1010100E0F00110F00000E2F
:101510000E031E0102111E0302171E01020A1F0202
:1015200001071F01010F1F0101001E2003C8F0FF6A
:10153000FF3A0D03966962E8D0636C25830C43B1D2
:1015400094CC59ABA6636502A030E968B503E047C7
:10155000836A5810A888499BADAA4042A43A545FB8
:1015600085814980B0FFFF379ED3D0FFBF498A29CC
:10157000A2118A828B7B8938885BAA25CA01003038
:10158000927BF7ABA9518841A1058B4A8C4FA2925F
:10159000BB498FAC86219229B0499580A449904DD2
:1015A0008EFFFFFFFF08008E0000040000181605E4
:1015B0000017181D1E00051C1D0506050505000564
:1015C000050500050515051F050614131506051468
:1015D000121816050017111D1E00051C1905060519
:1015E000001F190505050005191505050506191340
:1015F00015060514121818111018181D1D17161DA0
:101600001D05061C1E05000505050005051505053B
:1016100005061413150605141218181818111F1DA5
:101620001D1D1D1711050600051C190505050005E2
:1016300019150505050619131506051412051B05D0
:10164000001718101600051C1D1B1E050505001BA4
:101650001F000005051B05050506141315060514D6
:10166000121016050017111B1E00051C191B06057C
:101670000500191B05050005191B000505061913B2
:1016800015060514121F1F050610181F0610181640
:101690001D1018161D1E001B1D1E0005051B05052F
:1016A0000506141315060514120510181818111044
:1016B000161D1D1D191B1E1F1F06191B05051F1FAB
:1016C000191B05050514121315060519061816052C
:1016D0000017181D1E00051C1D050600050500004D
:1016E00005050005051A150005061405131A1A1A32
:1016F000121816050017111D1E00051C19050605F8
:10170000051F190505141A15191A1A12051B1905B2
:1017100000050613121811000510181D17181816C9
:101720001D051C1D1D1E05050505050505150505E1
:10173000050614131A1A1A1A121818180911051D79
:101740001D1D091711050605051C190505050005D0
:101750001915051F050619131A1A1A1A121016055B
:101760000017181B1E00051C1D1B06050505001390
:1017700015050005050513150506140506131A1AA7
:10178000121016050017111B1E00051C191B06055B
:101790000505191B00050005191B05050514121385
:1017A0001A1A1A121F1018180918181B1D1D091DC6
:1017B0001D1B06000605001B050500050513150584
:1017C0000506141F131A1A1A120505050505050545
:1017D00005050506050505050505050505050505B8
:1017E00005050605050505050505050505097B0033
:1017F0004300000D0C27347100333443334333016D
:1018000097B493B40090F9EBF3E0B7D0CDDCC4D03B
:10181000C07000403300780041343399BB33334308
:1018200019DFCC90B0719DBE7BD0E7B0D3EDBC008A
:10183000D0C073D0C8091B091B99BB2D0E1F7EDFBA
:10184000CC343D3C3D3C34117394B304130011D0AF
:10185000C3290B010010031D7C0099BB91B90B77C4
:10186000DDCCD9EFBC3333033DDCC10004734299B6
:10187000BB199BB394FDCC0DDCC0D3C07098B007EE
:10188000330070D9EBB03340079DFEEBB43333D94E
:10189000EFFCC304709DFCC793B010D8C020D3C028
:1018A00000092B0733790B9DBE7B339DBCD9CF1C20
:1018B00034D9CB7D9CB1439DBC99FBE0B4D9CBDD41
:1018C000CCD0C37D1C099BB299BB001DDEEBFDCCC7
:1018D0001197BDDCC73333D9CB423334202D9EBBA7
:1018E00093B07777DDCCD3C10090B99BB99BB7D9C2
:1018F000EFFCEDFECB9DFCE4F3EDBCD1E9FBE4F99C
:10190000CB99FF9CB3EDBCDDCCD7C3D2C01114156D
:101910000721231718162127241C1D1E2524030622
:1019200000060703031A1521232123171625242552
:10193000243737373737373737373737373737374A
:101940003737373737373737373737373737373727
:10195000373737373705050505050101052B2B2BD3
:101960000505062B2B2B0505032829280402030354
:10197000030303020201043405000000000000011B
:1019800000000001000000212300000000252400C9
:1019900000010000000100000001000000353435A6
:1019A000080808332F2F2F2F0932080808080808C5
:1019B0000808080835363608083534373737003711
:1019C000372F2F2F330933343434320832080808C4
:1019D0000808083534353534353534353534353740
:1019E00037373737370808083534352F092F332F65
:1019F0003308080832343236080808080836080860
:101A00000808083737370037372F2F2F2F2F2F0889
:101A10000808080835080808343434080808080895
:101A200008080808080808373737003737373737C6
:101A300037373737373737373737370506053737CB
:101A40003705050537373705050637373737073781
:101A5000371018181818111B1D1D1D1D191B0539CD
:101A60003805191B05030305191B05050505191381
:101A70001A15001412010000000000000500070004
:101A8000010000212223000700252A24000000066F
:101A9000000700000000000000050505050505051C
:101AA0002B2B2B2B05052B2B2C2B05052828292828
:101AB00005050303030305050506040505141A1AA5
:101AC0001A1A1519050605051B19050505061B1922
:101AD00010182E111B17161D2A17161C1E05061C82
:101AE0001E052B2B2B2B05052B2B2D2B0502282818
:101AF00028280203282829280403030303030334A6
:101B00000334033403062B2B2B2123012B2B2B2BEC
:101B10002403282B2B2B0703022829280403030363
:101B2000030303343401030101372F2F2F2F3737DD
:101B3000343131343737083030083737080808086F
:101B4000372F2F2F2F092F080808080808333333A1
:101B50003333333232323232320808080808080888
:101B60000808080808360836083608373737373780
:101B7000370400003E003F005800000101019E00B4
:101B8000010101403041F85005019D18FD01024C52
:101B9000FEFD01024C00FD01024CFEFD01024C0065
:101BA000FC034CFCFC034CFEFC034C00FD01034C0D
:101BB000FCFC034CFEFC034C00FC039F9F19A30D8F
:101BC000A315A30DA314A30DA312A30DA314A30D7A
:101BD000A315A30DA3FE0DA319A3A30DA319ABA3D6
:101BE000FE76BB6346BB2114BC420D990204000083
:101BF00003000B001A000000010040009F403F9DC1
:101C000010FD3F029F41F8FD01034CF9FC034CFB22
:101C1000FC034DFE31A735A738A735A7FE0A000003
:101C2000100018002000210025003C004100480061
:101C30004F00000102039E0001020340189D1A4E4E
:101C4000060BFD03059F401841FAFD03059F403038
:101C500041F4FD06089F9F12DFDFFE4C00FD0306E6
:101C60004C03FD03064C00FD03064C05FD0206FC7B
:101C700007FE06A712A7FE10A30FA30DA7FEDFFD08
:101C80000209C700FE2AA7FE090000230029002C34
:101C9000003000370047004F005600010200039E4D
:101CA00001020003E07F41FA4010FC084020FC08DC
:101CB0004030FC084CFF4020FC084010FC083BA3CF
:101CC0004D9F9D10FD03049FFC059FFD03079F4052
:101CD0003041FF02DFFEFC064CFCFC064CFBFC0620
:101CE0004CF9FC064DFEAF402041FF15CFFECF4121
:101CF000F84020AFFE3BA337A3FE0800000D001301
:101D00000018001B0030003C004400000201039E4C
:101D100000020103402041FCFD1F079F9D30FD078D
:101D2000049FFD3F06009F40009FFD01054B03FD02
:101D300001054BFFFD01054B03FD01054BFBFE318A
:101D4000403F41F0AF401041FCCFFE0140204E012A
:101D50001FDFFE19AF20AF1CA71BA719AFDFFE04C2
:101D600000000300120021000100000040009F9DC0
:101D7000249E01000000403041F4FD3F029FFD031E
:101D8000034CF9FD01034CFEFD01034DFE0EA70EB1
:101D9000A30EA3FE10100000000000C080F878FC25
:101DA000BCFE5EFFEEFFEEFF5EFFBCFE78FC80F83F
:101DB00000C000000000000000030307020700034A
:101DC00001030207030703070207010300030207D9
:101DD0000307000300000000001810F8D0FC2CFEE0
:101DE000AEFF3EFFBEFFBEFF3EFFAEFF2CFED0FCAF
:101DF00010F80018000000000000000000010001C1
:101E000001030307030703070307010300010001A0
:101E100000000000000000000000008080F000F8DA
:101E2000A8FCBCFE7CFE7CFEBCFEA8FC00F880F09A
:101E3000008000000000000000000001010300031A
:101E40000107050F060F060F050F01070003010329
:101E500000010000000000000000008080F020F879
:101E6000D8FC7CFEFCFEFCFE7CFED8FC20F880F05A
:101E700000800000000000000000000101030007D6
:101E8000060F0D7F3D7F3D7F1D3F061F00070103AD
:101E90000001000000000C080006060F000600000C
:101EA000000000000000000000000006060F000611
:101EB0000A080000007F3CFF38FF007F287F38FFC2
:101EC0003CFF007F00000000007F40FF10FF207FEC
:101ED000207F10FF40FF007F00000000007F6CFFAC
:101EE00058FF50FF50FF58FF6CFF007F000000605C
:101EF00060FF7CFF78FF70FF70FF78FF7CFF60FF62
:101F00000060000006011501260137014A015D014C
:101F1000720188019F01B801D201EE010B022A0271
:101F20004B026E029302BA02E40210033F037003F5
:101F3000A403DC03170455049704DD042705750585
:101F4000C80520067D06E0064907B8072D08A90840
:101F50002D09B9094D0AEA0A900B400CFA0CC00D84
:101F6000910E6F0F5A1053115B1272139A14D415FD
:101F700020178018F519801B231DDE1EB420A62211
:101F8000B5241008FFFFFFFFE0DB9B9BADB097A7D8
:101F9000DBE3FFFFFFF1F6F8FCFCFCF2ECE0F2EC17
:101FA000F0F6F9FFDFAFBF6740515555435F584624
:101FB0006DA6A8DFFFFFDFAEBE7E7C616C7274BAD7
:101FC000ADDFFFFFFFBF7F93340531491136967AAD
:101FD000BCFFFFFFFFFFFF9FAEAC908C78600CAEA4
:101FE0009FFFFFFFC3A1F0A3C08763F16380C7A178
:101FF000F3A1C7FF0E08FFFFFF1FAFEFAFEF1FFFFB
:10200000FFFFFFFFFFFF0F577BDBF5F10FFFFFFF28
:10201000FFFFFFF1852BBDBD6DFDFB05F1FFFFFF50
:10202000E7EB81AD3E2E76FEF20DEDEBE7FFFFFF15
:102030003FDFEFAFE767572F1FFFFFFFFFFF9F4F08
:10204000F7F75373B32B17CFFFFFFFC7935DDD7512
:102050007DBD99051BEBF7FFD385464E7E76BADE34
:1020600089051BBBD7CFFFFFFF1FAFF7B7F7F76F90
:102070001FFFFFFFFFFF0FD77BFBDBFB7B77370FDC
:10208000FFFFFF874BFD7DCD7DFD7D3B7B378FFFC8
:102090008743ED7DFE6EC6F67E3E7D3B1B8718189E
:1020A000FFFFFFFFE7D72F272B2D6D5E56D68E8EB5
:1020B00006E5ED9B47BFFFFFDFED2DC3D7B1A603BC
:1020C000A7222415CACEE4F0D130B9A3C335EDDB85
:1020D000FFFFFFFFFFFFF9F4F9FCF8846701F7F653
:1020E000F9FBFCFFFFFFFFFFFF7FBFBFBFBF7F7F8D
:1020F000FF7FBF3F7F7FBFBFBF7FFFFFFFFFFFFFB0
:10210000FFFC7AF872E1E16502020A05950D0AAA60
:10211000D4E4FBE71FFFFFFFFFF2EDDAD5B6AEAD6B
:10212000AEAEADAEAEA6A7A7A3A3A9B7D4DBEDF321
:10213000FFFFFFFF8F77EF8703C7F3E180E3C77BE4
:1021400087FF7FBF7FBF7FFFFF7FBFDF572885E708
:10215000F7EFCFAFCF77FF906F60454BA7C3F5F890
:10216000FCFBF4E9D2CCD8D9CCD9B8BD788EDFC786
:10217000ECEBF7FFFFFFFFFFFFFFFFFFFFFFFF9FFE
:102180002F7FFF3F0601031F3F7F3F170F3FFFFFDA
:102190007FBF1F43850F0741E0E0F0F0707030E033
:1021A000E0D2A4697E78B6C1F8F6EFEFECE6C0C5E0
:1021B000AC47474C44654667B3DCE1F8FEFFFFFFE0
:1021C0000600000A001200150020002C0001020089
:1021D0000240509D0E41FAFD3F039F403041FFFDFC
:1021E00014049F40009F2BAF32AF2EAF2EA72DA718
:1021F000FEFC054CFEFC054C02FC054DFE05DFFE19
:102200000808C7C3018D151DD5FFE3E1C0064ACEFE
:10221000EAFFE3E2C0460A8EEAFFC7C5000D941D3F
:1022200094FF0808AA00800080008000FF9F87B903
:10223000FEF9E79FFFF3E1A080A0E1F322444422EE
:1022400022444422F5CAF5FFD72BD7FFFF83C1E113
:10225000F1F983FFFFF1CCA8A0A8CCF1FF87B381EF
:10226000919387FFFFFDFFBFFFFFF7FF215D515DEA
:1022700015634B87098D339339A557AB6F69B16FE0
:1022800075758D7569A57B21933963453F4B452154
:102290000945032709637B8D6927450921876F8DD0
:1022A000A545270357889F6AB10A090A3363517508
:1022B0000F99459F758D99999F99A5097B0FB12D10
:1022C0007B3F099915BF2DBF45BF5DBF75BF8DBF52
:1022D0003F09101000009068C4B44A42224284941E
:1022E0006890000000000162FF969AE8F8CACEBF2D
:1022F00062010000050800000000001E0505051E23
:102300001F1515150A0E1111110A1F1111110E1F9B
:10231000151515111F050505010E1111151D1F04B9
:1023200004041F00111F110010110F01001F0404ED
:102330000A111F101010101F0204021F1F020408B0
:102340001F0E1111110E1F050505020E11110916A0
:102350001F05050D12121515150901011F01010FA9
:102360001010100F030C100C031F0804081F110A93
:10237000040A1101021C020111191513110E19157D
:10238000130E00121F100019151515121115151531
:102390000A0704041E0417151515090E151515084E
:1023A00001011905030A1515150A021515150E0068
:1023B00000100000002010000000001700000001C5
:1023C00015030000000300000012000000100804C4
:1023D0000201001F1F0E04040E1F1F000C0E0F0E23
:1023E0000C060E1E0E06040E1F0E04040E15150418
:1023F0001010101010000A040A0000000E11000056
:1024000000110E0000040E04000004040400FFFF8D
:10241000FFFFFF00053611241FBECFEFDAE0DEBF5D
:10242000CDBF11E0A0E0B1E0E4E3FDE602C005901D
:102430000D92A239B107D9F727E0A2E9B1E001C0B6
:102440001D92AD35B207E1F712E1CBE0D2E104C055
:102450002197FE010E949236CA30D107C9F70E9427
:10246000E32F0C9498360C9400001092EC0110921B
:102470004B021092EB0181E3E2E1F1E0AEEEB1E05C
:1024800001900D928A95E1F784E180932A028DEE06
:102490009BE10C94102F0F931F93CF93DF930EEEBD
:1024A00011E0C1E1D0E0CE010E944836D8018D9301
:1024B0008D012196C234D105B1F786E080932A02BE
:1024C0001092720088EDEFE6F2E0DF011D928A952E
:1024D000E9F780EF80930D01DF91CF911F910F916C
:1024E0000895982F969596959695660F660FE62F08
:1024F000F0E0E90FF11DE35DFA4EE491282F27701B
:1025000081E090E001C0880F2A95EAF7E82381E096
:1025100009F480E00895CF93DF934DED54E190E00E
:10252000C82FD0E070E0FA01A491B0E03196249178
:10253000319684913196E491CA17DB0784F0A80F95
:10254000B11DCA17DB075CF430E0621773073CF07B
:102550002E0F311D6217730714F4892F05C09F5F7A
:102560004C5F5F4F9431F9F6DF91CF910895FF9260
:102570000F931F93CF93DF9390E2699F90011124F3
:10258000280F311D233092E0390709F4D3C00CF035
:1025900069C0213D310509F4D3C07CF52B333105E9
:1025A00009F477C19CF42132310509F4C7C02CF439
:1025B0002630310509F4C0C0C5C02A32310509F4FE
:1025C000BBC02B32310509F4BBC0BCC02B3A31056E
:1025D00009F4B0C04CF42D33310509F4AFC02435F3
:1025E000310509F456C1AEC0243B310509F4A2C03F
:1025F000203C310509F0A6C09DC0203791E0390785
:1026000009F498C0ACF4283391E0390709F492C07A
:102610002CF42D3F310509F43CC194C0243591E0E0
:10262000390709F436C12136314009F08BC082C028
:10263000253E91E0390709F47DC054F42B3791E031
:10264000390709F479C02A38314009F07BC072C0DB
:102650002D3E91E0390709F46DC02130324009F474
:102660006FC070C0213E92E0390709F463C09CF549
:10267000233792E0390709F45DC0ACF4223392E0CD
:10268000390709F457C02CF42830324009F401C14D
:1026900059C02A3392E0390709F450C02D35324031
:1026A00009F050C047C0253C92E0390709F444C006
:1026B00054F4273792E03907E9F12F38324009F016
:1026C00041C082E9F1C02C3C92E0390799F12E3CDF
:1026D0003240A1F137C0223293E0390709F4D9C062
:1026E00094F4243F92E0390759F124F4223F324018
:1026F00019F128C0283093E03907E1F02132334046
:1027000009F58EEAD1C0213793E0390799F04CF4EE
:102710002B3493E0390709F4BCC02936334091F4D7
:1027200009C02E3893E0390729F0233F334051F494
:1027300087EABAC08AEAB8C08BEAB6C08CEAB4C0ED
:102740008DEAB2C0C62FD82F0E948B1290E0843140
:10275000910508F0A0C0FC01EE58FF4F6C2F8D2FA3
:102760000C9492360E947112811158C06C2F81E036
:102770008D0F0E947112F82E6FEF6C0F8D2F0E943B
:102780007112082F6C2F8FEF8D0F0E94711210E0C5
:10279000000F111F24E0829FC0011124082B192B68
:1027A0000F2961E06C0F8D2F0E94711228E0829F2B
:1027B000C0011124802B912B3FC00E9471128823ED
:1027C00011F08FE071C06C2F81E08D0F0E947112AB
:1027D000F82E6FEF6C0F8D2F0E947112082F6C2F47
:1027E0008FEF8D0F0E94711210E0000F111F24E077
:1027F000829FC0011124082B192B0F2961E06C0F57
:102800008D2F0E94711228E0829FC0011124802B1D
:102810004BC00E947112882309F43FC08FE144C06D
:102820000E9471128111FACF6C2F8D2F0E948B1292
:1028300094E0899F800D1124805F36C00E94711240
:10284000882309F4BECF82E22FC00E947112811149
:10285000E5CF8AE129C00E9471128111F4CF83E291
:1028600023C00E94711281111AC00AC00E94711205
:102870008823B9F080E318C00E947112811113C03F
:102880006C2F8D2F0E948B12895E0EC00E947112D8
:102890000AC082EA09C080E007C080E205C08FE27A
:1028A00003C087E201C081E2DF91CF911F910F91B8
:1028B000FF900895CF92DF92EF92FF921F93CF93F4
:1028C000DF93AC01413F8BE0580708F035C161341C
:1028D0008CE0780708F030C19B01E4E0369527953D
:1028E000EA95E1F7E0ECE29FC001E39F900D11242F
:1028F0009A01F4E036952795FA95E1F7280F391FEC
:10290000273F87E43807E9F1E0F425348FE0380702
:1029100009F44EC048F4293586E0380709F40AC1A5
:102920002931374099F169C0233485E43807E9F14A
:10293000263F87E4380709F4FDC02931344159F1B5
:102940005CC02D358DE5380709F4F4C040F423311F
:102950008AE4380729F12D393C4571F04EC02B34FB
:1029600088E8380781F12C328DE8380789F12B3C53
:10297000354709F042C0DEC08091060280FFDCC00E
:102980003CC08091060281FFD7C037C0809106020B
:1029900082FFD2C032C08091060286FFCFC02BC01A
:1029A0008091060285FFCAC026C0809106020DC034
:1029B000C0910602C095EC2FEE1FEE27EE1F8AE3B2
:1029C0008E1BE82FC9C08091050284FFB7C013C0D9
:1029D00020910102E22FE695E695E695F0E0E251BE
:1029E000FE4F858990E0277002C0959587952A95BE
:1029F000E2F780FFA3C0EAE3AFC0CB019A01E0E6B3
:102A0000F0E0BF010E946A36D62F7C01C901BF01E8
:102A10000E946A36162F6C016D2F812F0E94B7120B
:102A2000982F960184E0369527958A95E1F7A701BE
:102A300064E0569547956A95E1F7A92FAF77AF30D7
:102A400058F1A03240F586E0849FF001859FF00D9B
:102A50001124E20FF31FA83150F484E2A89FE00D87
:102A6000F11D1124E355FA4EE491CE2F0FC0B0E0D2
:102A7000189784E28A9FA0018B9F500D1124E40FC8
:102A8000F51FE355FA4EE491CE2FC295CF70C830B2
:102A900098F0C85E11C0A85086E0849FF001859F21
:102AA000F00D1124E20FF31F84E2A89FE00DF11D49
:102AB0001124E355FA4EC4919F3720F56D2F812FD5
:102AC0000E948B128830F0F08A3018F08A3061F062
:102AD00019C0CF31C8F5C230C9F18DEF8C0F8230EB
:102AE000C8F1C73079F434C0CF31D0F4CC2341F1F0
:102AF000C33081F18FEF8C0F823020F1C43011F19F
:102B0000C73001F1CC3069F028F4CA3051F0CB3035
:102B100011F50BC0CE3029F040F0CF30E1F405C004
:102B2000CEE0E0910C01EC0F17C080910C01EC2F6E
:102B3000E81B12C0E8E310C0EFE10EC0E9E30CC0EF
:102B4000CCE0EFCFCAE0EDCFC0E205C0C0E003C0EB
:102B5000C2E001C0C5E0EC2F8E2FDF91CF911F9115
:102B6000FF90EF90DF90CF90089580913D0281110A
:102B700006C08091390282958F70835208958091AA
:102B800001028E520895CF93DF931F92CDB7DEB727
:102B900080914402811103C00E94D32502C00E948B
:102BA000CE256091440282E090E069830E9448361D
:102BB0006981681721F082E090E00E945036809190
:102BC00004018E5F809320020F90DF91CF910895D2
:102BD00080E00E94742D0E94C31581E080932A0238
:102BE000089540913E0250913F0220914002309161
:102BF0004102FA0131978E179F0774F0425F5F4FD1
:102C0000841795074CF46217730734F0205F3F4F29
:102C100081E0621773070CF080E00895EEEEF1E0BA
:102C200080819181C89790932402809323028281AE
:102C30009381489790932602809325020895CF931D
:102C4000DF932091170230E041E050E0882311F03B
:102C500040E050E0B901640F751F20E030E0A82F7C
:102C6000B0E0F901EA0FFB1FE356FE4F26173707C6
:102C700074F441E050E0811102C040E050E0E9010D
:102C8000C251DE4FC40FD51F99A5908301C0108299
:102C90002F5F3F4F2730310521F7DF91CF91089506
:102CA0008091490298E0899F900111242E3B3105C3
:102CB00044F42F3331053CF0880F880F880F8E5372
:102CC00003C080E801C080E080939A0180914A02AD
:102CD00098E0899F900111242E3C310544F42F3156
:102CE00031053CF0880F880F880F8E5103C080EBB0
:102CF00001C080E0809300018AE080932A02089559
:102D0000CF92DF92EF92FF920F931F93CF93DF93B7
:102D1000082FC62FC42E80914D02882399F010925F
:102D2000030184E00E94812D20919D019091300249
:102D3000882379F0921718F42093300203C081E0C1
:102D400080930301DD24D394E12CF12CD0E010E03A
:102D500018C09217B8F79F5F90933002F3CF20917D
:102D60009D0130E02F5F3F4F821793073CF5FC0138
:102D7000E356FE4F20812E3F69F486E0E80EF12CE9
:102D8000D3948D2D90E020914D02222341F3209188
:102D90003002E7CF6E2D70E08F2D90E06C0F7D1F1D
:102DA00044EF52E2800F911FCC2019F00E94A5251C
:102DB00002C00E94AB2586E0F80EE2CFDF91CF91F2
:102DC0001F910F91FF90EF90DF90CF9008951F9388
:102DD000CF93DF93662339F09091060198131092F8
:102DE00030028093060160934D0220E030E0F9014B
:102DF000EC5FF04F882339F0E491F0E031962E0F2C
:102E00003F1F8150F4CFE4912F5F3F4FA0E0A90115
:102E10004E0F511D241735070CF038C0F901EC5F37
:102E2000F04F94919E3F19F060E070E007C0EA2FE8
:102E3000F0E0E356FE4F9183AF5F25C0FB01E55BF9
:102E4000F54F992339F0E491F0E031966E0F7F1F32
:102E50009150F4CFE491EB012196CB011A2F161B70
:102E6000BE016E0F711DA12FA80F0196861797073F
:102E700054F4FC01E55BF54FE491B0E0A356BE4F7E
:102E80001196EC93F0CF2F5F3F4FC4CFA0939D01DD
:102E9000DF91CF911F91089580E00E94742D60E032
:102EA00081E40E94E71641E068E084E00E94801619
:102EB00060E082E40E94E71641E062E284E00E9462
:102EC00080160E94CB2584FF04C088E780934E02C1
:102ED000089588E00E94812D882341F081E080934D
:102EE0002A02809104018E5F80932002089580E081
:102EF0000E94742D60E089E20E94E71641E06BE0D9
:102F000082E10C94801660E088E00E94E7168AE077
:102F10000E941F1641E062E084E00E94801621E0DA
:102F200040E46AE080E00C94EB2EFF920F931F9335
:102F3000CF93DF9300D000D000D0CDB7DEB7F82E0E
:102F4000CB014AE08E010F5F1F4FB8010E9413367C
:102F5000F80101900020E9F73197E01BFF2019F0FC
:102F60002F2D30E002C021E030E090E00E2E000C6A
:102F7000FF0BA90143565E4F292F30E02E173F0764
:102F80005CF4D801A20FB31F8C91DA01A20FB31F1A
:102F900085518C939F5FF0CFF11002C090939D01FB
:102FA00026960FB6F894DEBF0FBECDBFDF91CF914E
:102FB0001F910F91FF900895CF93DF9320E030E0B1
:102FC000F901E55BF54F662339F0E491F0E03196C5
:102FD0002E0F3F1F6150F4CFE491D9011196882341
:102FE00019F0682F70E002C061E070E0A901AE0F37
:102FF000B11D63567E4F942F921B4F5F5F4F4A1750
:103000005B074CF4FA01E55BF54FE491EB01C90F66
:10301000D11DE883F0CF811102C090939D01DF9113
:10302000CF9108951F93CF93DF9380910401811175
:1030300002C0C8E001C0C2E080E00E94742D60E0E0
:1030400080E00E94E71680910401811104C061E0D4
:1030500081E00E94DC1780914402882319F066E029
:103060008BE102C065E08AE10E94DC1741E06C2F31
:1030700088E20E948016D0E08091200290E00297C2
:103080001CE0189FB001199F700D11246C0F7D1F5B
:103090002CE244EF52E280E290E00E94A52580916C
:1030A000200290E00297189FB001199F700D112423
:1030B0006C0F7D1F2DE244EF52E28AE590E0DF9134
:1030C000CF911F910C94A52580E00E94742D8091D2
:1030D00021028E3F78F460E082E00E94E71641E032
:1030E00061E18FE10E948016809121028F5F8093C1
:1030F0002102089520E043EC54E160E170E084E3B4
:1031000090E00E94A52520E041EB54E160E070E0F2
:103110008CE390E00E94A52520E04FE853E168E1B0
:1031200070E080E190E00E94A52520E041E853E1B5
:1031300060E370E08DE390E00E94A52580914C0350
:1031400090914D0364E670E00E946A36C29790F455
:1031500020E049E753E164E370E08DE390E00E94F2
:10316000AB2564E980E00E94DC1741E065E381E380
:103170000C94801608951F93CF93DF931F92CDB7C1
:10318000DEB7182F70E049830E9495176BE283E049
:10319000810F0E94DC174981642F70E084E0810F69
:1031A0000F90DF91CF911F910C9495179091ED01A5
:1031B0009630B8F420914C0330914D032F70332793
:1031C000232B49F430914C0221E0232720934C0219
:1031D0009F5F9093ED0190914C02992331F00C94F4
:1031E000742D10922802109227020895E091220275
:1031F000EF71E43008F0E0E0F0E0E95BF54F249196
:1032000070E049E35AE090E00C94A525CF938091BB
:10321000EB01882369F080914C0390914D038770F6
:103220009927892B41F4809131028F5F837001C00F
:1032300081E08093310280913102E82FF0E0ED5B74
:10324000FE4FC091EC019C2F990FC90F9081C90FBF
:103250002BEAC29F212D112426956091F0017091D7
:10326000F101E0912502F09126026E1B7F0B482FA1
:10327000417050E0641B750B6F5F7F4F8091EE01D2
:103280009091EF014091230250912402841B950BF1
:1032900047E153E102960E949F256091F0017091F1
:1032A000F1018091250290912602681B790B685FDD
:1032B0007F4F8091EE019091EF0120912302309198
:1032C0002402821B930B2C2F45EF51E102960E94A2
:1032D0009F25C13079F46091F001695F80912502EA
:1032E000681B8091EE018A5F90912302891BCF9128
:1032F0000C94F618CF91089520914C0390912F02D1
:10330000290F20932F024AE0249F90011124482F77
:10331000429FC001439F900D112460E07AE00E941B
:103320006A36862F0895EF92FF920F931F93CF93E3
:10333000DF9300D000D01F92CDB7DEB7182F3091A9
:10334000F90198EF930F092F000F802F083008F034
:1033500087E02D8339834C836B839A830E947C1989
:10336000F82E6B8160933A022D812093330284E022
:1033700080933C02398187EFE82EE30E4C819A81DD
:1033800061112DC0913029F4812F163018F085E09D
:1033900001C0802F0E947C1980933A0283E00E9432
:1033A0007C19482F80913A028F5F9E2D990F9E0DB8
:1033B000990F980F90933A028F2D86958093330240
:1033C000242F220F220F892F67E00E945E36820F82
:1033D00090E1F99E90011124282B209339025091FD
:1033E0003A0283E0589F90011124309335022093D4
:1033F0003402952F990F950F9093360290933702D0
:10340000892F880F80933802852F880F880F850FAA
:1034100080933B02413099F0423059F58E2D880F50
:10342000890F809336028E2D880F492F481B842FD9
:10343000409337022E0D311D2E0D311D10C08E2DE3
:10344000880F492F481B409336028E2D880F890F15
:103450008093370242E0E49E201931091124309311
:10346000350220933402980F90933802951B909365
:103470003B020F900F900F900F900F90DF91CF9124
:103480001F910F91FF90EF9008951F93CF93DF93BB
:10349000D8E3C8E717E08091ED01612F0E945E3606
:1034A0006D2F70E0292F47EF59E08C2F90E00E949C
:1034B000AB25C850C7FF02C0D850C8E7D13458F375
:1034C000DF91CF911F9108951092200210921F0258
:1034D00008958091ED0161E08B5D0E94E716809177
:1034E000ED01823019F487E10E941F168091ED01F1
:1034F000843078F480E00E94742D20E040E460E3A2
:1035000080E00E94EB2E41E062E384E00E9480169E
:103510001AC00E94451A80914C0390914D0366E0B9
:1035200070E00E946A36892B29F48091ED018F5F4B
:103530008093ED018091ED01883028F01092ED012B
:1035400086E080932A020E9406190C940E161092AF
:10355000E90180E00E94742DE091ED01F0E0E95F67
:10356000FE4F80818823E9F0813091F561E084E3AA
:103570000E94E7166091010224EE260F81E090E0A0
:10358000A0E0B0E004C0880F991FAA1FBB1F2A95B6
:10359000D2F720910D02822B80930D02635A86E1AF
:1035A00010C061E080E30E94E716E091ED01F0E0D9
:1035B000ED56FE4F608170E08CE10E9495176DE73B
:1035C0008BE00E94DC1741E060E288E00C948016FA
:1035D0001092ED0186E080932A0208951F93CF9305
:1035E000DF9381E00E94742DD0E011E1CCE0DF5F39
:1035F000612F70E02D2F44EF52E28C2F90E00E945B
:10360000AB25C45FC83710F0165FCCE0D43279F731
:1036100060E083E00E94E7168DE00E941F1640E004
:1036200063E08CE00E9480166091200280911F026E
:103630002AE0629FB00111246F5E7F4F2CE0829FD1
:10364000C00111242CE244EF52E20696DF91CF91A3
:103650001F910C94AB25CF9381E79BE10E94102F23
:10366000109243021092E90181E180932A0289E0DD
:1036700080939B01109298011092ED0180913D0280
:10368000882309F473C080910D0283FB992790F978
:1036900081E0892780930701109208018EE18093D1
:1036A000940180E8809309018091F6019091F701DF
:1036B0004E969093F7018093F6012091010234EE2B
:1036C000320F81E090E0A0E0B0E004C0880F991FC5
:1036D000AA1FBB1F3A95D2F78095909102028923C9
:1036E000809302022D3141F02E3171F02C3181F4A2
:1036F00020E040E065E003C021E042E060E180912D
:10370000FA010E94931919C022E040E068E1F7CF66
:1037100023E041E063E28091FA010E9493198091D5
:103720000A0287FD0AC08FEF80933602809337022A
:1037300010923C0288EC809338028091010294EE52
:10374000980F9093390290E04B974AE5489F90017B
:10375000499F300D11248091340290913502820FDF
:10376000931F909335028093340222C024E044E0FA
:1037700060E08091FA010E94931910920701C091B4
:103780003A0283E00E947C198C9F802D11248F5F68
:103790008093930190E8909308012091F601309175
:1037A000F701A901480F511D5093F7014093F6010D
:1037B0000E94641A80910E02823031F0843019F038
:1037C000813029F401C083E08093320202C010925C
:1037D0003202E0913202F0E0E95BFE4F808180939B
:1037E0009901CF9108955F926F927F928F929F92ED
:1037F000AF92BF92CF92DF92EF92FF920F931F93FF
:10380000CF93DF9386E080939C01E090F001F090ED
:10381000F101C090EE01D090EF0120E831E0C60147
:10382000B9010E946A36E0EDE60FC701B9010E94B6
:103830006A3648E0649FE00D1124EB3028F4F0E094
:10384000E55BFE4F208101C020E0E22FEE0F2E0F3E
:1038500030E0F901EF51F44EE49150E1E59FE001D1
:103860001124D0933F02C0933E02F901EE51F44E71
:10387000E49180E1E89F80011124109341020093BC
:103880004002F901ED51F44EE491E0934202E0E68A
:10389000F0E0C601BF010E947E36262F60934902E8
:1038A000C701BF010E947E3660934A02822F0E94A8
:1038B0008B128093F90190E08331910508F042C0AA
:1038C000FC01EA57FF4F0C949236809143028130FD
:1038D000C9F181E0809343028FE59DE131C0809181
:1038E0004302823079F182E0809343028AEF9CE1C7
:1038F00027C080914302833029F183E08093430203
:1039000088E89CE11DC0809143028430D9F084E0B6
:10391000809343028DE19CE113C080914302853086
:1039200089F085E08093430289E192E009C08091AB
:103930004302863039F086E0809343028DEE9BE1AE
:103940000E94102F80914B02893C68F08091F90110
:103950008950843030F48AE00E947C19873008F462
:10396000A3C210924B0280914C0390914D038F7132
:10397000992721E0409708F020E020930C01C090A7
:103980002202D12CC3FAAA24A0F8B12C80912302E0
:10399000909124024E01881A990A809125029091F3
:1039A00026027801E81AF90A50904202252D277064
:1039B000B701675F7F4F40EB5EE1C40103960E9451
:1039C0009F25B701655F7F4FE5E0CE0ED11CC3FA9E
:1039D000662460F8712C6619770920E046E95EE1FB
:1039E000C40102960E949F25252D30E055E03595B3
:1039F00027955A95E1F7B7016A0D7B1D44E95DE112
:103A0000C4010E949F2567E06A0D6E0D86E0880D57
:103A10000E94F6180E9406192091F0013091F101E0
:103A2000E090EE01F090EF012134FBE03F074CF510
:103A3000E0E0F3E0C70180599F4FBF010E947E364E
:103A4000462FC90180599F4FBF010E947E36862FA5
:103A5000880F880F90E0BC01640F711DFB0143E0EB
:103A6000F595E7954A95E1F7E251FE4F67707727A4
:103A700081E090E001C0880F6A95EAF797A5892B4D
:103A800087A7B091EC01B0FD2CC06CE672E2A0E01B
:103A9000FB014491F0E14F9FA0011124FB013196FD
:103AA0008491FA013397EE16FF060CF402C2495FC7
:103AB0005F4FE416F5060CF0FCC140E1849FC001A5
:103AC0001124281739070CF4F4C10A96281739076E
:103AD0000CF0EFC1B23011F4A093010280E18093A9
:103AE0002A020E940E162091EE013091EF01E09122
:103AF000EC01F0E0790153E0E51AF108EE0FFF1F49
:103B0000EA59FE4F8081E80EF11C8091F0019091FE
:103B1000F1016C0141E0C41AD1084181C40ED11CED
:103B20004091E801442381F1AE0148505109E41667
:103B3000F50644F16896EC16FD0624F5C016D1068C
:103B40000CF1005E1F4FC016D106E4F441E0409333
:103B5000E9011092EA01E0E8F1E0BF010E947E363F
:103B6000462FC901BF010E947E36962F58E0459F1F
:103B7000900D11249A3309F0A3C11092E90189E153
:103B800080932A021092E8018091EA01882309F4C7
:103B90006DC1B601C7010E945A148F3199F5209169
:103BA000F90180910E0290E0022E02C09595879552
:103BB0000A94E2F780FF18C081E090E0A0E0B0E056
:103BC00004C0880F991FAA1FBB1F2A95D2F7209106
:103BD0000602822B8093060261E087E30E94E716CB
:103BE00081E0809327020AC061E086E30E94E71625
:103BF0006091F901675881E20E94DC1781E08093AF
:103C0000E9012CC1803308F429C1873309F426C1A6
:103C10008833A9F0893371F1823309F01AC1809198
:103C2000060283FD09C088608093060261E081E39B
:103C30000E94E71660E90BC161E088E30CC1809146
:103C4000F901883041F461E081E00E94E71682E2E8
:103C50000E941F16D3CF80914A0261E08F3110F08D
:103C600087E1F9C085E30E94E7166091F901675585
:103C700088E1C2CF8091F90197EF980F943018F541
:103C8000855041E050E060E070E004C0440F551FF3
:103C9000661F771F8A95D2F780910202842B80934A
:103CA000020290910602492B40930602807F803FDA
:103CB00039F4809109028068809309028AE101C089
:103CC00084E261E0C8C08091010294EE980F9430C4
:103CD00088F420910202203F49F030E0F90102C04F
:103CE000F595E7959A95E2F7E0FFB3C082E18093FE
:103CF0002A0284CF8B3281F480910B028160809301
:103D00000B028091050280618093050261E083E3EC
:103D10000E94E71661E79BC0E82FE695E695E695D9
:103D2000F0E0E251FE4F982F977041E050E060E0E4
:103D300070E004C0440F551F661F771F9A95D2F795
:103D40009589492B458B65E00E945E36D82FDD0FA3
:103D5000C1E0CD0F61E091111AC080E30E94E71627
:103D60006DE78BE00E94DC17FAE0CF9FE0011124A1
:103D7000BE018CE10E9495178091F6019091F701A8
:103D8000C80FD91FD093F701C093F60137CF9130F8
:103D9000A1F480E30E94E71680910702816080937E
:103DA00007026C2F70E08CE10E94951760910F0262
:103DB000C60FC0930F0261E615C09230A9F480E3EC
:103DC0000E94E716809107028460809307026C2F9F
:103DD00070E08CE10E94951760911102C60FC093AC
:103DE000110263E68BE008CF9330E1F482E30E9496
:103DF000E7166C2F70E06F5F7F4F7595679581E0D8
:103E000090E0A0E0B0E0062E04C0880F991FAA1F22
:103E1000BB1F0A94D2F720910902822B80930902DA
:103E2000675915C083E30E94E71681E090E0A0E0A7
:103E3000B0E004C0880F991FAA1FBB1FCA95D2F714
:103E400020910B02822B80930B0262E76D0F87E1BA
:103E5000D3CE61E08CE20E94E716D0CE8091E901DA
:103E6000811102C00E9450161092EA018091E9016E
:103E70008823D1F120E040E460E380E00E94EB2E53
:103E800041E062E384E0DF91CF911F910F91FF90B9
:103E9000EF90DF90CF90BF90AF909F908F907F90EA
:103EA0006F905F900C94801610923D020E942B1B25
:103EB00058CDAF5F6E5F7F4FA33309F0E9CD11CED0
:103EC0009C3341F41092E9018AE180932A02109216
:103ED000ED015ACE903319F461E08FE302C061E046
:103EE0008CE30E94E7164ECEDF91CF911F910F9188
:103EF000FF90EF90DF90CF90BF90AF909F908F900A
:103F00007F906F905F90089581E080933D020C94C4
:103F10002B1B80E80E94812D882321F081E0809373
:103F20000201089588E10E94812D81111092020101
:103F30000895AF92BF92CF92DF92EF92FF920F93CC
:103F40001F93CF93DF93C091EE01D091EF01E82F43
:103F5000F0E0EE0FFF1FDF01AA0FBB1FAA5ABE4FF2
:103F60008C918E01080F111DC090F001D090F101CD
:103F700011968C917601E80EF11CEE0FFF1FE85AA6
:103F8000FE4FA080B180B701C8010E945A148E3044
:103F900020F5CA0DD11DCB0CD11CB601CE010E945B
:103FA0005A148E30D0F4B701C8010E94F115811166
:103FB00014C0B601CE010E94F11581110EC081E03E
:103FC0008093EB018091F9018D3028F480914B02B0
:103FD0008F5F80934B0281E001C080E0DF91CF9141
:103FE0001F910F91FF90EF90DF90CF90BF90AF9017
:103FF000089508952091560290915702E22FF92FCB
:10400000E80FF11DE80FF11D859194912091540264
:1040100030915502820F931F08952F923F924F9235
:104020005F926F927F928F929F92AF92BF92CF9248
:10403000DF92EF92FF920F931F93CF93DF93CDB751
:10404000DEB764970FB6F894DEBF0FBECDBF2FE684
:1040500032E03C8B2B8B06E912E028E532E0388712
:104060002F8334E9E32E32E0F32E4CE9C42E42E0F4
:10407000D42E5EE9452E52E0552E68E9262E62E0E8
:10408000362E27E932E03A8729872AE932E03C8355
:104090002B837FE9A72E72E0B72E22E932E03E8320
:1040A0002D83E3E96E2EE2E07E2E21E732E03A83B3
:1040B0002983812C912C1B86AB89BC899E96EC911F
:1040C000EE23F1F0D2018C91482F50E02E2F237077
:1040D00030E0421753078CF0F0E0F595E795F59541
:1040E000E795EE0FFF1FEE5FF04E85919491EF8103
:1040F000F885928381831C9203C08F5FF2018083D5
:10410000AB89BC89D4969C91D497992309F43DC07E
:10411000D5968C91482F50E0292F2F77022E000C36
:10412000330B421753076CF197FF06C0E981FA8100
:1041300080818150808305C0A981BA818C918F5F75
:104140008C93E981FA818081811103C081E08083B1
:1041500006C0803420F08FE3A981BA818C93A981B5
:10416000BA81EC91F0E0EE0FFF1FEE5FF04E85910B
:104170009491F70191838083AB89BC89D5961C9279
:1041800004C08F5FEB89FC8985ABA985BA855C91FA
:104190005523D9F1EB89FC8922A5211128C0D10131
:1041A0003C91432F407436FF04C0F7018081918118
:1041B00003C0D8018C9190E0850F911D57FD9A9511
:1041C00037FD0DC097FD09C0442379F0863BB4E26A
:1041D0009B073CF085EB94E204C080E090E0442330
:1041E00021F0F7019183808302C0D8018C9381E094
:1041F000820FEB89FC8982A730E0D1018C918F730B
:1042000090E0281739070CF012A6EB81FC81608141
:10421000662309F44AC0A981BA819C91992309F4C3
:1042200044C0F6018081AB89BC899C967C91482F63
:104230004F7150E0272F2F7130E0421753071CF4C5
:104240008F5F808332C0807E21F480E2F60180831C
:104250000BC0803239F476FD05C06F3F19F080E461
:10426000808302C0F6011082D6018C91807E69F0B5
:104270006F3F29F0262F22952F70920F01C090E0FA
:10428000803419F4862F8F70980FD501EC910E2E83
:10429000000CFF0BE90FF11DEE0FFF1FEE5FF04E5C
:1042A00085919491F70191838083AB89BC89D196E4
:1042B0004C91D197442309F447C0D2963C91632F87
:1042C000607436FF04C0F7018081918103C0D8017A
:1042D0008C9190E0EB89FC8923A950E027FF03C073
:1042E000840F951F02C0841B950B97FD09C06623A0
:1042F00079F0863BF4E29F073CF085EB94E204C042
:1043000080E090E0662321F0D7018D939C9302C05A
:10431000F8018083422F4F7150E03F71832F90E06E
:104320004817590734F42F5FAB89BC89D3962C9377
:104330000BC027FF04C0EB89FC8913AA05C080E8E5
:10434000AB89BC89D3968C93EB89FC8981A192A11E
:10435000009709F097C2C4010496B1E001C0BB0FF9
:104360008A95EAF7B88B4BE1489D9001499D300D45
:1043700011243D872C87A6E3A89DC001A99D900D1F
:1043800011249C0121593D4F3F872E87AB89BC8961
:104390008D919C911197BC016F5F7F4F6D937C93C2
:1043A000FC014491403428F5A981BA814C934423FF
:1043B00021F0F5018081480F4C93A981BA81EC91DD
:1043C000F0E0EE0FFF1FEE5FF04E85919491F70144
:1043D00091838083D1018C91811104C0F20180818D
:1043E000D8018C93EB89FC8984A585FF44C2D60152
:1043F00036C1403A08F06DC1242F30E02054310915
:104400002C30310509F4E0C00CF050C025303105E6
:1044100009F4ACC0BCF42230310509F4A7C04CF457
:104420002115310509F485C02130310509F48DC00D
:1044300022C22330310509F4ABC02430310509F420
:1044400084C019C22830310509F4A5C0E4F426302F
:10445000310509F49DC02730310509F00CC2FB017C
:104460006491AB81BC816C939C012D5F3F4FEB89C4
:10447000FC8931832083FC013296E491AB89BC89AD
:104480009C96EC93F8C12A30310509F488C0029655
:104490002B3031050CF088C0AB89BC8911969C93F8
:1044A0008E93FB0164919E966C93E5C12331310597
:1044B00009F4C2C0ACF42F30310509F4ACC04CF49F
:1044C0002D30310509F48AC02E30310509F488C039
:1044D000D2C12131310509F49EC00CF0A1C080C0C9
:1044E0002C35310509F4BDC05CF42431310509F4E3
:1044F000A7C02531310509F0BEC1AB81BC81AFC079
:104500002E35310509F4D0C00CF4BBC02F35310570
:1045100009F0B1C180910D012889822780930D0196
:10452000D8011C922FEF3FEFEB89FC8932A321A326
:10453000A2C10296EB89FC8991838083FB0164917F
:10454000D8016C93F201608396C10296AB89BC8955
:104550008D939C93FB016491A985BA856C9341343A
:1045600011F080E401C080E0F1016CC1FB016491B5
:10457000A985BA856C939C012D5F3F4FEB89FC891F
:1045800031832083FC013296E491D101EC9373C115
:10459000E985FA8502C0EB81FC8110826CC1AB8990
:1045A000BC899E961C9267C1EB89FC8991838083AC
:1045B000FB016491D5018C91062E000C770B680FDE
:1045C000711D87FD7A9508C00296EB89FC8991835D
:1045D0008083FB016491D5016C934DC1F501DDCF62
:1045E000FB0125913491AB89BC89D1962C93D1974D
:1045F0009C012D5F3F4F2D933C93FC01329685919A
:1046000094914E3411F020E401C020E0820FEB8938
:10461000FC8982AB30C1AB89BC89D1961C922BC17D
:104620000296EB89FC8991838083FB016491AB89BD
:10463000BC89D4966C931FC1EB89FC8914AA1BC159
:10464000EFEFAB81BC81EC930296AB89BC891196EC
:104650009C938E93FB0164919C966C930CC11C926D
:104660000AC10296EB89FC8991838083FB016491E6
:1046700080916E0270E0680F711D60936E02772763
:104680000AC00296AB89BC898D939C93FB0164910F
:1046900060936E0270E089E09DE30E947E36709325
:1046A0006D0260936C02E7C020E030E0FB014491B2
:1046B000F901E159FD4F40A32A5C3F4F6F5F7F4FE7
:1046C000283D310599F70596AB89BC898D939C935C
:1046D000D2C0403E50F450E04F595109AB89BC89DB
:1046E00092965C934E939197C6C0403EC1F4AB89BD
:1046F000BC8980E090E09695982F882797958795BC
:10470000ED91FD91E4912E2F2F77822BE7FDF3CFD2
:104710008F5B9F4FEB89FC8992A381A3ACC04C3F78
:1047200008F4A9C024E0240F223008F049C04C3F0F
:1047300041F00296AB89BC898D939C93FB016491F7
:1047400001C060E0AB89BC89ED91FC9111979F019C
:104750002F5F3F4F2D933C93E491D3015C91E5177C
:1047600059F1AB89BC895F964C91842F90E0AD8163
:10477000BE817C91AE85BF85A80FB91F51967C93F1
:10478000519758965C93AC85BD85A80FB91FAA0FA9
:10479000BB1FA159BD4F8091540290915502281B17
:1047A000390B14963C932E9313974F5FAB89BC89BA
:1047B0005F964C93D301EC93ED81FE81608313C02F
:1047C0004E3F09F041C0AD81BE818C91811107C07F
:1047D000AB89BC895F96EC91EE2329F00DC0815026
:1047E000ED81FE818083D3018C910E94FA1FEB89B9
:1047F000FC89918380833FC0E150AB89BC895F967F
:10480000EC93F0E0AC85BD85AE0FBF1FAA0FBB1FB8
:10481000A159BD4F809154029091550213962D914C
:104820003C911497820F931FAB89BC898D939C9305
:104830002E853F85E20FF31F8189AD81BE818C9368
:10484000808DF301808317C0AB89BC8980E090E044
:104850009695982F882797958795ED91FD91E491EE
:104860002E2F2F77822BE7FDF3CF680F791FAB89AF
:10487000BC896D937C93EB89FC8981A192A10097FF
:1048800009F484CD8F3FFFEF9F0739F00197AB8983
:10489000BC8992969C938E93919720910D01822FC3
:1048A00090E0082C02C0959587950A94E2F780FD68
:1048B00015C03B85333041F4D8018C9190E095953B
:1048C0008795EF81F88509C0D7018D919C91EF8183
:1048D000F88592838183D8018C918083207F89F52C
:1048E0009091FB028091C502890F90913103890F4D
:1048F00090918F02890FE9F02FE832E0F901808171
:10490000298B3A8B0E94FA1F29893A89F901B097BD
:1049100091838083D90112961C921E9211972A5C72
:104920003F4FB3E027363B0749F780EF80930D01F7
:1049300008C088EDEFE6F2E011928A95E9F710924F
:1049400072002B852F5F2B873FEF831A930A2B89E9
:104950003C892A5C3F4F3C8B2B8B0A5C1F4F2F817D
:1049600038852B5F3F4F38872F8336E3E30EF11CEA
:1049700046E3C40ED11C86E3480E511C96E3290E73
:10498000311C29853A852A5C3F4F3A8729872B813C
:104990003C812A5C3F4F3C832B8336E3A30EB11C42
:1049A0002D813E812A5C3F4F3E832D8336E3630E8B
:1049B000711C29813A812A5C3F4F3A8329833B85C8
:1049C000343009F079CB64960FB6F894DEBF0FBE91
:1049D000CDBFDF91CF911F910F91FF90EF90DF90AE
:1049E000CF90BF90AF909F908F907F906F905F908F
:1049F0004F903F902F9008952F922FB62F93209194
:104A00002E02209520932E0221F02F912FBE2F9061
:104A10001895BF93AF930F921F922091630200905D
:104A20006502020E009265022091640210906602F7
:104A3000121E10926602B12DB7FDB095BB0FA0916A
:104A40006202B058BA02110CA12D209159020090B7
:104A50005B02020E00925B0220915A0210905C02EF
:104A6000121E10925C02212D220F2121B0915802BA
:104A700027FDB195AB0F20915E0200906002020EFF
:104A80000092600220915F0210906102121E10924B
:104A90006102B0915D0217FCB195AB0FB1E00090DF
:104AA000680210906902000C111C17FC0B2616FC02
:104AB0000B260092680210926902B091670217FCFF
:104AC000B195AB0FB0910501AB0FA093CF00B091A2
:104AD0004803A0914703119761F0B0934803A09356
:104AE00047031F900F90AF91BF912F912FBE2F9032
:104AF0001895B0916D02A0916C02B0934803A093F9
:104B0000470378943F934F935F936F937F938F9373
:104B10009F93EF93FF9311240E940D20FF91EF913B
:104B20009F918F917F916F915F914F913F911F90D6
:104B30000F90AF91BF912F912FBE2F9018950F938B
:104B400003E00E948C2D0F9108950F930AEF0E94AD
:104B50008C2D0F9108950F930BEF0E948C2D0F91C8
:104B600008950F9302E00E948C2D0F910895FC018F
:104B70000E945C2D319728F068517C4F8F4F9F4FDA
:104B8000F9CFAB01FC010E945C2D641775078E07FD
:104B90009F07C8F308950E94DB2F089510924402E6
:104BA0003E983F9808953E9A3F9A81E08093440250
:104BB000089580914602863018F48F5F80934602F4
:104BC00080919B01E0914602F0E0883011F08D3039
:104BD00019F4EB58FE4F02C0E259FE4F8081089550
:104BE000CF93DF938091ED01863020F481E08093B4
:104BF000280282C3863009F075C380E00E94742DBC
:104C000021E04CE268E080E00E94EB2E8091980168
:104C10008E3150F090914802992331F090919B0190
:104C2000963011F480FD4BC060E08BE40E94E716E3
:104C30000E94B515682F81E00E94DC1780913D022B
:104C4000882381F00E94D925682F880F770B605F39
:104C50007F4F209139024EE950E284E390E00E94B8
:104C6000B12528C00E94D925C82F880FDD0B2091BF
:104C700039022F70BE01605F7F4F44EF5FE189E32F
:104C800090E00E94B1252091390230E044E0359552
:104C900027954A95E1F7BE01685E7F4F42E85FE1E4
:104CA00088E390E00E94B12560913A0270E08AE0CA
:104CB0000E94951740E06FE085E00E94801620E09A
:104CC00040E46CE280E00E94EB2EE0919B018E2F8D
:104CD00090E08E30910508F0A0C2FC01E756FF4F2E
:104CE0000C9492369091FF0180913B02891710F04D
:104CF00084E101C089E10E947C19823030F4109275
:104D0000480281E08093470232C0833110F481E091
:104D100001C082E0809347029091FB012091FC0149
:104D200030E0989F200D311D11244091FA01429FDF
:104D3000C001439F900D11246091360270E00E94E3
:104D40006A366F3F710519F014F06FEF70E06093F1
:104D500048028091340290913502861B910997FF99
:104D600002C080E090E0909335028093340286E0A8
:104D7000FEC0A091FA01B091FC017091FB018091FD
:104D8000320224E08202F001112490913302E458AF
:104D9000FE4FE90FF11D97FDFA9560816093470280
:104DA00090E00196472F50E055954795849F9001DC
:104DB000859F300D949F300D11242B0F311D769F50
:104DC000200D311D1124A29FC001A39F900D11241D
:104DD0006091370270E00E946A366F3F710519F0EA
:104DE00014F06FEF70E0609348028091340290916C
:104DF0003502861B910997FF02C080E090E09093F6
:104E000035028093340286E080939B0110929801D2
:104E10008091F40190919901891B8093F40110C253
:104E20008091F901823119F061E08EE214C081E0D5
:104E30008093010184E002C20E94641A8AE0809398
:104E40009B0180912A0280939C018CE080932A022E
:104E5000F7C161E08FE20E94E71641E064E384E07D
:104E60000E948016EDC11092980180913C02882327
:104E700009F43EC284E10E947C19843008F038C2F3
:104E800080913C02815080933C028CE080939B0196
:104E900080913602982F96959695890F80933602C9
:104EA00080913702982F969596959695890F8093C5
:104EB0003702C6C1809198018F5F809398018D332E
:104EC00008F462C08091340290913502892B09F078
:104ED00053C080913A022091FA01213208F044C077
:104EE0003091F8014EE1849FC00111244091F901F5
:104EF00050E048505109249FB001259F700D1124A6
:104F00000E947E36630F711D80913D02882311F04F
:104F10006C597F4F683C71052CF1685C71092F5FFB
:104F20002093FA018091F301895F8093F3018093CC
:104F3000F2018091F5018C5F8093F5018093F4017B
:104F40008091FB018D5F8093FB018091FD018A5F61
:104F50008093FD018091FF018B5F8093FF0181E0D1
:104F6000809345026093F8011092460288E0809396
:104F70009B011092980164C180910101882311F076
:104F800085E05CC18BE05AC18F3108F190914702F6
:104F9000913051F060E080E5891B0E94E71640E007
:104FA0006AE086E40E948016C091480261E0CC234A
:104FB00041F083E40E94E7160E94B515682F81E056
:104FC00068C088E40E94E7166EE382E014C0809116
:104FD000970161E0811104C087E40E94E7160DC0CB
:104FE0008FE40E94E71660913202662311F0685840
:104FF00001C06CEE8AE00E94DC1741E064E380E0CF
:105000002FCF809198018F5F809398018E3189F521
:105010009091FF0180913B02891710F48FE001C04D
:1050200084E1109248020E947C19843010F1809132
:1050300038029091FA01899FC00111242091FD014D
:105040006091FE0170E0620F711D0E947E3616169F
:10505000170614F061E070E0609348028091F2015D
:1050600090E0861B910997FF02C080E090E080935A
:10507000F201809198018C33F8F48F31A0F0C09147
:10508000480261E0CC2369F083E40E94E7166EE3F6
:1050900082E00E94DC176C2F70E08BE00E94951775
:1050A000ACCF88E402C061E086E40E94E7160E946B
:1050B000B515682F81E09FCF8091F20181118EC0DC
:1050C0008BE080932A0280EC91E20E94102FB8C0FE
:1050D00080919801823360F48F5F8093980161E042
:1050E00084E40E94E7160E94B515682F8EE083CFF6
:1050F00080914502882309F48AC0109245028DE010
:1051000036CF8BE080939B0180919801823308F029
:1051100097C061E085E40E94E7160E94B515682FEC
:1051200083E00E94DC1741E064E380E00E94801687
:10513000809198018F5F8093980189E07FC060E043
:105140008DE20E94E71660913202662311F06858E2
:1051500001C06CEE80E10E94DC176091200280911A
:105160001F0296E0699FB00111246C5C7F4F26E31B
:10517000829FC00111242CE244EF52E203960E9468
:10518000A5256BCE9091FF0180913B02891710F409
:1051900084E101C08FE00E947C1991E0883008F41E
:1051A00090E09093010149C0809198018F5F8093B6
:1051B00098018C3398F460E08AE40E94E7168091AD
:1051C00098018E3120F461E089E40E94E7160E9484
:1051D000B515682F81E00E94DC173FCE8091010158
:1051E0008111D0CE8091970129C0809198018F5F65
:1051F0008093980161E08CE40E94E71641E064E34B
:1052000084E00E948016809198018D33C8F08091CF
:10521000ED018F5F8093ED0113C061E08DE40E948A
:10522000E71641E064E380E00E94801680919801D7
:105230008F5F809398018D3318F08AE080939B01F3
:1052400060E080E40E94E71680919B01873051F472
:1052500080914802882331F0809198018E3110F0BE
:1052600080FD06C06091F20170E084E00E94951715
:105270006091F30170E088E00E9495176091F4015D
:1052800070E08FE00E9495176091F50170E083E176
:105290000E94951780919B018D3021F48091980197
:1052A000837029F041E062E080E00E94801660E0B7
:1052B00081E50E94E71660913202662311F068587A
:1052C00001C06CEE81E00E94DC176091990170E0F2
:1052D00087E00E94951740E06FE08CE5DF91CF9169
:1052E0000C9480168BE180932A021092ED0104C089
:1052F0001092460287E0A2CFDF91CF91089580916E
:10530000F3018093F2018091F5018093F401809183
:10531000E801882391F020E040E460E380E00E940F
:10532000EB2E61E082E50E94E71641E062E384E053
:105330000E9480161092E9010FC00E94451A8091C8
:105340004C0390914D038F709927892B29F48091FC
:10535000ED018F5F8093ED018091ED01873018F0B2
:1053600086E080932A02089520E040E460E380E034
:105370000E94EB2E80912A0261E08C5D0E94E7166C
:1053800041E062E384E00E94801681E0809329027C
:10539000089581E00E94742D20E042ED52E26EE11A
:1053A00070E088E390E00E94AB2561E08BE20E9410
:1053B000E71640E060E185E20C948016CF93DF931E
:1053C00081E00E94742D20E048E060E080E00E94CF
:1053D000EB2E20E040E469E380E00E94EB2E109287
:1053E0004D02DBE1C3E061E66C0F80E00E94DC1758
:1053F00040E06D2F8CE00E948016EC2FF0E0E25F21
:10540000FE4F608170E080E00E94951740E06D2FB4
:105410008EE60E948016C150D650CF3F21F7609192
:10542000200286E0689FB0011124675F7F4F2CE265
:1054300044EF52E285E090E00E94AB2562EC80E010
:105440000E94DC1741E060E084E0DF91CF910C9492
:105450008016BF92CF92DF92EF92FF920F931F932D
:10546000CF93DF9381E00E94742D20E048E060E05C
:1054700080E00E94EB2E20E040E46FE280E00E949A
:10548000EB2E10924D02EE24E394F12CCC24C39425
:10549000D12C00E010E0D0E0B02E20912A0230E0C4
:1054A0002C503109F901EE0FFF1FE251FE4F818DA3
:1054B00090E0002E02C0959587950A94E2F780FF50
:1054C00070C0602F88E0289F600D11246F5980E024
:1054D0000E94DC17CD2FCC0FCD0FCC0FC75F40E063
:1054E0006C2F8CE00E948016E0912A02EC30C9F407
:1054F00086E0D89FB0011124675F7F4F28E144EF19
:1055000052E28CE590E00E94AB25F801E251FE4F9B
:1055100061A170E080E00E94951740E06C2F84E765
:1055200016C0F0E0EE0FFF1FEA52FE4F828D90E0B2
:10553000002E02C0959587950A94E2F780FF09C076
:1055400061E580E00E94DC1740E06C2F88E40E9457
:10555000801680912002D81323C0B09292018091CE
:105560002A0260E08D3031F08E3049F08C3079F4D1
:1055700083E10EC08BE10E94E716B60104C08CE106
:105580000E94E716B7018FE00E94951704C08DE1D5
:105590008B0D0E94E71641E061E384E00E948016D3
:1055A000DF5F0F5F1F4F8EE0C80ED11C86E0E80E54
:1055B000F11C0830110509F06FCF80912A02E82F05
:1055C000F0E0EE0FFF1FEA52FE4F918D911109C0DE
:1055D00060E08D5F0E94E71640E06DE182E20E948C
:1055E0008016E0912A02F0E0EE0FFF1FEA52FE4F14
:1055F000818D882379F06091200286E0689FB00158
:105600001124675F7F4F2CE244EF52E285E090E087
:105610000E94AB2560912A026F5A80E00E94DC173D
:1056200041E060E084E0DF91CF911F910F91FF9006
:10563000EF90DF90CF90BF900C948016CF93DF93C4
:105640000E94451A80914C0390914D0387709927D1
:10565000892B29F48091ED018F5F8093ED0190916A
:105660004C028091ED01911158C0843009F055C071
:1056700081E080934C028091EC0181111FC08091E8
:10568000010290E0880F991FFC01E459FD4DE4915F
:1056900020E1E29FF0011124F093EF01E093EE018D
:1056A000FC01E359FD4DE49180E1E89FF0011124F4
:1056B0003C96F093F101E093F0012BC0D0914A02A7
:1056C000C09149026D2F8C2F0E94B7128F778232C2
:1056D00019F480E591E013C06D2F8C2F0E94B71252
:1056E0008F7790E08A9740E851E0849F9001859FF2
:1056F000300D949F300D1124C90180539D4F90931C
:10570000EF018093EE0188EE9BE09093F10180938E
:10571000F001DF91CF910C940E16873048F0109273
:10572000ED0110924B0286E080932A0210924C0207
:10573000DF91CF910895AF92BF92CF92DF92EF9217
:10574000FF920F931F93CF93DF9381E00E94742DFC
:105750008091060283FFC0C08091F9018D3008F06E
:10576000B3C050E8B52E80E4A82ECB2CD12C80916C
:105770009A01E601C80FD11D93E0D595C7959A957A
:10578000E1F7EA2CF12C809100018701080F111D2F
:1057900023E0159507952A95E1F78C2F8695869538
:1057A0008695202F269526952695220F220F30E0EC
:1057B000280F311DF90143E0F595E7954A95E1F78A
:1057C000E251FE4F87A590E02770332702C09595E0
:1057D00087952A95E2F780FF2EC0602F8C2F0E94BC
:1057E000B712602F87FD1CC08C2F0E94711281118F
:1057F00002C028E027C0602F8C2F0E948B128A30B5
:1058000028F4863048F4843048F017C08A30A9F074
:105810008C3021F421E016C024E014C022E012C034
:105820008C2F0E94B7128A3A51F08C3A51F082398B
:1058300001F327E007C020E005C023E003C025E016
:1058400001C026E08091000190E0E0919A01F0E033
:10585000BC01687F6E0D7F1D681B790BCF01887FAF
:105860008C0D9D1D42E252E28E1B9F0B0E94B125C2
:1058700038EFA30EA3127BCFB30EB31274CF609197
:105880004A028091490220912202237098E0699F88
:10589000B001112490910001691B710938E0839FC8
:1058A000C001112430919A0140E052E2831B91091A
:1058B000DF91CF911F910F91FF90EF90DF90CF90EC
:1058C000BF90AF900C94B12561E08AE20E94E71688
:1058D00040E06DE187E007C061E085E00E94E716E7
:1058E00040E06DE180E1DF91CF911F910F91FF903A
:1058F000EF90DF90CF90BF90AF900C94801620E097
:1059000040E460E083E50E94EB2E60E08AE00E94C4
:10591000E71641E065E08DE50E9480166091200267
:105920008CE0689FB00111246B5F7F4F2CE244EF45
:1059300052E286E590E00C94A5250F931F93CF9338
:10594000DF9380E00E94742D0E94831760E08DE356
:105950000E94E71680910202807F60E0882329F090
:10596000982F9170690F8695F9CF70E084E10E94BD
:10597000951740E06EE084E00E94801660E08EE3C0
:105980000E94E716C3E0D4E088E1C89F800111249B
:1059900020E04BE552E068E270E0C80144960E94C6
:1059A000AB252091020230E00C2E02C035952795E0
:1059B0000A94E2F720FD0AC02D2F2C1B42E252E28E
:1059C0006CE270E0C80148960E94A525C150E0F63F
:1059D00040E06CE184E0DF91CF911F910F910C9436
:1059E0008016CF93DF9380E00E94742D0E9483176E
:1059F00060E086E00E94E716CEEED1E0688579850A
:105A000087E00E9495174D816C8184E10E94BB184C
:105A10004F816E8182E20E94BB1848EC6A8589E35F
:105A20000E94BB1840E06EE084E00E94801660E0B7
:105A300087E00E94E7166C8570E085E00E9495176C
:105A40008D856E8570E0680F711D80E10E9495174D
:105A50008F85688970E0680F711D8AE10E94951733
:105A6000698970E084E20E94951740E06EE084E569
:105A7000DF91CF910C9480160E94061920E040E43B
:105A800060E083E50E94EB2E60E084E00E94E71670
:105A900041E065E08DE50E948016609120028CE077
:105AA000689FB00111246B5F7F4F2CE244EF52E2FC
:105AB00086E590E00C94A525A8E5B7E02FB7F8940B
:105AC0007D918D919C9166B52FBFA89B05C06F3FBE
:105AD00018F47F5F8F4F9F4F22E0660F771F881F5C
