:100000000C9491100C94B9100C94B9100C94B91074
:100010000C94B9100C94B9100C94B9100C94B9103C
:100020000C94B9100C94B9100C94D2190C94441A75
:100030000C94B9100C94B9100C94B9100C94B9101C
:100040000C94B9100C94B9100C94B9100C94B9100C
:100050000C94B9100C94B9100C94B9100C941A2289
:100060000C94B9100C94B9100C94B9100C94B910EC
:100070000C94B9100C94B9100C94B9100C94B910DC
:100080000C94B9100C94B9100C94B9100C94B910CC
:100090000C94B9100C94B9100C94B9100C94B910BC
:1000A0000C94B9100C9487270C94B910EC10F41030
:1000B000AA111413A613F81206132F141512C21244
:1000C00037149914091592159A15F0F89C8E8783A8
:1000D000878E9CF8F00000FEFF0303030303070E66
:1000E000FCF80000FEFF0303030303070EFCF80007
:1000F00000FFFF00000000000000FFFF0000FEFF07
:100100008383838383C7EE7C380000F8FC0E0703EB
:100110000303070EFCF800003F7FE0C08080C0E0D2
:100120007F3FFFFF01010101010101FFFF0000FF0F
:10013000FF0C0C0C0C1C3E77E3C100007FFFC0C01D
:10014000C0C0C0E0703F1F00001F3F70E0C0C0C0D3
:10015000E0703F1F00007FFFC1C1C1C1C1E3773E16
:100160001C00001F3F70E0C0C0C0E0703F1F0000D7
:1001700000000001FFFF01000000D5F08D14A1C8B0
:1001800081CFD9F1AF20001B000011001200320016
:10019000380049004A0067006B0071007A00810056
:1001A00088008B009600A100AC00B500C200CF0013
:1001B000DA00E700F400010110011301230100013E
:1001C000020340249E0405060741FC54029D18FDCD
:1001D00006099F9F404041FAFD0118FC0DFC0EFCF2
:1001E0000FFC10FC11FC12FC13FC10FC14FC15FCA1
:1001F00016FC179FFC1AFD0C199F40249E0405064F
:100200000741FC54029D18FD05099F9F404041FA9B
:10021000FC0DFC0EFC0FFC10FC11FC12FC13FC107E
:10022000FC14FC15FC16FC179FFD0B199F4020A029
:100230004000FEFC0AFC0BFC0AFC0CFE04AB04AB09
:1002400004ABFE02A302A302A3FE07ABFE28AB2869
:10025000AB28AB28A72AA3FE2FAB2FAB2FAB2FA722
:100260002DA3FE2BAB2BAB2BAB2BA72DA3FE26ABCD
:1002700026AB26AB26ABFE34AB34AB34AB34A33267
:10028000A32BA3FE2DAB2DAB2DAB2DA32FA328A30A
:10029000FE2BAB2BAB2BAB2BA72DA3FE34AB34AB80
:1002A00034AB34A337A339A3FE3BAB3BAB3BAB3BF7
:1002B000A33EA337A3FE39AB39AB39AB39A337A380
:1002C00032A3FE34AB402434AB401834AB400C3482
:1002D000ABFE00CFFEFC08AAFC08AAFC08AAFC089A
:1002E000A6FC08A2FECFFEE51C7421631CD51C638E
:1002F0002113214A207C1FD31030203C2C3C1C2C85
:100300002C2C1C0C2C081A00221C2A102010000077
:10031000100A0B000021211B0C2012110F1C193C8C
:100320000C290A3010300020030408000606000FD4
:1003300009090F0F080A080105010F417265617371
:1003400020576F6E20627900426F6F737465720080
:100350004030B0F0F0F0DFAF5EAF56AF56AF56AF03
:100360007EBF50B050B05FAFD6EBD66BF6FFFEFF4E
:100370007EFF86878687FE7FFEDFEEDFFEFF5EAFB5
:100380005EBF50B070F07FE4D9A041408100010011
:1003900001AAAAFFFFFFF7AA55AA55FA8586878604
:1003A000FDFAFD7A7D7F7FEF77BB66EFFE0F0D0EC6
:1003B0000FFCFDFFFFFDFEFFFCFDFFC3C3C3C3FE3B
:1003C000FDFEFDFEF5EAF5AA55AB57FFFCFB0C0858
:1003D000080AB05050505F5F5D2A2D2E171717176F
:1003E000172F5FB8B858B87FFFF7FBFDF3B7DFBF33
:1003F000FFFFC3C3C3C37FBFBF5F2F2F2F2F2F1795
:10040000172F505050502F2F2F2E17170B0B0D0357
:100410000355AA604080003C42BF4343C3C2FCF87E
:10042000E0C0C080808000010E19679F7FFFE1E17E
:10043000E1E1FFFFE39C638000000020D0F80808A2
:100440000808F0D0A0A0A04040A0A0D0E8F80C0C74
:100450000C0D43C3C342FD72EC906183041B0B1768
:10046000172F505050506F18000000000102020575
:100470000D133F212161617F7C00000000C33DC35B
:10048000FFFFF0F0F0F0FF7FBFD80ED9BF7FFFFF76
:10049000FF5555FF7AF56AD56BD76EFD7AFA0D0DCB
:1004A0000A0AF4F474E868E868F474F47AFE43C362
:1004B00043C37EB448B0008000800EB14DFE0F0FE4
:1004C0000F0FFFFF7FFF7EFC7AF661F67AFC0E0FBE
:1004D0000F0D537461727420526F756E6420210089
:1004E00041747461636B730007081E1F33732F73AD
:1004F0000C34794C02473C194C3E39786624101074
:100500002858380402010822085D0822080207065C
:100510000810606048756E74004D61676963005330
:10052000706561720053776F6F70004275726E0074
:10053000546F786963000608040E0400011F1E331F
:100540002D2D331E04040400011F040404001D1794
:10055000506F776572000808D8B655ED957B463D1B
:10056000384C96BDBA944830307C980C02877C3861
:100570000105173F6FC70501456C656D656E740019
:10058000080800000000000000000203020203034C
:10059000030200000000000072FFFF720000000074
:1005A000000040C04040C0C0C04002010101010144
:1005B000010103020000000000000003020000002F
:1005C0000000000003020000000000000003020021
:1005D00000000000000003020404040404040403F7
:1005E000546865204361726420596F7520447265B8
:1005F00077005069636B2061204361726420746FDF
:1006000020506C617900506C6179656400544945F3
:10061000202100506C61796572203200436F6D704B
:1006200075746572000A00000F00100011001800B8
:100630001F00300045004700570000010203403012
:100640009D1941FFFC05FC0941F4FC069F9F9F405A
:1006500000FC07FC089F402041F0A143FE12B600B9
:10066000A012A600A012A200A012A200A0FE0DA23D
:1006700000A00DA200A40DA200A40DA200A00DA236
:1006800000A4FEDFFEFC04A1FC04A5FC04A5FC0400
:10069000A1FC04A5FE0DB7FEEB00506C61796572FC
:1006A000203100506C617965720018180B0100014F
:1006B000002040E030180C06010000000000F000AF
:1006C0000100010B7E80B0800A59B1C0EA53EAC034
:1006D000208840AC2019070130000000D083078338
:1006E0000000C0EBEB14EBC100079B40311E000083
:1006F000000080D00B01C0F178B4C0E03010C88099
:1007000080C0000080E4F838F1C0010B003EC70152
:1007100000170F182480C40DA1CC84016D35000092
:10072000C03F0F00D0800081020000242F1D210057
:10073000100D151300000403000080D057494E53DC
:1007400020210008000003000F001B001C003100E6
:1007500034003D00000102039D189F403041FF50CE
:1007600004015403FC059F403041FF4E0601401830
:10077000FC049F9F2AA300A32AA331B300A331A3A3
:1007800038A336A334A336ABFE06DFFE06A200A0D4
:1007900006A200A0FE06A200A0FE191800FFFFFF9F
:1007A00000FF00FFB0FF6CFFAAFFDAFF2AFFF6FF91
:1007B0008CFF7AFF00FF00FF70FF98FF2CFF7AFF8D
:1007C00034FF88FF70FF00FF00FFFFFF00FF00FF06
:1007D000FFFF00FF00FFC1FFF1FF60FF31FF09FFD6
:1007E0001CFFF0FFE0FF00FF08FF28FFB8FFF9FF44
:1007F00079FF39FF28FF08FF00FF00FFFFFF00FF20
:1008000000FF07FF08FF08FF08FF09FF0AFF08FFB6
:1008100008FF0AFF09FF08FF08FF08FF08FF08FF9D
:1008200009FF09FF0AFF08FF08FF08FF08FF07FF8D
:1008300000FF1708FE010101010101010101010191
:1008400001010101010101010101FE59455320206F
:10085000204E4F0057616E7420746F20517569747B
:10086000203F00446F20596F75205265616C6C7990
:1008700000080B000202020100090400000102024C
:1008800000000524001001052401010104240206D2
:10089000052406000107058103100040090401003A
:1008A000020A00000007050202400000070583025B
:1008B0004000000403090412010002EF020140415C
:1008C00023368000010102030141726475696E6F75
:1008D000204C4C430041726475626F79000408003B
:1008E0000000001700000003000300140E1C0A168D
:1008F0001D170D120804121F151F18030000000E0B
:10090000110000110E000002050200040E04001880
:100910000000000404040010000000100804021F7E
:1009200011111F00121F101D1515171115151F0786
:1009300004041F1715151D1F15151D0101011F1F8B
:1009400015151F1715151F000A0000001A000004D6
:100950000A11000A0A0A0A110A0400011505071FF4
:100960001117171F09091F1F15151B1F1111111F23
:1009700011110E1F1515111F0505011F11151D1F42
:1009800004041F00111F111010101F1F04041B1F4F
:100990001010101F06031F1F02041F1F11111F1F1D
:1009A0000505070705051F1F0909171715151D015F
:1009B000011F011F10101F0F1008071F0C181F1B0D
:1009C00004041B07041C07191515131F110000024E
:1009D000040810111F000002010200101010100185
:1009E0000200001A16160C1F1414080C121212081A
:1009F00014141F0C1A1A16041E05010416160E1FD5
:100A0000040418000D10000810100D1F0808140031
:100A1000111F101C06061C1E02021C0C12120C1CBC
:100A20000A0A04040A0A1C1E04020414161A0A0004
:100A3000021F020E10101E0E1008060E10180E16C1
:100A40000808160608180E1A1A1616041B110000BC
:100A50001F0000111B0400020201011F1F1F1F10B5
:100A6000100020D020C070587C34BC2838B0204002
:100A70000000007D0242447530007864510E1C0075
:100A80000000000070888000A818B8C8E0200000AE
:100A90000000000007080041691D0A376E1C300085
:100AA00000800040A05048B430C8D05020C00000A2
:100AB00000000103060C09446C540A1B516E4F1CC4
:100AC00000128C2DD665D0258E676EC5D23A70285F
:100AD00000000F068076FEC48F3DF06FC307000054
:100AE00000000000A090D878106070B878783000CE
:100AF0000000183C3C91CEDFDF2E01B7DBDCDE8C42
:100B0000000000109A54A42E982EA4549A100000AD
:100B100000285C5D542A54555555345A6061405044
:100B2000200000B0286CC41206B7A884A0C0004002
:100B30000004149449E9241403095D391870000075
:100B400000440C814E1CB8045A5A44589C0E418CE7
:100B50002404401EA0DFC09EA1ADA986D08E001344
:100B6000800014330A3FDEEB51B8B8B440201000C7
:100B7000002010A05008040E66F9FDCE6722103840
:100B80005C000080E05038783850E68F38C000C0F4
:100B9000E0C0604B106590A09065300B60CF030FF4
:100BA0001A00000080C06020A0502868C8F830E01B
:100BB000C010080D251408A99AC990B8EFDA5B395E
:100BC0001F804000C0A0408090E496772F9F8EC089
:100BD0007001394A06396D455D43273E03062C18DE
:100BE00000000008F400E01A24022102E1554A4204
:100BF000800000067906045B405028011E54230340
:100C00000000A0B0703CF2E5AD023805369005AAB0
:100C1000100001403C4E7F1F7E3D724100020100EA
:100C200000A0403810880428042880CC902840A0D8
:100C300000040B03406C050800015369420C0F12BD
:100C400000008040601008840492087844824000CC
:100C5000000000010608102010204020464DD0A0C2
:100C60000040B00804A21244100A02082448000000
:100C70000002051828402145122A782A1400000095
:100C8000000000000080C0601014F8621CFC3800F6
:100C900000020C121C16090000070D080C060301C7
:100CA00002C0A000F04A2A3385D1DA6C601EFE0C27
:100CB000F000150E0814A22796608D06976EC440AA
:100CC0008380D0B07060D8CC96B696CCD860B0B0E7
:100CD0009001000100041004A9BD6D280A00000164
:100CE000014020D030ACDC986038DE1EEC18F000FB
:100CF0000003C134CE3F83BD7E7C089061000700B5
:100D000000008060C060A4AE5A22F03CAE2A0A8A7D
:100D10000201054320436A3615190C475A5E3C0808
:100D2000070080C0E0405090B064485628A4C0E05E
:100D300010060205830041563A0B0603000001002D
:100D400001020286D6DCE8602C262A2A6BEBD2054B
:100D50000100000307074F8C9C98F6650201000014
:100D6000003C38000000000080F8FE0FE3FB1B0B86
:100D70000B8BFBF3F7F6F6F60606ECECECECECEC82
:100D8000ECECECECECECECECEEE6F6F6F6F7F3FB68
:100D9000FBCBCBFBE30FFEF8801E332121339E00FB
:100DA000000080F8FF0FE0F8F9F9F9F9F9F9F9F125
:100DB000F3F3F3F3F0F0FFFFFFFFFFFFFFFFFFFF91
:100DC000FFFFFFFFFFFFFFFFFFFFFFFFFFFFFF7FB3
:100DD0007FFEE00FFFF880060600000000000F3FD6
:100DE000F0C60704040707070707070707070707F1
:100DF00007FFFFFFFFFFFFFFFFFFFFFFFFFFFFFFFB
:100E0000FF0707070707078787070726860707C61D
:100E1000F03F1F00808000000000000000030784F6
:100E2000C4E4E4E4E4E4E4E4E4C49C000FE7E7E7BA
:100E3000E7E7E7E7E7E7E7C7870F1F0FC7E7E0EC5C
:100E4000E4E4E4E5E5E4C4040404070300C040C3AB
:100E50000311000000000000000000FFFFFFFFFF83
:100E6000393939FFFFFF0FE0E0EFEF0FFFFF1838D0
:100E700079FFFFF703E0E0EFEF0FFFF9F0F0FCFD83
:100E8000FDFD0DECE0E0E0000001210100000000AC
:100E90000080C0602060C080000000000C0C007E5C
:100EA000FE803C3E1C1C1C1C1C0C0C0E0C0C0C0C68
:100EB0000E1E1C1C1C1C3C3E80FE7E00000000C060
:100EC000E0E0C000000000030300000E1B3166C616
:100ED00080D060311B0E00003828380001471E38D2
:100EE00020202020301010D0D01010901030202062
:100EF0002020381E07010000060600000101000046
:100F00000000000000000048454C5020504C415962
:100F100020494E464F20434F4E46004040FFFFFFC2
:100F20000707E7E7676767676767E7E70707FFFFA1
:100F30007F7F67671F1F9F9F070787876767070771
:100F4000FFFFFFFF878707077F7FFFFF0707E7E7B1
:100F5000676767676767E7E70707FFFFFFFFFFFF51
:100F600000007F7F6060606060607F7F0000FFFF47
:100F70007E7E98986060F9F97E7E9F9F181886861D
:100F80006767E7E7070780801818FFFF00007F7F8B
:100F90006060606060607F7F0000FFFFFFFFFFFF19
:100FA0008686868686861E1E66668686666667676F
:100FB0000000797980808787F8F8E1E1FEFEE1E1C1
:100FC00080800101F8F8E7E7000007070606FEFE4B
:100FD0007E7E9E9E66667E7E1E1EFFFFFFFFFFFFDB
:100FE00007071F1F9999FEFE0606616166660000ED
:100FF00080801E1E7F7F19190707E1E1F9F9F9F9D1
:10100000878700001F1FE7E7E0E086860606E7E720
:10101000FEFE81819E9E60600606FFFFFFFFFFFFD0
:101020007E7E808081818181F8F81E1E6666606008
:10103000999998989E9E8686F8F87979E7E7F9F964
:101040001919E0E0FEFEFFFF0101070786861F1F5A
:10105000F9F979799F9F60600606FFFFFFFFFFFFA8
:10106000666679797F7F676761617E7E6666F8F87C
:101070001F1F99996161191907079E9E7F7FE7E7F6
:101080008080818119197F7F0606E6E66767E6E6BC
:10109000070778789F9F18181E1EFFFFFFFFFFFFAE
:1010A0000000FEFE060606060606FEFE0000FFFF26
:1010B0006060818166668686F8F879798080F9F9C2
:1010C0008787E1E1E6E6FEFE60608787E6E6676720
:1010D00000006666FFFF98981E1EFFFFFFFFFFFFE0
:1010E000E0E0E7E7E6E6E6E6E6E6E7E7E0E0FFFF82
:1010F000E0E0E7E7FEFEF9F9E7E7FEFEFFFFE1E1EA
:10110000E1E1E1E1F9F9E1E1E0E0E7E7E1E1E6E68B
:10111000E0E0E6E6FFFFE1E1E6E6FFFFFF32303127
:10112000372054524F444F5353202D204A4F3352AF
:101130004900534F554E4420204F464620204F4EE5
:1011400000030412FF030412FF030412FF0304123E
:10115000FF03051304030513040305130403061416
:101160000203061402030715FF030816FF030917FD
:10117000FF00040000000400000004000000040060
:101180000000050105000501050005010500060236
:10119000FF000602FF000703FF000804FF00090527
:1011A000FF010406FF010406FF010406FF01040617
:1011B000FF010507040105070401050704010608EE
:1011C0000301060803010709FF01080AFF01090BD3
:1011D000FF02040C0102040C0102040C0102040CC5
:1011E0000102050D0402050D0402050D0402060EA0
:1011F000FF02060EFF02070FFF020810FF0209118F
:10120000FF2020000000008080000000008080E0BF
:10121000E0F8F89898F8F86060E0E080800000005E
:1012200000000000000606F9F9060678781F1F99ED
:10123000991F1F07076767060687876767060618EF
:1012400018000000000000F9F906060606181899B3
:101250009980800000E0E0181881817E7EF8F80017
:10126000000000000000001F1F0000181818181FC1
:101270001F070700001F1F1E1E1919000001010093
:10128000000000000000000000C0C030300000007E
:10129000003030F0F0F0F0303000000000000000CE
:1012A000000000000000000000CFCF30303030C020
:1012B000C0F3F3C0C03333FCFC3F3F030300000026
:1012C0000000000000000000000F0F3030000000A0
:1012D000003030FCFC3333CFCF3F3FFCFCC0C000BC
:1012E0000000000000000000000000000000000CF2
:1012F0000C0F0F0000000003030F0F00000303009A
:10130000000000000000000000000000808060601D
:1013100098988080606080808080000000000000DD
:10132000000000006060808098986666191998989F
:1013300067670707787879799999868678788080C1
:10134000000000000000010107071E1E787861619F
:101350001818787898986666E7E781817E7E7F7FA7
:10136000F8F800000000000000000000000000008D
:1013700018181E1E19190000010119191E1E18182F
:10138000010100000C0CF0F0F3F33C3C333300009F
:101390003333FCFC3F3FFCFC33330C0CCCCC000063
:1013A000C0C000000303C0C00C0CF3F33C3CF3F3DB
:1013B0000C0CC0C03C3C3C3CF0F0F3F30F0F3F3F43
:1013C0000C0C00000000FFFF3C3C00003C3CFCFC1F
:1013D0003030FFFFF3F30000FFFF0F0F3F3F00002F
:1013E00000000000000000000000C0C03F3FFFFF01
:1013F000F0F0C0C00F0FFFFF3C3CF0F00000000019
:10140000000000000000000000808060607878F834
:10141000F860608080E0E0F8F8F8F8F8F8E0E000C4
:10142000000000000000000000191978789E9EE777
:10143000E7E0E087876767F9F9E7E7070781810059
:1014400000000000007878FEFEFEFE60601F1F7F37
:101450007F7F7F9F9F0000E7E779797E7E7F7F1EF9
:101460001E0000000000000101010118181E1E1ED0
:101470001E1E1E0101000019191E1E1E1E1E1E1812
:10148000180000000000000000CCCC30303030FCF0
:10149000FCC0C0FCFC30303030CCCC000000000080
:1014A000000000000000000303C3C33333CCCC0CA6
:1014B0000CC3C30C0CCCCC3333C3C30303000000F8
:1014C000000000C0C0F0F0F3F33030CCCC3030334B
:1014D00033333333333030CCCC000003030000000F
:1014E0000000000C0C3333333333330C0C33333301
:1014F00033333333330F0F33333C3C3C3C303033E6
:10150000330C0C00000000000000C0C0F0F03030D0
:101510000C0C3C3C3F3FC0C03030000000000000DD
:101520000000000000000000CFCF0C0C3C3CF0F0AD
:1015300003030000CFCFCCCCC0C0CCCCF0F0000077
:1015400030300000303030303030C3C3C3C33030AF
:1015500030300F0FC3C3F3F3C3C3C0C0000000009B
:101560000000000000000303C3C33030FCFC0C0C7F
:1015700003030000000033330F0F03033F3F00005D
:101580000000003030F0F00303FCFCF0F0C0C0308D
:1015900030CCCCCCCC3030C0C0F0F0FCFC0303F03D
:1015A000F0303030300000C0C030300303CFCF0007
:1015B000003333333330303333C3C300003030C0F3
:1015C000C00C0C30300000FCFC0000FFFF0000FCF1
:1015D000FC0303F3F3C3C33C3C0000FCFC00000F1E
:1015E0000F0000000030300303CCCCF3F3F0F0C365
:1015F000C3CCCCCCCCCCCCC0C0F3F3C0C000000377
:1016000003C0C0000030300F0FCCCCFFFFFCFCCF7C
:10161000CF0303C0C0C0C030300000000000000095
:10162000000000000003030F0F00000F0FF3F3FC96
:10163000FC3333CFCFCFCFCFCF30300C0C030300F0
:101640000000000000000000000000C0C03030FCBE
:10165000FC3C3CC3C3F3F3FCFC3F3F0C0C0000C05C
:10166000C0F0F00C0C0303CCCC33330000000000BE
:10167000003C3CFFFFFFFFF0F03C3C0C0C03030F71
:101680000F333300000000000000000000C0C0C0A5
:10169000C0C0C000003C3CFFFFC0C0000000000014
:1016A00000000000000000C0C0FCFC33330F0F3FFF
:1016B0003F0F0F3333FCFCC0C00F0FF0F00000F001
:1016C000F0FCFC00000000CFCF000033330000002E
:1016D00000000033330000CFCF0000FFFF0F0FFFEB
:1016E000FFCCCCF0F03C3C303003033C3CC3C3CCDB
:1016F000CCC3C33C3C0F0F00003C3CF0F0000000AA
:101700000003030000000000000000000080808053
:101710008080806060989898981818F8F8E0E080C9
:1017200080000000000000606078781E1E070761DE
:10173000619999666601010707FEFE9F9FE1E17FBF
:101740007FFEFE606018181E1E8686666618189852
:1017500098797918186060F8F89F9F79797979F805
:10176000F87F7F0000000000000101000000001968
:101770001918181E1E181819191F1F1E1E060601FB
:101780000100000000000000000000000000000058
:10179000000000606078787E7EFEFEFEFEF8F800B5
:1017A000000000808060600000E0E0989860608049
:1017B000808686F8F886867E7E191987878181E083
:1017C000E07E7E07078686989879798787E6E667C0
:1017D00067E7E71F1F7F7FF8F81E1E7979E1E18137
:1017E00081000000001F1F616100001F1F797960E8
:1017F000606767606018181F1F0000000019190754
:101800000700000000808060600000000098986081
:1018100060181806061818060666669898181800C4
:1018200000000000000101FEFE0000F8F8070718A4
:1018300018000018180000F8F866666161606080A2
:10184000800000000078788787787861619E9E002C
:1018500000000080800606F9F960601E1E1E1E0151
:10186000010000000000007F7F000000006767604B
:101870006066661919000007076666181800000000
:1018800000000000000000000000E0E0181866669C
:10189000E6E6181880806666787800006666989894
:1018A0000000000098989E9E7E7E1F1FFEFEF8F8A6
:1018B000999900001F1F00001E1E8686000099993E
:1018C0000606000007070101E0E0F8F8FFFFFFFF50
:1018D000F9F9E6E6181806060000191906060101CE
:1018E00000000000000060601F1F61617F7F07072C
:1018F0007F7F1F1F7E7E60600000000000000000F0
:101900000000000000000000E0E080806060181827
:101910006060181860600000787880806060000067
:1019200000000000666698988787010160608080EB
:10193000060600008686E0E0F8F8616106069898E1
:10194000666600001818676707070000787819199D
:1019500060600000010187876161060678787F7FFB
:101960008686000000000000000018181E1E0000FF
:1019700000000000000019191E1E181800000000C9
:10198000010100000000000000000080806060187D
:1019900018181886866060E0E01818060600000037
:1019A0000000000000606098981E1E0101000060A9
:1019B000600000616100001F1F1818E0E0181800A7
:1019C0000000000000000001011E1E606080800019
:1019D0000080800000000000001E1E7979808000D9
:1019E00000000000000000000000000000010106EF
:1019F00006010106061818060618181818797966DF
:101A000066000000000000000000C0C030300C0C78
:101A10000C0C30300000CCCC0C0CC0C03030C0C03E
:101A20000000000000003030CFCF00000000CCCC20
:101A30000303303003030000000000000C0C3030C2
:101A40000000000000000C0C3333C0C0C0C0000018
:101A5000030333330C0CCCCCC0C0CCCC30300000F2
:101A60000000000000000000000003030C0C3030F8
:101A70000C0C303003030C0C3F3F0C0C0303000034
:101A80000000000000000000000000000000000056
:101A9000000000C0C000003030C0C0C0C000000066
:101AA00000000000000000000000000000C0C0F0C6
:101AB000F00C0C0C0CFFFFF0F00F0FFFFF3F3F008E
:101AC0000000003030C0C03030C0C0F3F30F0F0052
:101AD000000000FCFCCFCF0000C0C0F3F33C3C0C86
:101AE0000C3030000003030C0C0F0F0C0C03030030
:101AF00000000000000303030303030000000000D4
:101B00000000000000000000000000CCCCCCCC0F96
:101B10000F33330303CCCCF0F00000FCFCFCFCF0F2
:101B2000F00000F0F0CCCC0000FFFF30300C0C0FC8
:101B30000FC0C0F3F3F3F33C3C3C3C0303FFFF0056
:101B400000FFFF00003333FCFCC0C030300C0C3F02
:101B50003F3C3C0000F3F33C3C3F3FFCFC3030009A
:101B6000000F0F00000303000000000303CCCC0CA7
:101B70000CC3C33C3CC0C00000C3C33C3CF0F030CD
:101B800030C0C000008080808080800000E0E0786D
:101B9000789E9E9E9E9E9E7878E0E00000808080E9
:101BA000808080E0E07979E7E71F1F1E1E79797851
:101BB00078E1E1E7E7E1E1787879791E1E6767E788
:101BC000E7E1E10101000001010000181880801820
:101BD000186161F9F97979606066660000000001BA
:101BE00001010100000000000000000000010100F0
:101BF00000666667671E1E06060000000000000003
:101C0000000000000000000000808080807878F8EC
:101C1000F8E0E00000E0E0FEFEFEFE7878E0E08024
:101C200080000000009898868679790707E6E6F933
:101C3000F9E1E11E1E070779790101FEFE0101FFAE
:101C4000FF000000000707010198987E7EFFFF0754
:101C500007F9F9FEFEF8F860608080010100001FBE
:101C60001F000000000000787807077878070760F9
:101C70006067671F1F1F1F000061611E1E000000BC
:101C8000000000000000000000000000003030FCF8
:101C9000FCCCCC0C0C0000F0F0FCFCCCCCCCCCCCC4
:101CA000CC0C0C0000C0C03C3CF0F03C3CCCCCCC9C
:101CB000CC33330C0CFFFF0F0FCCCC0C0C0000C04E
:101CC000C00000030333330F0F00000F0FCCCC3CD8
:101CD0003C3333C3C3F0F03F3FCCCCFCFCF0F0C04E
:101CE000C03F3F0000000030300C0C30303C3C0F57
:101CF0000F0303030300003030333333330F0F007F
:101D00000000000000000000000000000080808053
:101D1000808080181860609E9E6060181800000027
:101D200000808000006060F8F8FEFE181899996144
:101D30006167679E9E1818999906066666F8F87E90
:101D40007E81811E1E060619190707000001019EEB
:101D50009EE6E667671E1E070700000000010100FF
:101D60000001010000000000006060000018181968
:101D7000190707000000000000000000000000003C
:101D80000000000C0C0C0C3C3C3C3CF0F0C0C000D3
:101D900000F0F03C3CCCCCCCCCCFCFCFCF0C0C3334
:101DA00033030300000000C0C0F3F3F3F3FCFC3C7A
:101DB0003C0C0C0C0C0C0C0C0C3C3CFCFCF3F30031
:101DC000000000000000000F0F3F3F3F3FFFFFF00B
:101DD000F0F0F0C0C03C3C33330C0C0303000000B7
:101DE000000000000000000000000000003030C0D3
:101DF000C0C3C3C3C3FFFF3C3C00000000000000A1
:101E0000000000080800302826FFFF2000004F8F48
:101E10008989F97100007CFE8B89F970000001C18D
:101E2000F13D0F03000076FF8989FF7600008E9F49
:101E300091D17F3E00080800FF00FF00FF00FF0077
:101E4000FF00FF00FF00FF00F0F0F8F8FC0CFE06BA
:101E5000FF06FF03FF03FF03FF03FF07FF07FF0D5D
:101E6000FFFBFFF3FF0BFF0BFF0BFF0BFF0BFF0B4A
:101E7000FF0BFF0BFF0BFF0BFFF3FFFBFF0DFF073C
:101E8000FF07FF03FF03FF03FF03FF06FF06FF0C2F
:101E9000FEF8FCF0F800F000FFEFFFDFFF30FFE09E
:101EA000FF60FFC0FFC0FFC0FFC0FF60FF60FF30EA
:101EB000FF1FFF0FFF00FF00FF0FFF1FFF30FF603E
:101EC000FF60FFC0FFC0FFC0FFC0FF60FFE0FF304A
:101ED000FFDFFFEFFF00FF00FFFFFFFFFF00FFFF3F
:101EE000FF00FF00FF00FF00FF00FF00FFFFFF00FB
:101EF000FFFFFFFFFF00FF010203030304050607C6
:101F000000000008090A00000000000B0A000000A1
:101F100000000B0A00000000000B0A000000000097
:101F20000B507265737320427574746F6E20746FFA
:101F300020506C6179005061737320746865204192
:101F4000726475626F79206F6E20746F003220505A
:101F50006C61796572204D6F6465003120506C6151
:101F6000796572204D6F64650053656C65637420FC
:101F7000506C61796572204D6F6465003E0041646C
:101F800076616E6365640042617369630053656CDA
:101F90006563742047616D65204D6F646500801036
:101FA00000000000F0FE3E2626260680D0D84848D5
:101FB000F8F80000F0F8180898F8F80000C8FE7E5D
:101FC000080880D0D84848F8F80000307868C8D8A9
:101FD000980038F880C0F038080000000000F0FEDB
:101FE0007E62E2F63E1C80D0D84848F8F80000F047
:101FF000F81808D8F8300898F8F80000F0F8180831
:1020000018F8F80080D0D84848F8F80000F0F81820
:102010000898F8F80000F0F84848787800000000C8
:10202000000000000303000000000001030302039E
:102030000303000203030000030300000001030385
:10204000030001030302030303000103030203036C
:102050000118180F0F030000000000000000030328
:102060000000010303000103030203030300020352
:1020700003000003030000030300000E0F0303032B
:10208000030300000103030203030300040D1B1BF1
:10209000190F0F00000001030303030100000000FB
:1020A000000006011501260137014A015D01720198
:1020B00088019F01B801D201EE010B022A024B02F6
:1020C0006E029302BA02E40210033F037003A403FA
:1020D000DC03170455049704DD0427057505C805BE
:1020E00020067D06E0064907B8072D08A9082D0936
:1020F000B9094D0AEA0A900B400CFA0CC00D910E7A
:102100006F0F5A1053115B1272139A14D4152017C3
:102110008018F519801B231DDE1EB420A622B524CD
:10212000092B11241FBECFEFDAE0DEBFCDBF11E0D7
:10213000A0E0B1E0E8EFF8E502C005900D92A6330B
:10214000B107D9F727E0A6E3B1E001C01D92A73699
:10215000B207E1F710E1C1E9D0E104C02197FE0127
:102160000E946D2CC039D107C9F70E946B280C94CE
:102170007A2C0C9400000895089580E090E0089572
:102180000F930AEF0E94C8170F9108950F9302E072
:102190000E94C8170F9108952D9A08950C94062255
:1021A0000E947D220895EF92FF920F931F93CF9389
:1021B000DF9388E080933A01E09110018E2FEE0FBB
:1021C000990BAA0BBB0B8F30910508F019C5FC01C8
:1021D000EA5AFF4F0C946D2CDF91CF911F910F9114
:1021E000FF90EF900C942F1D0E9489208091660132
:1021F00042ED54E0813009F092C068E080E20E9434
:102200005E1F20E040E553E060E170E080E090E098
:102210000E94C61048E453E062E184E40E945E1F1D
:1022200048E755E06AE184E40E945E1F2091640162
:1022300046E555E065E170E088E790E00E94C61051
:102240004BE353E068E284E40E945E1F80916901E1
:10225000811129C043EA56E060E384E40E945E1FD6
:102260002091000149E253E060E370E08BE790E0E9
:102270000E94C0104CE156E068E384E40E945E1FB7
:10228000209100012E5F49E253E068E370E08BE7A4
:1022900090E00E94C01009EF12E0CBE4D1E0FC2EE8
:1022A00028E1F20E24C04AE956E060E384E40E948B
:1022B0005E1F2091000149E253E060E370E086E791
:1022C00090E00E94C01043E156E068E384E40E947D
:1022D0005E1F209100012E5F49E253E068E370E049
:1022E00086E790E0D6CF0E5F1F4FFC16E1F02991F4
:1022F00027FDF9CFF801849131966491220F9091D6
:102300000001290F062E000C770B605F7F4F49E21A
:1023100053E0082E000C990B0E94C010E4CF6DE131
:1023200080E20E945E1F0E94D01087FF03C08EE0F3
:10233000809310018CE00E94BD17882309F460C4CB
:1023400080916901811195C080913B01811168C024
:1023500082E08CC040EE55E060E086E10E945E1FA6
:1023600080916601E0914A010E2E000CFF0BE45CA7
:10237000FE4F813009F0F9C0C08120E04C2F60E1B0
:1023800080E00E94891D8C2F0E946D1DF62E072F64
:10239000C92F10E0D0E049E0149FC00111248D0F37
:1023A000911DC6970CF468C048E755E065E187E4E5
:1023B0000E945E1F2F2D46E555E063E170E083E744
:1023C00090E00E94C61040E555E06DE187E40E9470
:1023D0005E1F80916401402F000F550B6DE1F812D4
:1023E0006CC08DE60E94391F20E046E355E06DE1A8
:1023F00070E084E790E00E94C010C7FF62C00E94B6
:10240000D01087FF03C08EE0809310018CE00E9403
:10241000BD17882309F4F4C3809169018111ACC010
:1024200080916501813009F51AC24CE156E060E007
:102430008AE10E945E1F46E056E060E088E40E9468
:102440005E1F20E04091680160E184E20E94891DE6
:102450000E94D01087FF03C08EE0809310018CE0B3
:102460000E94BD17882309F4CBC385E08093100137
:10247000C7C38091650160C1D93010F01F5FD0E003
:102480008D2F90E0FC0129E0129FE00DF11D112439
:10249000E655FA4F249138E0139FB0011124605F94
:1024A0007F4F33E0880F991F3A95E1F740E855E0F8
:1024B000CD960E94C610DF5F6ECF85E70E94391F60
:1024C0009CCFC23099F03CF4CC2369F0C130D1F4F8
:1024D0004BE255E013C0C43079F05CF0C53091F4A4
:1024E00044E155E00BC040E355E008C045E255E04B
:1024F00005C04FE155E002C049E155E065E28BE4DB
:102500000E945E1F2C2F48EE54E064E270E088E6E3
:1025100090E00E94C010C450C23010F423E001C00B
:1025200022E046E355E065E270E081E790E00E943A
:10253000C01040EE54E06DE280E50E945E1FD0E0E6
:10254000C0E0CF1571F05CE0D59FC00111242C2FA5
:1025500046E555E064E370E08F5A9F4F0E94C0103B
:10256000DF5FCF5FC43069F74ACF20E0408160E190
:1025700084E20E94891D43CF80914301882389F121
:1025800089E074CFC1E080914A01813009F4C0E054
:1025900043EA56E060E08AE10E945E1FD0E0AE01AF
:1025A0004F5F5F4F60E08DE30E94391F46E056E0C9
:1025B00060E088E40E945E1FC959DE4F20E0488138
:1025C00060E184E20E94891D0E94D01087FF03C051
:1025D0008EE0809310018CE00E94BD17882309F4DF
:1025E0000FC380914A01813009F03FCF86E03ECF92
:1025F000109244018EE391E00E944F1E8EE391E021
:102600000E94601D8093020183E030CF109244014C
:1026100085E491E00E944F1E85E491E00E94601DD8
:102620008093010184E022CF42EF55E060E081E138
:102630000E945E1FD0E095E0E92EF12CC09144018C
:1026400000910201DC17CCF4ED2F0D2E000CFF0BD6
:10265000E25CFE4F2D2F220FC701801B910907FD61
:102660009395820F880F880F880F20E0408168E1E2
:102670008C5F0E94891DDF5FE1CF1FEF100FF12CEF
:10268000D02FDD0FDD0FDD0FD45E1C17B4F0812FCE
:10269000012E000C990BFC01E25CFE4F20E0408112
:1026A000C11714F468E101C060E18D2F8F0D0E9405
:1026B000891D115080EFF80EE8CF0E94D01087FFDF
:1026C00003C08EE08093100180E40E94BD17882330
:1026D00019F0C0170CF47FC280E20E94BD17882356
:1026E00029F08091440118160CF479C28CE00E9404
:1026F000BD17882309F484C2E09144010E2E000C1A
:10270000FF0BE25CFE4F8081809367018FEF808337
:102710009091690180916501911109C0813011F496
:102720008AE0A4CE81E08093430187E09FCE813090
:10273000B9F381E08093430180934A01DF91CF9107
:102740001F910F91FF90EF900C940A2142EF55E0FA
:1027500060E081E10E945E1FD0E005E010E0C091E2
:102760004401DC17E4F4ED2F0D2E000CFF0BEB5BA6
:10277000FE4F2D2F220F80910201A801481B510905
:1027800087FD5395CA01820F880F880F880F20E0BC
:10279000408168E18C5F0E94891DDF5FE0CF00917E
:1027A00001011FEF100FDFE7D00FDD0F85E0E82EEE
:1027B000F12C1C17FCF020910201812F012E000C3E
:1027C000990BFC01EB5BFE4FC701821B910927FDB2
:1027D00093958D0F880F880F880F20E04081C117D7
:1027E00014F468E101C060E18C5F0E94891D115002
:1027F000D250DFCF0E94D01087FF03C08EE08093BD
:10280000100180E40E94BD17882319F0C0170CF452
:10281000EAC180E20E94BD17882329F0809144011B
:1028200018160CF4E4C18CE00E94BD17882309F44B
:10283000E7C1E09144010E2E000CFF0BEB5BFE4F55
:102840008081809368018FEF808380916501813062
:1028500009F066CF8093430110924A016FCFDF9158
:10286000CF911F910F91FF90EF900C94981E809143
:1028700067010E946D1D162FD92FC72F8091680107
:102880000E946D1D872F209166012130E9F420916F
:102890006401121301C0CF5F97FD08C0611731F0CA
:1028A0009450923010F4C25001C0C150621302C063
:1028B00081E0870FD7FD08C0611731F0D450D230C6
:1028C00010F4825001C08150E0916301C81311C01F
:1028D00080916501882389F080916B018F5F8093DF
:1028E0006B010E2E000CFF0BE65BFE4F81E0808338
:1028F0001EC08C1774F41092650180916C018F5F7B
:1029000080936C010E2E000CFF0BE65BFE4F1082D5
:102910000EC091E09093650180916B018F5F809371
:102920006B010E2E000CFF0BE65BFE4F90838BE0DD
:102930009DCD809167010E946D1DF62ED92F80914B
:1029400068010E946D1D062FC92F0E9489201091D9
:1029500066011130A1F4D7FD08C0F01681F0D45003
:10296000D23008F448C1DFEF47C1C7FD08C0F016F8
:1029700031F0D0E0C450C23028F0CFEF04C0C0E046
:10298000D0E001C0CEEF8091670187FD11C080913A
:102990006501811106C04CE357E068E081E10E94C7
:1029A0005E1F2C2F4091670160E180E00E94891D2D
:1029B0008091680187FD11C080916501813031F4FB
:1029C0004CE357E068E089E50E945E1F2D2F40919F
:1029D000680160E188E40E94891D0E94D01087FF91
:1029E00003C08EE0809310018CE00E94BD17882305
:1029F00009F406C1113051F40E947D2B24E030E02F
:102A000040E050E00E94D62B6093640110921001C8
:102A1000F7C00E94892080916C0190916B019817FA
:102A200054F580916A01811107C083E497E00E9408
:102A30006A1981E080936A014CE357E068E383E31D
:102A40000E945E1F20E04AEA56E06AE170E084E3FB
:102A500090E00E94C01080916901811105C043EA95
:102A600056E060E181E304C04AE956E060E18CE2AF
:102A70000E945E1F4DC089179CF54CE357E068E348
:102A800083E30E945E1F21E04AEA56E06AE170E0BB
:102A900084E390E00E94C0108091690181110EC012
:102AA00080916A01811107C085E296E00E946A194F
:102AB00081E080936A014CE156E0D8CF43E156E0D3
:102AC00060E18CE20E945E1F80916A01811120C04A
:102AD00083E497E00E946A1981E080936A0118C03C
:102AE0004DE056E060E186E30E945E1F20E04AEA86
:102AF00056E06AE170E08AE190E00E94C01021E0B7
:102B00004AEA56E06AE170E08EE490E00E94C0106C
:102B10008CE00E94BD17882309F472C081E0809385
:102B20003A014CC0DF91CF911F910F91FF90EF9030
:102B30000C94B12043E658E068E080E20E945E1FFA
:102B400044E558E060E18DE10E945E1F4BE458E0EF
:102B50006CE18CE20E945E1F00916E0111E0C02FBB
:102B6000C1275AE1C59FE001112420E042E358E06B
:102B70006AE170E0CE0188960E94C01020E04AE928
:102B800057E062E270E0CE0187960E942A280E94F8
:102B9000D01085FF03C010936E0132C00E94D01088
:102BA00086FF03C010926E012BC08CE00E94BD17FF
:102BB000882331F1013061F410933A0187E891E004
:102BC000DF91CF911F910F91FF90EF900C946A19B4
:102BD00080916E064BCCCF5FC09344017DCD815078
:102BE0008093440183CDCF5FC093440112CE8150C6
:102BF0008093440118CEDEEFC7FFBCCEC0E0C3CE49
:102C0000DF91CF911F910F91FF90EF900895109257
:102C10006D013E983F9808953E9A3F9A81E08093D7
:102C20006D010895FC0180917701811103C08FEF40
:102C30009FEF08959FB7F89482E08093E900209178
:102C4000F20030E01216130614F421E030E02115F2
:102C5000310559F0289884E6809376018091F1003F
:102C600080838091F200882319F09FBFC9010895E5
:102C70008BE68093E800F9CF2FB7F89483E0809338
:102C8000E9009091E800892F807295FF04C090912F
:102C9000F20080E4891B2FBF089580917F06811187
:102CA0000DC082E080937B0684E080937C061092C6
:102CB0007E0610927D0681E080937F068BE796E08A
:102CC0000895CF93DF931F92CDB7DEB76983DC0100
:102CD000ED91FC910280F381E02D41E050E0BE01D6
:102CE0006F5F7F4F09950F90DF91CF91089583E03B
:102CF0008093E9008091F200882319F08AE38093A1
:102D0000E80008950E943C1690E00895CF93DF9369
:102D10001F92CDB7DEB7FC018485958597FD05C070
:102D20002FEF3FEF358724870BC0CE0101960E941D
:102D30001216019719F4898190E002C08FEF9FEF7E
:102D40000F90DF91CF9108950F931F93CF93DF934F
:102D50001F92CDB7DEB78C01FC018485958597FF66
:102D60000EC0CE0101960E941216019719F4298116
:102D700030E002C02FEF3FEFF80135872487F801DC
:102D8000848595850F90DF91CF911F910F910895C4
:102D9000FC018485958597FD0BC09FB7F89482E070
:102DA0008093E9008091F2009FBF90E00196089522
:102DB0009FB7F89482E08093E9008091F2009FBF72
:102DC00090E008958F929F92AF92BF92CF92DF9240
:102DD000EF92FF920F931F93CF93DF936C015B01F0
:102DE0007A0180910E01882309F458C080917701FF
:102DF000882309F453C08091750180FF05C080913C
:102E0000E00082608093E000E70110E00AEF83E0D9
:102E1000882E9AE3992E2097C1F10E943C168111C9
:102E200007C00150D9F181E090E00E940622F3CF63
:102E3000282F30E0C217D3070CF48C2F4FB7F8942B
:102E40008092E9009091E80095FF1DC0282F30E0A6
:102E5000C21BD30BF501982F915020F081918093E4
:102E6000F100FACFA20EB31E112319F09092E800E0
:102E700009C08091E80085FD06C09092E80011E04D
:102E8000209709F010E04FBFC6CF1111C6CF5D9853
:102E900084E680937A061E141F0444F081E090E0DB
:102EA000F6019383828380E090E001C0C701DF9147
:102EB000CF911F910F91FF90EF90DF90CF90BF9037
:102EC000AF909F908F900895DF92EF92FF920F93B3
:102ED0001F93CF93DF93D82E8A017B01E40EF51E5A
:102EE000EB01CE15DF0571F0D7FE03C0FE01849122
:102EF00001C088810E94302821968111F2CF8FEF86
:102F00009FEF01C0C801DF91CF911F910F91FF90FA
:102F1000EF90DF9008950F931F93CF93DF931F924D
:102F2000CDB7DEB782E0898342E450E061E778E024
:102F300080E80E9464170E944D16DC0112960D91E4
:102F40001C9113970115110569F0D801ED91FC91C1
:102F50000280F381E02DBE016F5F7F4FC8010995AC
:102F600097FF07C089810F90DF91CF911F910F913B
:102F70000895F80100851185E5CF20917506282375
:102F800029F490917406982381E009F480E0089573
:102F90002F923F924F925F926F927F928F929F9269
:102FA000AF92BF92CF92DF92EF92FF920F931F9357
:102FB000CF93DF9300D000D000D0CDB7DEB741155E
:102FC000510509F42BC1A0E0B0E0FA0130E0102F68
:102FD000A590D590211511F43115B1F047E04D0DB4
:102FE000479546954695133009F4440F4A9DA00134
:102FF000249FE00DF11D259FF00D109629F0349FC0
:10300000A00DB11D359FB00D11241F3F21F4109666
:1030100012E009F011E01D83AF014A2C512C7C0114
:10302000E40CF51C1E141F040CF0F8C08038910548
:103030000CF0F4C09B012D0D311D121613060CF07F
:10304000EDC0603471050CF0E9C0309709F4E6C0BA
:10305000262F2770322E9B0177FF02C0295F3F4F3A
:1030600003E0359527950A95E1F7C22E77FF05C055
:10307000332019F0CC24CA94C20E97FF05C0222732
:103080003327281B390B02C020E030E060E8E61649
:10309000F10424F060E8862E881A01C08A2C821A76
:1030A0000C2D0C2C000C110B7FEFC7161CF4F02E0E
:1030B000F09401C0F12C772473946D2D677009F49E
:1030C000712CD694D694D6947D0CB801670D711DE1
:1030D000693071051CF068E0762E7C18DF2CDC0C62
:1030E0007D2D10E87103800D911D1124820F931F17
:1030F00061E070E0032C02C0660F771F0A94E2F7CC
:103100001D81133019F0BB24B39402C012E0B12E1C
:10311000820108191109B09E602C11240B2D10E0BA
:103120002901FA9C400C511C1124049D9001059D1D
:10313000300D149D300D11247F01E20EF31E109707
:1031400009F0AD01F80131972E0F3F1F420F531FB9
:10315000EFEFE69F9001E79F300D11242901409485
:103160005094C70CCE82712CB89C600C711C112439
:103170002E81D21609F452C0DC01A259BD4F5A016A
:103180009701912C981409F441C0F901C490C69E8E
:10319000F001C79EF00D1124FA83E983E095F095C4
:1031A000FC83EB83FD81F23019F45C824B8211C009
:1031B000ED81EB3F19F41A8219820BC0F501C4901E
:1031C000C69EF001C79EF00D1124E095F095FC839A
:1031D000EB83D7FC06C0FC91EB81EF23F981EF2B49
:1031E000EC93332061F0F6E0FD154CF0FD01E05862
:1031F000FF4F2080CC802C20CA80C228C082A00E25
:10320000B11E200F311F93941196BCCFD394E60CBE
:10321000F71C460D571D80589F4FAACF26960FB614
:10322000F894DEBF0FBECDBFDF91CF911F910F91FC
:10323000FF90EF90DF90CF90BF90AF909F908F90D6
:103240007F906F905F904F903F902F900895EEE6A3
:10325000F2E0A0E0B8E000800EBC8111012C1197D3
:10326000A0FDFDCF0192B9F70DB40895EF92FF9242
:103270001F93CF93DF93CDB7DEB728970FB6F8949F
:10328000DEBF0FBECDBF182F7B016A30710554F42D
:1032900020E14DED58E060E070E0812F90E00E9469
:1032A000C0101B5F4AE0BE016F5F7F4FC7010E94E5
:1032B0008B2BAC0160E0812F0E94141F28960FB663
:1032C000F894DEBF0FBECDBFDF91CF911F91FF906D
:1032D000EF900895EF92FF920F931F93CF93DF9398
:1032E00021E030E030936D0220936C0248EDE4E978
:1032F000F1E0DF011D924A95E9F740EF40930F019D
:1033000049E14093930141E752E050939201409389
:10331000910130938E0120938D0130935C022093B4
:103320005B0222E42093C00021E02093C1002FEF34
:103330002093D10020E82093CF0024E02093720056
:10334000EC012196FC01849180938706D0937C0147
:10335000C0937B01C80FD11DC80FD11DCE010496AB
:1033600090937A018093790184E9E82E81E0F82E28
:1033700000E010E0FE01E00FF11F84910E94852221
:10338000D7018D939C930F5F1F4FB6E3EB0EF11C9B
:103390000430110579F7DF91CF911F910F91FF90C4
:1033A000EF9008951F920F920FB60F9211248F93F2
:1033B0009F938091E1009091E100937F9093E100D1
:1033C00083FF0FC01092E90091E09093EB00109200
:1033D000EC0092E39093ED001092770198E09093C7
:1033E000F00082FF20C093E09093E9009091F200FA
:1033F000992319F09AE39093E80090917A06992323
:1034000039F090917A06915090937A06992389F138
:1034100090917601992339F0909176019150909393
:103420007601992341F184FF10C08091E2008E7EE5
:1034300081608093E2008091E1008F7E8093E100C3
:10344000809175018E7E806111C080FF16C08091D1
:10345000E2008E7E80618093E2008091E1008E7EAA
:103460008093E100809175018E7E8160809375016B
:1034700004C05D9ACDCF289AD6CF9F918F910F909F
:103480000FBE0F901F9018951F920F920FB60F92BC
:103490001124CF92DF92EF92FF920F931F932F93FD
:1034A0003F934F935F936F937F938F939F93AF93CC
:1034B000BF93EF93FF93CF93DF93CDB7DEB76C97B6
:1034C000DEBFCDBF1092E9008091E80083FFBAC152
:1034D00068E0CE0145960E945E2882EF8093E80066
:1034E0008D8987FF05C09091E80090FFFCCF03C055
:1034F0009EEF9093E800982F907609F0C6C09E89C1
:103500002F89188D91110CC0803829F48091740195
:103510008093F10002C01092F1001092F10047C1B7
:10352000422F50E0512B913051F4811140C1413074
:10353000510509F03CC1809174018D7F0BC093301F
:1035400061F4811134C14130510509F030C18091DD
:1035500074018260809374012AC1953041F4809196
:10356000E80080FFFCCF20682093E30020C1963064
:1035700009F05FC0EB8CFC8C1092E9001092720194
:1035800010927101123091F51092700110926F013A
:103590000E948B1799E0BE016F5F7F4FDB01E92F1F
:1035A0001D92EA95E9F799831A8391E09E8390EA48
:1035B00098879AEF99872091710130917201275F66
:1035C0003F4F3C832B838D831092E9001092720150
:1035D00010927101F0927001E0926F0149E050E0A9
:1035E00080E00E9464170E948B17E1C0F092700186
:1035F000E0926F010E944D16DC011296ED90FC9056
:103600001397E114F10409F4BFC0D701ED91FC91C7
:103610000480F581E02DBE016B5E7F4FC7010995E7
:10362000009719F00CF0C3C0C6C0F701E084F18424
:10363000E8CF973009F4BFC0983021F481E080933F
:10364000F100B5C0993009F0B2C0837009F0B3C081
:10365000E8E1F1E081E021E036E39081992361F037
:103660008093E9002093EB0091919093EC003093CC
:10367000ED008F5F873089F78EE78093EA00109224
:10368000EA008F898093770192C08B8D9C8D109278
:10369000E900109272011092710190937001809371
:1036A0006F01898D811155C08E899D89913A59F498
:1036B000813209F080C047E050E067E071E080E0CF
:1036C0000E94641774C0913209F075C0833289F486
:1036D000888D90E0982F88272F89822BA0E0B0E07A
:1036E0008093030190930401A0930501B093060118
:1036F0005EC0803269F48091E80082FFFCCF67E011
:1037000087E091E00E945E288BEF8093E80006C07E
:10371000823209F04CC08F8980930E01809107019D
:1037200090910801A0910901B0910A01803B944059
:10373000A105B10509F083C080910E0180FD7FC015
:1037400088E780937301809164008F7D809364008B
:103750002EC00E944D16DC0112960D911C911397FC
:103760000115110541F1D801ED91FC910190F08115
:10377000E02DBE016B5E7F4FC8010995811117C016
:10378000F80100851185ECCF113009F44EC01330DB
:1037900091F48F89882309F445C0823081F440E890
:1037A00067E085ED98E00E94CC2A882321F08EEF17
:1037B0008093E80047C081E28093EB0043C08130F2
:1037C00029F440E86BE089EC98E0EDCF833099F77D
:1037D0000E944D16DC011296ED90FC9013978E011D
:1037E0000F5F1F4F6801E114F10479F0D701ED91EB
:1037F000FC910680F781E02DB801C7010995080FFB
:10380000111DF701E084F184EECFD8011C92F6017E
:1038100001900020E9F73197BF016C197D0940E064
:10382000C601C1CF63EB78E002C067EB78E06115B9
:10383000710509F2FB01449150E080E841CF1092FC
:103840007301B5CF6C960FB6F894DEBF0FBECDBF37
:10385000DF91CF91FF91EF91BF91AF919F918F91A8
:103860007F916F915F914F913F912F911F910F9198
:10387000FF90EF90DF90CF900F900FBE0F901F90B2
:103880001895AC01FC0120E081918F3F21F02F5F62
:103890002530D1F720E090915E07E92F092E000C2A
:1038A000FF0BE25DF84F8081FA01E20FF11D27FD69
:1038B000FA9580839F5F90935E07903319F491E0AF
:1038C00090933B01089520E04BE15FE060E070E001
:1038D00080E290E00E94C0108CE00E94BD17882317
:1038E00019F081E080933A010895EF92FF920F93CF
:1038F0001F93CF93DF9330912A0720912907C9EDB9
:10390000D6E0ADEDB6E0FE0140E000EF1FEF58E17C
:1039100080E9E82EF12C80819181483078F401977C
:10392000803F6FEF960774F4F182E0823C9381E070
:10393000830F652F0E94392C392F10C001968139D1
:1039400091051CF49183808309C0118300832C931B
:1039500081E0820F652F0E94392C292F4F5F359609
:1039600015964031C1F630932A072093290720E0AD
:103970004EE95FE165E170E080E090E00E94C010F8
:103980006A817B812C814FE55AE0888199810E9470
:10399000C010259687E0C932D80791F7DF91CF9103
:1039A0001F910F91FF90EF90089586E080933A0168
:1039B0001092720088EDE4E9F1E0DF011D928A9532
:1039C000E9F780EF80930F0108950F931F93CF9332
:1039D000DF93C0912B07CF5FC0932B0720E041E618
:1039E0005DE064E070E082E290E00E94C010C937C0
:1039F00088F181E080933A0187E891E00E946A199A
:103A000090E0E9EDF6E0ADEDB6E040E050E080E0BA
:103A100020E06EE270E0C2E0D0E0283038F451835C
:103A20004083D383C2839C939F5F09C08A01005A5D
:103A3000110911830083738362838C938F5F2F5FDF
:103A40004C5E5F4F35961596203139F790932A07D3
:103A500080932907DF91CF911F910F910895809155
:103A600063018F5F80936301893124F510924301D4
:103A70008FEF9FEF909368018093670180933C01E3
:103A800080933D0180913B01811106C08EE391E05E
:103A90000E94411C80933C0180913B01811106C032
:103AA00085E491E00E94411C80933D0181E0809378
:103AB000100108958CE08093100110926A0108951E
:103AC000FC019C012B5F3F4F85E091919F3F09F4E2
:103AD0008150E217F307C9F7089594E08902900135
:103AE000112487FD11C0F901EF5BFE4E6491F901CD
:103AF000EE5BFE4E7491F901ED5BFE4E8491F9018F
:103B0000EC5BFE4E9491089590E080E070E060E000
:103B100008958F929F92AF92BF92CF92DF92EF92D1
:103B2000FF920F931F93CF93DF931F92CDB7DEB712
:103B3000F82E062F842F29830E946D1DB62EC72EC6
:103B4000A82EE92E90916601002E000C110B8F2CEF
:103B5000FF0C990829819130B9F431E0809164011A
:103B6000B81230E0320F3F3F91F0313019F03E3F54
:103B700059F40FC020E046E355E0B80167507109E1
:103B8000C401C1960E94C610D12CF12C26C022E09F
:103B9000F2CF23E0F0CF26E02F1510F4D394F12CD0
:103BA0008F2D90E0FC0137E0D39EE00DF11D112434
:103BB000E950F14E249133E0880F991F3A95E1F7CF
:103BC00045E35EE1B80138E0D39E600D711D11241C
:103BD000880D991D0E942A28F39427E0D29EC001E7
:103BE00011248F0D911D8A97B4F22CEF2C0D43E018
:103BF0005EE1680134E0C30ED11CB601C401049635
:103C00000E94C6102B2D46E555E0B601C4018C96E6
:103C10000E94C6102A2D41E052E1B801605F7F4F3B
:103C2000C4010C960E94C61080916601813049F54E
:103C3000E7FC27C0B801695F7F4F2E2D48EE54E0A6
:103C4000C40144960E94C6102CEF2E0DB801685F87
:103C50007F4FC4014D96223010F423E001C022E0D2
:103C600046E355E00F90DF91CF911F910F91FF90A8
:103C7000EF90DF90CF90BF90AF909F908F900C947B
:103C8000C6100F90DF91CF911F910F91FF90EF9091
:103C9000DF90CF90BF90AF909F908F9008959F92AC
:103CA000AF92BF92CF92DF92EF92FF920F931F934A
:103CB000CF93DF936C0104E010E0F12CCF2D0F2C9B
:103CC000000CDD0BC017D10724F55601AC0EBD1E4C
:103CD000F50180810E946D1D962EE72E2196CC0D58
:103CE000DD1D88810E946D1D90916601913041F427
:103CF00090916401991101C0E394961301C07F5F14
:103D0000E7162CF4F5018081988190838883F394E1
:103D1000D5CF0150110989F6DF91CF911F910F91F5
:103D2000FF90EF90DF90CF90BF90AF909F9008955D
:103D3000DF92EF92FF920F931F93CF93DF931F9227
:103D4000CDB7DEB785E491E00E944F1E85E491E097
:103D50000E94601D8093010180914301811108C080
:103D600080914501809368018FEF809345014AC09F
:103D7000809167010E946D1D062FF92E172F8091EB
:103D80006601813029F480916401081301C01F5F2E
:103D9000E0910101EE24EA94EE0EDE2C2CEF2F0DC3
:103DA000D7FC26C0ED2D0D2C000CFF0BEB5BFE4F5E
:103DB000808187FD1AC029830E946D1D8091660154
:103DC0002981813071F480916401681301C07F5FA3
:103DD000F7FC07C0061729F0223010F4725001C01A
:103DE000715017171CF4ED2C03C0EA94DA94D8CF65
:103DF000EE2DEE0CFF0BEB5BFE4F80818093680194
:103E00008FEF808380916501813011F488E001C0DB
:103E10008AE0809310010F90DF91CF911F910F9155
:103E2000FF90EF90DF900895EF92FF920F931F9312
:103E3000CF93DF93D82F7A01C0E0062F10E0F7016F
:103E4000EC0FF11DC7FDFA952081222359F0205275
:103E50004DED58E0B8018D2F90E00E94C010DB5F5F
:103E6000CF5FEDCFDF91CF911F910F91FF90EF903A
:103E700008950F931F93CF93DF93CDB7DEB72897A5
:103E80000FB6F894DEBF0FBECDBF182F062FCA01A4
:103E90004AE0BE016F5F7F4F0E948B2BAC01602F09
:103EA000812F0E94141F28960FB6F894DEBF0FBE14
:103EB000CDBFDF91CF911F910F910895EF92FF92A7
:103EC0001F93CF93DF93182FEA01E62EF12CFE010A
:103ED0002491222359F0219620524DED58E0B7014C
:103EE000812F90E00E94C0101B5FF1CFDF91CF9136
:103EF0001F91FF90EF900895CF92DF92EF92FF9283
:103F0000CF9320E04EE95FE164E070E080E090E074
:103F10000E94C01049E65FE168E183E10E945E1FF4
:103F20004BE55FE164E280E20E945E1F4DE45FE1E9
:103F300060E380E20E945E1F80E80E94BD1781114D
:103F40001092690180E10E94BD17882319F081E079
:103F5000809369018CE00E94BD17882309F489C011
:103F600048E150E06FEF7FEF8BE491E00E94732C0B
:103F700010925E0780E3EEE2F7E0DF011D928A9582
:103F8000E9F780E081938F5F8033E1F780E3C82E0B
:103F9000D12CE12CF12C0E947D2BA70196010E94CF
:103FA000D62B8FEF8C0D861769F0D6011197A25D85
:103FB000B84F8C91E62F660FFF0BE25DF84F9081B2
:103FC0009C938083B1E0CB1AD108E108F10881E02D
:103FD000C816D104E104F104F1F680916601813044
:103FE00051F40E947D2B24E030E040E050E00E943C
:103FF000D62B609364018FEF80933C0180933D0149
:1040000010926301109244011092650110926C01AC
:1040100010926B011092430110923B0185E0809356
:1040200002018093010145E050E06FEF7FEF8EE3E6
:1040300091E00E94732C45E050E06FEF7FEF85E444
:1040400091E00E94732C8FEF9FEF90936801809313
:104050006701C4E08EE391E00E94411C85E491E099
:104060000E94411CC150B1F70E942F1D88E080932F
:104070003A01809169016CE0869F602D11246C5D8E
:104080004CE75FE18AE1CF91FF90EF90DF90CF9016
:104090000C945E1F20E04EE95FE164E070E080E098
:1040A00090E00E94C0104DE85FE168E188E10E9465
:1040B0005E1F47E85FE164E280E20E945E1F4EE718
:1040C0005FE160E380E20E945E1F80E80E94BD170E
:1040D00081111092660180E10E94BD17882319F0BA
:1040E00081E0809366018CE00E94BD17882329F04F
:1040F0000E947C1F87E080933A01809166016CE00A
:10410000869F602D11246C5D4CE75FE18AE10C9481
:104110005E1F80916901811108C043EA56E060E0AA
:104120000E945E1F4CE156E008C04AE956E060E09C
:1041300080E00E945E1F43E156E060E089E40E9457
:104140005E1F60916C01062E000C770B8EE20E94C0
:10415000361960916B01062E000C770B87E70C94E3
:104160003619CF9346E35FE164E089E00E945E1F69
:1041700043EA56E062E18CE20E945E1F40914A01F0
:10418000042E000C550B4F5F5F4F62E18FE40E94DD
:10419000391FC0E080912C07C81774F420E1C202D7
:1041A000C001112421E046E355E06CE270E0849602
:1041B0000E94C010CF5FEECF843074F490912D0731
:1041C0009F5F90311CF490932D0722C010922D0711
:1041D0008F5F80932C071CC041E25FE160E28EE0BC
:1041E0000E945E1F8CE00E94BD17882389F0809199
:1041F0003B01811102C082E009C080914A01811116
:1042000002C085E003C0813019F486E0809310017C
:10421000CF91089510922D0710922C078DE0809376
:1042200010010C94B1201F93CF93DF931F92CDB751
:10423000DEB70E94751C42E351E166E28DE10E9407
:104240005E1F80916D0117E1189FC001112420E0CD
:1042500042E358E064E270E0CB960E94C010809187
:104260006D01189FC001112420E04AE957E06CE27B
:1042700070E0CA960E942A2880E40E94BD1781112E
:104280000E940C1680E20E94BD1781110E94071641
:104290008CE00E94BD17882389F060916D0182E057
:1042A00090E069830E94C02B6981681721F082E049
:1042B00090E00E94C82B81E080933A010F90DF913B
:1042C000CF911F9108950E94751C4DE151E166E266
:1042D0008EE00E945E1F8CE00E94BD17882319F0BB
:1042E00081E080933A0108950F931F93CF930E942A
:1042F000751C47E05FE066E28EE00E945E1FC091A1
:1043000012012C2F30E02250310989E1829F800177
:10431000839F100D112420E042E358E064E270E036
:10432000C8010C960E94C01020E04AE957E06CE2F8
:1043300070E0C8010B960E942A2880E40E94BD17F5
:10434000882311F0C53098F080E20E94BD178823C1
:1043500021F080911201833070F484E00E94BD1737
:10436000882369F08091120180933A0108C0CF5FE1
:10437000C0931201E9CF815080931201EECFCF910B
:104380001F910F910895CF92DF92EF92FF920F93BA
:104390001F93CF93DF936C017A018B01C0E0D0E0D3
:1043A000CE15DF0589F0D8016D918D01D601ED9113
:1043B000FC910190F081E02DC6010995892B11F443
:1043C0007E0102C02196ECCFC701DF91CF911F91F2
:1043D0000F91FF90EF90DF90CF900895A3E6B7E0A4
:1043E0002FB7F8947D918D919C9166B52FBFA89BB6
:1043F00005C06F3F18F47F5F8F4F9F4F22E0660F1D
:10440000771F881F991F2A95D1F70895FC010E94F4
:10441000EE21319728F068517C4F8F4F9F4FF9CF95
:10442000AB01FC010E94EE21641775078E079F0700
:10443000C8F308950F930FB70F931F9211248F9312
:104440009F93EF93FF93E6E3F1E08091620791E0A1
:104450008D5F8D3710F08D57939580936207808123
:10446000890F80839181911D91830281011D0283B7
:104470008381811D838309270F700927029500938B
:1044800061073BD0811100935F078C3A11F08C35A6
:10449000A1F400916007901B963088F085538093BB
:1044A000000880930108289828D0F1F788E198E067
:1044B0008093600090936000FFCF9093600780919D
:1044C0007301815020F08093730187E741F3E3E6A5
:1044D000F7E080819181019680839183828193812D
:1044E000811D911D82839383FF91EF919F918F9105
:1044F0001F900F910FBF0F9118958FB18095807FFE
:10450000669B88601C9B8460089520917B0190913C
:104510007C01E22FF92FE80FF11DE80FF11D8591C5
:1045200094912091790130917A01820F931F08951F
:104530002F923F924F925F926F927F928F929F92B3
:10454000AF92BF92CF92DF92EF92FF920F931F93A1
:10455000CF93DF93CDB7DEB764970FB6F894DEBF85
:104560000FBECDBF24E931E03C8B2B8B0BEB11E070
:104570002DE731E038872F8339EBE32E31E0F32E3E
:1045800041ECC42E41E0D42E53EC452E51E0552E83
:104590006DEB262E61E0362E2CEB31E03A87298731
:1045A0002FEB31E03C832B8374ECA72E71E0B72E08
:1045B00027EB31E03E832D83E8EB6E2EE1E07E2E8B
:1045C00026E931E03A832983812C912C1B86AB8923
:1045D000BC899E96EC91EE23F1F0D2018C91482F8C
:1045E00050E02E2F237030E0421753078CF0F0E09C
:1045F000F595E795F595E795EE0FFF1FE056FF4D12
:1046000085919491EF81F885928381831C9203C0F8
:104610008F5FF2018083AB89BC89D4969C91D4973B
:10462000992309F43DC0D5968C91482F50E0292F4D
:104630002F77022E000C330B421753076CF197FFB4
:1046400006C0E981FA8180818150808305C0A981FB
:10465000BA818C918F5F8C93E981FA81808181117D
:1046600003C081E0808306C0803420F08FE3A981FD
:10467000BA818C93A981BA81EC91F0E0EE0FFF1F13
:10468000E056FF4D85919491F70191838083AB892A
:10469000BC89D5961C9204C08F5FEB89FC8985ABE1
:1046A000A985BA855C915523D9F1EB89FC8922A5AE
:1046B000211128C0D1013C91432F407436FF04C022
:1046C000F7018081918103C0D8018C9190E0850F22
:1046D000911D57FD9A9537FD0DC097FD09C04423E4
:1046E00079F0863BB4E29B073CF085EB94E204C092
:1046F00080E090E0442321F0F7019183808302C0A1
:10470000D8018C9381E0820FEB89FC8982A730E08D
:10471000D1018C918F7390E0281739070CF012A605
:10472000EB81FC816081662309F44AC0A981BA81CA
:104730009C91992309F444C0F6018081AB89BC891E
:104740009C967C91482F4F7150E0272F2F7130E0BD
:10475000421753071CF48F5F808332C0807E21F4A0
:1047600080E2F60180830BC0803239F476FD05C00B
:104770006F3F19F080E4808302C0F6011082D601F9
:104780008C91807E69F06F3F29F0262F22952F7043
:10479000920F01C090E0803419F4862F8F70980F2B
:1047A000D501EC910E2E000CFF0BE90FF11DEE0F61
:1047B000FF1FE056FF4D85919491F701918380830F
:1047C000AB89BC89D1964C91D197442309F447C059
:1047D000D2963C91632F607436FF04C0F70180814C
:1047E000918103C0D8018C9190E0EB89FC8923A9C9
:1047F00050E027FF03C0840F951F02C0841B950B58
:1048000097FD09C0662379F0863BF4E29F073CF0F0
:1048100085EB94E204C080E090E0662321F0D701AC
:104820008D939C9302C0F8018083422F4F7150E01A
:104830003F71832F90E04817590734F42F5FAB89FD
:10484000BC89D3962C930BC027FF04C0EB89FC894D
:1048500013AA05C080E8AB89BC89D3968C93EB89F9
:10486000FC8981A192A1009709F097C2C401049626
:10487000B1E001C0BB0F8A95EAF7B88B4BE1489DC8
:104880009001499D300D11243D872C87A6E3A89DFA
:10489000C001A99D900D11249C012C563E4F3F87CD
:1048A0002E87AB89BC898D919C911197BC016F5F5C
:1048B0007F4F6D937C93FC014491403428F5A9818E
:1048C000BA814C93442321F0F5018081480F4C9329
:1048D000A981BA81EC91F0E0EE0FFF1FE056FF4D89
:1048E00085919491F70191838083D1018C918111FD
:1048F00004C0F2018081D8018C93EB89FC8984A5E6
:1049000085FF44C2D60136C1403A08F06DC1242F5C
:1049100030E0205431092C30310509F4E0C00CF0AE
:1049200050C02530310509F4ACC0BCF4223031054B
:1049300009F4A7C04CF42115310509F485C02130D4
:10494000310509F48DC022C22330310509F4ABC012
:104950002430310509F484C019C22830310509F426
:10496000A5C0E4F42630310509F49DC02730310597
:1049700009F00CC2FB016491AB81BC816C939C017A
:104980002D5F3F4FEB89FC8931832083FC013296F8
:10499000E491AB89BC899C96EC93F8C12A3031052F
:1049A00009F488C002962B3031050CF088C0AB8921
:1049B000BC8911969C938E93FB0164919E966C9397
:1049C000E5C12331310509F4C2C0ACF42F30310503
:1049D00009F4ACC04CF42D30310509F48AC02E30F6
:1049E000310509F488C0D2C12131310509F49EC0D6
:1049F0000CF0A1C080C02C35310509F4BDC05CF4B9
:104A00002431310509F4A7C02531310509F0BEC1B3
:104A1000AB81BC81AFC02E35310509F4D0C00CF498
:104A2000BBC02F35310509F0B1C180910F01288934
:104A3000822780930F01D8011C922FEF3FEFEB8963
:104A4000FC8932A321A3A2C10296EB89FC89918340
:104A50008083FB016491D8016C93F201608396C15D
:104A60000296AB89BC898D939C93FB016491A985C7
:104A7000BA856C93413411F080E401C080E0F1010B
:104A80006CC1FB016491A985BA856C939C012D5F73
:104A90003F4FEB89FC8931832083FC013296E491FE
:104AA000D101EC9373C1E985FA8502C0EB81FC81E9
:104AB00010826CC1AB89BC899E961C9267C1EB8940
:104AC000FC8991838083FB016491D5018C91062E32
:104AD000000C770B680F711D87FD7A9508C0029650
:104AE000EB89FC8991838083FB016491D5016C93F0
:104AF0004DC1F501DDCFFB0125913491AB89BC8916
:104B0000D1962C93D1979C012D5F3F4F2D933C93D1
:104B1000FC013296859194914E3411F020E401C04D
:104B200020E0820FEB89FC8982AB30C1AB89BC8964
:104B3000D1961C922BC10296EB89FC8991838083CC
:104B4000FB016491AB89BC89D4966C931FC1EB893E
:104B5000FC8914AA1BC1EFEFAB81BC81EC930296D8
:104B6000AB89BC8911969C938E93FB0164919C96B2
:104B70006C930CC11C920AC10296EB89FC8991834B
:104B80008083FB0164918091930170E0680F711D37
:104B90006093930177270AC00296AB89BC898D93F5
:104BA0009C93FB0164916093930170E089E09DE325
:104BB0000E94592C7093920160939101E7C020E00C
:104BC00030E0FB014491F901EC56FE4F40A32A5C12
:104BD0003F4F6F5F7F4F283D310599F70596AB89B1
:104BE000BC898D939C93D2C0403E50F450E04F5905
:104BF0005109AB89BC8992965C934E939197C6C03C
:104C0000403EC1F4AB89BC8980E090E09695982F36
:104C1000882797958795ED91FD91E4912E2F2F7719
:104C2000822BE7FDF3CF8F5B9F4FEB89FC8992A32B
:104C300081A3ACC04C3F08F4A9C024E0240F22306B
:104C400008F049C04C3F41F00296AB89BC898D9376
:104C50009C93FB01649101C060E0AB89BC89ED913C
:104C6000FC9111979F012F5F3F4F2D933C93E4914F
:104C7000D3015C91E51759F1AB89BC895F964C91E2
:104C8000842F90E0AD81BE817C91AE85BF85A80F59
:104C9000B91F51967C93519758965C93AC85BD850E
:104CA000A80FB91FAA0FBB1FAC56BE4F8091790148
:104CB00090917A01281B390B14963C932E931397ED
:104CC0004F5FAB89BC895F964C93D301EC93ED8128
:104CD000FE81608313C04E3F09F041C0AD81BE81AB
:104CE0008C91811107C0AB89BC895F96EC91EE2352
:104CF00029F00DC08150ED81FE818083D3018C911C
:104D00000E948522EB89FC89918380833FC0E1501A
:104D1000AB89BC895F96EC93F0E0AC85BD85AE0FA6
:104D2000BF1FAA0FBB1FAC56BE4F80917901909157
:104D30007A0113962D913C911497820F931FAB89A2
:104D4000BC898D939C932E853F85E20FF31F81894B
:104D5000AD81BE818C93808DF301808317C0AB89B8
:104D6000BC8980E090E09695982F88279795879545
:104D7000ED91FD91E4912E2F2F77822BE7FDF3CF5C
:104D8000680F791FAB89BC896D937C93EB89FC8993
:104D900081A192A1009709F484CD8F3FFFEF9F0777
:104DA00039F00197AB89BC8992969C938E93919729
:104DB00020910F01822F90E0082C02C095958795D5
:104DC0000A94E2F780FD15C03B85333041F4D801E9
:104DD0008C9190E095958795EF81F88509C0D70172
:104DE0008D919C91EF81F88592838183D8018C917C
:104DF0008083207F89F5909120028091EA01890FBC
:104E000090915602890F9091B401890FE9F024EB3B
:104E100031E0F9018081298B3A8B0E948522298912
:104E20003A89F901B09791838083D90112961C9237
:104E30001E9211972A5C3F4FB2E02C383B0749F78E
:104E400080EF80930F0108C088EDE4E9F1E0119252
:104E50008A95E9F7109272002B852F5F2B873FEF21
:104E6000831A930A2B893C892A5C3F4F3C8B2B8BFE
:104E70000A5C1F4F2F8138852B5F3F4F38872F8368
:104E800036E3E30EF11C46E3C40ED11C86E3480E64
:104E9000511C96E3290E311C29853A852A5C3F4F27
:104EA0003A8729872B813C812A5C3F4F3C832B83A7
:104EB00036E3A30EB11C2D813E812A5C3F4F3E8319
:104EC0002D8336E3630E711C29813A812A5C3F4FA2
:104ED0003A8329833B85343009F079CB64960FB649
:104EE000F894DEBF0FBECDBFDF91CF911F910F9120
:104EF000FF90EF90DF90CF90BF90AF909F908F90FA
:104F00007F906F905F904F903F902F9008952F92D9
:104F10002FB62F932091D80620952093D80621F004
:104F20002F912FBE2F901895BF93AF930F921F9282
:104F30002091880100908A01020E00928A0120913E
:104F4000890110908B01121E10928B01B12DB7FDBB
:104F5000B095BB0FA0918701B058BA02110CA12DDA
:104F600020917E0100908001020E0092800120912C
:104F70007F0110908101121E10928101212D220FBC
:104F80002121B0917D0127FDB195AB0F20918301C7
:104F900000908501020E00928501209184011090FD
:104FA0008601121E10928601B091820117FCB19504
:104FB000AB0FB1E000908D0110908E01000C111C20
:104FC00017FC0B2616FC0B2600928D0110928E0109
:104FD000B0918C0117FCB195AB0FB0911101AB0FE3
:104FE000A093CF00B0916D02A0916C02119761F077
:104FF000B0936D02A0936C021F900F90AF91BF9180
:105000002F912FBE2F901895B0919201A0919101F0
:10501000B0936D02A0936C0278943F934F935F938B
:105020006F937F938F939F93EF93FF9311240E942D
:105030009822FF91EF919F918F917F916F915F9156
:105040004F913F911F900F90AF91BF912F912FBE25
:105050002F9018950F9303E00E94C8170F910895A1
:10506000409171015091720120916F013091700156
:1050700042175307B4F49091E8009570E1F39091D2
:10508000E80092FD19C08093F10080917101909128
:10509000720101968F739927892B19F48EEF8093F3
:1050A000E8008091710190917201019690937201D4
:1050B0008093710181E0089580E00895615030F09F
:1050C0002091F100FC0120830196F8CF289884E616
:1050D000809376010895789484B5826084BD816060
:1050E00084BD85B5826085BD816085BD81E080938A
:1050F0006E00E1E8F0E0108282E0808381608083CE
:10510000E0E8808181608083E1E980818260808342
:1051100081608083E0E9808181608083E1EC80812F
:10512000846080838260808381608083E3EC8081FF
:1051300081608083E0EC808182608083E2EC80810A
:1051400081608083EAE780818460808382608083DD
:10515000816080838068808310927701109274014F
:10516000109275018091D70081608093D70080EA0A
:105170008093D80089B5806189BD89B5826089BD79
:1051800009B400FEFDCF81E090E00E9406228091EC
:10519000D8008F7C80618093D8008091E000807F70
:1051A0008093E0008091E1008E7E8093E1008DE0AD
:1051B0008093E200559A209A81EC80937C0081EFE5
:1051C00085B987EE84B984E28BB984EF8AB9769A7F
:1051D0006E9880EF81BB10BA80E58CBD81E08DBDFB
:1051E00085E090E00E94CE105F9902C05F9AF8CFF0
:1051F0005C98EAE7F1E09DE085918EBD00000DB47A
:1052000007FEFDCF8EB59A95B9F75C9A81E8809339
:10521000640081E0809365000E9427190E94D010ED
:1052200087FF20C05C9885EA8EBD00000DB407FEA4
:10523000FDCF8EB55C9A2E982F982D9881E083BF74
:10524000889513BEFCCF2D980E94D01084788438A6
:1052500071F00E94D0108471843131F188EC90E0BB
:105260000E94CE100E94D01082FDEDCF3AC00E9465
:10527000CC1088EC90E00E94CE102F9882E090E055
:105280000E94C02B8F3F29F06FEF82E090E00E94D8
:10529000C82B84EF91E00E94CE102F9A0E94D0106C
:1052A00084788438D9F3D5CF0E94CC1088EC90E074
:1052B0000E94CE102E9882E090E00E94C02B88239E
:1052C00029F060E082E090E00E94C82B84EF91E03A
:1052D0000E94CE102E9A0E94D01084718431D9F38E
:1052E000BDCF0E94CC1082E090E00E94C02B8823AA
:1052F00019F00E940C1602C00E94071681E090E08F
:105300000E94C02B82FB992490F881E090E00E94DB
:10531000C02B81FF82C091102E98C0EFDFEF08E014
:1053200010E00E94D01086FF04C02E9A2F9A2D9A6A
:1053300074C0992029F0C430D10511F42E9A2F9809
:1053400081E00E9427199E01D7FF04C0222733273E
:105350002C1B3D0B27703327CE01D7FD079663E04A
:10536000959587956A95E1F7D7FF05C00197A80144
:10537000421B530B9A017C01F694FE2CEE24F79409
:10538000E79460E070E03801621A730AF701E058B0
:10539000FF4F5F018F3FFFEF9F0744F40196685A6C
:1053A0007F4F7501603B710589F721C0D701AE5F62
:1053B000BC4F40E050E08F3FEFEF9E0709F4D1C0B3
:1053C000FA01E60FF71FE653FF4FE4916D01CA188B
:1053D000DB08CE0CDF1CF0E02F01022E01C0440CD4
:1053E0000A94EAF7F601808048284082BAC080E03B
:1053F0000E9427198FE090E00E94CE102196C931BB
:10540000D10509F08ECF992011F02F9A2D9880E9BF
:1054100091E00E94CE100E94CC1082E390E00E94A6
:10542000CE100E94D0108111F8CF81E280937606D1
:10543000809164008E7F8093640080917A00806404
:1054400080937A0080917A0086FDFCCFC09178002D
:10545000D09179000E94EE218E0120E030E0980189
:1054600011270027600F711F821F931F2091640076
:10547000216020936400611571058105910511F08B
:105480000E94822B87E891E00E946A19DD24D39460
:10549000CEE6D2E003E010E090E0E92E90E0F92EB5
:1054A000CC24C3949091360180917706F92FF81B94
:1054B0008F2FB0907806BB2029F0F09379061092D8
:1054C000780648C020917606F21740F48F5F821765
:1054D00008F040C0D3BE889513BE3CC0C092780689
:1054E000909377068091720690917306019690933F
:1054F00073068093720680917406809375060E94ED
:10550000D010809374069B2DFE0191119FEF8FEFB9
:1055100091939193919391938150D0F7E0913A01B7
:10552000F0E0EE0FFF1FE951FD4F85919491FC01D2
:10553000099580E00E942719809172069091730668
:10554000B8010E94452C892B29F4809100018D25FA
:1055500080930001E114F10409F4A4CF0E9400003B
:10556000A1CF2115310581F0FA01E60FF71FE653AF
:10557000FF4FE491F0E0062C02C0F595E7950A9400
:10558000E2F7DC90ED29EC934F5F5F4F11964835C1
:10559000510509F010CF02CFCF92DF92EF92FF9228
:1055A0000F931F93CF93DF931F92CDB7DEB7182FC2
:1055B000062FE42E862F880F8E5F99830E94302855
:1055C00083E00E943028F12EC12E9981D92E8C2D96
:1055D0008F19801798F4F601E7FE02C0849101C08C
:1055E00080810E943028182F80E00E94302881237B
:1055F000FFEFCF1ADF0A8111EACF01C081E00F90DF
:10560000DF91CF911F910F91FF90EF90DF90CF909E
:105610000895E8E8F6E01382128288EE93E0A0E0B5
:10562000B0E084839583A683B78382E291E091837F
:1056300080838FEF9FEF95878487EFE6F6E084E322
:1056400091E0918380831582168280E187831482A2
:10565000138211868091100180936E0608958F92B7
:105660009F92AF92BF92CF92DF92EF92FF92CF9331
:10567000DF93EC01688179818A819B8161157105D5
:105680008105910521F464E279ED8BE597E02DE148
:1056900033EF41E050E00E94D62B49015A019B01B3
:1056A000AC01A7EAB1E40E94F52B6B017C01ACEEE2
:1056B000B4EFA50194010E94032CDC01CB018C0DF9
:1056C0009D1DAE1DBF1DB7FF03C00197A109B048C6
:1056D00088839983AA83BB83BC01CD019F77DF9127
:1056E000CF91FF90EF90DF90CF90BF90AF909F90C1
:1056F0008F9008950E942F2B089583E191E00E94DE
:105700002F2B08956093130170931401809315015A
:10571000909316010895BB274A3031F4992322F45F
:10572000BDE2909581959F4F0C94972BBB27FB0171
:105730005527AA27880F991FAA1FA41710F0A41B8A
:1057400083955051B9F7A05DAA3308F0A95DA193E4
:10575000009779F7B111B1931192CB010C94B02B52
:10576000DC01FC01672F71917723E1F7329704C0C8
:105770007C916D9370836291AE17BF07C8F3089553
:10578000F999FECF92BD81BDF89A992780B5089509
:10579000262FF999FECF1FBA92BD81BD20BD0FB64D
:1057A000F894FA9AF99A0FBE01960895052E97FB80
:1057B0001EF400940E94ED2B57FD07D00E94082C88
:1057C00007FC03D04EF40C94ED2B5095409530958A
:1057D00021953F4F4F4F5F4F08959095809570955D
:1057E00061957F4F8F4F9F4F08950E942A2CA59F50
:1057F000900DB49F900DA49F800D911D11240895CC
:10580000B7FF0C94F52B0E94F52B821B930B089588
:10581000A1E21A2EAA1BBB1BFD010DC0AA1FBB1FB4
:10582000EE1FFF1FA217B307E407F50720F0A21B26
:10583000B30BE40BF50B661F771F881F991F1A9493
:1058400069F760957095809590959B01AC01BD01BD
:10585000CF010895A29FB001B39FC001A39F700D17
:10586000811D1124911DB29F700D811D1124911D68
:105870000895991B79E004C0991F961708F0961BAC
:10588000881F7A95C9F780950895AA1BBB1B51E123
:1058900007C0AA1FBB1FA617B70710F0A61BB70BA0
:1058A000881F991F5A95A9F780959095BC01CD0145
:1058B000089597FB072E16F4009407D077FD09D0C2
:1058C0000E94452C07FC05D03EF4909581959F4F92
:1058D0000895709561957F4F0895EE0FFF1F059015
:1058E000F491E02D0994DC0101C06D9341505040CA
:0858F000E0F70895F894FFCFE2
:1058F800010505FFFFFFFF00E1000000000000F0C8
:105908000280030100000000C18081000000000047
:1059180000006116E21682167716C8168616A416B7
:0659280000000000BB10AE
:00000001FF
