:100000000C94D7130C94FF130C94FF130C94FF1350
:100010000C94FF130C94FF130C94FF130C94FF1318
:100020000C94FF130C94FF130C9421210C94932136
:100030000C94FF130C94FF130C94FF130C94FF13F8
:100040000C94FF130C94FF130C94FF130C94FF13E8
:100050000C94FF130C94FF130C94FF130C947E1656
:100060000C94FF130C94FF130C94FF130C94FF13C8
:100070000C94FF130C94FF130C94FF130C94FF13B8
:100080000C9497170C94FF130C94FF130C94FF130C
:100090000C94FF130C94FF130C94FF130C94FF1398
:1000A0000C94FF130C94FF130C94FF133C380000C6
:1000B00000000080F8FE0FE3FB1B0B0B8BFBF3F73C
:1000C000F6F6F60606ECECECECECECECECECECEC1E
:1000D000ECECECEEE6F6F6F6F7F3FBFBCBCBFBE352
:1000E0000FFEF8801E332121339E00000080F8FFB0
:1000F0000FE0F8F9F9F9F9F9F9F9F1F3F3F3F3F09D
:10010000F0FFFFFFFFFFFFFFFFFFFFFFFFFFFFFF0E
:10011000FFFFFFFFFFFFFFFFFFFF7F7FFEE00FFFFF
:10012000F880060600000000000F3FF0C607040438
:10013000070707070707070707070707FFFFFFFF6F
:10014000FFFFFFFFFFFFFFFFFFFFFFFF070707079F
:1001500007078787070726860707C6F03F1F008027
:100160008000000000000000030784C4E4E4E4E42D
:10017000E4E4E4E4C49C000FE7E7E7E7E7E7E7E748
:10018000E7E7C7870F1F0FC7E7E0ECE4E4E4E5E526
:10019000E4C4040404070300C040C30311000000CA
:1001A000000000000000FFFFFFFFFF393939FFFFAB
:1001B000FF0FE0E0EFEF0FFFFF183879FFFFF703C5
:1001C000E0E0EFEF0FFFF9F0F0FCFDFDFD0DECE0DE
:1001D000E0E00000012101000000000080C060207C
:1001E00060C080000000000C0C007EFE803C3E1CC5
:1001F0001C1C1C1C0C0C0E0C0C0C0C0E1E1C1C1CB9
:100200001C3C3E80FE7E00000000C0E0E0C000001C
:100210000000030300000E1B3166C680D060311B56
:100220000E00003828380001471E382020202030DA
:100230001010D0D0101090103020202020381E0731
:10024000010000060600000101000000000000009F
:1002500000005308C0FC0F89F83F03C0F89F8909CC
:1002600001C0F89F8300C0F81F13110F02000000A7
:10027000C07C243CC0BC8480705CFC00DC70180432
:10028000000000E01CC03CFCF00CC07C2424C0B882
:10029000847C08000000C0B8C44CC8B8847CC83C4A
:1002A000FCF00CC07C2424C078A470CCFCA424C036
:1002B000BC84C07C243C00000000C0F81F13110F58
:1002C000C2F89F8380C0703CA7FF0F000000FF7F33
:1002D0000C0601010000E01CC03CFCF00CC07C24BA
:1002E00024C0B8847C08000000C0B8C44CC8B884DE
:1002F0007CC83CFCF00CC07C2424C078A470CCFCEE
:10030000A424C0BC84C07C243C00000000C07C2429
:100310003CC0BC8480705CFC00DC701804000000F1
:1003200000C0F81FC3F80FFFE37C07C1F81F0909DD
:1003300061FC8EC1791F020000000000C0B8C44CEF
:10034000C8B8847CC83CFCF00CC07C2424C078A4D1
:1003500070CCFCA424C0BC84C07C243C0000000001
:10036000C07C243CC0BC8480705CFC00DC70180441
:10037000000000E01CC03CFCF00CC07C2424C0B891
:10038000847C0800000040FC9E8361230360FC8E97
:10039000C1791FC2F80FFFE37C07C1F81F090901EB
:1003A0004040FFFFFF0707E7E7676767676767E7A3
:1003B000E70707FFFF1F1F9F9F8787FFFFFFFFFFC5
:1003C000FF9F9F87871F1F7F7F87876767FFFFFFCD
:1003D000FF0707E7E7676767676767E7E70707FFFD
:1003E000FFFFFFFFFF00007F7F6060606060607F55
:1003F0007F0000FFFF0606E1E10707FFFF01019F05
:100400009F6161878766668686070798987979FF76
:10041000FF00007F7F6060606060607F7F0000FFA2
:10042000FFFFFFFFFF868606067E7E86867E7E1E97
:100430001E6666070778789F9FF8F8010106066731
:1004400067E0E0E7E7E6E619191818616118181F78
:100450001F8686E6E666661E1E666666669E9EFFCA
:10046000FFFFFFFFFF0707E0E0181879798686068F
:10047000066666E0E01E1EF9F9E1E10000F8F818F2
:10048000186161E1E1E1E16666FEFE8686666686E8
:100490008667676161FEFEE0E0181860606767FFCD
:1004A000FFFFFFFFFF7E7EE1E166660000E7E78079
:1004B000806666878798988181676778780707865E
:1004C000861E1EF9F99F9F80807979E7E7606007B3
:1004D000079E9E7E7EF9F96161FEFE60601E1EFF32
:1004E000FFFFFFFFFF66667F7F7E7E7E7E79797FDE
:1004F0007F6666F9F90707878798989E9EF8F8FF48
:10050000FF9898F9F99F9FF9F9E6E6F9F90606E6EA
:10051000E66161E6E60707FEFE878718189898FFF0
:10052000FFFFFFFFFF0000FEFE060606060606FEB2
:10053000FE0000FFFF9E9E1919E1E19F9F0707FF44
:10054000FFF9F9E7E7E1E16767F9F99F9FE0E087E5
:10055000878686E7E700000707797986866161FF6D
:10056000FFFFFFFFFFE0E0E7E7E6E6E6E6E6E6E7B7
:10057000E7E0E0FFFFE1E1E6E6E1E1E7E7F8F8E1E7
:10058000E1E1E1F9F9FFFFE0E0F9F9F9F9E1E1E78B
:10059000E7F9F9E7E7E0E0FEFEFEFEE1E1FEFEFF3F
:1005A000FFFF3238000000000000000000000000E3
:1005B00000000000000000000000000080D058C8CB
:1005C000F83800000080F03888F83880D058C8F833
:1005D0003800F07818F8000000000000000000006B
:1005E00000000000000080C0C04040C0C000030305
:1005F000020301000000081B131E0F010003030289
:1006000003010003030003030000000000000000DA
:10061000000000000000E0FCFF0F0080F8FF1F0357
:1006200000E0FC1C040404A0D85C44E4FC3800E0B6
:10063000F83C04F4FC1C04E0FC3C0000000000005A
:100640000000000000000006070704040603010084
:100650000000070701000000070705040707011055
:100660003337273C1F0F00000707050480D058C808
:10067000F83880F038080800E8FC0E08000080F028
:100680003F8FF83800F8F8C0701808000080F07F3D
:100690000F81F07F0780F03808F87880F038030386
:1006A0000203010003030000000203020000000037
:1006B000030302030100181F0701000080C040C1AE
:1006C000C3020203010000030300C3C3400383C24B
:1006D000000000000000000000000000000000001A
:1006E000000000000000000000000060F8888FBEDD
:1006F000FEE3B908000000E0E080E07C1F0160FC40
:100700009F817810F87880F0784878300000008079
:10071000F03F8FF83800F8F8C070180800000000AB
:1007200000000000000000000000000000000000C9
:10073000000000000003030003030203C1C04000E7
:1007400000030302030100181F87814040C0C080DE
:10075000000080804040C0C0800000000000000019
:1007600000000000000004C0FC7C0480F0FE1F03B9
:1007700000A0D85C44E4FC3800003E3F23A0F0FF1A
:100780001F83F0FE1F0B88F8F90101000000000034
:100790000000000000000000060703000407070037
:1007A0000000070705040707010003070704040307
:1007B0000300000307070404030300000000000017
:1007C0000000000000000000000088B83080F03F0A
:1007D00087F07848783000809C3EF1F1470680F041
:1007E0003888F83880F03888F83880F03808088081
:1007F000F07FE7300808F8F8C07018084340C0835D
:10080000030083C342C3C1000183C24243C18018B5
:10081000DFC1020301000303020301000303000020
:1008200000030300030300181F0701000000E07E1F
:100830000F0160E081C47C3F03C0FC3F0FF8FE075E
:10084000E1FE1F01000000000000000000000000A9
:100850000000000000000000000000000000000098
:10086000490840E08EDB713363FC8EC1791F024082
:10087000F89F83703E07C0F80FFFE37C07C1F89F25
:1008800083713F0600000060FC8EC1791F02C0F832
:100890001F0909C1F81F090901000000101000001C
:1008A00000C0B8847CC83CFCF00C0040E08EDB71DA
:1008B0003363FC8EC1791F0240F89F83703E07C0EE
:1008C000F80FFFE37C07C1F89F83713F060000002B
:1008D000C0B8847CC87C2424C07C24240000000090
:1008E000101000000060FC8EC1791F02C0F80FFFDD
:1008F000E37C07012038000000000000000020F029
:10090000787C3E3E3E1E1F0F0F0E0E0C0808080896
:1009100008080404040480F00804040203010180B0
:100920008080808080C0E0E0C0C0800000000000C7
:100930000000000000F03FE0000000000018F1C3DC
:10094000CCD8D09999151D1F1F32333B323210007D
:1009500000002040807F00010EF000000000CF7FEB
:1009600087830101010EF1010101020204E4F41484
:1009700094F46808898A0000003FE000000619E04E
:100980000000031C204080071820C0303F0F033EAA
:100990003F01383F27340000000000010618E01F27
:1009A000E000000000000001020408B1660830C049
:1009B0000000000000000000000000000006090820
:1009C0000700000000000000000000010202020415
:1009D000050A0A04000004040808080808081010A2
:1009E00010302040408080000000000000006010B7
:1009F0008848C85060C000000000000000000020CF
:100A000078C8F07800000103067880000000007FBD
:100A1000C449281E35EAC080000000000000000024
:100A2000000001909098CCC4E4E4B3B21C00000034
:100A30000001030203028C09098A92121494941291
:100A40008A8A8909040686868607058587800000CC
:100A50000080808000001703003F3F380F03383FBD
:100A600027341703383F0300003037271C0D0038A8
:100A70003F273417030000000000000000000000C2
:100A80000000000080F07F17D0F83F0780F0388822
:100A9000F83880F0388800000000000000000000F6
:100AA000000000000303000003030000030302032F
:100AB00001000303020340000000000000000000EA
:100AC0000000000000808040402030101010080816
:100AD00008080808040450C020A09830C000000096
:100AE000008078060301000078F0C878200000003C
:100AF0000000000000000202010000010300001CD1
:100B0000B2B3E4E4C4CC989090010000000000006F
:100B10000000000080C00000E070F01000C0F0F79E
:100B2000350587868606060489898A0A1294949474
:100B300092128A89090C303F073E3F1C07391F0378
:100B4000383F27341703383F030000303F07313F59
:100B500007313F07383DB83080F07FE7300888F034
:100B60007848783000F8F8C07018080000000000DD
:100B70000000000000000000030300030300030363
:100B800002030100181F0701000000000000000020
:100B90000000000000000404040408080808080815
:100BA0000C0E0E0F0F1F1E3E3E3E7C78F020000004
:100BB000000000000000F000000000000000000045
:100BC0000080C0C0E0E0C0808080808080010103A0
:100BD00002040408F0807F804020000000103232C0
:100BE0003B33321F1F1D159999D0D8CCC3F1180083
:100BF00000000000E03F8A8988880404A42404845B
:100C00008202F13101F10E01010183877FCF0000E3
:100C10000000F00E0100253C1F03383F03383F233E
:100C200038DF2318078040201E030000E01906006B
:100C300000E03F000000000000000000C030086637
:100C4000B108040201000000000000E01FE01806E7
:100C50000100000000000000040A0A05040202026C
:100C60000100000000000000000000070809060065
:100C7000000000000000101800000000000000004C
:100C8000006040F0C0F898FCB8FE30FFC6FFDCFE04
:100C900080FC008000000000008000C080E040F088
:100CA00080E080C000810081008181C343FFDBFFC1
:100CB000DDFFEEFFECFF00FC000F051F1A3F3F7F3A
:100CC000037F7CFF7FFF7FFF78FF377F0F7F1E3F13
:100CD0000D1F050F010700032040000000000080E9
:100CE000F07F17D0F81F83F038C8F81000F888603C
:100CF00018F8C0701808000080F80000000000011B
:100D00000100000101000001C1C140C0C10181C05A
:100D100041C1010080C040C001010000000000008E
:100D2000000000000000000C07000E07000E0F0975
:100D30000505000E0F090505000E0000000000006B
:100D400000000000000000000000000000000000A3
:100D50000000000000000000000000FF01A955A9EC
:100D600055A955A955A955A955A955A955A955A993
:100D700055A95501FF0155A955A900FF04A455A483
:100D800055A455A455A455A455A455A455A455A49B
:100D900055A45504FF0455A455A400FF1092559284
:100DA000559255925592559255925592559255920B
:100DB00055925510FF1055925592007F404A554A62
:100DC000554A554A554A554A554A554A554A554A2B
:100DD000554A55407F40554A554A18C8F810E8789A
:100DE00000C0F038E8780080F818C8F81800F8F863
:100DF00060380800000000E83C0E80C140E179083E
:100E000000010141E1700081C040C1800004070180
:100E1000C04000C0C00081C141800F080E03000027
:100E20000000080F0900040F090E07000000000869
:100E30000F0C03080F0E03000C0F00000000000051
:100E400000000000000000000000000000000000A2
:100E5000080C0C0C04000000000055A955A955A968
:100E600055A955A955A955A955A955A901FF01A9E4
:100E700055A955A955A955A955A955A455A455A491
:100E800055A455A455A455A455A455A404FF04A4E1
:100E900055A455A455A455A455A4559255925592C0
:100EA00055925592559255925592559210FF109227
:100EB00055925592559255925592554A554A554AD2
:100EC000554A554A554A554A554A554A407F404A1F
:100ED000554A554A554A554A554A80F03A82F818BB
:100EE000C8F810E87800C0F038A8B80080B0B8D8CA
:100EF00018000000C0F018C87C0FD111C0C141C05B
:100F0000C10001010080C141C1000000010181C098
:100F100040C0400081C141C10000010C07000E0724
:100F2000000000000E0F090F03000000203C2F38C6
:100F30001E03000E0F090F03000C00000000000844
:100F40002C3C1E0F0D0400000000000000000000FB
:100F50000000000000000000000055A955A955A997
:100F600055A955A95501FF0155A955A955A955A937
:100F700055A955A955A955A955A955A455A455A490
:100F800055A455A45504FF0455A455A455A455A42F
:100F900055A455A455A455A455A4559255925592BF
:100FA000559255925510FF10559255925592559263
:100FB00055925592559255925592554A554A554AD1
:100FC000554A554A55407F40554A554A554A554A13
:100FD000554A554A554A554A554A81F038C8F8107D
:100FE00000000000F8F860380880F038C8F810C039
:100FF000F818C0F8180000000000C0C141C18040CE
:10100000C0000084C741C00000203189E978000198
:10101000010101000000000000000F000E07080F92
:1010200003000E0F0905050000080B010000000079
:1010300000000000000000000000000000000000B0
:1010400000000000000000000000000000000000A0
:101050000000000000000000000055A955A901FF94
:1010600001A955A955A955A955A955A955A955A9E4
:1010700055A955A955A95501FF0055A455A404FF2C
:1010800004A455A455A455A455A455A455A455A4E9
:1010900055A455A455A45504FF005592559210FF30
:1010A000109255925592559255925592559255924D
:1010B0005592559255925510FF00554A554A407F1A
:1010C000404A554A554A554A554A554A554A554A3D
:1010D000554A554A554A55407F000608E09C8241D2
:1010E00039070000C239070080C4A2910907E080D7
:1010F00082C93D072030ACF22F0140CC8BC53D01A9
:10110000E0BC8EC9390380C061190503E0948A49A7
:101110003D07C09C92D139071018F8C4320AF60274
:101120000119254B4325DAA294883F409CB2529383
:101130000C08084848A118040201708846211008CC
:1011400005629A44201009060000F8C4320AF6022B
:101150000119254B4325DAA294883F409CB2529353
:101160000C080848C821180402017088462110089C
:10117000050204081021224488F0F8C4320AF6025D
:101180000119255B4B25DAA498003F409CB252938D
:101190000C08084848A1180403007088462110086C
:1011A00005629A442010090600008894A2DA2543BB
:1011B0004B25190102F60A32C4F801020418A148AD
:1011C0004808080C9352B29C403F000006091020CA
:1011D000449A62050810214688708894A2DA254353
:1011E0004B25190102F60A32C4F80102041821C87D
:1011F0004808080C9352B29C403FF08844222110CA
:10120000080402050810214688700098A4DA254BCE
:101210005B25190102F60A32C4F800030418A1483C
:101220004808080C9352B29C403F00000609102069
:10123000449A62050810214688700808187EF299C1
:10124000090B09060C06060F7B82A6786090D090E9
:10125000994F7E181E6541DEF06060302040FFFF30
:10126000FFFFFFFFFFFF1FEFF1FFFFFFFFFFFFFF8C
:10127000FFFFFFFFFFFFFFFFFFFF7F3F1F1FFFFF7E
:10128000FFFFFFFF01FEFFFFFFFFFFFFFFFFFFFF6D
:10129000FFFFFFFFFFFFFFFFFFFFFCFBF706FFFF66
:1012A000FFFFFFFFFEF9E7DF3FFFFFFFFFFFFFFF4D
:1012B000FFFFFFFFFFFFFFFFFFFFFFFF3F00FF7F7D
:1012C0003F1F9F4F87132B532B128255A54B1BF7A4
:1012D000F7F7F7F7FBFBFBF9FD7D1E00007FFFFC36
:1012E000F8F9FAF1F0F0E0C0000000083C3E3FFFE2
:1012F000FFFFFF7F7F3F3F07010000000000FFFF6F
:10130000FFFFFFFFFFFFFFFFFFFEF8F0E0C0808060
:101310000080808020802090A09048D40A24FFFF85
:10132000FFFFFFFFFFFFFFFFFFFFFFFFFF05F2FED5
:10133000FCF9FBF3EF03FCFBFBFFF00EFEFFFFFFEE
:10134000FFFFFFFFFFFFFFFFFFFFFFFFFFFFFFFFAD
:10135000FFFFFFFFF9FEFFFFFFFFFFFFFFFF1F3F44
:101360003F1F1F1F3F7FFFFFFFFFFFFFFFFFFFFF2D
:10137000FFFFFFFFFFFFFFFFFFFFFFFFC71FF7F8A4
:10138000FAF606F4FAFCFFFFFFFFFFFFFFFFFFFF87
:10139000FFFFFFFFFFFFFFFFFFFFFFFFFFFF8F4F7D
:1013A0000F4F001F5FBFBFFFFFFFFFFFFFFFFFFFEC
:1013B000FFFFFFFFFFFFFFFFFFFFFFFFFFFFBF5C20
:1013C000A854A85400FEFDFBFBF7EF07C7DFBFBF23
:1013D000BF7F7F7F7F7FBFBFBFDFEF2FF7FBAA55A8
:1013E000AA55AA05F07F7F7F3FC3FCFFFFFFFFFFE9
:1013F000FFFFFFFFFFFFFFFFFFFFFF88F1FDB03999
:1014000094B66E7676F7FBFBFBFDFBFBE7DFFF1F79
:1014100063BFDFDF1FD33FDFDF9FFF1F63BFCFF05F
:10142000FFFFFFFF1FE0FFFFFFFFFFFFFFFFF8FED3
:10143000FCF9FFF8FFF8FAFBFDFFF8FEFCF9FFFFEF
:10144000FFFFFFFFFFFFFFFFFFFFFFFFFFFFFFFFAC
:10145000FFFFFFFFFFFFFFFFFFFFFFFFFFFFFFFF9C
:10146000FFFFFFFFFFFFFFFFFFFF3F3FBFBFBF3F8C
:101470007FFFFFFFFFFF7F3F3F3FFFFFFFFFFEF9C3
:10148000C73FFFFFFFFFFFFF0F81C0DEDFDFEFE0A1
:10149000F0FF7F1F87E1F83E00C0FFFF7F0FFFFFD7
:1014A0000FF0FFFFFFFFE7E0F8FFFFFFFFFFFFEF99
:1014B000E3F1FCFEFEFEFEE0E0FFFFFFF0E07DBE9C
:1014C000BFFFFFFFFFFFFFFFFFFFFFFFFFFFFFFF6C
:1014D000FFFFFFFFFFFFFFFFFFFFFFFF3FFFFE8F4D
:1014E000B3BDCDF18FB1BD8FF1FDFFFF8FE1F9FDF0
:1014F0008FB3B5D5F18FA3B585F18FF18EF1DFDF15
:101500001FD31FDFDF1FFF3FDFDF1FDFFFFFFF5F97
:101510008FD7FF1FC3DF1FFF3F5F5F1FFFFFFFF876
:10152000FFF8FEFFF8EFE0EAE3F8FFFFFFFFFFF848
:101530003BFFF8FEFFF8FFF8FBFBFDFF7FBFFFFF5F
:10154000FFFFFFFFFFFFFFFFFFFFFF8FA3BD8DF139
:101550008EB3BDCDF18FE1FD8DF1FFFFFEFFFF3FAB
:101560003FBFFFFFFF7F3FBFFFFF7F7FBFBFBF3F8B
:101570007FFFFFFFFF3F3FBFBFBFBFBFFFFF01E0D8
:10158000FEFFFF3F03C0FCFFFFE1C0878F1F1FF876
:10159000F8FFFF0F01C0DEDFDFDFFFFFFFFFEFEF30
:1015A000EFE7F1F8FEFFF3E1E5EFEFEFF7F0FCFF17
:1015B000FFE7E0E0EFEFEFEFFFFFFFFFFFFF3FFF91
:1015C000FFFFFFFFFFFFFFFFFFFFFFFFFFFFFFFF2B
:1015D000FFFF3FFFFFFFFFFFFFFFFFFFFFFFFE01DA
:1015E000DFE7FBFDFFFF8FB3B5D5F18FE1FD8D7117
:1015F0000FE18DB3BDCDF1FF01DFE7FBFDFFFEFF86
:101600003F5FDF9FFF1FC3DF1FFF1F9FDFFF1ED254
:101610001FBF5F1FDF1F9FFE1FDFDF1FFFFFFFF9E1
:101620007BFBFCFFF8FEFFF8FFF8FEFFFFF8FFF87A
:10163000FFFBF8FFFBFCE7F07ABBBC3FFFFF85B880
:10164000FDFFFFFFFF01DFE7FB8DB3BDCDF18FB1E4
:10165000BD8FF1FDFFFFFFBDA6FBF9FEFFFF2040A0
:10166000FFFFFFFFFF7FBFFFFFFFFF3F0F0703816C
:10167000010101000000000000010FBFFFFFFFFF9C
:10168000FFFFFFFFD8D043C3C3636130381C8641DE
:1016900030080C0000000000040E0E7EFFFFFFFF6C
:1016A000FFFFFFFFFFFFEEC2D8F87C3C0E0701C032
:1016B000E000000000000000000000004367FFFFA2
:1016C000FFFFFFFFFF7F1F8FC3E1F0F8FCFE3F1F0E
:1016D0000F18304080000080FCFEFEFCF8F8F0E1BE
:1016E000FF9F07C3E080FFFFFFFFFFFFFFF0C08009
:1016F00000000000000001000001010307070F1FA8
:10170000FFFFFFFFFFFFFFFFFFFFFB0303030307D5
:10171000070F1E3E7CFCFCFCF8F8F8F0F0E0C0007F
:10172000FFFFFFFFFFFFFFFFFF7F3F38F0F0F0F804
:10173000F0F060000001070F1F1F1F1F0F0F038035
:10174000DF9F0F0F0F070301000080808183C7C751
:10175000C3E0E0F0F0F8F8FCFCFCFCFEFEFFFFFF4D
:10176000FFFFFFFFFFFFFF7F7FFFFFFF7F7FFFFF89
:10177000FFFFFFFFFFFFFFFFFFFFFFFFFFFFFFFF79
:10178000FFFFFFFFFFFFFFFF00CFF3F93E87F3FBF3
:101790001BC3FF7F07E3FF1F83FBFFFFFFFF3F0329
:1017A000FFFFFFFFFFFFFFFCFEFFFFFFFCFDFDFC57
:1017B000FEFFFFFCFDFDFCFCFFFFFFFFFFFFFCFC4D
:1017C000230F1F7FFFFF7F0F437B7F3F07F37F3F89
:1017D000DFDF1FFF1F1FFFFF3F9FFFFFFFFF7FBFD9
:1017E0003F7EE0FEFFE7F0FEFFEFE1F8FFF3E0EE03
:1017F000E6F2FE3F98E0F1FCFFFFFFFFFFE3E9EEBA
:1018000000000003FFFFFF7F1FFFFFFFFFFFFFFF41
:10181000FFFFFFFFFFFFFF3F9FFFFFFFFFFFFFFFF8
:10182000C0E0F0FCFF1FC3F80F617C3E86F0FF0FA5
:10183000617C3E86F01FC3E00339FCFEFFFFFFFF23
:10184000FFFFFFFFFFFFFFFFFFFFFFFFFFFFFFFFA8
:10185000FFFFFFFFFFFFFFFFFFFFFFFFFFFFFFFF98
:10186000FFFFFFFFFFFFFFFFFFFFFFFFFFFFFFFF88
:10187000FFFFFFFFFFFFFFFFFFFFFFFFFFFFFFFF78
:101880007F9FE7037F9FC7730BE37E07E3F71B830D
:10189000FFFFFFFFFFFFFFFFFFFFFFFFFFFFFFFF58
:1018A000FEFFFFFCFEFFFFFCFFFFFCFFFFFDFCFF58
:1018B000FFFFFFFFFDFDFFFFFDFDFFFFFDFDFFFF44
:1018C000DFDF1FFFFFDF1FC7D7FFFFFFFFFF7F0F18
:1018D000633FDFDF1FFF7FBFDFDF1FFFFF3F1FDF34
:1018E000E6E0FCFFFFE1ECFFFFFFFFFFFFE3F8F3A3
:1018F000E0EEE6F2FEE3E9EEE6E0FCFFE3EAEEE02E
:10190000FFFF3F9FFFFFFFFFFFFFFFFFFFFFFFFF07
:101910003FBFFFFF3FBFFFFFFFFFFFFFFFFFFFFFD7
:101920001F03783E86E0FF9F03713696F0FF0E603E
:10193000FEFE0E60FEFE9F03713696F01FC1F8FE9C
:10194000FFFFFFFFFFFFFFFFFFFFFFFFFFFFFFFFA7
:10195000FFFFFFFFFFFFFFFFFFFFFFFFFFFFFFFF97
:10196000FFFFFFFFFFFFFFFFFFFFFFFFFFFFFFFF87
:10197000FFFFFFFFFFFFFFFFFFFFFFFFFFFFFFFF77
:10198000FFFFFFFFFFFFFFFFFFFFFFFFFFFFFFFF67
:10199000FFFFFFFFFFFFFFFFFFFFFFFFFFFFFFFF57
:1019A000FFFFFFFFFFFFFFFFFFFFFFFFFFFFFFFF47
:1019B000FFFFFFFFFFFFFFFFFFFFFFFFFFFFFFFF37
:1019C0009F9FFFDF1FC7D7FFFFFFFF1F1FFFFF3FC7
:1019D0009FFF3F9FDFDF1FFFFF3F1FFFFF1FDFFF57
:1019E000F9FFFFE1ECFFFFFFFFFF3F98E0F1FCFF95
:1019F000FFE1ECEFE7F0FEFFE3E8EFE7E0FCFFFFDD
:101A0000FFFFFFFFFFFFFFFFFFFFFFFFFFFFFFFFE6
:101A1000FFFFFFFFFFFFFFFFFFFFFFFFFFFFFFFFD6
:101A2000FEFFFFFF1FC1F87D06E00F617C3E86F0E0
:101A3000FFFF0F009FE7F9009FE7F1FCFEFFFFFFAC
:101A4000FFFFFFFFFFFFFFFFFFFFFFFFFFFFFFFFA6
:101A5000FFFFFFFFFFFFFFFFFFFFFFFFFFFFFFFF96
:101A60002040FFFFFFFFEF0FFF7F3FCFEF7F7F7F24
:101A70007FFFFFFF7FFFFF7F7FFFFFFFFFFFFF7FF6
:101A8000FFFFFFFFFFFF9FC0F9FEFF87B0BE9FC3B0
:101A9000F8FF8FA0BC9F83F0FFFFFFFFFFFF878051
:101AA000CFF3FFFFFFFFFFFFFFFFFFFFFFFFFFFF82
:101AB000FFFFFFFFFFFFFF7FFFFFFFFFFFFFFFFFB6
:101AC000FFFFFFFF7F2FD7DB1B83FFFF3B83F8FA6E
:101AD000FFFFFFFF7F0FE17C0FC7DB5BC37F2FD7CB
:101AE000DB1BFFFFFCFDFDFCFCFFFFFFFCFDFFFF20
:101AF000FFFFFFFFFCFFFFFEFCFDFCFEFFFCFDFD0A
:101B0000FCFCFFFFFF3F9FDFDF1FFFFF3F1FBFDF2B
:101B10001FFFFF7F3FDFDF1FFFFFFFFFFF7FBFDFF5
:101B2000DF1FFFFFE1ECEFE7F0FEFFE3F8FFEFE080
:101B3000FCFFF3E0EEE6F2FEFFFFFFFFE3E9EEE677
:101B4000E0FCFFFFFFFFFFFFFFFFFFFFFFFFFFFFC7
:101B5000FFFFFFFFFFFFFFFFFFFFFFFFFFFFFFFF95
:101B6000FFFFFF7FFFFFFF7F7F7FDFFF7FFF7F7F25
:101B7000FFFFFFFFFFFFFFFFFFFFFFFFFFFFFFFF75
:101B8000FFFFFC80CFF3F88EE1FC8FE0FCBE83F01A
:101B9000FFFFFFFFFFBFBFFFFFBFBFFFFFBFBFFFD5
:101BA000FFFFFFFFFFFFFFFFFFFFFFFFFFFFFFFF45
:101BB000FFFFFFFFFFFFFFFFFFFFFFFFFFFFFFFF35
:101BC000FFFF83FF7F47C31B33F3FF3B83F8FAFF1D
:101BD000FFFFFFFF03033F9FE7F33F87F3FB1BC3B9
:101BE000FF7FFFFFFCFDFDFCFFFFFFFCFDFFFFFF94
:101BF000FFFFFFE7F3FCFEFFFFFFFCFDFDFCFEFF28
:101C0000FFFCFFFF7F3FDFDF1FDFFF7FBFDFDF1F47
:101C1000FFFF7F1FF73F1FBFDF1FFFFFFFFFFFFF1C
:101C2000FFFFBF23606F87E0FEFFE3E9EEE6E0FC25
:101C3000FFE3F8FFE3F8FFEFE0FCFFFFFFFFFFFF2C
:101C4000FBF9FFFFFFFFFFFFFFFFFFFFFFFFFFFFAE
:101C5000FFFFFFFFFFFFFFFFFFFFFFFFFFFFFBFB9C
:101C6000F9F9FF1F0FFF7F9F0FCFFF3F8FEFFF7F20
:101C70007F7FFFFF3F8FFF3F8FFFFFFFFFFFFFFFD4
:101C8000FFFF9F80C6F1FC8780C3F8FECF81B89B21
:101C9000CBF88FE1FC8FE17C1FDFFFFFFFFFFFFF31
:101CA000FFFFFFFFFFFFFFFFFFFFFF7FFFFFFFFFC4
:101CB000FFFFFFFFFFFFFFFEFFFFFFFFFFFFFFFF35
:101CC000FFFF07E3FF1F83FBFFFFFCFF7F07E3FB33
:101CD0007B0FC7DB5BC3FFFFFFFFFF3F0701000078
:101CE0000101FDFDFCFCFFFFFFFFFFFFFC7F7F3FCD
:101CF0003E1C1D1C0E0F0F0707070100000000000F
:101D00000000FF7F3F1F0F47E7E3E10100000000F5
:101D1000000000000000000080808080C0C0C0C0C3
:101D2000C0C0F8F8F0F0E060614100000000000081
:101D3000000000000080C0703F07000000000000AD
:101D40000000F9F8F8F8F8F8F8F8F8F8F0F0F0F81A
:101D5000F8F8FCF6F7F3F1F0F0F0F0F0F0F0F8F846
:101D6000F8F8FFFFFCF9F1C3830307070F0F0F1FFC
:101D70001F3F3F7F7F7FFFFFFFFFFFFFFFFFFFFF53
:101D8000FFFFFFFFFFFFFFFFFFFF9C8080C0C0C081
:101D9000C0C0C0C0C0C0C0C0C1C1C383871F7FFF57
:101DA000FFFFFFFFFFFFFFFFFFFFFFFFFFFFFFFF43
:101DB000FFFFFFFFFFFFFFFFFFFFFFFFFFFFF83FFA
:101DC00001070103030303030303010101010101EF
:101DD0002131393D3F3F1F1F0F0F0707030180C00F
:101DE00070FE000000000000000000000000000085
:101DF000000000008080C0C0603038180C0603C1AD
:101E0000F8FF4060606060203030101818080C0C3B
:101E10000606030301010000000080E0F0FCFFFF64
:101E2000FFFF000000000000000000000080808034
:101E3000C0E0E0F0F0F87C7CFEFFFFFFFFFFFFFF5B
:101E4000FFFFF8F8FCFCFCFCE6C6C68383010180BA
:101E5000C0E0F0F8FCFEFFFFFFFFFFFFFFFFFFFF0A
:101E6000FFFF2040000000F8F8C0E0381880F0F8CC
:101E700088880800E0F0988838300000000000C032
:101E8000F80800000000001F1F010000181F1710B5
:101E90001000081C14111F0F02000000001014078E
:101EA00000000000000040E0704080F878C0C000F2
:101EB00080C040C0800000000080C040C0C00080E2
:101EC000C040C08000001F17001C1F01181F030C1A
:101ED0001F131A0B01000040CC9FF17C0F01181E4C
:101EE000121E0F010000C0C00080C04080C040C072
:101EF000800080C00080C000303808C0C00080C0B2
:101F00004080C04000C0FF3F0E03000C1F111C0F9B
:101F1000011C1F11181F03000000001F1F1C0701D8
:101F20000C1F131A000080F878C0C00080C040C0A9
:101F3000800080C040C0F818C0C00080C0400000D1
:101F40000080F878001C1F111C0F010C1F111C0FC2
:101F5000011C1F111C0F01C0FF3F0E0300000000F9
:101F60001C1F111C00C0C00080C04080C040C08049
:101F70000080C00080C000303808C0C00080C04071
:101F800080C040C0C0FF3F0E03000C1F111C0F019A
:101F90001C1F11181F03000000001F1F1C07010C4D
:101FA0001F131A0B0080C040C0C000C0C00080C01A
:101FB00040C0800000000000C0F038F8F800008049
:101FC000F0F8F800181F03181F03181F030C1F1345
:101FD0001A0B010000101C0F07041C1F0000181F23
:101FE000031E1F1FC0800000000080C040C0C00052
:101FF00080C040C0800040E07040000000C0C000D1
:1020000080C040800B01000040CC9FF17C0F010C90
:102010001F111C0F01001F1700000000C0FF3F0E22
:1020200003000C1FC0C00080C040C0800080C040C2
:10203000C0800080F83880400000000000C0F80830
:10204000000000000F01181E121E0F010C1F110CC2
:1020500005011C1F071F19000000001014070000D5
:10206000000000008000000000C0C00080C0C00070
:10207000C0C00080C040C0800080C040C0C0000020
:102080000000000001000000001F1F0E031F1D0EB6
:1020900003000C1F111C0F011C1F01181F0300005F
:1020A00000000000E0F80880F0780888F870000070
:1020B0000000000000000000000000000000000020
:1020C000000000000700181F1710180F0300000081
:1020D0000000000000000000000000000000000000
:1020E00000000000C040C0800080C00080C00080B0
:1020F000C0404000000000000000000000000000A0
:1021000000000000111C0F011C1F11181F031C1FD1
:1021100001000000000000000000000000000000BE
:10212000000000C0000000000000000000000000EF
:10213000000000000000000000000000000000009F
:1021400000C0FCFF000000000000000000000000D4
:10215000000000000000000000000000000000007F
:10216000060F1F1F001038F8F8D8981898F8FEFED0
:10217000FFFFFFFEFEFCF00000000000000000007A
:1021800000000000000000000103031FFFFFF3EF49
:10219000EFEFF7FBFFFF7FFFFCE000000000000017
:1021A000000000000000000000000080DFBF7F7F13
:1021B0007FBFDF9F070100010F3F7CF0C080000060
:1021C0000000000000000000E0F8FEFFFFFFFFFF3E
:1021D000FFFFFFFFFEF8F0C0000000000103070E44
:1021E0000C1C18180080F8FFFFFFFFFFFFFFFFFF28
:1021F000FFFFFFFFFFFFFFFFFFFCF0C0000000003C
:1022000000000000FCFFFFFFFFFFFFFFFFFFFFFFDD
:10221000FFFFFFFFFFFFFFFFFFFFFFFFFFFCF0805F
:1022200000000000FFFFFFFFFFFFFFFFFFFFFFFFBA
:10223000FFFFFFFFFFFFFFFFFFFFFFFFFFFFFFFFAE
:10224000FEF8C0001F3F3F7F7F7FFFFFFFFF7F7FC4
:102250007FFFFFFFFF7F7F7F7F7F7F7F7F3F3F1F6E
:102260001F0F07032040FFFFFFFFFFFFFFFFFFFFE0
:10227000FE009FE7F37C0EE7F73787FFFF0FC7FFEE
:102280003F07F7FFFFFFFFFFFFFFFFFFFFFFFFFF1E
:10229000F9FCFFFFFFF8FBFBF9FCFFFFF8FAFBF985
:1022A000F8FFFFFFFF7FFFFFFFFFFFFFFFFFFFFFC5
:1022B000FFFF4FBF1FDBF72DF72DFBAF5BF70F576E
:1022C0000CBF88FFB849FFFF7F7F870F0F7F1B2C54
:1022D0001728176B970C1B251F6B9C73A87BCCBF13
:1022E0006FB46BDEA3387800FCCC39F828F8AC74F6
:1022F000AED82CD877007320000000000000010049
:1023000001C071D030D9FCE3E7860D03010205035B
:10231000008100C1E0A060A0C000E0E000C0E020BB
:10232000C0F6AB000100FFFFFFFFFEF8FCF8F8F07D
:102330009C071F4B360F3F567F977FAEFB0F320D2A
:102340000A070C030600FFFFFFFFFFFFFFFFFFFF71
:10235000FFFFFFFEFEFCFCFCFCF8F8F9F8F1F0F0E2
:10236000F0F0F0F0E0E0FFFF1FC3780FE7F73787EA
:10237000FFFF8F873767E7FF1F8FB7B787FFFFFF25
:10238000FFFF3F83D0DEFF78FEFFF8FBFBF9FC3F49
:10239000FFF83A7B78FE7FFCB87BF9BCFF3FFFBFBC
:1023A0007FF938FFFF7FF893F221C6B17F8E118746
:1023B000940B050B06083209360F140F040F06079D
:1023C00007170D160D0B6FB0CFBB6CD37D866DE27A
:1023D000F739EF3BCE363E0C1C080080C0C0E0F061
:1023E000F0D8BCFCEE3B7BAC5FEC33ED1BF601E1BF
:1023F000A04045C3C0F1F0FCF6FFEBFDF7FAEFFBA0
:1024000075FFBF7ECD3B00100B06010300170106D0
:1024100009B7557F7FFFFFFFFFFFFFFFFFFFFFFFB4
:10242000FFFE730D7F02000040A0F050F0B050F0AE
:1024300011E010B040D1A0A120C1018701030183A8
:10244000410681000080E0C0808D828F008F0007F0
:10245000012201060D02068102010E01060006019D
:102460001F002F003F00DEDEFE1FC7FD8F8737678E
:10247000E7FF1FC1EC7707FFFF8F873767E7FF771D
:1024800007F1F5FF1FC7FF7FF8FE7FF8FAFB78FE24
:10249000FF78FEFFFBF8FFFFF8FAFBF8FEFFFFF8FE
:1024A000FBFFFFF8FEFF9C87D96AF37ED2BFF8A935
:1024B000FAEFFCFB3FDAFF32CD7B0F201F53BF5AF0
:1024C000F31FF7BF7FCFCFFFADFFBFCD7EDBBE7366
:1024D000CF77DFB4DF375F356F004040408040C0CA
:1024E0008160CD6A7DC3EEBBEC9376DD335E250B58
:1024F000070C030201100000000000000008004269
:102500002CD03CD3FD3F1F0001000108045C34487F
:10251000B0788878B8F838F8E8F08000000000005B
:102520000000858B874300800800100C932C132C2F
:102530001B651A671CAB350F1D8356B040F030C0C9
:10254000B0D1B070F1F00E0017001F00060C800D26
:10255000A00010038007B00F020DB2053B459B069B
:102560008946B96FD3FFFD1FCFF7F7C7FF1F011CC7
:10257000CFE7F7FFFFFFFFFFFF1F81F8FFFFFFFF20
:10258000FFFFFFFFFFFFFCF8FBF9FCFFF8FEFFF881
:10259000F9FFFFFFFFFFFFFFFBFAFFFFFFFFFFFF5A
:1025A000FFFFFFFFFFFF3FCFBB2FEB9F63DF2BD76B
:1025B0007FEFFFFFFFFFFFFFFFFFFFFFFFFFFFFFBB
:1025C000FFFFFFFFFFFF84030C039C03808324D3E2
:1025D000BDFF3FFF5FFF7FFFFFFFFFFFFFFFFFFF2D
:1025E000FFFFFFFFFFFFFFEF00D8387C7CFC7EFE83
:1025F0005EDB55D991D8CDBFFF9DCFCFC7CFCFFFE1
:10260000FFFFFFFFFFFFC040C0C0C0C0C0C0C1C0CF
:10261000C1C0C1C0C1C1E1E1E1C101010100C1709E
:10262000F87FFFFFFFFFE1020100010001020D0240
:102630000D030E152B55BF55FFFF3FFCC1E3C0F73F
:10264000FEFDFFFFFFFFFFEBF0F0F0F0F0F8F8F811
:10265000F8F8F8FCFCFCFEFFFEFFFFFFFFFFFFFFAA
:10266000FFFFFFFFFFFF0102040810204080F0F889
:102670009C8E8783878E9CF8F00000FEFF03030387
:102680000303070EFCF80000FEFF03030303030728
:102690000EFCF80000FFFF00000000000000FFFF3C
:1026A0000000FEFF8383838383C7EE7C380000F83D
:1026B000FC0E07030303070EFCF800003F7FE0C099
:1026C0008080C0E07F3FFFFF01010101010101FFA8
:1026D000FF0000FFFF0C0C0C0C1C3E77E3C1000058
:1026E0007FFFC0C0C0C0C0E0703F1F00001F3F7030
:1026F000E0C0C0C0E0703F1F00007FFFC1C1C1C18A
:10270000C1E3773E1C00001F3F70E0C0C0C0E07016
:102710003F1F000000000001FFFF01000000D5F096
:102720008D14A1C881CFD9F1AF20006C149315810D
:10273000150A15661509185C167318EB148414082D
:102740000B00020202010009040000010202000065
:1027500005240010010524010101042402060524BA
:102760000600010705810310004009040100020A68
:102770000000000705020240000007058302400038
:10278000000403090412010002EF02014041233654
:102790008000010102030141726475696E6F204C73
:1027A0004C430041726475626F790000CC2511249E
:1027B0001FBECFEFDAE0DEBFCDBF11E0A0E0B1E099
:1027C000E0E3FEE402C005900D92A233B107D9F711
:1027D00025E0A2E3B1E001C01D92AF3EB207E1F7F0
:1027E00013E1C7EDD3E104C02197FE010E94102739
:1027F000C63DD107C9F70E9490230C9416270C946C
:102800000000CF92DF92EF92FF920F931F93CF932E
:10281000DF936C017A018B01C0E0D0E0CE15DF05BB
:1028200089F0D8016D918D01D601ED91FC91019057
:10283000F081E02DC6010995892B11F47E0102C0BB
:102840002196ECCFC701DF91CF911F910F91FF909F
:10285000EF90DF90CF900895A0E6B1E02FB7F89405
:102860007D918D919C9166B52FBFA89B05C06F3F50
:1028700018F47F5F8F4F9F4F22E0660F771F881FEE
:10288000991F2A95D1F7089580917101E0916F0108
:10289000F0917001882349F0CF0102969093700166
:1028A00080936F01859194910895CF010296909342
:1028B000700180936F018081918108958091520110
:1028C00008950895089580E090E008950F930AEF29
:1028D0000E94D31D0F910895CF93C0913201CF5F15
:1028E000C093320120E04CEA50E064E070E082E204
:1028F00090E00E946614CB3528F01092320181E0FE
:1029000080936801CF9108950F931F93CF93DF9326
:10291000D0915001809151018D1729F080914F0184
:102920008D134CC011C000E010E0C0E02C2F44E635
:1029300052E260E070E0C8010E946614CF5F005E62
:102940001F4FC43099F7EACF80914E018130C1F01A
:1029500030F0823099F500E010E0C0E022C000E0E5
:1029600010E0C0E02C2F42E65EE160E070E0C801BC
:102970000E946614CF5F005E1F4FC43099F71EC0DF
:1029800000E010E0C0E02C2F40E65AE160E070E08B
:10299000C8010E946614CF5F005E1F4FC43099F7D4
:1029A0000DC02C2F4EE556E160E070E0C8010E949A
:1029B0006614CF5F005E1F4FC43099F78CE00E9411
:1029C000321F882319F081E080936801DF91CF9155
:1029D0001F910F9108950F931F93CF9300E010E084
:1029E000C0E02C2F4CE552E160E070E0C8010E948D
:1029F0006614CF5F005E1F4FC43099F788E00E94D5
:102A0000321F882319F087E080936801CF911F91CE
:102A10000F910895EF92FF920F93CF93DF93E12CE4
:102A2000F12CC0E02C2F48ED5CE060E070E0C701C5
:102A30000E946614CF5F80E2E80EF11CC43091F76B
:102A4000D09101012D2F4AED50E167E170E08DE357
:102A500090E00E94661485E0E82EF12CC0E0CD17CE
:102A600071F003E020E046E75CE063E270E0C7015C
:102A70000E94D31DCF5F81E1E80EF11CF0CF80EC06
:102A80000E94321F882311F0C73090F080E30E942B
:102A9000321F882321F080910101823068F484E0A4
:102AA0000E94321F882361F086E08093680108C08D
:102AB000CF5FC0930101EACF815080930101EFCF36
:102AC000DF91CF910F91FF90EF90089520E042EABF
:102AD00055E064E070E08EE090E00E94661421E032
:102AE00042EA55E064E070E080E490E00E94661401
:102AF0008CE00E94321F882319F081E080936801E6
:102B0000089520E040EA53E060E070E080E290E069
:102B10000E9466148CE00E94321F882319F081E025
:102B20008093680108950F931F93CF9300E010E006
:102B3000C0E02C2F44EF58E060E070E0C8010E9434
:102B40006614CF5F005E1F4FC43099F7C09100013B
:102B50002EEF2C0F42E552E068E370E086E190E052
:102B60000E94661480E40E94321F882311F0C53051
:102B700098F080E20E94321F882321F080910001AA
:102B8000833070F48CE00E94321F882369F08091BA
:102B900000018093680108C0CF5FC0930001E9CFB6
:102BA000815080930001EECFCF911F910F91089536
:102BB000CF92DF92EF92FF92109243011092440164
:102BC00097E0C92ED12CE12CF12C80914301811189
:102BD0000EC00E948926A70196010E94AD26DC0145
:102BE000CB010397A109B10980934301EECF87E0A0
:102BF000C82ED12CE12CF12C8091440181110EC002
:102C00000E948926A70196010E94AD26DC01CB0116
:102C10000397A109B10980934401EECFFF90EF9093
:102C2000DF90CF900895CF93DF9360E971E080E06B
:102C300090E0AB01FC010E942C1441505109E109C4
:102C4000F10928F068517C4F8F4F9F4FF6CFAB01B1
:102C5000FC010E942C14641775078E079F07C8F3A8
:102C600010924D0110924C0110923301E6E4F1E014
:102C700083E08483858390E19083928328E123839A
:102C800034E13183E5E3F1E040E64083318323839F
:102C90009283848381E08583CFE3D1E08CE38883D2
:102CA0008CE189831C821D820E94D81588E08A836A
:102CB0008B83DF91CF91089510924F0110925101B3
:102CC00080910101809350010E94131687E0809348
:102CD00068010895FC010E942C14319728F0685176
:102CE0007C4F8F4F9F4FF9CFAB01FC010E942C14FA
:102CF000641775078E079F07C8F308950F930FB7E2
:102D00000F931F9211248F939F93EF93FF93E4E609
:102D1000F1E080915F0191E08D5F8D3710F08D576C
:102D2000939580935F018081890F80839181911DAC
:102D300091830281011D02838381811D8383092781
:102D40000F700927029500935E013BD0811100931B
:102D50005C018C3A11F08C35A1F400915D01901B5F
:102D6000963088F085538093000880930108289856
:102D700028D0F1F788E198E080936000909360009C
:102D8000FFCF90935D018091E905815020F0809301
:102D9000E90587E741F3E0E6F1E080819181019662
:102DA0008083918382819381811D911D828393838E
:102DB000FF91EF919F918F911F900F910FBF0F91F6
:102DC00018958FB18095807F669B88601C9B84607E
:102DD0000895CF92DF92EF92FF920F931F93CF93BC
:102DE000DF930E944414811520E8920761F48091DA
:102DF00071008D7F809371001092910046984798E2
:102E0000109255018BC021E020935501813020E8BC
:102E1000920751F480916D0190916E019093700131
:102E200080936F010E94441497FD05C020915401C6
:102E3000222309F43FC02091530121113BC021E01E
:102E400020935601EC01DF77209769F481E08093AD
:102E5000570146983FE9C32E3FE0D32EE12CF12CD9
:102E6000CAEFD0E014C08E0120E030E060E472E4EC
:102E70008FE090E0A90198010E94AD2669017A01D6
:102E800081E0C81AD108E108F10810925701E091D9
:102E90007205F09173050995811103C081E080935B
:102EA0005701809156018823B9F180915701811112
:102EB00033C003C010925601C5CF46992DC0479A22
:102EC0000E944414009771F09C01DE010E940127CA
:102ED000DC01CB0129E0B595A795979587952A95B3
:102EE000D1F703C08FEF9FEFDC01109290002AE032
:102EF00020939100D0929900C0929800809358013D
:102F000090935901A0935A01B0935B018091710095
:102F100082608093710002C04798D2CFDF91CF9139
:102F20001F910F91FF90EF90DF90CF9008951F9227
:102F30000F920FB60F9211242F933F934F935F93ED
:102F40006F937F938F939F93AF93BF93EF93FF9371
:102F50008091580190915901A0915A01B0915B0163
:102F6000892B8A2B8B2B81F18091570181110BC00A
:102F700098B180E4892788B980915601882319F097
:102F800088B1805888B98091580190915901A091D9
:102F90005A01B0915B01181619061A061B06B4F403
:102FA0008091580190915901A0915A01B0915B0113
:102FB0000197A109B1098093580190935901A093F9
:102FC0005A01B0935B0102C00E94E916FF91EF9194
:102FD000BF91AF919F918F917F916F915F914F9131
:102FE0003F912F910F900FBE0F901F9018952D9A23
:102FF00008950C946A160E94E116089510925201E9
:103000003E983F9808953E9A3F9A81E080935201FE
:103010000895FF920F931F93CF93DF931F92CDB725
:10302000DEB700E010E0F12C2F2D44EF58E060E017
:1030300070E0C8010E946614F394005E1F4F84E0A4
:10304000F812F2CF2091520140E658E068E370E0B8
:103050008BE190E00E94661480E40E94321F81118F
:103060000E94031880E20E94321F81110E94FE1705
:103070008CE00E94321F882389F06091520182E027
:1030800090E069830E9497266981681721F082E0A9
:1030900090E00E949F2681E0809368010F90DF916D
:1030A000CF911F910F91FF90089560387105D0F472
:1030B00040345105B8F4E6E6F6E280E1849FD001A1
:1030C000A0781124A60F4770E40FF11D8491AE582B
:1030D000BE4F222319F06C91862B03C080956C9112
:1030E00086238C9308952F923F924F925F926F9216
:1030F0007F928F929F92AF92BF92CF92DF92EF9288
:10310000FF920F931F93CF93DF9300D000D000D096
:10311000CDB7DEB780914D01882309F461C00091DD
:103120003F011091400180914301800F80933F0146
:1031300090914401910F90934001843058F480E5C0
:1031400090E00E948E1F00933F0180914301819582
:103150008093430120913F018091410190E0820FD3
:10316000911D8D379105C4F080E590E00E948E1F7F
:1031700000933F0180913401811103C0809143018C
:1031800008C0109234010E94D8158091430118168E
:103190001CF481958093430180914001843058F460
:1031A00080E590E00E948E1F1093400180914401C1
:1031B000819580934401209140018091420190E0EB
:1031C000820F911D813491055CF080E590E00E94B2
:1031D0008E1F10934001809144018195809344019A
:1031E0000E94892620914301F0903F01B090400158
:1031F000121644F524E12F1528F523E030E040E0D5
:1032000050E00E94AD2661111DC0809136018B15E2
:1032100080F4482F50E0909138012CE330E0291BD6
:103220003109421753072CF490913A01890F80938A
:10323000360180913601B81628F490913A01891B25
:103240008093360184E00E94321F8823E1F180914F
:1032500033018431C1F5EE24E394E0923D018F2DDA
:1032600090E09C012D5F3F4F29018B2D90E03C01A8
:1032700033E0630E711C209146018091480190E07B
:10328000820F911D082F9A83898350914901569589
:1032900020914701852F90E0820F911D282F9C835C
:1032A0008B831A813C8144E1C301B2010E943D1F1E
:1032B000882349F0109233018AE0809343011092F1
:1032C0004401E09234018F2D90E09C012D5F3F4F2F
:1032D00069018B2D90E07C0133E0E30EF11C1A8232
:1032E00019821C821B828CE08D838E8300E01A8100
:1032F00020E03C814CE05CE0C701B6010E943D1F2C
:10330000882359F08FEA90E00E948E1F809151012E
:103310008F5F809351010E94131684E3282F098147
:103320001A8130E04D815E81C701B6010E943D1FC8
:10333000882359F08FEA90E00E948E1F80915101FE
:103340008F5F809351010E94131684E7082F8983B1
:103350001A821C821B8210E020E03C814D815E813C
:10336000C701B6010E943D1F882359F08FEA90E003
:103370000E948E1F80914F018F5F80934F010E94AA
:10338000131684E3282F09811A8130E04D815E8174
:10339000C701B6010E943D1F882359F08FEA90E0D3
:1033A0000E948E1F80914F018F5F80934F010E947A
:1033B0001316C0903F01D12C83E0C80ED11CE090C1
:1033C0004001F12C23E0E20EF11C80904601912C8B
:1033D000A0904701B12C80E18D8388E18E83260186
:1033E0003701082D9A8289822A2DBC82AB821A81EC
:1033F0003C8140E158E1C301B2010E943D1F882396
:1034000009F459C0C50147968E159F0524F1099707
:103410008E159F0504F581E080933D018AE080933D
:103420003E0180913301865F853108F084E180930D
:10343000330184EF91E00E948E1F8091430187FF4A
:1034400003C08150809343018091440187FF03C0F2
:1034500081958093440137E0A30EB11CAE14BF04E4
:103460008CF082E390E00E948E1F82E080933D0109
:103470008FE080933E018091440118161CF48195E1
:1034800080934401C4010A968C159D053CF48091FB
:10349000430187FF03C081958093430184E0880E38
:1034A000911C8C149D043CF08091430118161CF46F
:1034B00081958093430180903501912CA090360135
:1034C000B12C082D9A8289822A2DBC82AB821A8166
:1034D0003C814D815E81C301B2010E943D1F882362
:1034E00009F456C080913401882359F010923401B8
:1034F0000E94D8158091430118161CF48195809381
:103500004301C50143968E159F05ACF081E0809381
:103510003B0184EF91E00E948E1F809143011816B9
:103520001CF48F5F809343018091440187FF03C0A7
:1035300081958093440123E0A20EB11CAE14BF0418
:1035400074F082E390E00E948E1F82E080933B0142
:103550008091440118161CF4819580934401C401A4
:103560000A968C159D053CF48091430187FF03C0AA
:1035700081958093430134E0830E911C8C149D044B
:103580003CF08091430118161CF48195809343010F
:10359000E2E7F1E090E89E0F9E1721F080818160C4
:1035A0008193FACFE2EFF4E090E89E0F9E1721F0AE
:1035B000808180688193FACF40E460E070E080E031
:1035C00090E00E94AC1F40E460E070E08FE790E084
:1035D0000E94AC1F40E460E070E080E490E00E9454
:1035E000AC1F40E460E070E084E290E00E94AC1F19
:1035F00040E460E070E08CE590E00E94AC1F21E0C8
:1036000040E350E060E470E084E795E00E945518E4
:1036100021E040E150E060E470E084E795E00E9442
:10362000551821E040E250E060E570E084E795E065
:103630000E94551821E040E250E060E370E084E72A
:1036400095E00E945518E12CF12C22242394312C72
:1036500000E110E060EE462E55245A9471EFC72E1B
:10366000DD24DA942FEFE21AF20A32E0230E311C45
:10367000C20CD31C370180E4680E711C21E0580194
:1036800030E2A30EB11CA501B30184E795E00E94CE
:10369000551880E4882E912C8E189F0821E0A501F2
:1036A000B40184E795E00E94551821E090E2A92E2C
:1036B000B12CA01AB10AA501B30184E795E00E94DC
:1036C000551821E0A501B40184E795E00E94551842
:1036D000570180E2A80EB11C21E0A501480130E4A9
:1036E000830E911CB40184E795E00E94551821E0F7
:1036F000A50130E4A32EB12CA01AB10AB50184E7CC
:1037000095E00E94551840E2642E712C6E187F08D7
:1037100021E0A301B40184E795E00E94551821E05F
:10372000A301B50184E795E00E945518E016F10663
:1037300054F4D7FC97CF0150110982E0480E511C78
:10374000C40CD51C8FCF60E070E080E090E00E9458
:10375000D51F60E470E080E090E00E94D51F60E437
:1037600070E080E890E00E94D51F60E070E080E8A3
:1037700090E00E94D51F00914F01202F4AED50E1AB
:1037800066E370E080E390E00E94661410915101BE
:10379000212F4AED50E166E370E08BE490E00E9457
:1037A000661480913E01882341F090913D01992358
:1037B00021F0815080933E0102C010923D01809122
:1037C0003C01882341F090913B01992321F08150E5
:1037D00080933C0102C010923B016091470170E070
:1037E0008091460120913D0148E151E190E00E9425
:1037F000661480913B0123E0280F6091360170E050
:103800008091350148E151E190E00E946614809179
:10381000770580FD0AC0809145018F5F843018F4E0
:103820008093450102C0109245016091400170E013
:1038300080913F01209145014AE352E190E00E94CE
:10384000661480915001081711F018130DC00E94E2
:10385000892623E030E040E050E00E94AD266093EE
:103860004E0189E0809368018091770580FD10C04A
:1038700080914D0181110CC080914C018F5F80932C
:103880004C018C3329F481E080934D0110924C015E
:103890000E94FB1786FF04C080914601843170F1BD
:1038A0000E94FB1785FF04C080914601853060F5BA
:1038B0000E94FB1787FF04C080914701853050F5B7
:1038C0000E94FB1784FF07C080914701282F30E03A
:1038D000243231052CF184E00E94321F882319F034
:1038E00081E080934D0188E00E94321F8823F1F02F
:1038F0000E94721F88E08093680118C090914A016D
:10390000890F80934601CCCF90914A01891B809307
:103910004601CECF90914B01891B80934701D0CFB8
:1039200090914B01890F80934701D5CF26960FB612
:10393000F894DEBF0FBECDBFDF91CF911F910F91E5
:10394000FF90EF90DF90CF90BF90AF909F908F90BF
:103950007F906F905F904F903F902F900895FC0163
:1039600080916C01811103C08FEF9FEF08959FB785
:10397000F89482E08093E9002091F20030E0121682
:10398000130614F421E030E02115310559F0289890
:1039900084E680936B018091F10080838091F20036
:1039A000882319F09FBFC90108958BE68093E80032
:1039B000F9CF2FB7F89483E08093E9009091E80065
:1039C000892F807295FF04C09091F20080E4891BDA
:1039D0002FBF0895CF93DF931F92CDB7DEB76983D2
:1039E000DC01ED91FC910280F381E02D41E050E09B
:1039F000BE016F5F7F4F09950F90DF91CF910895C2
:103A000083E08093E9008091F200882319F08AE333
:103A10008093E80008950E94D91C90E00895CF9308
:103A2000DF931F92CDB7DEB7FC018485958597FDA6
:103A300005C02FEF3FEF358724870BC0CE010196DD
:103A40000E94AF1C019719F4898190E002C08FEFAA
:103A50009FEF0F90DF91CF9108950F931F93CF9316
:103A6000DF931F92CDB7DEB78C01FC01848595856D
:103A700097FF0EC0CE0101960E94AF1C019719F46A
:103A8000298130E002C02FEF3FEFF801358724870E
:103A9000F801848595850F90DF91CF911F910F914B
:103AA00008958F929F92AF92BF92CF92DF92EF9242
:103AB000FF920F931F93CF93DF936C015B017A0109
:103AC00080910901882309F458C080916C018823F2
:103AD00009F453C080916A0180FF05C08091E00025
:103AE00082608093E000E70110E00AEF83E0882E17
:103AF0009AE3992E2097C1F10E94D91C811107C029
:103B00000150D9F181E090E00E946A16F3CF282F8E
:103B100030E0C217D3070CF48C2F4FB7F894809283
:103B2000E9009091E80095FF1DC0282F30E0C21BEE
:103B3000D30BF501982F915020F081918093F100E3
:103B4000FACFA20EB31E112319F09092E80009C01B
:103B50008091E80085FD06C09092E80011E0209772
:103B600009F010E04FBFC6CF1111C6CF5D9884E6B3
:103B7000809369011E141F0444F081E090E0F60177
:103B80009383828380E090E001C0C701DF91CF91F1
:103B90001F910F91FF90EF90DF90CF90BF90AF906B
:103BA0009F908F9008952F923F924F925F926F92C5
:103BB0007F928F929F92AF92BF92CF92DF92EF92BD
:103BC000FF920F931F93CF93DF9300D000D000D0CC
:103BD000CDB7DEB74115510509F42BC1A0E0B0E027
:103BE000FA0130E0102FA590D590211511F4311570
:103BF000B1F047E04D0D479546954695133009F4D1
:103C0000440F4A9DA001249FE00DF11D259FF00D5A
:103C1000109629F0349FA00DB11D359FB00D1124D1
:103C20001F3F21F4109612E009F011E01D83AF014F
:103C30004A2C512C7C01E40CF51C1E141F040CF0C2
:103C4000F8C0803891050CF0F4C09B012D0D311D9A
:103C5000121613060CF0EDC0603471050CF0E9C0CB
:103C6000309709F4E6C0262F2770322E9B0177FF8C
:103C700002C0295F3F4F03E0359527950A95E1F78C
:103C8000C22E77FF05C0332019F0CC24CA94C20E8F
:103C900097FF05C022273327281B390B02C020E0DD
:103CA00030E060E8E616F10424F060E8862E881A19
:103CB00001C08A2C821A0C2D0C2C000C110B7FEFEA
:103CC000C7161CF4F02EF09401C0F12C77247394E5
:103CD0006D2D677009F4712CD694D694D6947D0C12
:103CE000B801670D711D693071051CF068E0762E12
:103CF0007C18DF2CDC0C7D2D10E87103800D911DEC
:103D00001124820F931F61E070E0032C02C0660F44
:103D1000771F0A94E2F71D81133019F0BB24B39486
:103D200002C012E0B12E820108191109B09E602C68
:103D300011240B2D10E02901FA9C400C511C112478
:103D4000049D9001059D300D149D300D11247F01BF
:103D5000E20EF31E109709F0AD01F80131972E0F16
:103D60003F1F420F531FEFEFE69F9001E79F300D7B
:103D70001124290140945094C70CCE82712CB89C18
:103D8000600C711C11242E81D21609F452C0DC0182
:103D9000AE58BE4F5A019701912C981409F441C0B6
:103DA000F901C490C69EF001C79EF00D1124FA835C
:103DB000E983E095F095FC83EB83FD81F23019F403
:103DC0005C824B8211C0ED81EB3F19F41A8219829B
:103DD0000BC0F501C490C69EF001C79EF00D1124E2
:103DE000E095F095FC83EB83D7FC06C0FC91EB815A
:103DF000EF23F981EF2BEC93332061F0F6E0FD1512
:103E00004CF0FD01E058FF4F2080CC802C20CA8070
:103E1000C228C082A00EB11E200F311F93941196AC
:103E2000BCCFD394E60CF71C460D571D80589F4F0E
:103E3000AACF26960FB6F894DEBF0FBECDBFDF9196
:103E4000CF911F910F91FF90EF90DF90CF90BF9097
:103E5000AF909F908F907F906F905F904F903F902A
:103E60002F90089520917A05282329F490917905BF
:103E7000982381E009F480E008950F931F93CF9376
:103E8000DF9300D000D000D0CDB7DEB709831A830E
:103E90002B833C834D835E83FB01AC0129813A81F6
:103EA0008B819C81621773078CF06D81260F311D09
:103EB000E217F3075CF44817590744F02E81BC0160
:103EC000620F711D81E0461757070CF080E02696BF
:103ED0000FB6F894DEBF0FBECDBFDF91CF911F911B
:103EE0000F91089590E0E2E7F1E091119FEF8FEFDD
:103EF00091939193919391938150D0F70895E2E734
:103F0000F1E0A0E0B8E000800EBC8111012C119717
:103F1000A0FDFDCF0192B9F70DB408959C01E1E732
:103F2000F0E090819D7F908310927101EBEDF5E0C0
:103F3000F0937001E0936F01F0936E01E0936D01D7
:103F40003183208384E690E09383828380E090E84D
:103F5000958384830C94E916EF92FF920F931F933D
:103F6000CF93DF937C018B01040F111DEB0177FFD1
:103F70000EC0C0E0D0E00BC0C217D3077CF421E034
:103F8000AE01B70184E795E00E945518219698018B
:103F9000013411058CF320E430E0EECFDF91CF91B6
:103FA0001F910F91FF90EF9008952F923F924F92A3
:103FB0005F926F927F928F929F92AF92BF92CF92B9
:103FC000DF92EF92FF920F931F93CF93DF9300D076
:103FD0001F92CDB7DEB77C014B016C50710949E1EE
:103FE0000E94AC1FCC24C394D12C00E010E02CE044
:103FF00030E03B832A8398EE292E33243A9425EF30
:10400000A22EBB24BA940F5F1F4F82E0C80ED11CB2
:10401000AC0CBD1C2A81220F2F5F422F24018A8104
:104020009B81481A590AB201C701800F911F298349
:104030000E94AC1F3401601A710A4C2DB3018A81B1
:104040009B818E0D9F1D0E94AC1F2981422FB201C2
:10405000C701801B910B0E94AC1F4C2DB301C701FF
:104060002A813B81821B930B0E94AC1F2A813B81DA
:104070000217130774F4B7FCC6CF2A813B81215085
:1040800031093B832A8332E0230E311CA20CB31C7E
:10409000BACF0F900F900F90DF91CF911F910F919A
:1040A000FF90EF90DF90CF90BF90AF909F908F9058
:1040B0007F906F905F904F903F902F9008958091E8
:1040C000830581110DC082E080937F0584E0809399
:1040D0008005109282051092810581E0809383050E
:1040E0008FE795E00895FC018485958597FD0BC0C9
:1040F0009FB7F89482E08093E9008091F2009FBF1F
:1041000090E0019608959FB7F89482E08093E900CB
:104110008091F2009FBF90E008954091ED0550918D
:10412000EE052091EB053091EC0542175307B4F4EE
:104130009091E8009570E1F39091E80092FD19C02C
:104140008093F1008091ED059091EE0501968F73BB
:104150009927892B19F48EEF8093E8008091ED0563
:104160009091EE0501969093EE058093ED0581E028
:10417000089580E00895DF92EF92FF920F931F93CE
:10418000CF93DF93D82E8A017B01E40EF51EEB015D
:10419000CE15DF0571F0D7FE03C0FE01849101C08A
:1041A00088810E948D2021968111F2CF8FEF9FEFA1
:1041B00001C0C801DF91CF911F910F91FF90EF9047
:1041C000DF900895615030F02091F100FC012083D0
:1041D0000196F8CF289884E680936B0108950F9399
:1041E0001F93CF93DF931F92CDB7DEB782E0898311
:1041F00042E450E06FE377E280E80E94BB200E9437
:104200005F20DC0112960D911C9113970115110589
:1042100069F0D801ED91FC910280F381E02DBE019F
:104220006F5F7F4FC801099597FF07C089810F9085
:10423000DF91CF911F910F910895F80100851185AD
:10424000E5CF1F920F920FB60F9211248F939F9379
:104250008091E1009091E100937F9093E10083FFD2
:104260000FC01092E90091E09093EB001092EC00E7
:1042700092E39093ED0010926C0198E09093F0001F
:1042800082FF20C093E09093E9009091F20099237F
:1042900019F09AE39093E80090916901992339F01D
:1042A00090916901915090936901992389F19091BE
:1042B0006B01992339F090916B01915090936B01B0
:1042C000992341F184FF10C08091E2008E7E8160CD
:1042D0008093E2008091E1008F7E8093E1008091E5
:1042E0006A018E7E806111C080FF16C08091E2005D
:1042F0008E7E80618093E2008091E1008E7E8093CB
:10430000E10080916A018E7E816080936A0104C021
:104310005D9ACDCF289AD6CF9F918F910F900FBEE7
:104320000F901F9018951F920F920FB60F921124A5
:10433000CF92DF92EF92FF920F931F932F933F93B1
:104340004F935F936F937F938F939F93AF93BF939D
:10435000EF93FF93CF93DF93CDB7DEB76C97DEBFBC
:10436000CDBF1092E9008091E80083FFBAC168E0F8
:10437000CE0145960E94E22082EF8093E8008D896D
:1043800087FF05C09091E80090FFFCCF03C09EEF2F
:104390009093E800982F907609F0C6C09E892F89E7
:1043A000188D91110CC0803829F48091EA05809312
:1043B000F10002C01092F1001092F10047C1422FAB
:1043C00050E0512B913051F4811140C141305105E1
:1043D00009F03CC18091EA058D7F0BC0933061F4F8
:1043E000811134C14130510509F030C18091EA0595
:1043F00082608093EA052AC1953041F48091E800FB
:1044000080FFFCCF20682093E30020C1963009F0A4
:104410005FC0EB8CFC8C1092E9001092EE051092BC
:10442000ED05123091F51092EC051092EB050E940B
:10443000EF2099E0BE016F5F7F4FDB01E92F1D92F6
:10444000EA95E9F799831A8391E09E8390EA988729
:104450009AEF99872091ED053091EE05275F3F4F48
:104460003C832B838D831092E9001092EE0510920D
:10447000ED05F092EC05E092EB0549E050E080E0BC
:104480000E94BB200E94EF20E1C0F092EC05E09278
:10449000EB050E945F20DC011296ED90FC901397D3
:1044A000E114F10409F4BFC0D701ED91FC9104803F
:1044B000F581E02DBE016B5E7F4FC7010995009726
:1044C00019F00CF0C3C0C6C0F701E084F184E8CF56
:1044D000973009F4BFC0983021F481E08093F10057
:1044E000B5C0993009F0B2C0837009F0B3C0EBE2F7
:1044F000F1E081E021E036E39081992361F080933F
:10450000E9002093EB0091919093EC003093ED0043
:104510008F5F873089F78EE78093EA001092EA0078
:104520008F8980936C0192C08B8D9C8D1092E900D5
:104530001092EE051092ED059093EC058093EB053B
:10454000898D811155C08E899D89913A59F48132A6
:1045500009F080C047E050E062E071E080E00E9436
:10456000BB2074C0913209F075C0833289F4888D04
:1045700090E0982F88272F89822BA0E0B0E08093CD
:104580000A0190930B01A0930C01B0930D015EC042
:10459000803269F48091E80082FFFCCF67E082E01E
:1045A00091E00E94E2208BEF8093E80006C0823207
:1045B00009F04CC08F89809309018091020190918C
:1045C0000301A0910401B0910501803B9440A10535
:1045D000B10509F083C08091090180FD7FC088E7A3
:1045E0008093E905809164008F7D809364002EC0E4
:1045F0000E945F20DC0112960D911C91139701150A
:10460000110541F1D801ED91FC910190F081E02D6F
:10461000BE016B5E7F4FC8010995811117C0F8017B
:1046200000851185ECCF113009F44EC0133091F4A0
:104630008F89882309F445C0823081F440E867E01F
:1046400083EA97E20E94FE25882321F08EEF809373
:10465000E80047C081E28093EB0043C0813029F439
:1046600040E86BE087E997E2EDCF833099F70E944D
:104670005F20DC011296ED90FC9013978E010F5F86
:104680001F4F6801E114F10479F0D701ED91FC911D
:104690000680F781E02DB801C7010995080F111DAB
:1046A000F701E084F184EECFD8011C92F60101906D
:1046B0000020E9F73197BF016C197D0940E0C60180
:1046C000C1CF61E877E202C065E877E26115710564
:1046D00009F2FB01449150E080E841CF1092E905D6
:1046E000B5CF6C960FB6F894DEBF0FBECDBFDF918D
:1046F000CF91FF91EF91BF91AF919F918F917F915A
:104700006F915F914F913F912F911F910F91FF906A
:10471000EF90DF90CF900F900FBE0F901F901895E5
:10472000789484B5826084BD816084BD85B58260E3
:1047300085BD816085BD81E080936E00E1E8F0E099
:10474000108282E0808381608083E0E880818160E4
:104750008083E1E980818260808381608083E0E9F9
:10476000808181608083E1EC8081846080838260CD
:10477000808381608083E3EC808181608083E0ECD2
:10478000808182608083E2EC808181608083EAE7BF
:104790008081846080838260808381608083806880
:1047A000808310926C011092EA0510926A01809148
:1047B000D70081608093D70080EA8093D80089B5C4
:1047C000806189BD89B5826089BD09B400FEFDCFD5
:1047D00081E090E00E946A168091D8008F7C806111
:1047E0008093D8008091E000807F8093E0008091EA
:1047F000E1008E7E8093E1008DE08093E200559A87
:10480000209A81EC80937C0081EF85B987EE84B992
:1048100084E28BB984EF8AB9769A6E9880EF81BB77
:1048200010BA80E58CBD81E08DBD85E090E00E94EE
:10483000F9175F9902C05F9AF8CF5C98EEE1F7E252
:104840009DE085918EBD00000DB407FEFDCF8EB5B5
:104850009A95B9F75C9A81E88093640081E080932F
:1048600065000E947F1F0E94FB1787FF20C05C9895
:1048700085EA8EBD00000DB407FEFDCF8EB55C9AB3
:104880002E982F982D9881E083BF889513BEFCCF7A
:104890002D980E94FB178478843871F00E94FB17D2
:1048A0008471843131F188EC90E00E94F9170E9404
:1048B000FB1782FDEDCF3AC00E94F71788EC90E01D
:1048C0000E94F9172F9882E090E00E9497268F3F70
:1048D00029F06FEF82E090E00E949F2684EF91E044
:1048E0000E94F9172F9A0E94FB1784788438D9F315
:1048F000D5CF0E94F71788EC90E00E94F9172E9808
:1049000082E090E00E949726882329F060E082E010
:1049100090E00E949F2684EF91E00E94F9172E9A62
:104920000E94FB1784718431D9F3BDCF0E94F71721
:1049300082E090E00E949726882319F00E940318D5
:1049400002C00E94FE1781E090E00E94972682FB41
:10495000992490F881E090E00E94972681FF82C020
:1049600091102E98C0EFDFEF08E010E00E94FB17D7
:1049700086FF04C02E9A2F9A2D9A74C0992029F090
:10498000C430D10511F42E9A2F9881E00E947F1F28
:104990009E01D7FF04C0222733272C1B3D0B277015
:1049A0003327CE01D7FD079663E0959587956A95E5
:1049B000E1F7D7FF05C00197A801421B530B9A01ED
:1049C0007C01F694FE2CEE24F794E79460E070E00E
:1049D0003801621A730AF701E058FF4F5F018F3FF9
:1049E000FFEF9F0744F40196685A7F4F7501603BC3
:1049F000710589F721C0D701AA5FBD4F40E050E0A3
:104A00008F3FEFEF9E0709F4ACC0FA01E60FF71FE6
:104A1000E259F94DE4916D01CA18DB08CE0CDF1C98
:104A2000F0E02F01022E01C0440C0A94EAF7F601CF
:104A300080804828408295C080E00E947F1F8FE0E0
:104A400090E00E94F9172196C931D10509F08ECF67
:104A5000992011F02F9A2D9880E991E00E94F91782
:104A60000E94F71782E390E00E94F9170E94FB175B
:104A70008111F8CF81E280937B05809164008E7F65
:104A80008093640080917A00806480937A008091A2
:104A90007A0086FDFCCFC0917800D09179000E9409
:104AA0002C148E0120E030E0980111270027600FC0
:104AB000711F821F931F2091640021602093640066
:104AC000611571058105910511F00E948E2611E096
:104AD000C0E0D0E001E09091640180917C05F92F65
:104AE000F81B8F2F20917D05222329F0F0937E055E
:104AF00010927D0530C020917B05F21738F48F5F4E
:104B0000821748F513BF889513BE25C000937D0515
:104B100090937C058091770590917805019690930C
:104B20007805809377058091790580937A050E94B6
:104B3000FB17809379050E94721FE0916801F0E0F5
:104B4000EE0FFF1FE55DF84D85919491FC010995ED
:104B500080E00E947F1F209709F4BDCF0E940000D3
:104B6000BACF2115310581F0FA01E60FF71FE2599E
:104B7000F94DE491F0E0062C02C0F595E7950A9412
:104B8000E2F7DC90ED29EC934F5F5F4F11964835CB
:104B9000510509F035CF27CFEBE8F5E013821282FB
:104BA00088EE93E0A0E0B0E084839583A683B7838A
:104BB00086E191E0918380838FEF9FEF95878487D3
:104BC000E4E7F5E088E291E0918380831582168224
:104BD00080E187831482138211868EE594E190939D
:104BE00073058093720580E090E89093E8058093C8
:104BF000E70546983E9A47983F9A0895CF92DF92EC
:104C0000EF92FF920F931F93CF93DF931F92CDB735
:104C1000DEB7182F062FE42E862F880F8E5F99831C
:104C20000E948D2083E00E948D20F12EC12E99815B
:104C3000D92E8C2D8F19801798F4F601E7FE02C04B
:104C4000849101C080810E948D20182F80E00E94F5
:104C50008D208123FFEFCF1ADF0A8111EACF01C037
:104C600081E00F90DF91CF911F910F91FF90EF9016
:104C7000DF90CF9008958F929F92AF92BF92CF9284
:104C8000DF92EF92FF92CF93DF93EC0168817981FD
:104C90008A819B81611571058105910521F464E28A
:104CA00079ED8BE597E02DE133EF41E050E00E9494
:104CB000AD2649015A019B01AC01A7EAB1E40E946B
:104CC000CC266B017C01ACEEB4EFA50194010E94EF
:104CD000DA26DC01CB018C0D9D1DAE1DBF1DB7FF7B
:104CE00003C00197A109B04888839983AA83BB8335
:104CF000BC01CD019F77DF91CF91FF90EF90DF90C6
:104D0000CF90BF90AF909F908F9008950E943B26C8
:104D100008958EE091E00E943B26089560930E0175
:104D200070930F0180931001909311010895F999E8
:104D3000FECF92BD81BDF89A992780B50895262FA0
:104D4000F999FECF1FBA92BD81BD20BD0FB6F89470
:104D5000FA9AF99A0FBE01960895052E97FB1EF454
:104D600000940E94C42657FD07D00E94DF2607FC4E
:104D700003D04EF40C94C42650954095309521955F
:104D80003F4F4F4F5F4F0895909580957095619577
:104D90007F4F8F4F9F4F08950E940127A59F900D31
:104DA000B49F900DA49F800D911D11240895B7FF0D
:104DB0000C94CC260E94CC26821B930B0895A1E272
:104DC0001A2EAA1BBB1BFD010DC0AA1FBB1FEE1F85
:104DD000FF1FA217B307E407F50720F0A21BB30BD0
:104DE000E40BF50B661F771F881F991F1A9469F74C
:104DF00060957095809590959B01AC01BD01CF01A8
:104E00000895A29FB001B39FC001A39F700D811DA3
:104E10001124911DB29F700D811D1124911D0895C3
:104E2000EE0FFF1F0590F491E02D0994F894FFCF49
:104E3000030400E1000000000000FFFFFFFF01008D
:104E4000000000000000EA1C511D0B1D001D732016
:104E50000F1D2D1D00000000611400C180810000A5
:024E6000000050
:00000001FF
