:100000000C94910E0C94B90E0C94B90E0C94B90E7C
:100010000C94B90E0C94B90E0C94B90E0C94B90E44
:100020000C94B90E0C94B90E0C9444230C94B62382
:100030000C94B90E0C94B90E0C94B90E0C94B90E24
:100040000C94B90E0C94B90E0C94B90E0C94B90E14
:100050000C94B90E0C94B90E0C94B90E0C94D02DCE
:100060000C94B90E0C94B90E0C94B90E0C94B90EF4
:100070000C94B90E0C94B90E0C94B90E0C94B90EE4
:100080000C943B2E0C94B90E0C94B90E0C94B90E32
:100090000C94B90E0C94B90E0C94B90E0C94B90EC4
:1000A0000C94B90E0C94B90E0C94B90EC211CF1168
:1000B000D311D611D811DA11DE1111082030000049
:1000C000020B0F0600085A7EE78181181800000213
:1000D0000702000000004A7EE78181BD7E3C0203EA
:1000E000000020B0F060001042C389BD66422400C9
:1000F000002070200000000042082C7EC34200183F
:100100000808241C2C3018081010080C073618603A
:100110004000203060D8300C0200160800020502B2
:100120000000000060909060003C428D858181421B
:100130003C00002050200000000006090906003C99
:10014000428D858181423C0010080008080808089B
:1001500008083E6B49492A2A0800082001FFF5FFDC
:1001600005FFF4FFF5FF05FFF5FFF5FF00FFDFFFDB
:1001700000FFDFFFDFFF00FFDFFFDFFF00FF7FFF8C
:1001800000FFFFFF7FFF00FF5FFFABFF000F050FCA
:10019000001F0A1F050F0007010300010818F1FFE7
:1001A00005FFF5FFE5FF45FFA1FF04FFA1FFDFFF0E
:1001B00000FFDFFFDFFF55FF8AFF00FF8AFF153FCB
:1001C000003F153F0A1F050F0207000300010F083B
:1001D0000103070F1F3F7FFFFEFCF8F0E0C0800126
:1001E00002070A1F2A5FAA5EA858A04080000102E9
:1001F000040A012A04AA00A800A000800003080045
:10020000FF0EFF00FF08080828686B6B68280820AD
:100210000800606060606060B0B0B0B0B0B0D8D8C6
:10022000DBDBD8D8E8ECECECECECF6F6F6F6F60610
:1002300000201000003FFF7FFFFFFFFFFFFF7CFE5D
:100240001BA1019919C37C7CFFFFFFFFFF0F1F3F1C
:1002500003040000000000000003070F1103060E56
:1002600003776F5F1F030602070F1F1F3F20000069
:100270000000000078FF3FFFFFFFFFFFFF7FFC1E35
:10028000A3019919C1737CFCFFFFFFFF3F0F3F03E0
:10029000070000000000000003070F1807060E0308
:1002A000076F5F5F030602070F1F1F3F200000005C
:1002B00000000000E0FF7FFFFFFFFFFFFFFF7CFE6D
:1002C0002B81119909E37C7CFFFFFFFF1F3F070F84
:1002D0000100000000010001070F1F01070F0602C7
:1002E0000F5F5F470307020E1F1F3F010000000062
:1002F00000000000007FFF7FFFFFFFFFFFFF7CFE8D
:100300001BA1019919C37C7CFFFFFFFFFF1F7F0723
:100310000F0000000000000003070F1F03070E1E60
:10032000074F5F5F070306020F1F3F0F0300000028
:100330000000003020F0F00080808000000000000D
:1003400000000000000000000000000000000000AD
:1003500000000000000000000002DEC2C2DEC2C2D7
:10036000DEC2C2DEC2073FF8C53D7DFBFBFBF6F6F1
:10037000F6ECCCBC7CE0C0C6868280AFAFAFA9A64D
:10038000868686828680C0F03C0FF3FC0642FA42E5
:1003900046FEFEFE010000010F7EF08E7D7BFBF726
:1003A000F7EFEFEFDF0666959565DD0565959565D9
:1003B000DD0565959565DDDCDF00DFDFD8D8DFD8AA
:1003C000D8DFDF0000000000000001070E19362E04
:1003D0005D5DBBBBFB767676F6EEEFEEEEAE8E0E97
:1003E0000F2E2EAEEEEEEFF7F7F6767A3A1A0C6491
:1003F000707800000010080101020206040C0C18BD
:1004000018183070F0F000060800282A4A89080001
:10041000282AC9080000282A4A890800282AC90869
:10042000001020000004F88CB6B7C5FD3C0CBEB629
:10043000F2A22030307C0F8381A1B1F0B4FE7E6F38
:100440004D05000000021A3B3BBFBBFFDFFB5B001A
:100450000000000000000008B87CE6D65DC9E37F1C
:100460002D08002010C0E0E0E06060B0D010D0F0B7
:10047000F0F8FCFEFEFFFFF1F0E0E0C08080C0007D
:1004800080C0E0701000010313273226322733A703
:10049000BF3F271F3F7FFFE79F1F0F0F070F1B0760
:1004A000070F1D200000C0E0E0E06060B0D010D079
:1004B000F0F8FCFEFFFFF1F0E0E0C08080C000C07B
:1004C000E0F0380000000001031327322632273302
:1004D000A7BF3F271F3F7FFFC71F0F070F1B070740
:1004E0000F1E100000C0E0E0E06060B0D010D0F05F
:1004F000F0F8FCFEFEFFFFF1F0E0E0C08080C000FD
:1005000080C0E0701000010313273226322733A782
:10051000BF3F271F3F7FFFE79F1F0F0F070F1B07DF
:10052000070F1D2000C0E0E06060B0D010D0F0F0F8
:10053000F0F8FCFEFFFFF1F0E0E0C08080C000803A
:1005400080C0602000000103173226322733A7BF86
:100550003F271F3F7FFFE79F1F0F0F070F13070F57
:100560001F3B4000001070E0C08000C08080C0E0F1
:10057000E0F0F1FFFFFEFEFCF8F0F0D010D0B0602C
:1005800060E0E0E0C000201D0F07071B0F070F0F02
:100590001F9FE7FF7F3F1F273FBFA733273226322A
:1005A0002713030100000038F0E0C000C08080C0C5
:1005B000E0E0F0F1FFFFFEFCF8F0D010D0B060609A
:1005C000E0E0E0C0000000101E0F07071B0F070F40
:1005D0001FC7FF7F3F1F273FBFA733273226322782
:1005E00013030100001070E0C08000C08080C0E0F4
:1005F000E0F0F1FFFFFEFEFCF8F0F0D010D0B060AC
:1006000060E0E0E0C000201D0F07071B0F070F0F81
:100610001F9FE7FF7F3F1F273FBFA73327322632A9
:100620002713030100002060C0808000C08080C0CC
:10063000E0E0F0F1FFFFFEFCF8F0F0F0D010D0B0F9
:100640006060E0E0C00000403B1F0F07130F070F82
:100650000F1F9FE7FF7F3F1F273FBFA7332732268C
:1006600032170301000808000664F79DAF67011008
:100670000872277F33731B1F1F0F1E1E1A52120092
:100680000072277F33735B5F0F0E0E1A1A1A101257
:100690000072277F33731B4F4E4E4A020A08181808
:1006A0001272277F33731B1F1F1E1E5A501000002B
:1006B0000810100000003838FCF8FCFCFEF6FFCBF8
:1006C000FFB5FFB5FFCBFFFFFFBFFF1FBF0E1F0032
:1006D0000E00000002020F0C5F5FFFA1FF1FBF3181
:1006E0007F6DFF03FF9FFF30FF6DFF43FF9EFF0005
:1006F0009E0000008080F838FCF8FCFCFEF6FFCB82
:10070000FFB5FFB5FFCBFFFFFFBFFF9FFF8EDF00F1
:100710008E00000D1F023F3B7F41FF1F7F337F256F
:100720007F017F4FFF197F327F247F247F093F3372
:100730007F063F000000F838FCF8FCFCFEF6FFCB1B
:10074000FFB5FFB5FFCBFFFFFFBFFF1FBF0E1F00B1
:100750000E0000041F13BF8CFF27FF317F1F3F01D6
:100760007F41FF9FFF33FF247F297F113F123F22EC
:100770007702670000003838FCF8FCFCFEF6FFCB7F
:10078000FFB5FFB5FFCBFFFFFFBFFF1FBF0E1F0071
:100790000E0000000C0C3E30FF9FFF019F1F7F7179
:1007A000FF09FF87FF3FFF60FF4DFF53FF227F0CD4
:1007B0003E000C1010000000F0F0FC0CFE42FFEDBB
:1007C000FFE5FFE1F7E1F3E1F3E1F342FF0CFEF0B7
:1007D000FC00F000000000000000010103013F3FA9
:1007E0007F00FFFFFF1FFF003F3F7F013F0103002E
:1007F0000100000000007878FC84FE82FFAEFFE577
:10080000FF71FFF1FBF1FB71FBE1F3A2F782E784DB
:10081000FE78FC007800000000001D1C3F021F0154
:1008200003007F7FFF0F7F000F0103021F1C3F00AB
:100830001D00000000387C44FE42FF6EFF65FFF1A2
:10084000FF31FBF1FBF1FB31FBF1FB61F362F7429E
:10085000FF44FE387C00000006060F01070103007C
:1008600001003F3F7F073F0007000101030107062A
:100870000F0006000038FC44FE42FF6EFF75FFF1DA
:10088000FF31FBF1FBF1FB31FBF1FB71FB62F74246
:10089000F744FE38FC0001010301030103010300DA
:1008A00001001F1F3F031F0003000101030103019B
:1008B0000301030001007070FC8CFE82FFADFFE5B8
:1008C000FF71FFF1FBF1FB71FBE1F3A3F782FF8CFA
:1008D000FE70FC007000000008081D081D040F03D6
:1008E00007007F7FFF0F7F000F0307040F081D081D
:1008F0001D000800001010008080C0C0E060F0B053
:10090000F8D8FC18FEFAFFFBFF7BFFB7FF60FFC0C3
:10091000E080C0C0F0F0F80C1F0D1F1B3F173F1AFE
:100920003F167F5FFF4FFFD1FFDBFF8BDF048F039D
:10093000070307070F0C1F008080C040E0A0F0D025
:10094000F818FCF8FEFAFF7BFFF7FFE1F7C0E100C3
:10095000C080C0C0E000E00C1F0B1F173F1A3F16FD
:100960003F1F7F4FFFD1FFD7FF86DF0187030707B8
:100970001F1F3F397F0079008080C0C0E060F0B069
:10098000F8D8FC18FEFAFFFBFF7BFFB7FF60FFC043
:10099000E080C0C0F0F0F80C1F0D1F1B3F173F1A7E
:1009A0003F167F5FFF4FFFD1FFDBFF8BDF048F031D
:1009B000070307070F0C1F0000008080C0C0E06025
:1009C000F0B0F8D8FE1AFFFBFFFBFFBBFFD0FF2003
:1009D000F0C0E0E0F878FC000E0C1F0D1F1B3F1765
:1009E0003F1A3F167F5FFF4FFF51FF5DFF6DFF0610
:1009F000EF03070307060F1008007050F8B8FCEC6F
:100A0000FED6FFDAFFE2FF7EFF9EFF7DFFBBFF9178
:100A1000FB38FD6CFE00EE0000007030F8E8FCD4FE
:100A2000FEDAFFE2FF7EFF9EFF7DFFBBFF91FB70C2
:100A3000F9D8FC00DC00000000007050F8B8FCECB5
:100A4000FED6FFDAFFE2FF7EFF9EFF7DFFBBFF9138
:100A5000FB38FD6CFE00EE0000007050F8D8FCBCC6
:100A6000FEECFED6FFDAFFE2FF7EFF9DFF7BFFB0CC
:100A7000FB18FE367F007700001010000000008099
:100A8000E0F0F0F0E0E08000000000000000000373
:100A9000070F0F0F07070300000000000000000011
:100AA0000080C0C0800000000000000000000000C6
:100AB0000001030301000000000000000000B0F886
:100AC000FCFCF8F0F8F8F8F08000000000070F0FC9
:100AD0001F3F3F3F3F1F07070300000000B8FCFE19
:100AE000FEFE7C38FCFCFCF8C0800000070F0F3FC6
:100AF0007F7E787C7E3F0F0F0F0700008E9F9F7FC9
:100B00006E081C1C081C5E1E8C8000070F0F0F0750
:100B10000064F0F0F06C0C070F0F070003030020D7
:100B200000000400000000060600000606000000A9
:100B3000000000C0C00008000003030808B47E7E67
:100B4000F7EF7E7E2D187E76F3CF6E7E183C76F31F
:100B5000C9C7E6FE7C46DDBE3E3E1D018208080C8C
:100B60001E1E3F3E7F7CFE3E7F1E3F0C1E000C1F64
:100B70003F217F41FF81FFBDFF5DFF217F1F3F8040
:100B8000CE4EFF327F317F49FF44FF60FC187C3C32
:100B90007E42FF8DDF8DDF81CF81C342FF3C7E80AF
:100BA000F0D0FCD4FF5BFF2AFF28FEE0F880E07065
:100BB000F8F8FCE4FFF3FFF8FFFCFE70FE007004A1
:100BC000EE6CFE3C7F1F3F1F3F3C7F6CFE04EE033C
:100BD000083E223E223E20322A24222A140E083CBD
:100BE0002E2A1A3C2A3A023A063E2A3E2E2A1E088D
:100BF0001C0808080609112211090600060F1F3EED
:100C00001F0F06000C290C29BD2BE927702AAF28DD
:100C1000AF28BC270C29BD2B0C29D727BD2B702A48
:100C2000E628BC27E6280C29AF28F2270C29AF2894
:100C300038280618E6260C290C29BD2BCE27BD2BFB
:100C4000702A0C29BC27BD2BBD2B702AE927702ADE
:100C5000E6283828BC273828AF287728F227AF287D
:100C6000772838280618E626342AFB27862BE9271A
:100C70007728AF283C2BBC273C2BAF287728F227BE
:100C8000862BFB27342ABC27FB277728AF28D727BA
:100C9000AF283C2BA227EA26E626F5290C29F529C0
:100CA000F2270C29FA2ABD2BBC27FA2A0C29F52990
:100CB000C5270C29FA2A3828BC273C2B342AFA2AC3
:100CC000E0273828F5290C290618E626952A952AC2
:100CD000D12ACE27FA2A7728AF28BC277728342AAA
:100CE000952AE927D12AFA2AFA2ABC27FB27862B3C
:100CF0007728F227952AD12AFA2A0618E6260C29FF
:100D0000BD2B702AF227E628AF287728BC27382881
:100D1000862BFB27D727342A3C2BF529BC27FA2A18
:100D2000D12A952AE027D12AFA2A8827EA26E62618
:100D3000F529FA2AF529F227342AC729FA2ABC27E5
:100D4000F529342A3C2BC5273C2B3828C729BC273A
:100D50003C2B342AFA2AE9273828F5290C290618C9
:100D6000E6263828D12A8C29CE27C729702A0C29B3
:100D7000BC27FA2AF529702AF227C7298C29C72906
:100D8000BC273828AF28342AC527FB2777283828DE
:100D90000618E626C7298C294329E027E628AF282C
:100DA0007728BC273828862BC729F2278C29432986
:100DB000F529BC27D12A952AC729F2278C2943294E
:100DC0006E27EA26DC260F08E087F3F9890103FE87
:100DD000FFFFFFFF7CC281E087F7F3830307FEFF7D
:100DE000FFFFFF7CC683C88FC7E787070FFEFFFFA3
:100DF000FFFF7CCE87989F1F1F1F1F3FFEFFFFFF37
:100E0000FF7C9E8F382000000080C0C0E0F0589C1E
:100E1000BC7E6E4E2E6EDAB28DDC989858D8D8D83B
:100E20009890B0608000000000000000000000000A
:100E30000000000000000000000000000000007C36
:100E4000FFF1E71F3FC70003030101010103030393
:100E500003030301010079FBF7EFDDB30204088807
:100E6000808080C0C0A0B010101000000000000002
:100E700000000000000080E0F07D0378FEF9E0D47F
:100E8000F4AC2C6CDC3CFC9C8C8CCC7C3C80F870F6
:100E9000656B57D7D7D7C7E6E2F1F1FBFBFBF3F35E
:100EA000F3F6E4D8C0E0E0C0C00000000000030793
:100EB0000F88D3D6CEDDBDBFBFBFBBFAD8DCCDCD4A
:100EC000D5D5D8DCDCEEEEEFE7C383227275E3F70D
:100ED000FFFFFFFFFF7F7F3FBF9B0B8989C5C1617C
:100EE00061333018180C00000080C0C0E0F0589842
:100EF000BCBCBEAEAE1E768EDADC9C9818B8B0B024
:100F000090888C8C08300000000000000000000079
:100F10000000000000000000000000000000003899
:100F20007FF9F72F5F8F0003030101010103030322
:100F3000030303010100397BF347E7CFCDD1818162
:100F400082808080A0A0606070686070F0E0000027
:100F5000000000000000000000F833C0FCE3D4F4FF
:100F6000ECEC6C2C2C5C3C9C8C8CCC7C3C80FCFA9F
:100F7000F4F3F6E5EBEBF77737F7F7F3F3F1E1E1AD
:100F8000E0C0C080000100000080E0000000000020
:100F90000E9FD8C5CBDBD7B7B7B7B7B6BABAB9BD0E
:100FA000DDDECECEC4E9E9EDEDCD8E0E06466673EC
:100FB00078FFFFFFFFFF7F7FBFBF3FAF9FDFDF6F88
:100FC0006F373318180C00000080C0C0E0F058BC28
:100FD000BC7E6E4E2EAEDEB68EDC9C9C383060C081
:100FE0008000000080000000800000000000000081
:100FF0000000000000000000000000000000007879
:10100000FFFDFB772F1F0003030101010103030311
:1010100003030301010079FAF4C52DEDECCECEC532
:10102000C0C0C0C0C0C0C0C080A030181808080030
:10103000000000000000000060F9F3E0068D78F485
:10104000EC6C5C5C5C3CFC9C8C8CCC7C3C80FBF653
:10105000F5F3FBF6F5F5F7FBFBFBFBFBFBFBF9F10F
:10106000F0E0E0C080000000000000000000000090
:101070000080CFDFD8D7CFDF9F9EACACB4B1B9B979
:10108000B9BDDCDCDEDEEEECE5C1891B37371721AC
:101090003F1F070F1F3F3F3FBF9F1F9F8FC7C66C5C
:1010A0006C343018180C00000080C0C0F0F81CBC74
:1010B0007E6ECEAE6EEEEAD9D5CC9C981838B0B024
:1010C0002040800000000000000000000000000040
:1010D000000000000000000000000000000000FC14
:1010E000FFF9F72F1FCF00030301000000020303E5
:1010F000030303010100F9FBF3E6CC9B48C8E8E0D9
:10110000E0E0C0D0B030202000000080804000002F
:1011100000000000000000F0F9FD33803EF9F8F413
:10112000ECEC5CBC7CFCFC9C8C8CCC7C3C80F0F5BE
:10113000EBEBEFE7F7F6F2F3F9F9FBFBFBFBFBFB5D
:10114000F3F3E1E1C0C080000000000000000000F7
:10115000018FDCDBD7EEDFDFDEDCDCECCDCCD5D500
:10116000D9D9DCECEEEEE6E6E6C6854B978FFFFFBD
:10117000FFFF7F7F3F1F0F1F9B9B33938FCFC7675F
:101180006E343018180C30180000DFEFF3F5F6EF6E
:10119000CF87DBEDF7F7F7F7F7EFDFDD83BF3F072B
:1011A0007BFF7F7FBC80C0C060603030CCFCFE7FA6
:1011B0007F3F3F1E01010000C0FCFBF7EFEF0F2F48
:1011C000F7FB7B77AFAFCFCF6F6737331B1B0C0CB1
:1011D00006060B7BFDFD8EF4F8FCFEFE3E0E0000C5
:1011E00000000000000000000303030303000000F0
:1011F00002020303010100000000020203030200D7
:1012000000000000030303030303030100000000C8
:1012100000000000000000001910C0F0F8FCFEFE05
:10122000FFFFFFC701000000000000000000008079
:1012300080C060039FFFFFFFFFFFFFFFFF8F80E085
:10124000F0F8FC7E7E3F3F1F0F0701001F180000D3
:10125000000000000000C0F0380C04040404040482
:1012600004040405078383C140400000000000001F
:1012700000000000808FDFC06060303018080C0470
:1012800006020301010080C0E0E06020180C0C069B
:10129000060303010100060E183020604040406044
:1012A0002030180C060100010000003C380000004E
:1012B000000080F8FE0FE3FB1B0B0B8BFBF3F7F634
:1012C000F6F60606ECECECECECECECECECECECEC16
:1012D000ECECEEE6F6F6F6F7F3FBFBCBCBFBE30F1D
:1012E000FEF8801E332121339E00000080F8FF0F9E
:1012F000E0F8F9F9F9F9F9F9F9F1F3F3F3F3F0F0AA
:10130000FFFFFFFFFFFFFFFFFFFFFFFFFFFFFFFFED
:10131000FFFFFFFFFFFFFFFFFF7F7FFEE00FFFF8F4
:1013200080060600000000000F3FF0C60704040717
:101330000707070707070707070707FFFFFFFFFF65
:10134000FFFFFFFFFFFFFFFFFFFFFF070707070785
:10135000078787070726860707C6F03F1F0080809C
:1013600000000000000000030784C4E4E4E4E4E4B7
:10137000E4E4E4C49C000FE7E7E7E7E7E7E7E7E733
:10138000E7C7870F1F0FC7E7E0ECE4E4E4E5E5E417
:10139000C4040404070300C040C30311000000009C
:1013A0000000000000FFFFFFFFFF393939FFFFFF9A
:1013B0000FE0E0EFEF0FFFFF183879FFFFF703E0D2
:1013C000E0EFEF0FFFF9F0F0FCFDFDFD0DECE0E0CC
:1013D000E00000012101000000000080C0602060EA
:1013E000C080000000000C0C007EFE803C3E1C1CF7
:1013F0001C1C1C0C0C0E0C0C0C0C0E1E1C1C1C1CA7
:101400003C3E80FE7E00000000C0E0E0C000000026
:1014100000030300000E1B3166C680D060311B0E36
:1014200000003828380001471E38202020203010C6
:1014300010D0D0101090103020202020381E07012E
:10144000000006060000010100000000000000008E
:10145000004040FFFFFF0707E7E7676767676767C9
:10146000E7E70707FFFF1F1F9F9F8787FFFFFFFF1C
:10147000FFFF9F9F87871F1F7F7F87876767FFFF0C
:10148000FFFF0707E7E7676767676767E7E707073C
:10149000FFFFFFFFFFFF00007F7F60606060606014
:1014A0007F7F0000FFFF0606E1E10707FFFF010164
:1014B0009F9F616187876666868607079898797916
:1014C000FFFF00007F7F6060606060607F7F0000E2
:1014D000FFFFFFFFFFFF868666669E9E86861E1EB6
:1014E0007E7E6666070718189F9FF8F801010606BA
:1014F0006767E0E0E7E7E6E6191918186161181870
:101500001F1F8686E6E666661E1E666666669E9EE9
:10151000FFFFFFFFFFFF9F9F0000999979796060AF
:10152000606066667878F8F89999E1E10000F8F86B
:1015300018186161E1E1E1E1868618188686666621
:10154000868667676161FEFEE0E018186060676785
:10155000FFFFFFFFFFFF7F7FF8F867676060FEFE19
:1015600060606666808081810707070778780707D3
:1015700086861E1EF9F99F9F0101FEFEE7E7606067
:1015800007079E9E7E7EF9F96161FEFE60601E1E69
:10159000FFFFFFFFFFFF66667F7F66667E7E6161FD
:1015A0007E7E6666FFFF1F1F060698989E9EF8F8CF
:1015B000FFFF9898F9F99F9FF8F8E7E7F9F9060611
:1015C000E6E66161E6E60707FEFE87871818989849
:1015D000FFFFFFFFFFFF0000FEFE060606060606F1
:1015E000FEFE0000FFFF9E9E181807079F9F07073B
:1015F000FFFFF9F9E7E7E1E16767F9F99F9FE0E0AD
:1016000087878686E7E70000070779798686616124
:10161000FFFFFFFFFFFFE0E0E7E7E6E6E6E6E6E6DE
:10162000E7E7E0E0FFFFE1E1E0E0E6E6E7E7F8F822
:10163000E1E1E1E1F9F9FFFFE0E0F9F9F9F9E1E1D0
:10164000E7E7F9F9E7E7E0E0FEFEFEFEE1E1FEFE96
:10165000FFFFFF3818008080800000111F11801FDD
:1016600091110E801F959591801F89899F80800020
:101670008484840080001F09891F001F09091780C6
:1016800081819F01800A00800080808080070C0893
:101690000B03000408080F000F08080F000B0A0ACC
:1016A0000E0000000F000000080F08000F010204E8
:1016B0000F0008080808000F0808080003020E03BE
:1016C000000F04040BF888888800F88888F800F870
:1016D00088887000F8A8A88800500000000000006A
:1016E00070C888B83000408080F800F88888F8001A
:1016F00088A8A8F800F84848B80088F8883E101C68
:101700003E6743C3C38386870000000010F0F010DB
:101710000010F0F010101030F0E00011F3F7171681
:10172000141010300010F0F030E08000000000F0E5
:10173000F00010F0F01010101010101030F8E060F1
:10174000C0C0C0C0C1E37F7E3C0080FFFF8000803E
:10175000FFFF00043C76C7830082FFFF8282828005
:1017600080C00080FFFF000001070C3860FFFF0011
:1017700082FFFF82828280808080E014087F417730
:1017800077417F4155555D7F415F5F7F4175757141
:101790007F7F417575717F415F5F7F417575417FC7
:1017A000717747717F7F5D415D7F417B77417F41ED
:1017B00075757D7F415D5D417F7F415D5D5D7F41F1
:1017C0005D5D417F417B77417F4175757F7F5155DD
:1017D00055457F4175757D7F497777497F000000CA
:1017E000007F415D5D417F4175757D7F4175757DF0
:1017F0007F000000007F415D5D417F417B77417F3D
:101800000000000000000000000808000F060F069E
:101810000F000F000F000F000F000F000F060F0644
:101820000F060F000F000F000F000F000F060F062E
:101830000F060F060F000F000F000F000F060F0618
:101840000F060F060F060F000F000F000F060F0602
:101850000F060F060F060F060F000F04080C1E1EC2
:101860000C000C0C00000400000000000000000050
:101870000000000000000000000000000010104008
:10188000E868FCE8FCD8FCF0FCBCFE5EFFEEFF8ED6
:10189000FFF6FFFAFF8AFF26FF66FFE0F640E00052
:1018A000000004042F257F357F46FFC2F7F2FFEFCB
:1018B000FFECFF72FF0C7F0C1E000E040F040E00E5
:1018C0007070F8C0F0E0F0F0FCBCFE5EFFEEFF8E42
:1018D000FFF6FFFAFF8AFF66FFC3E7C0E360F00090
:1018E000000004044F45EF65FF87EF82F7F2FFEF3A
:1018F000FFECFF72FF0C7F0C1E000D040F040E00A6
:101900006060F0C0E0C0F0F0FCBCFE5EFFEEFF8E59
:10191000FFF6FFFAFF8AFF44EE86CF80C6C0E000E4
:1019200000008080C9C9FFC9FF8DDF86FFF2FFEF8D
:10193000FFECFF72FF0C7F0C1F010F091F00090055
:10194000E0C0E0C0E0E0F0F0FEDEFF2FFF77FFC771
:10195000FF7BFF7DFF45FFA2FFCCFE80CC00800017
:1019600000004141E3C1EBC9FF4CFF46FF7BFF771D
:10197000FF76FF397F063F060F010F081D00084064
:10198000E0C0E060F0E0F0F0FEDEFF2FFF77FFC781
:10199000FF7BFF7DFF45FF22FFCCFE80CC00800057
:1019A0000000C141E361FB68FD4CFF46FF7BFF7710
:1019B000FF76FF397F063F060F000F081D00086005
:1019C000F0B0F8D0F8D0F8F0FEDEFF2FFF77FFC7B9
:1019D000FF7BFF7DFF45FF22FFE6FFC0E600C00062
:1019E0000101030127247F74FF46FF43FF79FF773E
:1019F000FF76FF397F063F060F0007040F0004083B
:101A00000800000018180000000000240000240056
:101A10000081667E3C3C7E66818100000000000003
:101A200081F0F89C8E8783878E9CF8F00000FEFF83
:101A30000303030303070EFCF80000FEFF03030388
:101A40000303070EFCF80000FFFF00000000000089
:101A500000FFFF0000FEFF8383838383C7EE7C3893
:101A60000000F8FC0E07030303070EFCF800003F1C
:101A70007FE0C08080C0E07F3FFFFF0101010101E6
:101A80000101FFFF0000FFFF0C0C0C0C1C3E77E374
:101A9000C100007FFFC0C0C0C0C0E0703F1F000099
:101AA0001F3F70E0C0C0C0E0703F1F00007FFFC15B
:101AB000C1C1C1C1E3773E1C00001F3F70E0C0C040
:101AC000C0E0703F1F000000000001FFFF010000A8
:101AD00000D5F08D14A1C881CFD9F1AF2000311B02
:101AE000DB1BC91B2E26AE1B281C3A27BB0E1D2F45
:101AF000EC2EC32E080B00020202010009040000B4
:101B00000102020000052400100105240101010466
:101B10002402060524060001070581031000400980
:101B2000040100020A00000007050202400000074D
:101B30000583024000000403090412010002EF02C1
:101B400001404123368000010102030141726475A6
:101B5000696E6F204C4C430041726475626F79006E
:101B6000161B5A1AB71A731AB71AFC1A5A1A521AAB
:101B70005A1A481A141A161B5A1A521A5A1A481A7A
:101B8000DF19FC1A5A1A521A5A1A481A141ADC196E
:101B9000C119A819291997187E18D2186B187E1820
:101BA0005718441830180B18441808180001040777
:101BB0000C101416171613100B0703010B07030163
:101BC000000104070C101416171613101E26E31735
:101BD000FE25DE25FE25E3173227B32506087EFF06
:101BE0008181FF7E0082FFFF8000C2E3B1998F8672
:101BF00042C38989FF76181C10FFFF104FCF8989D7
:101C0000F9717EFF8989F9700303F1F90F0776FFF7
:101C10008989FF7646CF8989FF7E1F0866EF89FB99
:101C200072000101FFFF010100F8FE13FEF8007EC3
:101C3000FF81897BFA00FFFF8989812208FFFF115C
:101C4000111F0E00F8FE1313FEF8007FFF8080FFC7
:101C50007F0066EF8989FB7200FFFF898989811CFB
:101C6000087EFF8181FF7E00030F3CF03C0F0300E4
:101C7000FFFF8989818100FFFF1111FFF61C087E9B
:101C8000FF81897BFA00F8FE1313FEF800FFFF1CAA
:101C9000701CFFFF00FFFF898989811E26FE25DE5B
:101CA00025FE25E317A82DE317B12D2E080101FF0E
:101CB000FF010100FFFF0808FFFF00FFFF89898186
:101CC00081000000000000FFFF8989818100FFFF83
:101CD0001E78FFFF00FFFF8181FF7E3A08FFFF08AB
:101CE00008FFFF00FFFF007EFF81897BFA00FFFFF6
:101CF0000808FFFF0066EF8989FB72007EFF818183
:101D0000C342007EFF8181FF7E00FFFF1111FFEEC5
:101D100000FFFF898981811E26E317E317B12D009B
:101D2000DA3111241FBECFEFDAE0DEBFCDBF11E004
:101D3000A0E0B1E0EEE0F6E602C005900D92A43C12
:101D4000B107D9F727E0A4ECB1E001C01D92A53D91
:101D5000B207E1F71EE0C1E9DEE004C02197FE0111
:101D60000E94FF32C039D107C9F70E947C2F0C9422
:101D700005330C9400002F923F924F925F926F9226
:101D80007F928F929F92AF92BF92CF92DF92EF920B
:101D9000FF920F931F93CF93DF93CDB7DEB7A99731
:101DA0000FB6F894DEBF0FBECDBF36E0FE017796CA
:101DB000DF01232F1D922A95E9F72CE02B8F2C8F22
:101DC0008091EC0190E00296988F8F8B8091ED01CD
:101DD00090E002969A8F898F3697DF011D923A958F
:101DE000E9F780E28D8B2E8B2090CD013090CE01D3
:101DF0008091CF019091D0012C01B2E04B0E511C8B
:101E000026EBA22E26E0B22EE2EBF6E0FCA3EBA33B
:101E100027EB36E03EA32DA3F8A3EF8F36E0732E19
:101E2000DE011B96BE8FAD8FF5018081882309F4FA
:101E300021C1AD8DBE8DE72D1D92EA95E9F7F8E041
:101E4000FF87F88BAF8DB8A12C91ADA1BEA1EC910D
:101E5000F0E0ED5DFE4F808190E0820F911D9C8748
:101E60008B87EF8DF8A1818192819E878D8788E491
:101E7000C82E82E0D82E20E532E03AA329A39EE4C2
:101E8000892E92E0992EC501019798A78FA3D601BC
:101E90008D919C9111979A83898312968D919C9133
:101EA00013979C838B83E9A1FAA1808190E0FC01C8
:101EB000E35EFE4F20812D83FC01E95EFE4F308101
:101EC0003E83D4016C9064FE41C065FC3FC0E98054
:101ED000FA800B811C814B855C856D857E858F85A5
:101EE00098890E94FB22882389F166FC28C06AE059
:101EF00070E08BE092E00E949B2EEFA1F8A520817C
:101F0000D60114968D919C911597821B9109159677
:101F10009C938E931497F4012081206420831816DB
:101F200019066CF0A9A1BAA1EC91F0E0EF5EFE4FAA
:101F30008081F6014281608190E00E94F61DADA192
:101F4000BEA18C91833011F0F5011082FAE0CF0E22
:101F5000D11C29A13AA1265F3F4F3AA329A33AE019
:101F6000830E911C42EAC41642E0D40609F08FCFDA
:101F70008091D30184FF7EC0807609F07BC0809180
:101F8000D701813041F1B0F08230B9F58091CD01B7
:101F90009091CE011C01E6E22E0E311C8091CF0102
:101FA0009091D0012C01FFE04F0E511C25E02D8BAC
:101FB0002E8B23C02090CD013090CE018091CF0197
:101FC0009091D0012C0162E0460E511C80E28D8B75
:101FD0009CE09E8B12C08091CD019091CE011C019E
:101FE000A2E02A0E311C8091CF019091D0012C01EA
:101FF000B2E04B0E511C7D8A7E8AE22C3A8A298AF5
:10200000042D5C8A4B8AFA881C892D893E894B8570
:102010005C856D857E858F8598890E94FB2288234B
:1020200049F16AE070E08BE092E00E949B2E809183
:10203000D30180648093D301D5011C92F5013197BF
:1020400080810091D1011091D201081B11091093D8
:10205000D2010093D101442D622D8AE090E00E94CC
:10206000F61D1016110634F0442D622D88E893E118
:102070000E94F61DB9E0AB0EB11CEF8DF8A13996A8
:10208000F8A3EF8F2DA13EA1275F3F4F3EA32DA3C5
:1020900037E0A31637E0B30609F0C6CE08E4C02E39
:1020A00002E0D02E4601A12CB12CD4018D919C913F
:1020B00011979A83898312968D919C9113979C8393
:1020C0008B83F501E85BFD4F3F01808590E0FC01CB
:1020D000E35EFE4F20812D83FC01E95EFE4F3081DF
:1020E0003E83D3011696BC91BF8FB4FF2EC0B5FDC1
:1020F0002CC0E980FA800B811C814F89588D698D35
:102100007A8D8B8D9C8D0E94FB228823F1F080912B
:10211000F00181110CC08091F101811108C0E1E052
:10212000E093F0018091F40181508093F401FF8DE0
:10213000F6FD0BC08F2F8062D30116968C936FE053
:1021400070E08DE299E00E949B2EBAE08B0E911C0C
:10215000EAE0AE0EB11CFAE5AF16B10409F0A5CF66
:10216000BFE0AB2EB2E0BB2E14E1612E12E0712E67
:1021700045019E012F5F3F4F3E8F2D8FAD8DBE8D50
:10218000E6E01D92EA95E9F7F6E0FD83FE83D401CF
:102190008D919C91119701969A83898312968D91C6
:1021A0009C91139701969C838B83F30180818823F4
:1021B00041F1E980FA800B811C8126E036E04F89ED
:1021C000588D698D7A8D8B8D9C8D0E94FB22882382
:1021D000C1F08091F001811114C08091F101811151
:1021E00010C06FE070E08DE299E00E949B2EF1E05C
:1021F000F093F0018091F40181508093F401D301B8
:102200001C92B7E08B0E911CE7E06E0E711CF7E498
:102210008F16F2E09F0609F0B1CF9090D30194FEA3
:102220007BC095FC79C08091D701813039F1B0F045
:102230008230C1F58091CD019091CE011C0163E106
:10224000260E311C8091CF019091D0012C01AAE083
:102250004A0E511C8EE28D8B88E223C02090CD0166
:102260003090CE018091CF019091D0012C0122E0DD
:10227000420E511C80E28D8B8CE013C08091CD0109
:102280009091CE011C0132E0230E311C8091CF01D0
:102290009091D0012C0142E0440E511C8CE08D8BBA
:1022A0008CE18E8BE22C3A8A298A042D5C8A4B8A37
:1022B000FA881C892D893E894F89588D698D7A8DC0
:1022C0008B8D9C8D0E94FB22882331F196FC14C0DB
:1022D0006FE070E08DE299E00E949B2E8091D30127
:1022E00080648093D3018091D1019091D2010197B4
:1022F0009093D2018093D1018091F00181110CC0A3
:102300008091F101811108C081E08093F0018091FA
:10231000F40181508093F4018091DF01882309F456
:102320007CC086E0ED8DFE8D11928A95E9F788E0FC
:102330008D838E839090DA01F090DB019982FA828E
:102340008090DC01882D90E0082D9C838B83E92C04
:102350001C8128E038E04F89588D698D7A8D8B8DEE
:102360009C8D0E94FB22882309F457C0E091DD0177
:102370008E2F90E08730910538F5FC01EA5AFF4F27
:102380000C94FF328091F401853020F48F5F8093AC
:10239000F4011AC0482D692D88EE93E013C081E046
:1023A0008093F10111C01092EE010EC081E003C0D4
:1023B00082E001C083E08093EE0106C0482D692DC4
:1023C00084EC99E00E94F61D1092DF016FE070E04E
:1023D0008DE298E00E949B2E64E170E080E090E046
:1023E000AB01FC010E94C02C41505109E109F109E7
:1023F00028F068517C4F8F4F9F4FF6CFAB01FC0107
:102400000E94C02C641775078E079F07C8F36EE102
:1024100070E08AE590E10E949B2E0E94332F84FF9A
:1024200005C08091ED01843308F4A5C50E94332FC7
:1024300085FF04C08091EC018111A1C50E94332F5A
:1024400087FF04C08091ED0181119DC50E94332F4B
:1024500086FF05C08091EC01803708F498C588E0BC
:102460000E948122882319F088E08093050284E08D
:102470000E948122882331F12091EE01822F90E089
:10248000FC01E050FF4FDC01A55DBE4F30818C9117
:10249000381318C0211107C080910001815080932A
:1024A00000010E94281E8091EE01823059F4809133
:1024B00002018150809302010E94281E0E94281E62
:1024C0000E94281E0E94332F82FF2AC08091EE01B5
:1024D000813049F480910101883029F487E08093AC
:1024E00001010E94281E8091EE018330C9F481E031
:1024F0008093F20180910607909107076EE170E0EA
:102500000E94D732892B29F48091F6018F5F809346
:10251000F6018091F601853018F084E08093F60191
:102520000E94332F82FD08C08091EE01833021F498
:102530008091F20181112FC58091EE0190E0FC01A4
:10254000E050FF4F2081DC01A55DBE4F9C91291713
:1025500030F48FEF820F11F0808301C090832091BF
:10256000060730910707C90163E070E00E94D73287
:10257000BC0121703327E8EBF6E0A2EBEA2EA6E0DF
:10258000FA2ECF010197DC019C91913029F461155D
:10259000710509F40CC50CC0933051F421153105B7
:1025A00019F440814F5F40838081843008F01082AD
:1025B000492F50E0495D5E4FDA018C91D7014C9173
:1025C000480F4C93923071F411960D911C91129713
:1025D00017968D919C911897800F911F12969C933E
:1025E0008E931197413848F4D70111968D919C91A3
:1025F000129707968834910520F0CF010297DC01ED
:102600001C92B9E0EB0EF11C399643E0E41647E06A
:10261000F40609F0B6CF0E940B1F209106073091F7
:102620000707C90166E070E00E94D7327C01892B60
:1026300091F0C90163E070E00E94D7328C014EE452
:1026400052E08FE4682E82E0782EFA0188E492E06E
:1026500060E1962E70C003E1802E02E0902E80E0B3
:1026600090E0EFE0F2E000811181AC01415F5D4F4D
:10267000083F6FEF16073CF062817381685F7F4F00
:102680006934710518F0DA0115961C92DA01159675
:102690006C9115976623E9F00250110911830083AC
:1026A00016964C9150E0519541955109440F551F94
:1026B0004F5F5F4F62817381460F571F5383428381
:1026C000D4014C914F5F443010F44C9302C0D401BC
:1026D0001C9237960796B7E08B0E911C88339105B4
:1026E00011F6A7CF608165FD03C0607B60626083E7
:1026F000608166FD29C0608165FF39C0608165FD2C
:102700004AC0DC016D917C91603E7F4F0CF44FC05C
:10271000DC0112966D917C911397603E7F4F0CF413
:1027200046C00A963A966AE0660E711CA9EA6A16D5
:10273000A2E07A06F1F1DC0114966D917C91159777
:1027400016161706ACF2CECF0115110511F4692546
:102750006083D3016C916F5F653110F46C93CBCFC4
:10276000D3011C9260816F7B60616083C4CFE114F0
:10277000F10411F46F5F6083D30111967C91608145
:10278000723009F41AC4762F7F70743008F4B6CF13
:10279000607F6083B3CF0115110511F46F5F608313
:1027A00060816F70663008F4ACCF1082AACF1082BF
:1027B000B8CF9091D30194FD09C06091D10170917F
:1027C000D201161617060CF450C03FC08091D501F7
:1027D000863010F01092D501B0E5EB2EB2E0FB2E62
:1027E000E8E4F2E080E0B70162507109DB016C912E
:1027F00065FD23C0608171816150710971836083BF
:10280000D7016C916530C9F401151105B1F482301E
:1028100071F018F4813031F010C0843019F0853037
:1028200031F00BC0628173816150710904C0628113
:1028300073816F5F7F4F738362838F5F3A96BAE0D5
:10284000EB0EF11C863079F6B8CF95FD0EC0FA017B
:10285000808180628083465F5F4FF2E0483A5F0785
:10286000B1F7907B90629093D3019091D30196FF42
:1028700017C00115110521F480E189278093D30148
:102880008091D6018F5F8A3118F48093D60108C0F9
:102890001092D6018091D3018F7B80618093D30108
:1028A0004091D30144FF31C045FD22C08091D70142
:1028B00081110AC06091C401862F880F680F660FCE
:1028C0006C5F70E0C90103C0C9016AE070E00E945A
:1028D000D732892B19F44F5F4093D3018091D301F4
:1028E000982F9F70943088F0807F8093D3010DC023
:1028F0000115110519F44F5F4093D3018091D30165
:102900008F70863010F01092D301C9016AE070E038
:102910000E94D732892B91F48091C5019091C60114
:1029200001979093C6018093C5018091C701909152
:10293000C80101979093C8018093C701012B49F406
:102940008091C9019091CA0101979093CA01809327
:10295000C9018091C5019091C601883F9F4F34F411
:1029600080E890E09093C6018093C5018091C701F3
:102970009091C801883F9F4F34F480E890E0909395
:10298000C8018093C7018091C9019091CA01803F1D
:102990009F4F34F480E890E09093CA018093C9017E
:1029A0008091DF01882309F1C90165E070E00E9490
:1029B000D732892B31F49091DE0181E08927809311
:1029C000DE0120FD09C08091DA019091DB010197C1
:1029D0009093DB018093DA018091DA019091DB0121
:1029E000883F9F4F14F41092DF0165EE71E0E4EE32
:1029F000F1E031E0DB018C91882379F0AF014350A5
:102A00005109DA018C9181508C93908193279083A6
:102A1000823018F4DB011C9210826A5F7F4F369679
:102A2000B1E0E03FFB0731F720FD16C02091F9012E
:102A30008091FA0190E0019739E1389FF001399FC8
:102A4000F00D1124E20FF11DEE0FFF1FEC5FF34FAD
:102A500085919491FC0109958091CB01882309F41B
:102A600061C020E04EEC51E060E070E080E290E078
:102A70000E94BD2E21E04EEC51E068E070E088E25B
:102A800090E00E94BD2E22E04EEC51E060E170E04B
:102A900080E390E00E94BD2E20E04EEC51E060E02B
:102AA00070E08FE290E00E94BD2E21E04EEC51E0FC
:102AB00068E070E087E390E00E94BD2E22E04EECDB
:102AC00051E060E170E08FE390E00E94BD2E20E0D5
:102AD0004CE951E06CE170E08091C5019091C60134
:102AE0000E94B72E20E04CE951E06CE170E080914B
:102AF000C7019091C8010E94B72E0091C9011091A1
:102B0000CA0120E04AE551E062E170E0C8010E949C
:102B1000B72E20E04CE951E062E170E0C801089670
:102B20000E94B72E0091D1011091D201101611060A
:102B30002CF03091D30134FD2BC0A8C09BEA099F33
:102B4000012D1124069510E0E091D701F0E0E15D40
:102B5000FE4F8081899F812D1124869520E230E0EF
:102B60007901E81AF108912C892D90E008171907CE
:102B700004F3880F991F8E0D9F1D20E04DEF51E04B
:102B80006CE370E0880F991F0E94B72E9394ECCFEE
:102B900035FF09C0232F2F706091CF017091D001B4
:102BA00049E75AE052C08091D701813009F452C000
:102BB000F0F1823009F06AC00091CF011091D0018C
:102BC000E090CD01F090CE01B801695E7F4F20E02A
:102BD00045EF53E0C70139A70E94BD2EB801685EDA
:102BE0007F4F20E043E353E0C70140960E94BD2E93
:102BF0004701F8E18F0E911C39A5232F2F70B801E2
:102C0000605F7F4F41E352E0C4010E94BD2EB801D6
:102C1000685F7F4F20E04FE052E0C4010E94BD2E6C
:102C200020E045E052E0B801C70184962DC0209114
:102C3000CC01822F880F880F232F2F70280F6091CF
:102C4000CF017091D00143E654E08091CD01909185
:102C5000CE011AC00091CF011091D001E090CD01BA
:102C6000F090CE0120E041E254E0B801C70139A75D
:102C70000E94BD2E39A5232F2F70B801615F7F4FB1
:102C800047E054E0C7010C960E94BD2E00E010E022
:102C9000F801E85BFD4F268124FF5EC025FF09C0D7
:102CA0002F70D60112966D917C91139749E75AE0E7
:102CB0004FC08085823089F170F48823D1F0813053
:102CC00009F04AC02F70D60112966D917C9113972E
:102CD00045EF58E01DC0843091F190F08530E1F56A
:102CE000D60112966D917C91139720E045E656E04F
:102CF0002FC02F70F6016281738147EF59E01CC02D
:102D00002F70D60112966D917C91139741EB56E08E
:102D10008D919C910E94B72E1FC02F70253018F402
:102D20002093D90102C01092D901F601628173810A
:102D30002091D90143EB57E080819181EBCF2F7037
:102D4000F601628173814FE656E08081918102C075
:102D50008D919C910E94BD2E065F1F4FBAE0CB0E55
:102D6000D11C0A35110509F093CF00E010E0F801FD
:102D7000E15FFD4F8581882361F0D50112966D9149
:102D80007C91139724814BE35BE08D919C910E9491
:102D9000BD2E095F1F4FB7E0AB0EB11C0833110504
:102DA00031F70E94861E00E010E0D801AE54B94F02
:102DB00014968C9114978823A1F01596EC91159791
:102DC000F0E0EE0FFF1FEE5CFE4F40815181EBA162
:102DD000FCA161817281808116962C9190E00E9405
:102DE000BD2E075F1F4F2BA13CA1275F3F4F3CA388
:102DF0002BA301351105C9F68091DF01882389F0E5
:102E00008091DE01882369F06091DC0170E02091FF
:102E1000DD014DE55BE08091DA019091DB010E94DC
:102E2000B72E40EEA42E41E0B42EC12CD12CCE0101
:102E300001964C01D601A052BE4F7D0115968C9192
:102E40001597882309F448C014968C91882309F4B7
:102E500043C0F50162817381072E000C880B990B2A
:102E60002AE0A4010E942432F40101900020E9F735
:102E700031970E2F0819D70111966C90712CF5011E
:102E8000E080F12C2AE04FEC5BE0B301C7010E9427
:102E9000BD2E512C002E000C110BF4E0EF0EF11C96
:102EA000852D90E080179107BCF4F401E80FF91F1D
:102EB000208121331CF020532A3008F020E04FEC11
:102EC0005BE0B301C70135E0539E800D911D1124D5
:102ED0000E94BD2E5394E4CF46E0C40ED11C66E0A0
:102EE000A60EB11C8CE0C816D10409F0A3CF00E0F7
:102EF00010E020E042EF5BE060E070E0C8010E947B
:102F0000BD2E085F1F4F0032110599F710E0812F89
:102F100090E02091F40130E02150310982179307AD
:102F200074F421E042EF5BE060E070E033E0880F92
:102F3000991F3A95E1F70E94BD2E1F5FE8CF80E010
:102F40000E94EB2BA9960FB6F894DEBF0FBECDBF43
:102F5000DF91CF911F910F91FF90EF90DF90CF9075
:102F6000BF90AF909F908F907F906F905F904F90A9
:102F70003F902F9008958F5F8093ED0157CA815045
:102F80008093EC015BCA81508093ED015FCA8F5F33
:102F90008093EC0164CA1092F20180910301815088
:102FA000809303010E94281E1092F601C5CA81E099
:102FB0004081411180E08083FBCA762F7F707B3097
:102FC00008F0E6CB9BCB80910607909107078370B2
:102FD0009927892B29F48091B3078F5F8093B307DA
:102FE0008091B307813188F080910502873031F4F8
:102FF0008091F9018F5F8093F90105C08091BD0731
:103000008F5F8093BD071092B30708950C94E31768
:103010001092D40108952091C4013CEF3203C00105
:10302000112402964091CD015091CE01840F951F3D
:103030009093CE018093CD0181E082278093C401DB
:103040008091D8018F5F863018F48093D80108955D
:103050001092D8018091D4018F5F8093D40108959C
:103060008091CD019091CE018C3E2FEF920734F0EC
:103070000A979093CE018093CD0108958091D40159
:103080008F5F8093D40108958091CD019091CE01FE
:103090008734910534F401969093CE018093CD014D
:1030A00008958091D4018F5F8093D4010895809119
:1030B000CF019091D001863F2FEF920734F0029715
:1030C0009093D0018093CF0108958091D4018F5FB8
:1030D0008093D40108958091CF019091D0018C30DC
:1030E000910534F002979093D0018093CF01089519
:1030F0008091D4018F5F8093D40108958091060759
:103100009091070783709927892B29F480910002F9
:103110008F5F8093000280910002813138F08091AE
:10312000D4018F5F8093D4011092000208958091A2
:10313000CD019091CE018134910534F001979093A7
:10314000CE018093CD0108958091D4018F5F80934B
:10315000D4010895ADECB1E018969C9118978AE0DF
:10316000989FF0011124E85BFD4F8681807D80618E
:10317000868384E080872D913C911197205F3F4F9B
:103180003183208312962D913C9113972C5E3F4FF3
:103190003383228321E030E0358324839F5F1896B8
:1031A0009C9308958091C4018823F9F08091CF0108
:1031B0009091D0018B3E9F4FB4F080910607909183
:1031C000070762E170E00E94D732892B11F40E9458
:1031D000AA188091CF019091D00102979093D001CD
:1031E0008093CF0102C01092C4018091C40181116B
:1031F00024C08091CF019091D0018897B4F4809140
:1032000006079091070766E170E00E94D732892B8C
:1032100011F40E94AA188091CF019091D0010296DA
:103220009093D0018093CF0108C081E08093C401C6
:103230008091D8018F5F8093D8018091D80185302B
:1032400038F01092D8018091D4018F5F8093D4011F
:103250000895CF93DF93C0910607D0910707CE0161
:1032600068E270E00E94D732892B21F52091D501C8
:103270008AE0289FF0011124E85BFD4F96819F7D35
:103280009061968385E080878091CD019091CE01F9
:103290000296918380834091CF015091D001405F8D
:1032A0005F4F5383428381E090E0958384832F5F57
:1032B0002093D501CE0166E070E00E94D732892BC1
:1032C00009F043C08091D8018F5F8093D801893085
:1032D00030F48091CD019091CE01019707C08131EA
:1032E00078F48091CD019091CE0101969093CE011A
:1032F0008093CD018091CF019091D001019718C0AA
:10330000893130F48091CD019091CE01019607C0B2
:10331000893298F48091CD019091CE0101979093DC
:10332000CE018093CD018091CF019091D001019683
:103330009093D0018093CF0108C0813318F3893373
:1033400080F2813430F21092D801DF91CF9108954C
:10335000809106079091070783709927892B29F49C
:10336000809100028F5F8093000280910002813182
:1033700038F08091D4018F5F8093D40110920002C5
:10338000089581E08093C4018091D301806480938B
:10339000D3018091CD019091CE018136910534F019
:1033A00001979093CE018093CD0108958091D4012F
:1033B0008F5F8093D40108951092D4010895809175
:1033C000CF019091D0012091FF0130E08217930747
:1033D0002CF402969093D0018093CF018091CF017D
:1033E0009091D001281739072CF402979093D001BF
:1033F0008093CF018091CD019091CE01893D2FEF37
:10340000920734F005979093CE018093CD010895F3
:103410009091CC0181E089278093CC018091D401E7
:103420008F5F8093D40108958091CF019091D00156
:103430002091FF0130E0821793072CF402969093BD
:10344000D0018093CF018091CF019091D0012817B6
:1034500039072CF402979093D0018093CF0180918B
:10346000CD019091CE018838910534F40596909362
:10347000CE018093CD0108959091CC0181E0892700
:103480008093CC018091D4018F5F8093D401089503
:103490008091ED018093FF01EDECF1E087818F5F7A
:1034A000878308951092C401EDECF1E087818F5F6E
:1034B0008783089580910607909107078370992765
:1034C000892B29F4809100028F5F80930002809104
:1034D0000002813138F08091D4018F5F8093D40154
:1034E000109200020895209106073091070723707B
:1034F00033278091CD019091CE01232B19F5209196
:10350000EC0130E082179307ECF44091CF01509129
:10351000D0012091ED0130E04217530734F44F5FA2
:103520005F4F5093D0014093CF014091CF01509114
:10353000D0012417350734F4415051095093D0017C
:103540004093CF018838910534F402969093CE01D0
:103550008093CD0108959091CC0181E089278093DB
:10356000CC018091D4018F5F8093D4010895209184
:10357000060730910707237033278091CD01909182
:10358000CE01232B19F52091EC0130E028173907E3
:10359000ECF44091CF015091D0012091ED0130E049
:1035A0004217530734F44F5F5F4F5093D00140935D
:1035B000CF014091CF015091D0012417350734F449
:1035C000415051095093D0014093CF01893D2FEFD5
:1035D000920734F002979093CE018093CD01089525
:1035E0009091CC0181E089278093CC018091D40116
:1035F0008F5F8093D401089581E08093C40180910E
:10360000D30180648093D3018091CD019091CE014C
:1036100097FF06C001969093CE018093CD01089547
:103620008091D4018F5F8093D401089581E08093CD
:10363000C4018091D30180648093D3018091CD0136
:103640009091CE018136910534F001979093CE018F
:103650008093CD0108958091D4018F5F8093D40130
:1036600008958091B3078F5F8093B30720E04BEA02
:1036700052E164E070E082E290E00E94BD2E809111
:10368000B307853B28F01092B30781E080930502D1
:103690000895CF932091060790910707822F6AE043
:1036A00070E00E94D732892B29F49091FC019F5F32
:1036B0009093FC0120FD05C08091FB018F5F8093FA
:1036C000FB018091FB018D3310F01092FB01C09142
:1036D000FB01C73008F0C0E08091FC01843010F09D
:1036E0001092FC0120E04DEF56E161E070E084E2D1
:1036F00090E00E94BD2E20E04CE452E165E170E0D4
:103700008BE390E00E94BD2E20E048E152E160E3AF
:1037100070E08EE390E00E94BD2E20E046E851E18B
:103720006EE270E084E090E00E94BD2E2091FC01EA
:1037300044E05EE06EE070E083E090E00E94BD2E29
:10374000EC2FF0E0E65CFE4F208146EC5DE068E1A6
:1037500070E08AE090E0CF910C94BD2E20E04DEF18
:1037600056E16AE070E081E290E00E94BD2E20E028
:1037700043E556E16FE170E084E290E00E94BD2EE7
:103780008CE00E948122882319F081E08093050259
:10379000089520E041E554E160E070E080E290E0CF
:1037A0000E94BD2E8CE00E948122882319F081E0C6
:1037B0008093050208950F931F93CF930E94491B96
:1037C00000E210E0C0E02C2F4BE757E1B8018CE697
:1037D00090E00E94BD2ECF5F085F1F4FC43099F765
:1037E000C09104016C2F70E06E5F7F4F83E0660F25
:1037F000771F8A95E1F720E048E451E08CE590E0FE
:103800000E94BD2E80E10E948122882311F0C530E4
:1038100098F080E80E948122882321F080910401A1
:10382000833070F484E00E948122882369F08091C3
:1038300004018093050208C0CF5FC0930401E9CF63
:10384000815080930401EECFCF911F910F91089585
:10385000CF93DF931F92CDB7DEB70E94491B24E0C0
:103860004BE757E168E270E08CE690E00E94BD2EE5
:1038700025E04BE757E160E370E08CE690E00E94C2
:10388000BD2E26E04BE757E168E370E08CE690E060
:103890000E94BD2E6091BE0770E06A5F7F4F83E09B
:1038A000660F771F8A95E1F720E048E451E08CE548
:1038B00090E00E94BD2E80E10E94812281110E9431
:1038C0003B2F80E80E94812281110E94362F8CE0DC
:1038D0000E948122882389F06091BE0782E090E0F7
:1038E00069830E9465326981681721F082E090E067
:1038F0000E946D3281E0809305020F90DF91CF919D
:10390000089580E090E020E0FC01E85BFD4F368107
:10391000331F3327331F230F0A968A359105A1F7EA
:10392000211105C08091F9018F5F8093F9010895FD
:103930008091F9019091B807891721F08093B80719
:1039400081E0089580E008951092CB01EDECF1E064
:1039500080E986831782118613861092000281E027
:103960008093C4011092CC0180E890E09183808321
:103970008091FA0190E0019763E070E00E94EB32E1
:10398000DB01A75ABE4F8C9190E093838283DB01C9
:10399000A15DBE4F8C9190E09583848362870895EA
:1039A000CF93DF939AE050E0861708F06EC0A82FFF
:1039B000B0E09A9FF0019B9FF00D1124E85BFD4F52
:1039C000268125FD60C020813181241B350B318388
:1039D0002083E901C956D1092F9740F4C281D381D0
:1039E000CD30D1051CF02297D383C283F901EA546C
:1039F000F1097F9778F49A9FF0019B9FF00D1124B5
:103A0000E85BFD4FC281D381C433D1051CF42296FB
:103A1000D383C283F901BB977F9778F49A9FF00113
:103A20009B9FF00D1124E85BFD4FC281D381CD3007
:103A3000D1051CF02297D383C283F9013B97B0973D
:103A400078F49A9FF0019B9FF00D1124E85BFD4FE5
:103A50002281338124333105B4F42E5F3F4F11C0EE
:103A60002B30310584F49A9FF0019B9FF00D1124B7
:103A7000E85BFD4F228133812131310524F0225052
:103A80003109338322838F5F8FCFDF91CF910895E8
:103A90009AE050E0861780F5A82FB0E09A9FF001D9
:103AA0009B9FF00D1124E85BFD4F268125FD22C070
:103AB00020813181241B350B31832083283431054B
:103AC000CCF4228133812032310524F42F5F3F4F23
:103AD000338322839A9FF0019B9FF00D1124E85BB2
:103AE000FD4F228133812032310524F021503109EC
:103AF000338322838F5FCECF08959AE050E08617FC
:103B000080F4989FF0011124E85BFD4F268125FD8C
:103B100006C020813181241B350B318320838F5FC8
:103B2000EECF08958F929F92AF92BF92CF92DF9285
:103B3000EF92FF920F931F93CF93DF939AE0862E1D
:103B4000912CC82FD0E0CD5ADE4F641760F5A62F18
:103B5000B0E09A9FF0019B9FF00D1124E85BFD4FB0
:103B6000562F506956838087A819B909EA9E5001DB
:103B7000EB9EB00CFA9EB00C1124A20EB31EB182C3
:103B8000A082CA9E5001CB9EB00CDA9EB00C1124CC
:103B9000A00EB11EB382A282A881B0E0B583A48337
:103BA00011866F5FD2CFDF91CF911F910F91FF9060
:103BB000EF90DF90CF90BF90AF909F908F9008953F
:103BC000EAEDF1E0838380E890E091838083809147
:103BD000FE01A82FB0E0A55BBE4F9C91928391E0BF
:103BE00095838F5F87708093FE0108952091FD017A
:103BF0002F5F223018F42093FD0102C01092FD01C6
:103C0000E091FD0126E0E29FF0011124E052FE4F19
:103C10006083418393838283092E000CAA0BBB0B24
:103C20004091B4075091B5076091B6077091B707FE
:103C3000840F951FA61FB71F8093B4079093B507F5
:103C4000A093B607B093B70781E085838483089576
:103C500064E170E080E793E00E949B2E8091F70181
:103C6000282F30E099E0899FF0011124EE54F94F9C
:103C70009481911142C09581923009F01682909101
:103C8000EE0149E0429FF001439FF00D1124EE54F4
:103C9000F94F958321E024832091EC01285F208354
:103CA0002091ED0130E02A5F3F4F32832183A92F1D
:103CB000B0E0A95BBE4F2C912383933029F49091FF
:103CC000F601920F938317C09230A9F49091F801F6
:103CD000A92FB0E0AA0FBB1FAF5BBE4F2D913C9147
:103CE0003087278396839F5F933018F49093F80171
:103CF00002C01092F8011092F6018F5F893018F41B
:103D00008093F70108951092F7010895CF93DF9300
:103D10008091F101811111C08091EF018823A1F1FF
:103D20006091ED0170E08091EC012091F5014DE78B
:103D300058E190E00E94B72E27C0C0E0D0E0FE011D
:103D4000E559F84F2085822F90E0FC01E455F44EB0
:103D50003491FC01E454F44EE49123706091ED0140
:103D600070E067507109630F711D8091EC0190E064
:103D700007974FEF59E18E0F911D0E94BD2E299696
:103D8000C231D105E1F6C8CF8091F201882309F450
:103D90003FC0CBE6D7E028852770422F50E08091C6
:103DA000ED016A817B81680F711DEE81FF814E9F5D
:103DB000C0014F9F900D5E9F900D1124680F791FD9
:103DC0003091EC0188819981830F911DAC81BD8177
:103DD0004A9FF0014B9FF00D5A9FF00D11244BE5C7
:103DE00058E18E0F9F1F0E94BD2E299687E0C33B8E
:103DF000D80789F66091ED0170E08091EC01209187
:103E0000F60149E058E190E0DF91CF910C94B72E94
:103E1000DF91CF9108958091F001209106073091B4
:103E200007078823E9F0C90163E070E00E94D732F8
:103E3000892B59F48091F3018F5F8093F301909166
:103E4000EF0181E089278093EF018091F3018F31A9
:103E500038F01092F3011092F00181E08093EF01AD
:103E60008091F1018823B9F0C90163E070E00E94FC
:103E7000D732892B29F48091F3018F5F8093F3016E
:103E80008091F3018B3F38F01092F3011092F10111
:103E900081E08093EF018091F401823030F484E876
:103EA0008093B90789E080930502C9016AE070E058
:103EB0000E94D732892B41F48091F5018F5F66E033
:103EC0000E94CB329093F501C90165E070E00E9439
:103ED000D732892B59F4E3E7F7E080818F5F8F7049
:103EE0008083399687E0EB3BF807B9F70895FC012A
:103EF00080910E02811103C08FEF9FEF08959FB74D
:103F0000F89482E08093E9002091F20030E01216EC
:103F1000130614F421E030E02115310559F02898FA
:103F200084E680930D028091F10080838091F200FD
:103F3000882319F09FBFC90108958BE68093E8009C
:103F4000F9CF2FB7F89483E08093E9009091E800CF
:103F5000892F807295FF04C09091F20080E4891B44
:103F60002FBF08958091130781110DC082E08093C7
:103F70000F0784E080931007109212071092110728
:103F800081E0809313078FE097E00895CF93DF934C
:103F90001F92CDB7DEB76983DC01ED91FC91028001
:103FA000F381E02D41E050E0BE016F5F7F4F099546
:103FB0000F90DF91CF91089583E08093E900809185
:103FC000F200882319F08AE38093E80008950E94A4
:103FD000A11F90E00895CF93DF931F92CDB7DEB776
:103FE000FC018485958597FD05C02FEF3FEF358750
:103FF00024870BC0CE0101960E94771F019719F408
:10400000898190E002C08FEF9FEF0F90DF91CF91F9
:1040100008950F931F93CF93DF931F92CDB7DEB711
:104020008C01FC018485958597FF0EC0CE01019619
:104030000E94771F019719F4298130E002C02FEF09
:104040003FEFF80135872487F801848595850F9027
:10405000DF91CF911F910F910895FC018485958583
:1040600097FD0BC09FB7F89482E08093E9008091A0
:10407000F2009FBF90E0019608959FB7F89482E008
:104080008093E9008091F2009FBF90E008958F92A5
:104090009F92AF92BF92CF92DF92EF92FF920F93D7
:1040A0001F93CF93DF936C015B017A018091100124
:1040B000882309F458C080910E02882309F453C064
:1040C00080910C0280FF05C08091E00082608093A7
:1040D000E000E70110E00AEF83E0882E9AE3992ED2
:1040E0002097C1F10E94A11F811107C00150D9F191
:1040F00081E090E00E94BC2DF3CF282F30E0C21762
:10410000D3070CF48C2F4FB7F8948092E90090916C
:10411000E80095FF1DC0282F30E0C21BD30BF5012E
:10412000982F915020F081918093F100FACFA20E48
:10413000B31E112319F09092E80009C08091E800A5
:1041400085FD06C09092E80011E0209709F010E08C
:104150004FBFC6CF1111C6CF5D9884E680930E077E
:104160001E141F0444F081E090E0F60193838283E3
:1041700080E090E001C0C701DF91CF911F910F91C6
:10418000FF90EF90DF90CF90BF90AF909F908F9077
:104190000895DF92EF92FF920F931F93CF93DF93D7
:1041A000D82E8A017B01E40EF51EEB01CE15DF054A
:1041B00071F0D7FE03C0FE01849101C088810E9486
:1041C000412F21968111F2CF8FEF9FEF01C0C801DF
:1041D000DF91CF911F910F91FF90EF90DF900895A5
:1041E0000F931F93CF93DF931F92CDB7DEB782E07B
:1041F000898342E450E064EF7AE180E80E94C920BC
:104200000E94B21FDC0112960D911C9113970115AB
:10421000110569F0D801ED91FC910280F381E02D48
:10422000BE016F5F7F4FC801099597FF07C0898165
:104230000F90DF91CF911F910F910895F8010085A4
:104240001185E5CF2F923F924F925F926F927F92AE
:104250008F929F92AF92BF92CF92DF92EF92FF9296
:104260000F931F93CF93DF9300D000D000D0CDB732
:10427000DEB74115510509F42BC1A0E0B0E0FA0109
:1042800030E0102FA590D590211511F43115B1F023
:1042900047E04D0D479546954695133009F4440F78
:1042A0004A9DA001249FE00DF11D259FF00D109661
:1042B00029F0349FA00DB11D359FB00D11241F3F73
:1042C00021F4109612E009F011E01D83AF014A2C91
:1042D000512C7C01E40CF51C1E141F040CF0F8C0DA
:1042E000803891050CF0F4C09B012D0D311D121684
:1042F00013060CF0EDC0603471050CF0E9C0309786
:1043000009F4E6C0262F2770322E9B0177FF02C0EA
:10431000295F3F4F03E0359527950A95E1F7C22EB7
:1043200077FF05C0332019F0CC24CA94C20E97FF42
:1043300005C022273327281B390B02C020E030E0BC
:1043400060E8E616F10424F060E8862E881A01C0C1
:104350008A2C821A0C2D0C2C000C110B7FEFC71627
:104360001CF4F02EF09401C0F12C772473946D2D81
:10437000677009F4712CD694D694D6947D0CB8014C
:10438000670D711D693071051CF068E0762E7C1890
:10439000DF2CDC0C7D2D10E87103800D911D1124A4
:1043A000820F931F61E070E0032C02C0660F771F3D
:1043B0000A94E2F71D81133019F0BB24B39402C0B4
:1043C00012E0B12E820108191109B09E602C11244F
:1043D0000B2D10E02901FA9C400C511C1124049D66
:1043E0009001059D300D149D300D11247F01E20ECA
:1043F000F31E109709F0AD01F80131972E0F3F1F02
:10440000420F531FEFEFE69F9001E79F300D1124FD
:10441000290140945094C70CCE82712CB89C600C3A
:10442000711C11242E81D21609F452C0DC01AE5544
:10443000BD4F5A019701912C981409F441C0F9011C
:10444000C490C69EF001C79EF00D1124FA83E98343
:10445000E095F095FC83EB83FD81F23019F45C82EA
:104460004B8211C0ED81EB3F19F41A8219820BC007
:10447000F501C490C69EF001C79EF00D1124E09591
:10448000F095FC83EB83D7FC06C0FC91EB81EF2316
:10449000F981EF2BEC93332061F0F6E0FD154CF041
:1044A000FD01E058FF4F2080CC802C20CA80C2281C
:1044B000C082A00EB11E200F311F93941196BCCF65
:1044C000D394E60CF71C460D571D80589F4FAACF7A
:1044D00026960FB6F894DEBF0FBECDBFDF91CF9109
:1044E0001F910F91FF90EF90DF90CF90BF90AF9012
:1044F0009F908F907F906F905F904F903F902F9004
:10450000089520910907282329F4909108079823FA
:1045100081E009F480E00895CF93DF939091470202
:10452000A1E5B2E0C8E4D2E040E051E077E048170E
:1045300061F1FD013397208125FF02C0692F20C062
:104540002881398120383105CCF76C916111F6CF83
:104550005C93799FF0011124E15FFD4F55832E5F3D
:104560003F4F318320832A813B813383228328314B
:10457000310514F4168201C056839F5F9830F0F223
:104580004F5F1A962A96962FD2CF90934702DF91CB
:10459000CF910895E2EAF2E0A0E0B8E000800EBC1E
:1045A0008111012C1197A0FDFDCF0192B9F70DB437
:1045B0000895E8E4F2E020E02817E1F0968195FD07
:1045C00016C09F70492F50E04550510942305105A7
:1045D00030F44281538142505109538342839730D2
:1045E00030F04281538141505109538342832F5F00
:1045F0003A96E2CF0895EF92FF920F931F93CF93D5
:10460000DF93CDB7DEB72C970FB6F894DEBF0FBEA1
:10461000CDBF49835A836B837C839E83EF82F88668
:1046200009871A872B873C87E981FA816B817C8116
:104630004F81588529853A85DF01A80FB11D4A179A
:104640005B07A4F48B85480F511DE417F50774F43C
:104650008E81AB01480F511D241735073CF48C8522
:10466000280F311D81E0621773070CF080E02C9653
:104670000FB6F894DEBF0FBECDBFDF91CF911F9173
:104680000F91FF90EF9008951F920F920FB60F9227
:1046900011248F939F938091E1009091E100937F8B
:1046A0009093E10083FF0FC01092E90091E0909396
:1046B000EB001092EC0092E39093ED0010920E024A
:1046C00098E09093F00082FF20C093E09093E9007F
:1046D0009091F200992319F09AE39093E800909159
:1046E0000E07992339F090910E07915090930E0781
:1046F000992389F190910D02992339F090910D023F
:10470000915090930D02992341F184FF10C0809144
:10471000E2008E7E81608093E2008091E1008F7ED6
:104720008093E10080910C028E7E806111C080FF39
:1047300016C08091E2008E7E80618093E2008091BD
:10474000E1008E7E8093E10080910C028E7E81607C
:1047500080930C0204C05D9ACDCF289AD6CF9F914A
:104760008F910F900FBE0F901F9018951F920F9270
:104770000FB60F921124CF92DF92EF92FF920F9318
:104780001F932F933F934F935F936F937F938F93D9
:104790009F93AF93BF93EF93FF93CF93DF93CDB7E7
:1047A000DEB76C97DEBFCDBF1092E9008091E800C4
:1047B00083FFBAC168E0CE0145960E946F2F82EF59
:1047C0008093E8008D8987FF05C09091E80090FFF5
:1047D000FCCF03C09EEF9093E800982F907609F0ED
:1047E000C6C09E892F89188D91110CC0803829F47C
:1047F00080910B028093F10002C01092F1001092A0
:10480000F10047C1422F50E0512B913051F48111FA
:1048100040C14130510509F03CC180910B028D7FB0
:104820000BC0933061F4811134C14130510509F05E
:1048300030C180910B02826080930B022AC19530B7
:1048400041F48091E80080FFFCCF20682093E300D2
:1048500020C1963009F05FC0EB8CFC8C1092E9000F
:104860001092090210920802123091F5109207027C
:10487000109206020E94F02099E0BE016F5F7F4F08
:10488000DB01E92F1D92EA95E9F799831A8391E0FC
:104890009E8390EA98879AEF998720910802309139
:1048A0000902275F3F4F3C832B838D831092E900E1
:1048B0001092090210920802F0920702E09206029A
:1048C00049E050E080E00E94C9200E94F020E1C051
:1048D000F0920702E09206020E94B21FDC011296DB
:1048E000ED90FC901397E114F10409F4BFC0D701D7
:1048F000ED91FC910480F581E02DBE016B5E7F4F50
:10490000C7010995009719F00CF0C3C0C6C0F701A4
:10491000E084F184E8CF973009F4BFC0983021F4E7
:1049200081E08093F100B5C0993009F0B2C0837086
:1049300009F0B3C0EDE5F1E081E021E036E39081DC
:10494000992361F08093E9002093EB00919190937B
:10495000EC003093ED008F5F873089F78EE780930E
:10496000EA001092EA008F8980930E0292C08B8D2C
:104970009C8D1092E9001092090210920802909307
:10498000070280930602898D811155C08E899D8909
:10499000913A59F4813209F080C047E050E069E073
:1049A00071E080E00E94C92074C0913209F075C0A6
:1049B000833289F4888D90E0982F88272F89822B65
:1049C000A0E0B0E08093050190930601A093070159
:1049D000B09308015EC0803269F48091E80082FFE4
:1049E000FCCF67E089E091E00E946F2F8BEF80930E
:1049F000E80006C0823209F04CC08F898093100114
:104A00008091090190910A01A0910B01B0910C01D4
:104A1000803B9440A105B10509F083C0809110014D
:104A200080FD7FC088E780930A02809164008F7DBB
:104A3000809364002EC00E94B21FDC0112960D917B
:104A40001C9113970115110541F1D801ED91FC91CD
:104A50000190F081E02DBE016B5E7F4FC80109958A
:104A6000811117C0F80100851185ECCF113009F4D0
:104A70004EC0133091F48F89882309F445C08230E9
:104A800081F440E867E088E59BE10E949D3188233E
:104A900021F08EEF8093E80047C081E28093EB0025
:104AA00043C0813029F440E86BE08CE49BE1EDCF1A
:104AB000833099F70E94B21FDC011296ED90FC90B2
:104AC00013978E010F5F1F4F6801E114F10479F015
:104AD000D701ED91FC910680F781E02DB801C70167
:104AE0000995080F111DF701E084F184EECFD8017C
:104AF0001C92F60101900020E9F73197BF016C1973
:104B00007D0940E0C601C1CF66E37BE102C06AE3F4
:104B10007BE16115710509F2FB01449150E080E8E9
:104B200041CF10920A02B5CF6C960FB6F894DEBF53
:104B30000FBECDBFDF91CF91FF91EF91BF91AF91AC
:104B40009F918F917F916F915F914F913F912F91A5
:104B50001F910F91FF90EF90DF90CF900F900FBEBD
:104B60000F901F90189587E0809305021092BD0763
:104B70008091FA018F5F8093FA0180EE9FEF90930E
:104B8000BB078093BA0784E98093B907ECEEF1E0A4
:104B900081E0848315821092BC078093CB01E5EC01
:104BA000F1E08CE190E0918380838CE590E0938349
:104BB000828380E890E09783868308958091050240
:104BC000863011F02FE101C027E28091BA07909161
:104BD000BB0730E0281739075CF404979093BB07B4
:104BE0008093BA078091B9078C5F8093B9070895C5
:104BF0008091BD078F5F8093BD0708958091050266
:104C0000863011F02FE101C027E28091BA07909120
:104C1000BB0730E0821793075CF404969093BB07C0
:104C20008093BA078091B90784508093B90708959B
:104C30008091BD078F5F8093BD0708958091050225
:104C4000893019F41092BC0703C081E08093BC073F
:104C50008091BD078F5F8093BD0708951092FA0180
:104C60001092B4071092B5071092B6071092B707CA
:104C70001092F2011092F6011092F7011092F801D1
:104C800080E090E0FC01EE54F94F14821682099600
:104C900081359105B9F789E0EBE7F1E0ABE6B7E0E4
:104CA00001900D928A95E1F789E0E4E8F1E0A4E74C
:104CB000B7E001900D928A95E1F789E0EDE8F1E027
:104CC000ADE7B7E001900D928A95E1F789E0E6E95A
:104CD000F1E0A6E8B7E001900D928A95E1F789E04E
:104CE000EFE9F1E0AFE8B7E001900D928A95E1F7C6
:104CF00089E0E8EAF1E0A8E9B7E001900D928A9531
:104D0000E1F789E0E1EBF1E0A1EAB7E001900D9273
:104D10008A95E1F789E0EAEBF1E0AAEAB7E00190D1
:104D20000D928A95E1F71092D90110924702E1E5C0
:104D3000F2E080E020E830E0DF0113978C931196D9
:104D40001C9217972D933C9310828F5F3A9689306F
:104D500099F780E090E0FC01E15FFD4F1582079636
:104D600088339105C1F780E18093EC0188E180935D
:104D7000ED011092EE0181E08093EF0184E08093D9
:104D8000F4011092F3011092D30180E890E0909327
:104D9000CE018093CD011092BD071092B30780EE33
:104DA0009FEF9093BB078093BA0784E98093B9077C
:104DB00086E0809305020895ECEEF1E080E18083C7
:104DC00080E281838AE080930502089586E08093E3
:104DD00005020895A8E4B2E020E030E0C90104969D
:104DE0008F709927FC01E454F44EE491F0E0EC5A02
:104DF000FF4F1196FC93EE93FC01E455F44EE491C1
:104E0000F0E03396EE0FFF1F1396FC93EE9312978C
:104E1000295F3F4F1A962833310501F78091060725
:104E20009091070762E170E00E94D732892BC9F4A4
:104E30008091B307E82FE7709AE0E99FF001112411
:104E4000E85BFD4F90E396838F5F803118F4809389
:104E5000B30708951092B3078091F9018F5F809393
:104E6000F90108959091BC0781E089278093BC07E0
:104E70000C94E3170E940B1F0E94861E1092F901EA
:104E80008FEF8093B8078091D3018F7E8093D301F9
:104E90008091BC078823B9F020E04AE15CE16CE135
:104EA00070E08091BA079091BB070E94BD2E2091BF
:104EB000FA012F5F8091B9074CED5BE16CE170E086
:104EC00090E00E94BD2EE091BD07F0E0EE0FFF1FC5
:104ED000E453F44E85919491FC0109940E94981C2E
:104EE00081110E94A41CE091D401F0E0EE0FFF1F9D
:104EF000EA56F44E85919491FC0109958091D30175
:104F000087FD05C08091F9018F5F8093F9010895B5
:104F10000E94981C81110E94A41CE091D401F0E031
:104F2000EE0FFF1FE057F44E85919491FC01099517
:104F30008091D30187FD05C08091F9018F5F809337
:104F4000F90108950E94981C81110E94A41CE0910F
:104F5000D401F0E0EE0FFF1FE05AF44E85919491DA
:104F6000FC0109958091D30187FD05C08091F9016D
:104F70008F5F8093F901089586E00E94E01D809183
:104F8000F9018F5F8093F901089585E00E94E01D8B
:104F90008091F9018F5F8093F901089584E00E9468
:104FA000E01D8091F9018F5F8093F901089583E0FE
:104FB0000E94E01D8091F9018F5F8093F9010895AF
:104FC00082E00E94E01D8091F9018F5F8093F901DA
:104FD000089581E00E94E01D8091F9018F5F809328
:104FE000F901089580E00E94E01D8091F9018F5F32
:104FF0008093F9010895CF92DF92EF92FF920F9381
:105000001F930E94981C882331F1C12CD12C80E978
:10501000E82EF12C0CE010E020E830E042E060E007
:1050200081E00E94921D98E4E92EF12C0EE110E03F
:1050300020E830E046E062E081E00E94921D20E935
:10504000E22EF12C00E310E028EC30E048E066E0CE
:1050500081E00E94921D42E069E080E00E947D1D97
:105060001F910F91FF90EF90DF90CF900C94811CD7
:10507000CF92DF92EF92FF920F931F930E94981CA2
:10508000882319F1C12CD12C80ECE82EF12C0CE0F6
:1050900010E020E830E043E060E080E00E94921DF4
:1050A00000E310E020E830E046E063E080E00E94AA
:1050B000921DE12CFF24F3940AE110E020EC30E093
:1050C00049E066E081E00E94921D42E066E080E0F7
:1050D0000E947D1D43E069E086E00E947D1D1F91D6
:1050E0000F91FF90EF90DF90CF900C94811CCF92A6
:1050F000DF92EF92FF920F931F930E94981C8823D8
:1051000009F1C12CD12C80E2E82EFF24F3940CE0AD
:1051100010E020E830E043E060E081E00E94921D72
:1051200000E210E020E431E046E063E081E00E942C
:10513000921D00E310E020EE30E049E066E081E0FF
:105140000E94921D43E069E080E00E947D1D1F9156
:105150000F91FF90EF90DF90CF900C94811CCF9235
:10516000DF92EF92FF920F931F930E94981C882367
:1051700001F1C12CD12C88E1E82EF12C0CE010E0DB
:1051800020E830E043E060E081E00E94921D0EE103
:1051900010E020E830E046E063E081E00E94921DEC
:1051A00000E310E020E830E049E066E081E00E94A2
:1051B000921D41E069E080E00E947D1D1F910F91EA
:1051C000FF90EF90DF90CF900C94811CCF92DF92F4
:1051D000EF92FF920F931F930E94981C882379F0FF
:1051E00086E0C82ED12C98E2E92EF12C0CE010E0DC
:1051F00020E830E048E060E080E00E94921D43E05B
:1052000068E080E00E947D1D1F910F91FF90EF905C
:10521000DF90CF900C94811CCF92DF92EF92FF929F
:105220000F931F930E94981C882301F1C12CD12C4D
:1052300080ECE82EF12C0CE010E020E830E043E0B8
:1052400060E080E00E94921D00E210E020E031E08A
:1052500046E063E080E00E94921D00E310E020EC55
:1052600030E049E065E080E00E94921D43E069E0A3
:1052700080E00E947D1D1F910F91FF90EF90DF90C5
:10528000CF900C94811CCF92DF92EF92FF920F93FC
:105290001F930E94981C882301F1C12CD12C80EC13
:1052A000E82EF12C0AE010E020E830E043E060E076
:1052B00083E00E94921D00E310E020E830E046E029
:1052C00063E083E00E94921D0DE110E020E231E0F6
:1052D00049E066E081E00E94921D42E066E080E0E5
:1052E0000E947D1D43E069E086E00E947D1D809163
:1052F00006079091070762E370E00E94D732892B7E
:1053000019F486E00E948C221F910F91FF90EF907C
:10531000DF90CF900C94811CCF92DF92EF92FF929E
:105320000F931F930E94981C8823B9F0C12CD12C95
:1053300080ECE82EF12C0AE010E020E830E044E0B8
:1053400060E083E00E94921D00E310E020EC30E07A
:1053500048E064E083E00E94921D42E068E080E063
:105360000E947D1D809106079091070762E370E01F
:105370000E94D732892B19F488E00E948C221F9159
:105380000F91FF90EF90DF90CF900C94811CCF9203
:10539000DF92EF92FF920F931F930E94981C882335
:1053A000B9F0C12CD12C80E8E82EF12C0CE010E0F3
:1053B00020E830E044E060E083E00E94921D04E2D7
:1053C00010E020EB30E048E064E083E00E94921DB2
:1053D00041E068E080E00E94D01C1F910F91FF9097
:1053E000EF90DF90CF900C94811CCF92DF92EF92E0
:1053F000FF920F931F930E94981C882319F1C12CD0
:10540000D12C80E6E82EF12C0EE110E020E830E00F
:1054100043E060E081E00E94921DE12CFF24F394C0
:105420000CE010E020E031E046E063E081E00E9423
:10543000921D00E310E020E031E049E066E081E009
:105440000E94921D41E063E080E00E94D01C42E097
:1054500069E083E00E947D1D1F910F91FF90EF9006
:10546000DF90CF900C94811CCF92DF92EF92FF924D
:105470000F931F930E94981C882301F1C12CD12CFB
:1054800080E9E82EF12C00E110E020E830E043E074
:1054900060E081E00E94921D0CE210E020E830E024
:1054A00046E063E081E00E94921D0EE110E028ECEE
:1054B00030E049E066E081E00E94921D41E069E051
:1054C00086E00E94D01C41E066E080E00E947D1DE5
:1054D0001F910F91FF90EF90DF90CF900C94811C63
:1054E000CF92DF92EF92FF920F931F930E94981C2E
:1054F000882371F0C12CD12C84E2E82EF12C00E23B
:1055000010E020E830E049E060E080E00E94921D79
:1055100043E069E080E00E94D01C1F910F91FF9052
:10552000EF90DF90CF900C94811CCF92DF92EF929E
:10553000FF920F931F930E94981C8823E9F080E24A
:10554000C82ED12C90E5E92EF12C00E410E020E8E3
:1055500030E046E060E082E00E94921DC12CD12C38
:1055600020E6E22EF12C0CE010E020E231E049E0F0
:1055700066E081E00E94921D86E00E94D92242E00E
:1055800066E080E00E947D1D42E069E086E00E94C6
:10559000D01C1F910F91FF90EF90DF90CF900C9453
:1055A000811CCF92DF92EF92FF920F931F930E9484
:1055B000981C882379F080E1C82ED12C98E2E92E3E
:1055C000F12C00E410E020E830E049E060E082E007
:1055D0000E94921D89E00E94D92242E069E080E0A9
:1055E0000E947D1D1F910F91FF90EF90DF90CF9053
:1055F0000C94811CCF92DF92EF92FF920F931F9336
:105600000E94981C882369F180E1C82ED12C98E271
:10561000E92EF12C00E410E020E130E043E060E00E
:1056200082E00E94921DC12CD12C20E3E22EF12CAD
:105630000CEA10E020E230E045E063E082E00E9406
:10564000921D30EFC32EDD24DA9448E2E42EF12CD3
:1056500000E011E020E130E048E065E082E00E94F7
:10566000921D88E00E94D9221F910F91FF90EF9028
:10567000DF90CF900C94811CCF92DF92EF92FF923B
:105680000F931F930E94981C882349F1C12CD12CA1
:10569000E12CFF24F3940FE110E020E830E042E039
:1056A00060E081E00E94921D0AE010E020EC30E012
:1056B00044E062E081E00E94921D00E310E020E4FB
:1056C00031E046E064E081E00E94921D0FE110E0CD
:1056D00020E031E048E066E081E00E94921D42E077
:1056E00062E080E00E947D1D42E066E082E00E9470
:1056F000481D42E068E086E00E94D01C1F910F9197
:10570000FF90EF90DF90CF900C94811CCF92DF92AE
:10571000EF92FF920F931F930E94981C882301F130
:10572000C12CD12CE12CFF24F3940CE010E020E8F4
:1057300030E043E060E081E00E94921D00E310E071
:1057400020E031E046E063E081E00E94921D0FE13D
:1057500010E020EC30E049E066E081E00E94921D1C
:1057600042E069E080E00E94481D1F910F91FF9088
:10577000EF90DF90CF900C94811CCF92DF92EF924C
:10578000FF920F931F930E94981C8823B9F0C12C9D
:10579000D12C80E6E82EF12C0CE010E020E830E07F
:1057A00044E060E080E00E94921D04E310E020EB02
:1057B00030E048E064E080E00E94921D43E068E051
:1057C00080E00E94481D1F910F91FF90EF90DF90A5
:1057D000CF900C94811C7F928F929F92AF92BF9238
:1057E000CF92DF92EF92FF920F931F93CF93DF93AD
:1057F000CDB7DEB72A970FB6F894DEBF0FBECDBF88
:10580000982E6091B4077091B5078091B60790917A
:10581000B7072AE0AE014F5F5F4F7A010E94243242
:10582000F70101900020E9F73197EE19FF097E2E6C
:1058300007E00E1BD12C002E000C110B8D2D90E0DB
:1058400080179107FCF4992071F051E0951218C06F
:1058500037E0D39EC001112420E04CED5BE168E20B
:1058600070E088960BC025E0D29EC001112420E094
:105870004FEC5BE060E070E0815A9F4F0E94BD2ECC
:10588000D394DCCF85E0809F6001819FD00C1124F0
:105890004FE5C40ED11C87E0809F5001819FB00C62
:1058A000112458E2A50EB11C812C072D770C110B89
:1058B000882D90E08017910724F5F701E80FF91F74
:1058C000208121331CF020532A3008F020E0992059
:1058D00051F081E0981213C04CED5BE168E270E09A
:1058E000C50137E006C04FEC5BE060E070E0C60148
:1058F00035E0839E800D911D11240E94BD2E83945E
:10590000D7CF2A960FB6F894DEBF0FBECDBFDF917A
:10591000CF911F910F91FF90EF90DF90CF90BF90AC
:10592000AF909F908F907F900895CF92DF92EF92EB
:10593000FF920F931F93CF93DF936C017A018B013A
:10594000C0E0D0E0CE15DF0589F0D8016D918D0162
:10595000D601ED91FC910190F081E02DC6010995F1
:10596000892B11F47E0102C02196ECCFC701DF9193
:10597000CF911F910F91FF90EF90DF90CF900895FE
:10598000A1EDB7E02FB7F8947D918D919C9166B50C
:105990002FBFA89B05C06F3F18F47F5F8F4F9F4FAD
:1059A00022E0660F771F881F991F2A95D1F7089567
:1059B0008091C607E091C407F091C507882349F09C
:1059C000CF0102969093C5078093C4078591949167
:1059D0000895CF0102969093C5078093C4078081F4
:1059E00091810895CF92DF92EF92FF920F931F93D0
:1059F000CF93DF930E94D82C811520E8920761F4A1
:105A0000809171008D7F8093710010929100469873
:105A100047981092C3078BC021E02093C3078130C1
:105A200020E8920751F48091C1079091C2079093AA
:105A3000C5078093C4070E94D82C97FD05C020910C
:105A4000C007222309F43FC02091BF0721113BC0AA
:105A500021E02093C707EC01DF77209769F481E00C
:105A60008093C80746983FE9C32E3FE0D32EE12C30
:105A7000F12CCAEFD0E014C08E0120E030E060E4E9
:105A800072E48FE090E0A90198010E947B326901E5
:105A90007A0181E0C81AD108E108F1081092C8071C
:105AA000E091B006F091B1060995811103C081E043
:105AB0008093C8078091C7078823B9F18091C807F0
:105AC000811133C003C01092C707C5CF46992DC0BE
:105AD000479A0E94D82C009771F09C01DE010E9429
