:100000000C94DD170C9405180C9405180C94051825
:100010000C9405180C9405180C9405180C940518EC
:100020000C9405180C9405180C945F190C94D119B4
:100030000C9405180C9405180C9405180C940518CC
:100040000C9405180C94341E0C9405180C94051887
:100050000C9405180C9405180C9405180C94641C49
:100060000C9405180C9405180C9405180C9405189C
:100070000C9405180C9405180C9405180C9405188C
:100080000C94461D0C9405180C9405180C94051836
:100090000C9405180C9405180C9405180C9405186C
:1000A0000C9405180C9405180C9405185A2AA52AC6
:1000B000A82AFE2BC52DDF2D213133313E314931A8
:1000C0006631713180319531953195319531953168
:1000D00095319531953195319531953195319531F0
:1000E00095319531953195319531322C932CF82CF1
:1000F000472DB72FB92FBD2FBF2F4330433043308B
:100100004330433043304330433043304330433057
:100110004330D02FDC2F433043304330F22F433075
:10012000FE2F1530D5F08D14A1C881CFD9F1AF20A5
:1001300000F0F89C8E8783878E9CF8F00000FEFF0D
:100140000303030303070EFCF80000FEFF03030391
:100150000303070EFCF80000FFFF00000000000092
:1001600000FFFF0000FEFF8383838383C7EE7C389C
:100170000000F8FC0E07030303070EFCF800003F25
:100180007FE0C08080C0E07F3FFFFF0101010101EF
:100190000101FFFF0000FFFF0C0C0C0C1C3E77E37D
:1001A000C100007FFFC0C0C0C0C0E0703F1F0000A2
:1001B0001F3F70E0C0C0C0E0703F1F00007FFFC164
:1001C000C1C1C1C1E3773E1C00001F3F70E0C0C049
:1001D000C0E0703F1F000000000001FFFF010000B1
:1001E0000054686520456E642E2E2E007FFF1FE3AD
:1001F000AFC85F870DD039E86AB26A6C903C61661F
:100200002D191DAC16694F0B5226C36D3971E727A6
:10021000F017E2DF51F7A999C68B72521B1D22D944
:1002200049460C8999E2D131FD1990B993C9F44638
:10023000DCCBC32593E3E0CE321CC7A1CA182A1F2A
:10024000701081E072644BB71036C303E6C687F8BE
:10025000B5FC4C7E251FC8BC20078D4D99C2EB957F
:100260009DA5A978E4DE75E499DFE3C26030C4C4DB
:10027000ACBE5B6631AAD0ED8779C823640EAB971C
:10028000C3B8A98BC1A5E8581E7B32AECCF52F8729
:100290006FCDACEDCD87479E8C5A2ED4CD628300B6
:1002A0001B303B02036A2960420C02220882544040
:1002B00022360333359A70E11D57BFC191A7391516
:1002C000571089AA1255550D44A3090697085A9C40
:1002D0006E196F5C5DF3B22EEBB22E216BE434D756
:1002E000BF028EE285C12684E5C83C04D6FE14DF39
:1002F000E0CAA3599C04E5CCF40981A2EA44BEC338
:100300007279EC6D5CD6659DC0C1F479C7E49A93AF
:10031000B1C3AE8143189C38502EC2D73D8EF16ACE
:100320008C1FC2EFE1CFC077CA8A1123041161503C
:100330008C6DA6F52039F935E0380EA5CB89635EC2
:10034000D630B2E6585D5EC6655DD6E1306E9DB4CE
:10035000830BA77C258BAE4881391D4FB8F672CA36
:1003600018EA655DD6659DF247E70FE1C97009D9C6
:1003700044D9739EF2802357E09373DE462B7018A6
:100380008C98850B9113F0794E1B7C961ED2A1514F
:10039000934210A0C1B288648F5B8FFC76FE71F12E
:1003A0009BB9420E1B8207CA2570036FC841100318
:1003B0004291180D3206141004406C94100417A2D8
:1003C00098A03A74A878E0015FE11F0C7FBF5FE25C
:1003D000EFC89FC0E338800047E40039EC79EAAD0C
:1003E000B7DE3A1C9DB4658E0D8BC9B61E08577ECC
:1003F0000A7F1BFE11E734E7296F89237E82638F12
:100400004E268BC97051A7731D9959E5CAF492D332
:100410006C5046D1875C85937F057E2F3F93DFC567
:10042000AFE3BB99BFC2CB21BF87018C71E89DAB05
:100430000375557F30AED1BDE6A91727FF28F99B7C
:10044000FC3272E07B5C3933D91CC73EE5CF85DFD7
:10045000E6EFC03FCBDF9BC361046B3C2C3C640ADE
:10046000534CEA81F2179CF3946BFE2DF06BF8333A
:10047000F0730EF9ABE414CC901EBD7AECADA77509
:100480005997394FBDF5965F93C3BF4AFE86E37017
:1004900018477E27C7B12FE3C78FF58AE3381CC6FC
:1004A0001F987F60FC52AE39CDBDE7659D7AEBADFC
:1004B000B746EAE728773693E10E39E5CA87F95758
:1004C000033F9F1338C198C3416EFCBBE2EAD52BB2
:1004D0001F86C1605CFC57B4668851432C695497F1
:1004E0006A6CEC684F9AD5B516FF2A72EB6D5C42C8
:1004F000665AC71E473E935368D6189BE3EAECF84A
:10050000DBB2D8263BE4942BBAF7A13FC5E4B02E6A
:10051000C18B7AEAD1E7FFBF00000010000000069F
:1005200000003000009800001C187CE3FEB13F255D
:100530000003000000000000008030F91C6170041E
:100540000020000000000000000000000004000087
:10055000000830F943677CE7FE090E049800004C60
:1005600000006000000001000020C001801300476F
:100570003ECBBBFBF79C7F4000000000000000006A
:10058000000000000006003000000080100204801F
:100590000300300000800100000C0000000000009B
:1005A00000000000000060020007FE84EEAFDE9F46
:1005B000F359E004C00900000080000000100000B2
:1005C00000000006000007008E3C63DFBFDFF1473C
:1005D00004E00000C0040060000000100000000003
:1005E0006002F09CC70418C004004EC09F91D36FF6
:1005F000B89F79069C00800900000400000000807C
:1006000000000010063018009C00800900C00400A3
:100610000002C000008EDCEFCF72324E3F340E7B02
:100620009E7ACBD5AB57AF5EFDE7C1D5AB57AF1EBA
:100630007B1B873D4F7EC2E1413C72BF3F030E00F2
:100640000040001800004C00000E009C0018000044
:10065000000000000000000004008003F0D98ED9E3
:1006600041F6DED66DDDD66DDDD66DDDD66DDDD61F
:100670006DDDD66DDDD66DDDD66DDDD66DDDD612C8
:100680006BA2D56AB55A4DACA1D66DDDD66DDDD65F
:100690006DDDD66DDDD66DDDD66DDDD66DDDD66D4D
:1006A000DDD66DDDD6ADDD25F3466E7C14009800F9
:1006B000000000000000000000C004E0C833E004B7
:1006C000004C80000486978B7F078EE390646486DD
:1006D0005CC66DECE6F4DD3DB2C7D1AF7B1CBBDD83
:1006E000FF84D65AC0041800001C0038F20C3801F0
:1006F00001000006000010000000000008000010CB
:10070000066BE7BB1C7B0A1E6C96AE756A57C86504
:100710007C85E338241999F3E4F7EE0E72CA95EF5D
:1007200071CD2934F77F4FDC7607003000000000E0
:1007300000000000000600000300000000000000B0
:1007400000600230D67AE529642623DDE3B6575FE0
:100750000E7AE8B78DD30E633B6EFECAB51D8E6868
:100760008C69D4346A6A628CC391B9FEF57929C365
:10077000020010000000000000FFFFFF2DB36EEB31
:100780008ED6AA699CBE7902C0000000000000005D
:1007900000EE7FA6DCC645B3AD5BC119D425C565A7
:1007A000C185958595A18915225654ACA8585155F7
:1007B0004944C58A8E0EC7A871B8A8B270C03AC4A1
:1007C0006CEB74C55EFCFB70F587B8ADDBBAAD3180
:1007D000D6186B78F7000000000000000000000051
:1007E00000B8FF5D962FDE1FD99DA75C9D635DD687
:1007F0003046162CB4EBD65B6F3D7AF5EA51B80162
:100800003ADA0E9F7C6F7FD28184504A99869B7220
:1008100060392C15439D92A2BFC65BA3A626463322
:10082000540DBAD4E9E1050000010000000000EE1B
:100830007F9777EFDF7DF2235CF93B7EE774EAADCB
:10084000B79E769294C1E222EC4C5540004454404D
:100850000346647CC133578FBD756A50896A1A8D0F
:100860008935D43A332EAB8C19BAFB77F034F38048
:10087000D39EC3F5EC83D36B4E73D7ACD2C3BACC43
:10088000BDF7615DD6A9B70E9783ED2B8F3D99A477
:10089000877559977519B71E73038F8E5173189BFF
:1008A00024D66D2AA95DB5AB76D5AE9A1D53121A22
:1008B000B36376CC8ED9313B66C7EC981DB36376B3
:1008C000CCAC5D4D569A9566A5596972E725336D96
:1008D00007EBE5CACFE4281E0091A108400C028274
:1008E0004520060009200A21643EE19A3537EFB819
:1008F0007AF59A5B6FBDF5B42E6B3CB87AF5EAD504
:10090000636F3DADCBBAACCBB8F5D65B6FBDF5B47C
:100910002EEBA25ED48B7A88D9313B66C76CEBB6DE
:100920006E6B49A75727CBE5E848DBDE9E0AEBD480
:10093000F5E2E8B1B79E8217CDB64E97CBC9705B92
:10094000771C7E66747BD97B5ED6655DC6ADB7DEEF
:100950007A740E0FEDBFDD7959977559A7DE84C7FC
:10096000B9F5D65BFBFD5FFCD93FCCFDDF2F416EB7
:1009700064206E6F772E2E2E0A596F752077696C62
:100980006C2066696E616C6C79207365650A7768A6
:1009900079204369726375697420447564652068C1
:1009A00061730A6265656E206275696C64696E6761
:1009B0002074686573650A636F6D70757465722065
:1009C00063686970732E2E2E000000C07C043034E2
:1009D0008C58C00000000000020300000302000069
:1009E000000040D6020018108A4614C00000000023
:1009F00002030000030200000004EA110A822181C0
:100A00001201818A74000001030301020303000044
:100A100000C50014010280001001008015010006CD
:100A2000070200000006060001309FE14D4DE19FE6
:100A30003000001E32321E0000FF0000000080FF68
:100A40000800FF8000000000FFFF80A0808F9FBF94
:100A5000B0B0BF9F8F80A080FFFF0000000000FFAC
:100A60008800FF0000000000FFFF0105010101F107
:100A70008909F10101010501FFFF81FF9189898940
:100A8000919191918991FF81FFFF81FF91A1A191A6
:100A9000918985858991FF81FFFF81FF89858991F2
:100AA000A1C1A1919191FF81FFFF81FF8985858976
:100AB0009191A1C1C1A1FF81FFFF80A080808080B2
:100AC000808080808080A080FFEEFEEEE407809F23
:100AD00090BBFABA8282BABEB8F79F97F701F79730
:100AE0009797F707F7979F97F7010101010001001A
:100AF00001000100010001000100000000000000F1
:100B0000000000000000000000FE02AA82AA02E22B
:100B10003624342436E202F29E0F98FB0AFB980931
:100B20000B090B99FB09F8980FFF81FF81818181E7
:100B3000818181818181FF81FF6572617365642E8E
:100B40002E2E00416C6C20736176656420646174A4
:100B500061207761730A0020202020202020436F2D
:100B60006D706C6574650A0A0020202020526F7435
:100B70006174696F6E20627574746F6E002020203E
:100B800020526F746174696E6720636F726E657254
:100B9000730020202020526F746174696E67207486
:100BA000756E6E656C002020202020496E73747273
:100BB000756374696F6E7300202020207261697301
:100BC000652F6C6F7765722077616C6C73002020E5
:100BD000202053746570206F6E20627574746F6E80
:100BE00020746F002020202020496E73747275637A
:100BF00074696F6E73002020202062656C7473002E
:100C00002020202052696465206F6E20636F6E760D
:100C100065796F720020202020496E736572742000
:100C20004350552773002020202020496E73747292
:100C3000756374696F6E7300007E7E66667E7E00EB
:100C400000FEFE0606E6E66666E6E60606FEFE0030
:100C5000007F7F606067676666676760607F7F00B0
:100C6000666666666666666600FFFF0000FFFF0058
:100C700000FEFE0606FEFE00007F7F60607F7F00B4
:100C8000007E7E666666666666666666667E7E0070
:100C9000DA7F616161617FDA007ED15141C17E00FE
:100CA000007EDF5F7FFF7E00E7BDFF7E7EFFBDE74A
:100CB000FFABD5ABD5ABD5FF0000000000000000B6
:100CC0000000000000000000000000000000000024
:100CD000FF000000100000FF8181819181818181EE
:100CE000FFE7B39999B3E7FFFFE7CD9999CDE7FF08
:100CF000FFE7C399BDE7C3FFFFC3E7BD99C3E7FFA4
:100D0000FFB3998D8D99B3FFFFCD99B1B199CDFF07
:100D1000FFC399BDE7C381FFFF81C3E7BD99C3FF4F
:100D2000FF99CDE7E7CD99FFFF99B3E7E7B399FFC7
:100D3000FF99BDE7C399BDFFFFBD99C3E7BD99FF0B
:100D4000FFCDE7B3B3E7CDFFFFB3E7CDCDE7B3FF0B
:100D5000FFBDE7C399BDE7FFFFE7BD99C3E7BDFF4F
:100D60000054540000545400C3810000000081C3AB
:100D7000006642000042660000003C24243C000063
:100D800000000018180000000042000000004200AF
:100D900055800180018001AA002A401A580254009F
:100DA000004AE00240075200F8040201110101016B
:100DB00001010111010204F8808080888040201F19
:100DC0001F204080888080802020202050726F6308
:100DD00065656420746F2065786974002020202088
:100DE000496E7365727420636869707300202020F7
:100DF0002046696E6420616C6C20736F636B657450
:100E000073002020202020496E737472756374690A
:100E10006F6E73002041202B20423A204C6576658E
:100E20006C2053656C65637400486F6C6420413AB4
:100E30002052657374617274204C6576656C002075
:100E4000442D5061643A204D6F76652041726F7574
:100E50006E640020202020202020436F6E74726F6B
:100E60006C730000040C1C3C1C0C04000C1E3E7E29
:100E7000FE7E3E1E0C002030383C3830200030789A
:100E80007C7E7F7E7C783000F80C06E3F1F9F90077
:100E90001F3060C78F9F9F0000F0F81C0E060600F1
:100EA000000F1F3870606063726169742E6E657424
:100EB0000040637261697400486F6C6D6573004A2D
:100EC0006F6E617468616E002F6F10304001048096
:100ED00002080008000810A1C0A0A8345060389D86
:100EE0002E561621C21016C3CD62019BC166B1D920
:100EF0001C880903210800421088000BC050824062
:100F000010880020000250200E161C1E309C9C9958
:100F1000196DDBB6592E974B48908AC9185916227D
:100F2000A42C4851A90040430C0540024800015838
:100F3000A08804842043580020000800028000207C
:100F400087CFD4C9BB8462C5C864B2488F6E86900F
:100F5000C844429A2D4B00880006842010010A8064
:100F6000008000800014C0001240824084200002F3
:100F70000B00363634AADC13196C1E3B80010C269C
:100F80003B8B27438404299BD360E89E1B8200206F
:100F9000048120B011080211A00008009408A100EB
:100FA00042C00008200130C2000181DA26828A9006
:100FB00088424D330C128712450114108188136941
:100FC00086923621C2581300000124002C170130EC
:100FD00000020002412048045262A89BCD080D1F68
:100FE0005A301940092200058703696002458300D1
:100FF0008A0206090098C064AEC9E47D0722101772
:101000003375710F06011501260137014A015D0193
:10101000720188019F01B801D201EE010B022A0280
:101020004B026E029302BA02E40210033F03700304
:10103000A403DC03170455049704DD042705750594
:10104000C80520067D06E0064907B8072D08A9084F
:101050002D09B9094D0AEA0A900B400CFA0CC00D93
:10106000910E6F0F5A1053115B1272139A14D4150C
:1010700020178018F519801B231DDE1EB420A62220
:10108000B524E4263429A72B402E0031EA3300375B
:10109000453ABC3D68414C456B49C84D68524F5775
:1010A000805C006210111213151617181A1C1D1FF0
:1010B00021232527292C2E3134373A3E4145494EEC
:1010C00052575C62686E757B838B939CA5AFB9C4E5
:1010D000D0DCE9F7080B000202020100090400005D
:1010E0000102020000052400100105240101010491
:1010F00024020605240600010705810310004009AB
:10110000040100020A000000070502024000000777
:101110000583024000000403090412010002EF02EB
:1011200001404123368000010102030141726475D0
:10113000696E6F204C4C430041726475626F790098
:10114000AAFF0101FF00FF01D5C1D501FD0505FD85
:1011500001FF54005454540054FF01850100AAAA11
:10116000FF010501010101010101010501FF0AEA79
:10117000BAE2020E087E2262227E007E2262227E77
:10118000007E627E007E627EAAFFC0C0FFFF80BA42
:10119000A8BA809EB392B392B39E80003B3A3A12B3
:1011A0001E027E42EEEAEA0A0AEAFAE340EFE8F8B3
:1011B000E8EF007E7959797E4C6576656C200048B1
:1011C000656C700043726564697473004F666600F5
:1011D0004F6E00536F756E643A20004F6666004F85
:1011E0006E004D6972726F723A00457261736520CC
:1011F00044617461009FCF8A3A2A428620B8A4D401
:10120000D8831497149744571063448CD9313B8E7C
:1012100010B59A46408BB41EAE5E8DA9A4F10F2284
:10122000DDC5479FCF8A0A1141802080002A506087
:1012300020C525C525C525D115C418116376CC8ECA
:1012400099C4520CCAC0E8B85F3D7A056EC09F0DC4
:101250009FCF8A0A49101345B45A670A538A4B8AAA
:101260004BA22B883122C6EC981D3B0852C444097E
:101270002A32068733574B12630D7F0CE2C5F00804
:10128000FFBFFF444F5DB56EEB76F809B55AFD4ED2
:101290006F39F6D6D71C7BEBADDFEECDD7BDF9525B
:1012A000AB55DF7B9BEB72E8BFEA8757AF1E7DFF34
:1012B000EEFDBBE9D52BEFDE4DAF190E3EF4F0EAA3
:1012C0007CF7EEDDF7DE4D7FBD57AFB9F5362EEB7F
:1012D000B22EEBB22EEBB22EEBB0F7DE7BEFBDE71A
:1012E000655DD665961CD453878BE9D52B4BBC50D6
:1012F0002EC45A40CA10E0044CAE3EEAADB7DEBA86
:10130000584CAF5EF9BC57AF5E7DC664B9FC3C5724
:10131000AFFC8843664A4E5DA9392823053363FA3A
:10132000F7FF4CC77C975531E594C1A263B15923AF
:1013300074BF7FF7EEDDFBD5DBCBD5DBCB316E7534
:101340005BFBEE13A76EAD567B1BE3BBEFDEBFFB73
:10135000D4BF804FED63E1423CA1B343402DE96D22
:1013600004E6E6FD5897E57299B1F6870E6BC4E581
:10137000725DD6787B58232E97EBB2C6FBCECB722C
:10138000B95CAED46F378F4EBE78D47EEF731E7BC0
:10139000E4B9578FBDF5B42EEBB0F79E977C458E20
:1013A0001D8EB66DDB0ED6B8CC79E3DFC98A17F592
:1013B000A273A817F502C22DB7DE7A9345C7E43DA4
:1013C000A775B8BDFB6A6F79EFC1E17003201B01FF
:1013D000D814D814D880C842022CB3CA8987AB3637
:1013E000AAAEA473EFBDF7DE253B74D6AEDA55BBCB
:1013F000D2AC342BE928D80E30CD6803609A9566BC
:10140000D5EC981DB3636615064A44B3E258973588
:1014100057523783B1CA852C258EC5622C83198318
:10142000AC061933774FEBB077CC2C635D32735A2F
:1014300001B35CAECB4FE29A1B5A4B891042D400E9
:10144000A5EE30D6293AEAD92BBF8F23717220FC42
:1014500006E54038128E1C095FE3A4C0320608F589
:1014600023C8897260B1992C0E94C115B8112E94BD
:10147000038BC9661A160105050505050505050551
:10148000050505020632323232323232323232321F
:1014900032060632333232253225320C32323206EF
:1014A00006323232323232323232323232060632A0
:1014B0003232323232323232323232060632263270
:1014C00032253225320C3232320606323232323294
:1014D0003232323232323206030505050505050582
:1014E000050505050504010505050505050232018B
:1014F00005050502063332323232320632060C322C
:101500000C060632322525323206320632323206D7
:1015100006323225253232030504322632060632DF
:101520003225253232252525323232060632322541
:101530002532322525253232320606323232323217
:101540003225252532323206030505050505050538
:101550000505050505040105050505050505050540
:101560000505050206253232323232323232253258
:101570002506063201050505050A3209050A320667
:101580000632080C0C32323232320C0C3206063281
:101590002525253233322632010A32060632003240
:1015A00009050A320905040C3206062532323225B5
:1015B00025252532322525060305050505050505E2
:1015C0000502322525060105050505050505050564
:1015D00005050502063232322532253225323232F5
:1015E0000C060632323201050505023232010504CD
:1015F00006323332063232320632320632320632A6
:101600003232083232320832320632320632263272
:1016100017171717173232063232063232320732B4
:1016200032320732320632320305050504323232D5
:10163000030505040C0C25252503050425063206A3
:101640000C260C06252532171717320632063232C1
:10165000320625252501050215063203021501046F
:101660000502160632061506323206150632320615
:101670001606320615063201041503020504160388
:101680000504320305040C320C06252532181818FF
:101690003318181832323206252532010502250189
:1016A0000502252525062525252506322532063263
:1016B00032323232252525250632253206322525BD
:1016C0002532050A323208322532063225252532E6
:1016D000323232322A322532063225252532050AA7
:1016E0002A09023225320832323232323232323272
:1016F000063225322A323232323232332632030572
:101700000505050A2A0905023232323217322A3219
:101710001732323232060C2A0C0105050505050286
:101720000C2A2A0C32323206183225323206323274
:1017300032320A2A09043200320032030A2A09022C
:101740003232323225322A32322A323232060A2AF2
:1017500009023200320032010A2A0904323232060A
:10176000153225321706323232323226320305055F
:1017700005050504323332323232323232322A3205
:1017800032323232323201050505050505050505FF
:101790000505050206252525321732322525252582
:1017A0003206062525252A00323225252525320335
:1017B000082509023218150905050A3232331617B1
:1017C00017083207010505050A3232261625252598
:1017D0002A08083225252525320116252525321708
:1017E0003232252525253206181818181509050541
:1017F0000505050505042525253232322525250652
:1018000032323232250C25323232250C2506322571
:10181000253225252532323225252506323232322F
:101820000216090A15090A16090432323232043244
:101830002525332525323218323226323218322508
:101840001625321732073232323232320F25322524
:101850000F323206322525320C3217251525183263
:101860000C06323232320C0C06323232322B260661
:1018700025252506050504323232322B090425259B
:10188000250632322C321818162B2B2C3232320607
:10189000323209050A32163209020F0F0F062525CA
:1018A0002507252516252506323232062525250849
:1018B00025252C252506323332063232322B2525BA
:1018C00025252506323232063232320725252C25CF
:1018D0002506322C32060C323232182C322B252CB3
:1018E0000F0F2C25323226320725250725250F0F0D
:1018F00025250C32323208252506252525252525C6
:1019000032322C320F0F25030A1609020F0F323321
:10191000323207252525252C250625250C322B2B93
:101920000825252525252508320732322B321717A1
:1019300017171717171732060C322B2B0905050539
:10194000050505050504010502320C3207260105CF
:1019500005050502060B03050505043208252525A6
:10196000250606320C2518181832181832322506AA
:1019700006320C252525253200252525250606328B
:10198000010A2518181517173232250606320625C2
:1019900025253315002525252506060B0625252595
:1019A0001815171732322506030A03050505050524
:1019B0000A25252525080C0C0C0632323206322564
:1019C0003225320C3233320632263206323232328D
:1019D000323232323206323232030A1309050A1623
:1019E0000A130904323232323213323232323213B3
:1019F0003232323232323213323232320A13090583
:101A0000050505050A1309050A153232323232324C
:101A100032323232323232323225322532253225DA
:101A200032253225320C252525252525322525254B
:101A300025253226181818181818321818161717CE
:101A4000171715090215090A13090A1609050A15B7
:101A5000322D0825323232323232143232323232C0
:101A600014323232333232250732323216090A1535
:101A7000090A13090A1603050A1618181815171764
:101A80003217171717171717252532171717321878
:101A90001818322525250C0C060C0C0C060C060C0F
:101AA0000C09050232320632323208320632322551
:101AB0002506323206311414143206323225250638
:101AC00032260632303207320632322525063232CD
:101AD00006313001043208303232320632320631F9
:101AE0003006322E3232010A2508323208323203F1
:101AF000023232320632323232323232320C060C9A
:101B00000C0C06323332073233070C0C0C09050576
:101B10000505050206312F063226323232323232C4
:101B20003206063130030505050502252507250681
:101B300006253225252525250625250825060632D4
:101B400032251825322F06253217170606312F3277
:101B500009050505042525002506063130323232F7
:101B600032323232323232060305050505050505EB
:101B700005050505050407322525252533252525D9
:101B80002525320706320016090A32090A16090A03
:101B9000320606322516252532252516252532063C
:101BA00008320016090A32090A16090A32082E32CA
:101BB00025162525322525162525322F1315001625
:101BC000090A26090A16090A1513131517171717F4
:101BD0003218181818181513311414141414321458
:101BE000141414141430060C330C0625250625088D
:101BF00032080C0C030A3209042E14063213322B5D
:101C0000323232323225253232062C073207323256
:101C100032323225253232080F0832062525322F7E
:101C200032252532322C320F320625250A130905BA
:101C3000050505020F3232062525323232323232A4
:101C40002D06251332063232252525252525250684
:101C50002525090426323232322606323232323219
:101C6000323332320A1409050432320105023232AB
:101C7000323032133232323232060C0632090A3234
:101C80000A140015073232063206252525152525AA
:101C90002525082532063206252518152525252552
:101CA000172532060C062525252D25252525072552
:101CB0003203050425252515252525250632323232
:101CC000323225251815323232060C0C06333232E8
:101CD00032252525320C32060C0C0632320732250D
:101CE0000025323232060C0C06323208322F3225F1
:101CF000320B320305050432252532130902323234
:101D0000320725252525252525132A06320B3206DF
:101D1000252525252525253025063232320625257F
:101D20000025250105050504320B3206322525253F
:101D300026063232323201050505050232252525F7
:101D400006252525062D252532083225252506259B
:101D50002C250632010232133225253206252507AD
:101D6000063206063209050A16150825250604322C
:101D7000030432143232323214323206323218183C
:101D80003201050A1409050A0F0633320905050454
:101D90003232323232323206263225252525320CB5
:101DA0000C0C0C32320601050A16171717171717F5
:101DB00017171702063317320905022500250025DB
:101DC0002506063218321832063218321832320618
:101DD000062507250725082507250025320606269E
:101DE000062506251832063217171606062508326C
:101DF0000825072506250725320606321732183230
:101E0000083206320832320603050A15171717176B
:101E10000818181509042532323225252C252532BB
:101E20003232322516090A15090A16090A1509055A
:101E30000A163232323225253225253232323232FA
:101E40002B090A0F010A2509020F09050A2B25256E
:101E50002525082525250825252525252C25252C5E
:101E600017252525182C2525252C2B090A0F00259B
:101E70002525002B09050A0F323232323232263242
:101E800032323233323225252525183207252525D1
:101E9000322525252C25252C072B0825090A152553
:101EA0000C2515090A15063325181818322525257D
:101EB0003225253206320105050A16090A161509CA
:101EC0000A150832082525323225253225252525F3
:101ED000323132252525322525253232323200167F
:101EE0000905050A320025250C260C32171717178D
:101EF00017171717253225162532173232322525A6
:101F000032252532253225251414142F010A1509EE
:101F10000A32050A13090A320725063232323232F2
:101F200026321332323206250625322E3232050A87
:101F300013090232062506250732073225252525F5
:101F400006320625082508320832253217250832C0
:101F50000832333217321832252525251832173228
:101F60003232002D0032010505050505040C323220
:101F70003232323206323232323232323031303074
:101F800030320632322E2E2E3232301414142F32CA
:101F900006322F1325132F323125252530320632F4
:101FA0002F1325132F323014141431320632322EEF
:101FB0002E2E32322E303130303206323232323240
:101FC0003232323232323232030505050505020C57
:101FD000322D332632323232322532320F2632322D
:101FE00032253232320715090505050505050505B7
:101FF0000232250625252525252525252D250625DD
:1020000014062C25252525332525252C06323206B8
:10201000252525252C2525252525061425062D25B0
:10202000252525252D25252506253203050505050C
:10203000050505050A1608323232253232322B32B6
:102040003232253232322518252532322F262E32D1
:10205000253217252509050A2B00320732010225F2
:102060000725321732323225250832060832062576
:1020700025070F090225253232062C3206252508B0
:1020800032250305050A32080F09042532183225C6
:102090003225323232253232173225001509050A2F
:1020A0001609050505050A3225253232323232334A
:1020B00032323232323232323218331414141414AF
:1020C0003225252D252525002B090505050A322554
:1020D00025252C32321732172525320F3232323273
:1020E000252525003207160716090A1300150505D0
:1020F0000502150816081818323232320C3232082E
:10210000153232322F2E3225252526323217172549
:1021100025253130322525250C3232090A25252581
:102120001818322525253232320F32263233323218
:1021300009050502252525070105050A3214141491
:1021400025062C2D2508062532323231141432068C
:10215000252525320305050A160905022B0632013D
:10216000023217172C17170C0C06320632060632ED
:102170000105050A15090504320632030415082570
:1021800025252532183225063232323232320905FF
:102190000505050505042518252532322F262E3282
:1021A000253217252509050A2B00320732010225A1
:1021B0000725321732323225250832060832062525
:1021C00025070F090225253232062C32062525085F
:1021D00032250305050A32080F0904253218322575
:1021E0003225323232253232173225001509050ADE
:1021F0001609050505050A322525323232323233F9
:102200003232323232322C252B2B2B0F0F3232143A
:10221000141432250F090A252525072532182C18F4
:1022200032070F2525323232030A0F09050A130837
:102230002B252532323225250F32263213252B2528
:102240002532333225250F32323213252B09023243
:102250003232010A0F09050A130732250825252500
:1022600008253214141432082C320F0F0F2B2B3286
:1022700032172D1732250C260C030505050505051B
:102280000505050232333232323232320F322B320E
:1022900025063232323215071500002A073225068C
:1022A000071601022C063218182C063225060616CF
:1022B000030415062507072A0625250606322525C7
:1022C000320813080832082525060625252532324E
:1022D00014320F322B3232060305050A3114321440
:1022E00014141414300325321313141332323232FF
:1022F00032323232252D07323232320105050215D3
:102300002525050A06323233090425250815252519
:10231000252503050A3232252525251525252525C0
:1023200025253232072525142515252525252F2578
:1023300007320625002525152525252525250832C2
:102340000825252525152D2525252525323232144C
:10235000141414260C0C181818181826090505054D
:10236000020C0C0C1501050225252525010206325B
:1023700033321503050425252D2503040832323296
:102380001500252513252513252500323232153257
:10239000252D250102252D2532323232150725251E
:1023A0002503042525250725252515062D25142576
:1023B0002514252506252D251503050A251818257C
:1023C00009050425252532323218322525321832E6
:1023D000252525321301050216090A1501050505F3
:1023E000021313060E0632252525060E0E0E0613C1
:1023F00013060E0825252525080E0E0E06131303B9
:1024000005050A2509050505050504133232323292
:10241000323232323232323232321409050A323238
:102420003232090505050A142D253232323326329F
:1024300032323232252D0C0C260C0C0616002514D7
:1024400025250032253232322506161725252D2561
:102450001732050A3209050E1607252525250032F3
:10246000252525252506160625252525173225256A
:10247000252525061606252F252507322525252560
:1024800025061608252513250832050A32090504F4
:1024900016172525252D173218183217171717006C
:1024A00025252525003325252525252B160825013D
:1024B00005022525250F250025071632320632068E
:1024C0002C2525323132250816072503050425253C
:1024D000250025322F3216062525252525252514EC
:1024E00025002507160825000F002525251425148D
:1024F00025061632322B252B25252509050A250808
:10250000160025000F0025253232323232332632B2
:102510003232323232320105050505050505050561
:102520000505020C0632252532323233323225259A
:10253000063206160105050A323209050225063261
:10254000061603050A2E30302F09043208320632EF
:102550003232322F302F3132323232260615010517
:10256000022F2E2F3009023207320615082D0831AE
:102570002F2F3009042506320632323232323232FF
:1025800032322525060C32333232323225252C2CBC
:102590002C0105023232323232322A00160015087E
:1025A0002D060F0F010A1300183232323232320672
:1025B0002525063132322A32323232323206252590
:1025C000062B0105050A1507252525062B2B0832A4
:1025D0000625323231082525250632323232062DC3
:1025E000090A3217252525063232263206253232CF
:1025F0003209050505042518322532010505022694
:102600000105050A32090A160F083233063208326C
:1026100032322D2C2532323232320632322F07320C
:10262000181532323232323206322E320632071565
:102630000905050A2F3203023232063206153232FC
:102640002E32320105042B090432061532251430CE
:10265000090425253225253206153225313232323C
:10266000252532252532252532250F321725322CF6
:102670003226323225253225072507253209050560
:10268000021525253225062506252518322506158D
:102690002525322506250625250725250615161389
:1026A00009050425030A25030A16081532323232B9
:1026B0003232323232322B3232320A1309050A25D3
:1026C000090505050A150905333225250F3218328B
:1026D0002525323232252525251832173218322584
:1026E000252B25252525252B3207250732252507CE
:1026F0002525252C250732082508162525082525FA
:10270000252525063218321732252C250F32160FB3
:10271000090415010502252525250725252525322E
:102720003208260832010A0F0825252525253214EE
:102730003214320825252525252525323207330771
:10274000322B3225252C0C0C0632182D0F18323264
:10275000323232320C0C06320905050A32071625D0
:10276000070F0505043217171717320832250625FB
:10277000322532320105050A25143225062D1601AF
:102780000A13062C252F25090505042525083232B4
:102790000625253125182D172525160F323203055C
:1027A000050A2500160725252C0F322632172C176F
:1027B00032143303050A3225252C322A32311414FF
:1027C0002C252525322525252507323207322D25B2
:1027D00025322A09050505042A09041615090A32B5
:1027E00032323232322A33262A32323232322B0914
:1027F0000A1509022A01050A13090A1332250F2BAB
:10280000320632062C172E322E322D250F25320895
:10281000320816252525251425250F2532173214B3
:1028200032252532142525251432060606250606EE
:102830003231252C252D2E32080808330808323075
:10284000252D252513323232253225323214252505
:102850000F0F32320716002500160F320000252513
:102860003032062525252525073225252D252F3211
:10287000030230252E010425252D25252F3207039F
:102880000226010407252525050232320607060720
:1028900006070632171732171717171732171717A9
:1028A0003232323232002C262D0025000000001575
:1028B000002B320032333200323225003232002512
:1028C0003218183218183232250032320025320000
:1028D0000013000000000000323200323132323288
:1028E00032321832323232320F32320000000025DA
:1028F000000000000025002531320F252525252563
:102900000F32323232322C2D32132F3232323232F7
:10291000322525252509050A32322F300732322586
:102920002C14002F133032072E30083207252525AE
:1029300025322F303206322F323203050A160714A1
:10294000142E32062E1307321717172D082E1313C5
:102950003206142F06320F25250F2509050A3206E7
:10296000323006320905050A322D130F32062E25A4
:10297000063232323326323232171717171717172B
:1029800017171706322D322F2E2E2E142E14312EFD
:1029900015063233322E2F31132E302E312F1506DD
:1029A000323232302F1432322F2D321415060505F3
:1029B000050505050505050A2F1415063232320CEA
:1029C0002E2F2E14141414301506263232253131D0
:1029D000302F1818181815063232320C31313030B9
:1029E00001050505050432323232323232323232DA
:1029F000323232320A130905050505050A13090AA0
:102A00002525323232183217322525321725252551
:102A1000252D250725072525252500252D252525B7
:102A200025061606252525251832252525132506D4
:102A30001606252E1425010A25070A130904160374
:102A40000A1313090432320626323232323233325A
:102A500032323232090401020408102040800000A2
:102A60000000003E5B4F5B3E3E6B4F6B3E1C3E7C6E
:102A70003E1C183C7E3C181C577D571C1C5E7F5E1C
:102A80001C00183C1800FFE7C3E7FF0018241800DB
:102A9000FFE7DBE7FF30483A060E26297929264072
:102AA0007F050507407F05253F5A3CE73C5A7F3E9E
:102AB0001C1C08081C1C3E7F14227F22145F5F0030
:102AC0005F5F06097F017F006689956A60606060CC
:102AD0006094A2FFA29408047E040810207E2010B7
:102AE00008082A1C08081C2A08081E101010100CC0
:102AF0001E0C1E0C30383E3830060E3E0E0600000E
:102B000000000000005F00000007000700147F14B1
:102B10007F14242A7F2A1223130864623649562020
:102B2000500008070300001C2241000041221C0045
:102B30002A1C7F1C2A08083E080800807030000804
:102B400008080808000060600020100804023E51D8
:102B500049453E00427F400072494949462141496A
:102B60004D331814127F1027454545393C4A4949D1
:102B70003141211109073649494936464949291E3B
:102B8000000014000000403400000008142241142A
:102B900014141414004122140802015909063E417C
:102BA0005D594E7C1211127C7F494949363E4141A4
:102BB00041227F4141413E7F494949417F090909FD
:102BC000013E414151737F0808087F00417F410069
:102BD0002040413F017F081422417F404040407F18
:102BE000021C027F7F0408107F3E4141413E7F0965
:102BF0000909063E4151215E7F09192946264949A6
:102C0000493203017F01033F4040403F1F204020E5
:102C10001F3F4038403F63140814630304780403E3
:102C20006159494D43007F41414102040810200091
:102C30004141417F04020102044040404040000302
:102C400007080020545478407F28444438384444CE
:102C50004428384444287F385454541800087E09C6
:102C60000218A4A49C787F0804047800447D4000E6
:102C70002040403D007F1028440000417F40007C00
:102C8000047804787C080404783844444438FC18F8
:102C900024241818242418FC7C08040408485454DC
:102CA000542404043F44243C4040207C1C20402009
:102CB0001C3C4030403C44281028444C9090907C70
:102CC0004464544C44000836410000007700000082
:102CD0004136080002010204023C2623263C1EA1C4
:102CE000A161123A4040207A385454555921555523
:102CF00079412154547841215554784020545579D4
:102D0000400C1E5272123955555559395454545964
:102D100039555454580000457C410002457D42001D
:102D200001457C40F0292429F0F0282528F07C5426
:102D30005545002054547C547C0A097F4932494946
:102D400049323248484832324A4848303A414121B3
:102D50007A3A42402078009DA0A07D39444444390D
:102D60003D4040403D3C24FF2424487E4943662B9F
:102D70002FFC2F2BFF0929F620C0887E0903205441
:102D80005479410000447D413048484A323840403F
:102D9000227A007A0A0A727D0D19317D2629292F9F
:102DA00028262929292630484D40203808080808B7
:102DB00008080808382F10C8ACBA2F102834FA00B9
:102DC000007B000008142A142222142A14089500FB
:102DD000220095AA005500AAAA55AA55AA000000EB
:102DE000FF00101010FF00141414FF001010FF005B
:102DF000FF1010F010F0141414FC001414F700FF6E
:102E00000000FF00FF1414F404FC141417101F102A
:102E1000101F101F1414141F00101010F0000000D9
:102E2000001F101010101F10101010F010000000E4
:102E3000FF101010101010101010FF10000000FFF5
:102E4000140000FF00FF00001F10170000FC04F436
:102E500014141710171414F404F40000FF00F714EE
:102E6000141414141414F700F71414141714101075
:102E70001F101F141414F4141010F010F000001F91
:102E8000101F0000001F14000000FC140000F010D0
:102E9000F01010FF10FF141414FF141010101F0076
:102EA000000000F010FFFFFFFFFFF0F0F0F0F0FF78
:102EB000FFFF0000000000FFFF0F0F0F0F0F38444F
:102EC0004438447C2A2A3E147E02020606027E0210
:102ED0007E0263554941633844443C04407E201ED1
:102EE0002006027E020299A5E7A5991C2A492A1C00
:102EF0004C7201724C304A4D4D303048784830BCED
:102F0000625A463D3E494949007E0101017E2A2A16
:102F10002A2A2A44445F444440514A444040444A97
:102F200051400000FF0103E080FF000008086B6BC8
:102F3000083612362436060F090F0600001818004E
:102F400000001010003040FF0101001F01011E00B1
:102F5000191D1712003C3C3C3C0000000000000022
:102F60000000240027002A002D003000000000008F
:102F7000250028002B002E0031000408020110401B
:102F800080401020408040800802040180402010D2
:102F900002011080102040402004040404040304B3
:102FA00005020202020403020202020606060606E7
:102FB0000604040202020404703311241FBECFEF82
:102FC000DAE0DEBFCDBF11E0A0E0B1E0E0E6F9E677
:102FD00002C005900D92A83BB107D9F726E0A8EBF7
:102FE000B1E001C01D92A337B207E1F717E1CDEDC3
:102FF000D7E104C02197FE010E949434CC3DD10753
:10300000C9F70E9431280C94AE340C940000409112
:10301000F2015091F3012091F0013091F10142173A
:103020005307B4F49091E8009570E1F39091E800B3
:1030300092FD19C08093F1008091F2019091F3010B
:1030400001968F739927892B19F48EEF8093E800EE
:103050008091F2019091F30101969093F301809396
:10306000F20181E0089580E00895DF92EF92FF92EF
:103070000F931F93CF93DF93D82E8A017B01E40E29
:10308000F51EEB01CE15DF0571F0D7FE03C0FE0182
:10309000849101C088810E94071821968111F2CF86
:1030A0008FEF9FEF01C0C801DF91CF911F910F916A
:1030B000FF90EF90DF900895615030F02091F10083
:1030C000FC0120830196F8CF289884E68093F601CE
:1030D0000895CF92DF92EF92FF920F931F93CF93B9
:1030E000DF936C017A018B01C0E0D0E0CE15DF05E3
:1030F00089F0D8016D918D01D601ED91FC9101907F
:10310000F081E02DC6010995892B11F47E0102C0E2
:103110002196ECCFC701DF91CF911F910F91FF90C6
:10312000EF90DF90CF900895CF93DF931F92CDB7AC
:10313000DEB76983DC01ED91FC910280F381E02D23
:1031400041E050E0BE016F5F7F4F09950F90DF9126
:10315000CF91089583E08093E9008091F200882365
:1031600019F08AE38093E8000895FC018485958531
:1031700097FD0BC09FB7F89482E08093E90080919F
:10318000F2009FBF90E0019608959FB7F89482E007
:103190008093E9008091F2009FBF90E00895ACEE2B
:1031A000B1E02FB7F8947D918D919C9166B52FBFBA
:1031B000A89B05C06F3F18F47F5F8F4F9F4F22E0A1
:1031C000660F771F881F991F2A95D1F708950F93CF
:1031D0001F93CF93DF931F92CDB7DEB782E0898331
:1031E00042E450E064ED70E180E80E9435180E94EE
:1031F000A323DC0112960D911C9113970115110563
:1032000069F0D801ED91FC910280F381E02DBE01BF
:103210006F5F7F4FC801099597FF07C089810F90A5
:10322000DF91CF911F910F910895F80100851185CD
:10323000E5CF0E94682390E00895CF93DF931F921B
:10324000CDB7DEB7FC018485958597FD05C02FEFCE
:103250003FEF358724870BC0CE0101960E9479236A
:10326000019719F4898190E002C08FEF9FEF0F90D2
:10327000DF91CF9108950F931F93CF93DF931F9208
:10328000CDB7DEB78C01FC018485958597FF0EC014
:10329000CE0101960E947923019719F4298130E02B
:1032A00002C02FEF3FEFF80135872487F8018485AE
:1032B00095850F90DF91CF911F910F9108951F92E7
:1032C0000F920FB60F9211248F939F938091E1007C
:1032D0009091E100937F9093E10083FF0FC01092E3
:1032E000E90091E09093EB001092EC0092E3909350
:1032F000ED001092F70198E09093F00082FF20C05B
:1033000093E09093E9009091F200992319F09AE3E9
:103310009093E8009091F501992339F09091F5018F
:1033200091509093F501992389F19091F601992399
:1033300039F09091F60191509093F601992341F163
:1033400084FF10C08091E2008E7E81608093E20055
:103350008091E1008F7E8093E1008091B8018E7EA4
:10336000806111C080FF16C08091E2008E7E806176
:103370008093E2008091E1008E7E8093E100809155
:10338000B8018E7E81608093B80104C05D9ACDCF74
:10339000289AD6CF9F918F910F900FBE0F901F90BC
:1033A00018951F920F920FB60F921124CF92DF92B1
:1033B000EF92FF920F931F932F933F934F935F933F
:1033C0006F937F938F939F93AF93BF93EF93FF93ED
:1033D000CF93DF93CDB7DEB76C97DEBFCDBF109232
:1033E000E9008091E80083FFBAC168E0CE0145960C
:1033F0000E945C1882EF8093E8008D8987FF05C0EA
:103400009091E80090FFFCCF03C09EEF9093E800FE
:10341000982F907609F0C6C09E892F89188D91113A
:103420000CC0803829F48091B9018093F10002C06A
:103430001092F1001092F10047C1422F50E0512B41
:10344000913051F4811140C14130510509F03CC126
:103450008091B9018D7F0BC0933061F4811134C12B
:103460004130510509F030C18091B90182608093EB
:10347000B9012AC1953041F48091E80080FFFCCF6A
:1034800020682093E30020C1963009F05FC0EB8CE8
:10349000FC8C1092E9001092F3011092F2011230AC
:1034A00091F51092F1011092F0010E94E71899E055
:1034B000BE016F5F7F4FDB01E92F1D92EA95E9F7AF
:1034C00099831A8391E09E8390EA98879AEF99876F
:1034D0002091F2013091F301275F3F4F3C832B8312
:1034E0008D831092E9001092F3011092F201F09294
:1034F000F101E092F00149E050E080E00E943518CF
:103500000E94E718E1C0F092F101E092F0010E9400
:10351000A323DC011296ED90FC901397E114F104C3
:1035200009F4BFC0D701ED91FC910480F581E02D35
:10353000BE016B5E7F4FC7010995009719F00CF033
:10354000C3C0C6C0F701E084F184E8CF973009F426
:10355000BFC0983021F481E08093F100B5C099306C
:1035600009F0B2C0837009F0B3C0E3E8F1E081E094
:1035700021E036E39081992361F08093E900209364
:10358000EB0091919093EC003093ED008F5F8730CA
:1035900089F78EE78093EA001092EA008F89809382
:1035A000F70192C08B8D9C8D1092E9001092F3016F
:1035B0001092F2019093F1018093F001898D8111B5
:1035C00055C08E899D89913A59F4813209F080C0A5
:1035D00047E050E068E771E080E00E94351874C071
:1035E000913209F075C0833289F4888D90E0982F6C
:1035F00088272F89822BA0E0B0E0809374019093FC
:103600007501A0937601B09377015EC0803269F4B2
:103610008091E80082FFFCCF67E088E791E00E949C
:103620005C188BEF8093E80006C0823209F04CC032
:103630008F8980937F018091780190917901A09189
:103640007A01B0917B01803B9440A105B10509F05E
:1036500083C080917F0180FD7FC088E78093F40163
:10366000809164008F7D809364002EC00E94A3230C
:10367000DC0112960D911C9113970115110541F172
:10368000D801ED91FC910190F081E02DBE016B5EBF
:103690007F4FC8010995811117C0F8010085118578
:1036A000ECCF113009F44EC0133091F48F89882388
:1036B00009F445C0823081F440E867E088E391E195
:1036C0000E943333882321F08EEF8093E80047C0B7
:1036D00081E28093EB0043C0813029F440E86BE045
:1036E0008CE291E1EDCF833099F70E94A323DC01B6
:1036F0001296ED90FC9013978E010F5F1F4F68019B
:10370000E114F10479F0D701ED91FC910680F78185
:10371000E02DB801C7010995080F111DF701E084DC
:10372000F184EECFD8011C92F60101900020E9F758
:103730003197BF016C197D0940E0C601C1CF66E138
:1037400071E102C06AE171E16115710509F2FB01E5
:10375000449150E080E841CF1092F401B5CF6C96CF
:103760000FB6F894DEBF0FBECDBFDF91CF91FF91B2
:10377000EF91BF91AF919F918F917F916F915F91E9
:103780004F913F912F911F910F91FF90EF90DF90FC
:10379000CF900F900FBE0F901F901895FC010E94C4
:1037A000CF18319728F068517C4F8F4F9F4FF9CF3A
:1037B000AB01FC010E94CF18641775078E079F07A5
:1037C000C8F308958F929F92AF92BF92CF92DF92EB
:1037D000EF92FF920F931F93CF93DF936C015B01E6
:1037E0007A0180917F01882309F458C08091F70104
:1037F000882309F453C08091B80180FF05C08091EF
:10380000E00082608093E000E70110E00AEF83E0CF
:10381000882E9AE3992E2097C1F10E946823811186
:1038200007C00150D9F181E090E00E94CE1BF3CF98
:10383000282F30E0C217D3070CF48C2F4FB7F89421
:103840008092E9009091E80095FF1DC0282F30E09C
:10385000C21BD30BF501982F915020F081918093DA
:10386000F100FACFA20EB31E112319F09092E800D6
:1038700009C08091E80085FD06C09092E80011E043
:10388000209709F010E04FBFC6CF1111C6CF5D9849
:1038900084E68093F5011E141F0444F081E090E05B
:1038A000F6019383828380E090E001C0C701DF913D
:1038B000CF911F910F91FF90EF90DF90CF90BF902D
:1038C000AF909F908F9008950F930FB70F931F9213
:1038D00011248F939F93EF93FF93EAEBF1E0809194
:1038E000EB0191E08D5F8D3710F08D5793958093AC
:1038F000EB018081890F80839181911D91830281E9
:10390000011D02838381811D838309270F7009278D
:1039100002950093EA013BD081110093E8018C3AB3
:1039200011F08C35A1F40091E901901B963088F0DC
:1039300085538093000880930108289828D0F1F7D8
:1039400088E198E08093600090936000FFCF9093AF
:10395000E9018091F401815020F08093F40187E720
:1039600041F3ECEEF1E080819181019680839183B7
:1039700082819381811D911D82839383FF91EF91B9
:103980009F918F911F900F910FBF0F9118958FB13D
:103990008095807F669B88601C9B84600895CF9291
:1039A000DF92EF92FF921F93CF93DF93E82FF0E027
:1039B000E058FE4F1081E62FF0E0603330F4EC5514
:1039C000FF4EE491CE2FD0E006C0EE0FFF1FEC5566
:1039D000F04FC591D4916E01E12CF12C60E074E2BE
:1039E00084EF90E0A70196010E942534DA01C90115
:1039F0000197A109B109009721E0A207B10578F06C
:103A000060E970ED83E090E0A70196010E94253403
:103A1000DA01C9010197A109B10923E001C021E040
:103A20001130C9F0133051F530919100387F232BBC
:103A3000209391009093990080939800D093E70190
:103A4000C093E60181E08093DC0180917100826087
:103A50008093710013C03091DD0131110FC030919E
:103A60008100387F232B20938100909389008093DD
:103A7000880080916F00826080936F00DF91CF910A
:103A80001F91FF90EF90DF90CF9008951F920F92BB
:103A90000FB60F9211242F933F934F935F936F9321
:103AA0007F938F939F93AF93BF93CF93DF93EF93C6
:103AB000FF938091DC01882349F08091DB01811123
:103AC00005C08091E501882309F4ABC08091E40131
:103AD000882309F4B6C08091E0019091E101A091A2
:103AE000E201B091E301892B8A2B8B2B09F4A9C049
:103AF0008091E0019091E101A091E201B091E30198
:103B00000197A109B1098093E0019093E101A0938D
:103B1000E201B093E301892B8A2B8B2B09F091C032
:103B2000D1E0E091DE01F091DF019F012F5F3F4F77
:103B30003093DF012093DE018491982F907FC82F6E
:103B4000CF70903821F48C2F0E94BF23EACF903998
:103B5000F9F4E0914A06F0914B0609958D27809380
:103B6000E501E091DE01F091DF01CF010196909334
:103B7000DF018093DE0164918091D701C81788F638
:103B8000C13009F058C08091D6018111CACF53C00D
:103B900097FD3AC03296F093DF01E093DE01F90120
:103BA000249130E0382BA091E601B091E7010E940A
:103BB00071346C507E4F8F4F9F4F28EE33E040E0C2
:103BC00050E00E944F342093E0013093E101409394
:103BD000E2015093E3018091E0019091E101A09115
:103BE000E201B091E301892B8A2B8B2B51F581E007
:103BF00090E0A0E0B0E08093E0019093E101A09319
:103C0000E201B093E3011DC0903E29F41092DF0160
:103C10001092DE0186CF903F09F083CF1092E4012D
:103C200010C08091DA01E091D801F091D901908122
:103C3000892780834BCF67FD74CF8C2F0E94CF1CC8
:103C400070CFFF91EF91DF91CF91BF91AF919F9195
:103C50008F917F916F915F914F913F912F910F9035
:103C60000FBE0F901F9018951F920F920FB60F92D4
:103C700011242F933F938F939F93AF93BF93EF9311
:103C8000FF938091DD01882309F44FC08091D20118
:103C90009091D301A091D401B091D501892B8A2BA9
:103CA0008B2B51F18091D101E091CF01F091D001A6
:103CB0009081892780838091D2019091D301A09136
:103CC000D401B091D501181619061A061B06D4F5B1
:103CD0008091D2019091D301A091D401B091D501EE
:103CE0000197A109B1098093D2019093D301A093C8
:103CF000D401B093D50126C01092DB011092DD01F2
:103D000080916F008D7F80936F009091D101E09141
:103D1000CF01F091D0018081282F30E0892F90E0F1
:103D200080959095822393230CC08091E5018111A9
:103D300009C08091D101E091CF01F091D001908133
:103D400089278083FF91EF91BF91AF919F918F91D0
:103D50003F912F910F900FBE0F901F9018958F924B
:103D60009F92AF92BF920F931F93CF93DF93CDB7E4
:103D7000DEB7A1970FB6F894DEBF0FBECDBF19A274
:103D8000423008F44AE08E010F5D1F4F842E912CC3
:103D9000A12CB12CA50194010E944F34E62FB9014A
:103DA000CA0101501109EA3014F4E05D01C0E95C78
:103DB000D801EC93232B242B252B61F7011511053A
:103DC00071F0F80101900020E9F73197AF01401B35
:103DD000510BB8018DE496E00E94691802C080E0A2
:103DE00090E0A1960FB6F894DEBF0FBECDBFDF9175
:103DF000CF911F910F91BF90AF909F908F9008959A
:103E0000CF93DF9300D01F92CDB7DEB76091F90555
:103E10008AEA91E09A838983CE0101966B830E949E
:103E20002C286B81681721F08AEA91E00E941734F0
:103E300089EF95E00F900F900F90DF91CF9108954B
:103E400094B59F77611102C02F9A07C06F3F11F49C
:103E50002F9803C09068609567BD94BD90918000D5
:103E60009F75811102C02E9A0AC08F3F11F42E98BF
:103E700006C0906210928B00809580938A002D9AE4
:103E8000909380000895AF92BF92CF92DF92EF920D
:103E9000FF920F931F93CF93DF936C0100E410E028
:103EA000C1E0D1E05C0180E1A80EB11CCD27760114
:103EB000EA14FB0471F0CC2339F020E0A701B8012B
:103EC00081E596E00E947E24CD278FEFE81AF80A5C
:103ED000EFCF0F5F1F4F0038110541F7DF91CF91F2
:103EE0001F910F91FF90EF90DF90CF90BF90AF9018
:103EF000089590E0E9EFF1E091119FEF8FEF91933A
:103F00009193919391938150D0F7EDE4F6E0128A6A
:103F1000118A108A17860895E9EFF1E0A0E0B8E071
:103F200000800EBC8111012C1197A0FDFDCF0192E4
:103F3000B9F70DB408958F929F92AF92BF92CF922E
:103F4000DF92EF920F931F93CF93DF93FC01C22F69
:103F5000D0E06C01CC0EDD1E1C141D040CF0B1C0B1
:103F6000803891050CF0ADC0CB01800F911D181663
:103F700019060CF0A6C0603471050CF0A2C0411502
:103F8000510509F49EC0CB0177FF04C0882799270B
:103F9000861B970B982F9770DB0177FD179683E0B0
:103FA000B595A7958A95E1F71A2F77FF07C0992352
:103FB00029F01FEF1A0F88E0891B982FF7FF05C023
:103FC000AA27BB27AE1BBF0B02C0A0E0B0E060E891
:103FD000C616D1041CF080E88E1B01C0822F8A1BFC
:103FE000612F012E000C770B1F3F1CF4D62ED094AE
:103FF00001C0D12CCC24C394302F377009F4C12CCC
:10400000302F3695369536950C2D030F600F711DA8
:104010006930710514F008E0011B3D2D310F60E897
:104020003603E00DF11D1124BF016A0F7B1FD29EE4
:10403000A00DB11D11244A0F5B1FE1E0F0E04F011C
:10404000092E02C0880C991C0A94E2F7010F301760
:10405000C1F1DB01A750BE4FC12CD12CC81658F5B9
:10406000FA01EC0DFD1DE491EE2301F1E89D5001F4
:10407000E99DB00C112437FD09C02C91EE2011F000
:104080002A2903C0EA2DE0952E232C93992371F061
:10409000373064F4FD01E058FF4F2081EE2011F02D
:1040A0002B2903C01B2D1095212320832FEFC21A2B
:1040B000D20A1196D3CF3F5F4C0F5D1F60587F4FE0
:1040C000C6CFDF91CF911F910F91EF90DF90CF90EE
:1040D000BF90AF909F908F900895CF92DF92EF9214
:1040E000FF92CF93DF936C01990FEE08FF08F7FE64
:1040F0001FC0E0914D06F0914E060190F081E02D39
:104100006DE28DE496E00995EC0166277727CB01F7
:104110006C197D098E099F094AE00E94AF1E8C0F21
:104120009D1FDF91CF91FF90EF90DF90CF9008958A
:104130004AE0C701B601DF91CF91FF90EF90DF9089
:10414000CF900C94AF1E0F931F93CF93DF938C01EE
:10415000C0E0D0E0F801EC0FFD1F6491662371F020
:10416000E0914D06F0914E060190F081E02D8DE436
:1041700096E00995892B11F02196ECCFCE01DF91C5
:10418000CF911F910F9108952F923F924F925F927E
:104190006F927F928F929F92AF92BF92CF92DF9257
:1041A000EF92FF920F931F93CF93DF93CDB7DEB7BC
:1041B0002E970FB6F894DEBF0FBECDBF9B878A87C0
:1041C0004A012C87FA0184913196E491982F9F77C8
:1041D0009F5FE92EF12CFC82EB82A701AA85BB85AB
:1041E0004A0F5B1F57FD95C1A038B1050CF091C176
:1041F0009E2F9F739F5FAB01490F511D57FD89C1D2
:10420000603471050CF085C1881F8827881FBB2486
:10421000B394E6FFB12CEE1FEE27EE1FED833B01BA
:1042200077FF04C066247724661A770AB7E06B220A
:104230007724AB0177FF02C0495F5F4F7A01E3E06B
:10424000F594E794EA95E1F7FA82E98277FF0EC0E8
:104250006114710459F09701215031093A8329837F
:1042600048E050E0BA01661977093B0141E050E0AF
:10427000DA01062C02C0AA0FBB1F0A94E2F7BF8323
:10428000AE83492F469546954695977009F04F5F46
:1042900000E010E097E060E170E030E0412C512C4C
:1042A000212C312CE42E440FFF08F986E886AA243D
:1042B000A394A885B9852A163B060CF02AC1DB0118
:1042C00041E050E0FD0163E0F695E7956A95E1F77E
:1042D000E80DF91DE491F0E0BD016770772702C099
:1042E000F595E7956A95E2F7BD016F5F7F4FE0FFB7
:1042F00004C04F5F5F4FDB01E5CF41305105C9F48A
:10430000FB0143E0F695E7954A95E1F7E80DF91DC5
:10431000449150E06770772702C0559547956A959C
:10432000E2F7417055274F5F5F4FBD016E5F7F4FD2
:1043300035C0DA01119741E050E00A2E02C0440F67
:10434000551F0A94E2F74F5F5F4FE12CF12CFB0100
:1043500023E0F695E7952A95E1F7E80DF91DE4913C
:10436000F0E06B0127E0C222DD2402C0F595E7955D
:10437000CA94E2F7E0FF0AC0E1E0F0E00E2C02C0D0
:10438000EE0FFF1F0A94E2F74E0F5F1F6F5F7F4F24
:10439000EFEFEE1AFE0AEA16FB06CCF2E0E0F0E0E0
:1043A000DA2CD41AE417F50708F0AFC0A92FB0E053
:1043B0007A01EE1AFF0A811107C0AE15BF0560F140
:1043C0009D0D9E0FFA0138C0AE15BF0548F5973018
:1043D00011F1BB20A1F027E0E22EF12CEA1AFB0A32
:1043E000FE86ED86EE24EA94F12C0D8402C0F5944D
:1043F000E7940A94E2F7FE86ED86ED840AC090E821
:10440000E92EFF24FA940A2E02C0F694E7940A9447
:10441000E2F73E2901C03FEFEA0FFB1F90E00CC01E
:10442000B11006C027E0E22EF12CEA1AFB0AD701F0
:10443000A757BE4FAC913A2B915008F064C033237C
:1044400009F448C09981920D98300CF043C0AA85B8
:10445000BB85A00FB11FA038B105E0F5AE81BF81CB
:104460003A9F70013B9FF00C112497FD16C0AA855E
:10447000BB85292F30E82303A00DB11D1124A00F07
:10448000B11FA750BE4F3C912C85222311F03E292D
:1044900003C0CE2CC0943C213C9361147104D1F034
:1044A0009730C1F09F3FB4F0AA85BB85392F20E833
:1044B0003203A00DB11D1124A00FB11FA758BD4F8D
:1044C0009C913C85332311F09F2903C03F2D3095EB
:1044D00093239C939D819111BA24AFEF4A1A5A0AF3
:1044E000EB80FC804E145F042CF40F5F1F4F97E0AD
:1044F00030E009C02FEF221A320A00E010E097E006
:1045000030E0412C512C31964DCF4A2D481B842F41
:10451000D0CE2E960FB6F894DEBF0FBECDBFDF9182
:10452000CF911F910F91FF90EF90DF90CF90BF90B0
:10453000AF909F908F907F906F905F904F903F9043
:104540002F9008958F929F92AF92BF92CF92DF9259
:10455000EF92FF920F93CF93DF936B01EC014C012D
:10456000840E911C5B01A20EB11CC815D905ECF498
:104570007601D7FE10C0E12CF12C0DC0E816F9062B
:1045800094F4202FA701BE0181E596E00E947E24CD
:104590002FEFE21AF20AC50121E4A216B10474F366
:1045A00080E490E0EBCF2196E0CFDF91CF910F91A7
:1045B000FF90EF90DF90CF90BF90AF909F908F9043
:1045C00008954F925F926F927F928F929F92AF92D7
:1045D000BF92CF92DF92EF92FF920F931F93CF93F0
:1045E000DF93EC017B016A01C901A901461B570B4E
:1045F00057FF03C051954195510996012C1B3D0B66
:1046000037FF03C031952195310911E02417350793
:1046100014F010E00AC03C2D2D2D6C01832F922F39
:104620003C2F2D2FE701E32EF22ECC16DD0654F49D
:104630003E2D2F2D7C01832F922F3C2F2D2FE60115
:10464000C32ED22E26014C1A5D0A4C018E189F08EB
:1046500097FE03C0919481949108520157FE03C0C4
:104660002FEFA21AB20AB594A794E816F90614F02F
:104670008FEF01C081E0682E880F7708CC16DD0629
:10468000B4F0202F112319F0AE01B70102C0A70129
:10469000BE0181E596E00E947E24A818B908B7FE05
:1046A00004C0E60CF71CA40CB51C2196E7CFDF91E3
:1046B000CF911F910F91FF90EF90DF90CF90BF901F
:1046C000AF909F908F907F906F905F904F900895E4
:1046D0002FB7F89483E08093E9009091E800892F48
:1046E000807295FF04C09091F20080E4891B2FBF77
:1046F0000895FC018091F701811103C08FEF9FEFB6
:1047000008959FB7F89482E08093E9002091F20029
:1047100030E01216130614F421E030E021153105C3
:1047200059F0289884E68093F6018091F100808307
:104730008091F200882319F09FBFC90108958BE68C
:104740008093E800F9CF8091680681110DC082E066
:104750008093640684E08093650610926706109249
:10476000660681E08093680684E696E0089580916D
:10477000C00108950895089580E090E00895E82F1D
:10478000F0E0E058FE4F8081813019F0833089F0ED
:1047900008958091DD01811122C080916F008D7F8D
:1047A00080936F009091D101E091CF01F091D00101
:1047B0000CC01092DC018091DB01811110C090913E
:1047C000DA01E091D801F091D9018081282F30E001
:1047D000892F90E08095909582239323808308957C
:1047E0009091D701923009F471C0292F30E0F9017E
:1047F000E058FE4F4081F901EF58F94F8083913026
:1048000031F420917106281302C09093D6019F5F66
:104810009093D70190E0FC01E756F04D2491FC0104
:10482000E658F04D849130E0220F331FF901E4592E
:10483000F04D65917491F901E25AF04DA591B49152
:104840009C91982B9C93413019F04330D9F00895F6
:1048500090916400977F9093640010928000109272
:1048600081009091810098609093810090918100E7
:104870009160909381007093D0016093CF018093F9
:10488000D101089590916500977F909365001092F3
:1048900090001092910090919100986090939100F7
:1048A000909191009160909391007093D9016093E1
:1048B000D8018093DA018091D701882321F06CE33D
:1048C00080E00E94CF1C80E00C94BF2308950C94DC
:1048D000CE1B0E94C71C08958EBD00000DB407FEBC
:1048E000FDCF8EB508951092C0013E983F9808956F
:1048F0003E9A3F9A81E08093C00108956038710527
:10490000D0F440345105B8F4E6E5FAE280E1849F42
:10491000D001A0781124A60F4770E40FF11D8491F7
:10492000A750BE4F222319F06C91862B03C08095AF
:104930006C9186238C9308952F923F924F925F92B1
:104940006F927F928F929F92AF92BF92CF92DF929F
:10495000EF92FF920F931F93CF93DF93CDB7DEB704
:1049600029970FB6F894DEBF0FBECDBFFC016A30A9
:1049700069F425898189928938E0239F800D911DF2
:104980001124928B818B108A1786AAC06D3009F48E
:10499000A7C099878887F5883488238861887288BA
:1049A0000785108900381105C4F0A885B98555968A
:1049B0002C915597422F50E01F968D919C915097C6
:1049C000B6E02B9F800D911D1124E885F985908B11
:1049D0008787268921116EC083C0F0E46F167104A9
:1049E00024F7C80125E0F29E800D911D11241816B0
:1049F0001906DCF68F2D90E09C838B83C301A8E021
:104A0000FA9E800D911D11241816190674F6B5E052
:104A10006B9FB0011124FB01E25AF54DFA83E98343
:104A200030E08885998504969E838D83E981FA819B
:104A3000E490353009F4E12C430188E0482EE0FC95
:104A400002C0532C01C0522C51100BC0321009C0AF
:104A5000E6944A948B819C81880E991E4110EFCF79
:104A60001BC068018C2D801B8F1590F754018A2D77
:104A700088198F1568F4252DA501B6018D819E81B9
:104A80003F830E947E249FEFA91AB90A3F81EFCF8E
:104A9000AFEFCA1ADA0AE6CF3F5FEB81FC810E0F57
:104AA0001F1F89819A8101969A838983363009F084
:104AB000BDCF7BCF6AEF64039001659F300D112459
:104AC00020583F4F281739075CF4A885B985ED9128
:104AD000FC9111970190F081E02D6AE0CD010995DC
:104AE00081E090E029960FB6F894DEBF0FBECDBFEF
:104AF000DF91CF911F910F91FF90EF90DF90CF90BA
:104B0000BF90AF909F908F907F906F905F904F90ED
:104B10003F902F9008953091C5012091C401E82F56
:104B2000082E000CFF0BEF5FFE4F9EE06902E00DC8
:104B3000F11D112490818E30D0F56830C0F5903190
:104B4000B4F1880F880F880F831B87FF09C0983145
:104B500071F1933161F181ED890F823058F427C0F2
:104B6000882341F0892F8B7F833109F19E32F9F040
:104B70009133E9F0660F660F660F621B161654F448
:104B80008CEE890F823098F09E3289F081E09F325E
:104B900079F40DC0662349F0892F8D7F843139F077
:104BA000905381E0923020F402C081E0089580E0CB
:104BB0000895EF92FF920F931F93CF93DF937C01A1
:104BC00060E080E00E94201F1092BE0182E3E816A0
:104BD000F10421F486E08093C70156C08091F90565
:104BE000082E000C990B8E159F0524F4E092F90510
:104BF0000E94001F1092BF01E092C60181E08093E5
:104C000000011092C1015091C4014091C5019091E1
:104C1000C3018091C201C1E0D1E020E72E9D800157
:104C20002F9D100D112420E030E06EE0E62EF12CD7
:104C3000F901E00FF11FEA58FB4EE491E993E333E9
:104C400071F4C901B7010E948034962F990F990F12
:104C5000990F482F440F440F440F842F592F2F5F73
:104C60003F4F2037310521F75093C4014093C501D0
:104C70009093C3018093C2011092C9011092CB019D
:104C80001092CA011092C801DF91CF911F910F912C
:104C9000FF90EF9008954F925F926F927F928F9264
:104CA0009F92AF92BF92CF92DF92EF92FF92CF93FB
:104CB000DF932091C001222309F46FC04A015B01F8
:104CC000EC01E0914A06F0914B060995882309F41E
:104CD00064C08091D701823008F45FC081E0809386
:104CE000DD01809170068093DB012E01612C712C17
:104CF00060E072E18AE790E0A30192010E9425340E
:104D000069017A0181E0C81AD108E108F108C114EB
:104D1000D10481E0E806F104F0F168E478EE81E086
:104D200090E0A30192010E94253469017A0181E09B
:104D3000C81AD108E108F10893E080918100887FCA
:104D4000892B8093810081149104A104B10471F036
:104D5000DE01AA0FBB1FA50194010E94443428EE76
:104D600033E040E050E00E944F3403C02FEF3FEFAC
:104D7000A901D0928900C09288002093D20130937B
:104D8000D3014093D4015093D50180916F0082608C
:104D900080936F0002C091E0D0CFDF91CF91FF9060
:104DA000EF90DF90CF90BF90AF909F908F907F90CB
:104DB0006F905F904F900895CF93DF93C82F880F27
:104DC000DD0BCF5FDE4F8881803361F481E3888320
:104DD00046E950E060E070E08AEF90E0DF91CF912B
:104DE0000C944B268F3251F446E950E060E070E0BD
:104DF0008AEF90E00E944B2680E32FC08E3251F460
:104E000046E950E060E070E08AEF90E00E944B26B7
:104E10008FE223C0813351F446E950E060E070E056
:104E20008AEF90E00E944B268EE217C0843151F445
:104E300046E950E060E070E08AEF90E00E944B2687
:104E400083E10BC0833151F446E950E060E070E04B
:104E50008AEF90E00E944B2684E18883DF91CF9116
:104E60000895CF93C82F0E94692483FF11C08091B9
:104E70007301882389F044E650E060E070E08EE53D
:104E800091E00E944B26C093C7011092730104C0A9
:104E90000E94692482FDEBCFCF91089521E040E884
:104EA00052E160E070E080E090E00E94C4208091D8
:104EB000CA019091CB019C012C5D3109253031054F
:104EC00020F421E040E552E118C09C01215E310947
:104ED0002530310520F421E043E252E10EC09C016F
:104EE000265E31092530310560F325503109253022
:104EF000310548F421E045EF51E165E170E081E1E1
:104F000090E00C94C4209C01205F310925303105CC
:104F1000C0F22550310925303105E8F28A5F910948
:104F2000059740F7CECFCF92DF92EF920F93CF93BA
:104F3000C62E660FDD0824E430E030935D06209332
:104F40005C06D0925F06C0925E0695E0980F97339C
:104F500008F050C08B3F19F48AEE91E12AC0C82FA7
:104F60008C3F71F482EE91E10E94A3208091720146
:104F7000882319F08FED91E11CC08BED91E119C0F0
:104F80008D3F71F483ED91E10E94A3208091C001D7
:104F9000882319F080ED91E10CC08CEC91E109C0FF
:104FA0008E3F19F484EC91E104C08F3F49F48FEBFC
:104FB00091E1CF910F91EF90DF90CF900C94A320CF
:104FC00088EB91E10E94A3208C2F0C2E000C990BF2
:104FD00001960E946D208091F9058C175CF4EE24F7
:104FE000E39408E025E043EB51E1B60186E790E069
:104FF0000E949B1FCF910F91EF90DF90CF9008956B
:10500000EF920F93EE24E39408E028E14BE951E19D
:1050100060E070E080E090E00E949B1F23E148E8A0
:1050200051E160E070E08DE690E00E949B1F2BE272
:105030004DE551E168E370E080E090E00E949B1F45
:105040002DE140E451E168E370E083E690E00E94E6
:105050009B1F0F91EF900895FC01808191810C942A
:105060000F34CDB7DEB72797DEBFCDBF789484B5B8
:10507000826084BD816084BD85B5826085BD8160AC
:1050800085BD81E080936E00E1E8F0E0108282E06F
:10509000808381608083E0E8808181608083E1E9B2
:1050A00080818260808381608083E0E9808181608B
:1050B0008083E1EC80818460808382608083816072
:1050C0008083E3EC808181608083E0EC808182607A
:1050D0008083E2EC808181608083EAE78081846064
:1050E0008083826080838160808380688083109267
:1050F000F7011092B9011092B8018091D700816038
:105100008093D70080EA8093D80089B5806189BDFB
:1051100089B5826089BD09B400FEFDCF81E090E0D1
:105120000E94CE1B8091D8008F7C80618093D80034
:105130008091E000807F8093E0008091E1008E7E8E
:105140008093E1008DE08093E200559A209A81ECF3
:1051500080937C0081EF85B987EE84B984E28BB9B6
:1051600084EF8AB9769A6E9880EF81BB10BA80E599
:105170008CBD11E01DBD85E090E00E9467245F9921
:1051800002C05F9AF8CF5C98E4E2F1E09DE085917F
:105190000E946C249A95D9F75C9A81E88093640008
:1051A0001093650000E014E080E00E946C24015040
:1051B0001109D1F70E94692487FF0DC05C9885EA28
:1051C0000E946C245C9A2E982F982D9881E083BFC2
:1051D000889513BEFCCF82E090E09A838983CE014C
:1051E00001960E942C28882319F00E94782402C07E
:1051F0000E94732401E010E01A830983CE01019616
:105200000E942C2882FB772470F8CE0101960E9420
:105210002C2881FF8FC071102E9800EF1FEF78E0CF
:10522000A72EB12C0E94692486FF04C02E9A2F9AC3
:105230002D9A80C0772029F00430110511F42E9AA0
:105240002F9881E00E948C1F980117FF04C022272D
:105250003327201B310B27703327C80117FD079612
:1052600063E0959587956A95E1F717FF05C001976B
:10527000A501421B530B9A017C01F694FE2CEE24EF
:10528000F794E79440E050E02501421A530AB70131
:1052900060587F4F4B018F3F7FEF970744F4019693
:1052A000485A5F4F7401403B510589F723C0D7012D
:1052B000A357BD4F60E070E08F3FEFEF9E0711F402
:1052C0000C94CE31FB01E40FF51FEF5CFE4FE4912F
:1052D0006D01C818D908CE0CDF1CF0E01F01022EAA
:1052E00001C0220C0A94EAF7F60160802628208289
:1052F0000C94CE3180E00E948C1F8FE090E00E94E1
:1053000067240F5F1F4F0931110509F08BCF7720FC
:1053100011F02F9A2D9880E991E00E9467242D9A30
:10532000E0915106F09152060190F081E02D81E567
:1053300096E009950E9469248823E1F06AE070E014
:1053400080E090E0AB01FC010E94CF184150510970
:10535000E109F10928F068517C4F8F4F9F4FF6CF3C
:10536000AB01FC010E94CF18641775078E079F07D9
:10537000C8F3E0CF80E18093580680E00E948C1F44
:1053800085E00E94F0238DE00E94F0238AEA91E0FC
:105390009A838983CE0101960E942C288093F90577
:1053A00082331CF081E38093F9058091F90587FD34
:1053B0001092F9058091F9058093CD011092720148
:1053C0008FEF9FEF90930706809306060E94791F48
:1053D00022E1822E912C3CE1432E512C46E2642E98
:1053E000712C9091BA0180915906792F781B872FE3
:1053F00020915A06222329F070935B0610925A06D8
:10540000C5C720915806721748F48F5F821708F0BD
:10541000BDC781E083BF889513BEB8C781E0809384
:105420005A0690935906809154069091550601961C
:1054300090935506809354068091CA019091CB01B8
:1054400001968530A1E09A072CF49093CB018093CC
:10545000CA0104C01092CB011092CA010091CA0186
:105460001091CB0100FF0EC08091C9018F5F809326
:10547000C9018091CE0118162CF481508093CE0181
:105480001092C8018091C901883014F01092C901AE
:105490000E94791FE091C7018E2FEE0F990BAA0B86
:1054A000BB0B8332910508F040C7FC01EA5AFF4F5D
:1054B0000C94943460E080E00E94201F21E048ECCE
:1054C0005EE068E070E088E090E00E94C4208BE439
:1054D00090E090935D0680935C0688E090E0909366
:1054E0005F0680935E068FEB9EE00E94A32087E517
:1054F00090E090935D0680935C0690925F068092A8
:105500005E0688EB9EE00E94A32086E590E09093E3
:105510005D0680935C0670925F0660925E0681EB8A
:105520009EE00E94A32084E490E090935D06809327
:105530005C0681E390E090935F0680935E0687EAC5
:105540009EE00E94A32081E0EEC60E944E271BC36E
:105550000F5F1F4F1093CB010093CA010E944E278B
:1055600000E020E440E460E070E080E490E00E942D
:10557000A22201E021E14CE061E070E083E390E0F1
:105580000E94A2228091CD018B5F873310F0109290
:10559000CD010E94692484FD04C00E94692487FF14
:1055A0001AC71091CC011B301CF081E0809373016D
:1055B0000E94692484FF18C01F5F1093CC01809162
:1055C0007301882389F08091CD01813369F01092B5
:1055D00073018F5F8093CD0144E650E060E070E09E
:1055E0008CE291E00E944B260E94692487FF1AC03A
:1055F0008091CC018F5F8093CC01809173018823CF
:1056000089F08091CD018B3F69F010927301815038
:105610008093CD0144E650E060E070E08CE291E0E0
:105620000E944B260E94692483FF05C0809173016C
:10563000811106C01BC00E94692482FDF7CF16C0ED
:1056400044E650E060E070E08EE591E00E944B2679
:10565000109273018091CD018B3F09F0BFC684E0A9
:105660008093C7011092F9050E94001F8091CD011F
:1056700060E083500E9493278091CD0168E08250C2
:105680000E9493278091CD0160E181500E94932771
:105690006CE18091CD010E9493278091CD0168E259
:1056A0008F5F0E9493278091CD0160E38E5F0E94FF
:1056B00093278091CD0168E38D5F0E94932701E0DD
:1056C00024E148E062E170E088E390E00E94A222D9
:1056D000EE24E39400E128E047E95EE068E170E051
:1056E0008AE390E00E949B1FE12C28E047E85EE0FF
:1056F00068E170E08AE390E00E949B1F80E090E008
:105700000E94431F80E390E00E94431F01E02AE1D2
:1057100030E040E850E06AE170E080E490E00E9410
:10572000E12229E130E040E850E069E170E080E406
:1057300090E00E94E12226E230E040E850E066E29C
:1057400070E080E490E00E94E12225E230E040E851
:1057500050E065E270E080E490E00E94E122109168
:10576000CD01E12E012E000CFF086701BBE0CB0E3E
:10577000D11CE5E0EE0EF11C96014FE750E0B701B9
:105780008FE790E00E94E12200E096014EE750E0B2
:10579000B7018EE790E00E94E1221B3FA9F4E12CC3
:1057A00008E029E04CE65EE066E370E08CE590E01E
:1057B0000E949B1FEE24E39429E043E65EE066E34B
:1057C00070E08CE590E03AC5E12C08E029E04EE776
:1057D0005EE062E070E08CE590E00E949B1FEE24AA
:1057E000E39429E045E75EE062E070E08CE590E05C
:1057F0000E949B1F113309F498C5D1CF10925D060A
:1058000010925C0610925F0610925E0683E59EE0A1
:105810000E94A32010925D0610925C0690925F0693
:1058200080925E068FE39EE00E94A32010925D06A8
:1058300010925C0650925F0640925E0689E29EE0FE
:105840000E94A32010925D0610925C0670925F0683
:1058500060925E0684E19EE00E94A3200E940028E0
:105860008FE161C510925D0610925C0610925F0692
:1058700010925E0682E09EE00E94A32010925D06D8
:1058800010925C0690925F0680925E068DEE9DE01F
:105890000E94A32010925D0610925C0650925F0653
:1058A00040925E068CED9DE00E94A32010925D0662
:1058B00010925C0670925F0660925E0688EC9DE036
:1058C0000E94A320EE24E39408E028E040E65DE097
:1058D00062E170E086E090E00E949B1F28E040E9D2
:1058E0005CE06CE170E086E090E00E949B1F4091DC
:1058F000C901437847FF03C041504C6F4F5FF8E048
:105900004F02A00111244859524FEE24E39408E0BD
:1059100028E066E270E086E090E00E949B1F0E9413
:10592000002880E200C510925D0610925C0610927D
:105930005F0610925E0686E29CE00E94A320109211
:105940005D0610925C0690925F0680925E0685E18D
:105950009CE00E94A32010925D0610925C0650927B
:105960005F0640925E0680E09CE00E94A3201092B9
:105970005D0610925C0670925F0660925E0686EF8E
:105980009BE00E94A3201091C901412F17FF02C084
:1059900041E0410F459520E24202A0011124485008
:1059A000534FEE24E39408E028E06CE170E086E0D9
:1059B00090E00E949B1F1D5F173018F44EE050E0EE
:1059C00002C04AE250E093E0440F551F9A95E1F778
:1059D000485C534FEE24E39408E028E062E170E075
:1059E00086E090E00E949B1F0E94002881E29BC4F9
:1059F00010925D0610925C0610925F0610925E0691
:105A000084EE9BE00E94A32010925D0610925C063B
:105A100090925F0680925E068EEC9BE00E94A3202F
:105A200010925D0610925C0650925F0640925E06F0
:105A300088EB9BE00E94A320EE24E39408E028E09A
:105A400048E95DE062E170E086E090E00E949B1F23
:105A50008091C9018D5F873018F44FE050E002C09B
:105A60004BE250E083E0440F551F8A95E1F7485C14
:105A7000534FEE24E39408E028E06CE170E086E008
:105A800090E00E949B1F0E94002882E24CC410926A
:105A90005D0610925C0610925F0610925E0686EA22
:105AA0009BE00E94A32010925D0610925C069092EB
:105AB0005F0680925E0682E99BE00E94A32010921E
:105AC0005D0610925C0650925F0640925E068DE77E
:105AD0009BE00E94A32010925D0610925C067092DB
