:100000000C9492030C94BA030C94BA030C94BA03A4
:100010000C94BA030C94BA030C94BA030C94BA036C
:100020000C94BA030C94BA030C941B060C948D0622
:100030000C94BA030C94BA030C94BA030C94BA034C
:100040000C94BA030C94BA030C94BA030C94BA033C
:100050000C94BA030C94BA030C94BA030C94860A59
:100060000C94BA030C94BA030C94BA030C94BA031C
:100070000C94BA030C94BA030C94BA030C94BA030C
:100080000C94BA030C94BA030C94BA030C94BA03FC
:100090000C94BA030C94BA030C94BA030C94BA03EC
:1000A0000C94BA030C94BA030C94BA03F0F89C8E27
:1000B0008783878E9CF8F00000FEFF030303030391
:1000C000070EFCF80000FEFF0303030303070EFC0A
:1000D000F80000FFFF00000000000000FFFF00002C
:1000E000FEFF8383838383C7EE7C380000F8FC0E19
:1000F00007030303070EFCF800003F7FE0C0808089
:10010000C0E07F3FFFFF01010101010101FFFF008E
:1001100000FFFF0C0C0C0C1C3E77E3C100007FFFBE
:10012000C0C0C0C0C0E0703F1F00001F3F70E0C0F3
:10013000C0C0E0703F1F00007FFFC1C1C1C1C1E36B
:10014000773E1C00001F3F70E0C0C0C0E0703F1F42
:10015000000000000001FFFF01000000D5F08D1439
:10016000A1C881CFD9F1AF20004D722E20426C6919
:100170006E6B79004229202053686F7720616E6989
:100180006D6174696F6E004129202053686F77207C
:100190006361727420696E666F00436172742064DB
:1001A000656D6F005354415455533A004A454445D8
:1001B000432049443A00080B0002020201000904EE
:1001C00000000102020000052400100105240101C5
:1001D000010424020605240600010705810310001E
:1001E0004009040100020A00000007050202400065
:1001F0000007058302400000040309041201000205
:10020000EF020140412336800001010203014172E7
:100210006475696E6F204C4C430041424C31333061
:10022000360000000000003E5B4F5B3E3E6B4F6BB4
:100230003E1C3E7C3E1C183C7E3C181C577D571CC7
:100240001C5E7F5E1C00183C1800FFE7C3E7FF0040
:1002500018241800FFE7DBE7FF30483A060E26298E
:10026000792926407F050507407F05253F5A3CE751
:100270003C5A7F3E1C1C08081C1C3E7F14227F2217
:10028000145F5F005F5F06097F017F006689956AE2
:10029000606060606094A2FFA29408047E0408106D
:1002A000207E201008082A1C08081C2A08081E1096
:1002B0001010100C1E0C1E0C30383E3830060E3E4E
:1002C0000E06000000000000005F000000070007AD
:1002D00000147F147F14242A7F2A122313086462D7
:1002E00036495620500008070300001C2241000038
:1002F00041221C002A1C7F1C2A08083E0808008096
:10030000703000080808080800006060002010082D
:1003100004023E5149453E00427F4000724949492E
:10032000462141494D331814127F10274545453960
:100330003C4A494931412111090736494949364664
:100340004949291E00001400000040340000000844
:1003500014224114141414140041221408020159E7
:1003600009063E415D594E7C1211127C7F49494974
:10037000363E414141227F4141413E7F4949494109
:100380007F090909013E414151737F0808087F0038
:10039000417F41002040413F017F081422417F40BE
:1003A0004040407F021C027F7F0408107F3E414195
:1003B000413E7F090909063E4151215E7F09192905
:1003C00046264949493203017F01033F4040403FEF
:1003D0001F2040201F3F4038403F63140814630330
:1003E000047804036159494D43007F4141410204AF
:1003F000081020004141417F0402010204404040B6
:100400004040000307080020545478407F284444AB
:10041000383844444428384444287F3854545418C5
:1004200000087E090218A4A49C787F0804047800C0
:10043000447D40002040403D007F102844000041A2
:100440007F40007C047804787C08040478384444B5
:100450004438FC1824241818242418FC7C080404AC
:1004600008485454542404043F44243C4040207C15
:100470001C2040201C3C4030403C44281028444C68
:100480009090907C4464544C440008364100000035
:10049000770000004136080002010204023C2623D6
:1004A000263C1EA1A161123A4040207A385454558E
:1004B000592155557941215454784121555478405A
:1004C00020545579400C1E527212395555555939E0
:1004D0005454545939555454580000457C41000235
:1004E000457D420001457C40F0292429F0F0282573
:1004F00028F07C545545002054547C547C0A097FD4
:100500004932494949323248484832324A484830EB
:100510003A4141217A3A42402078009DA0A07D399D
:10052000444444393D4040403D3C24FF2424487E1F
:100530004943662B2FFC2F2BFF0929F620C0887E0C
:10054000090320545479410000447D413048484A11
:1005500032384040227A007A0A0A727D0D19317DC4
:100560002629292F28262929292630484D40203898
:100570000808080808080808382F10C8ACBA2F1057
:100580002834FA00007B000008142A142222142ABE
:1005900014089500220095AA005500AAAA55AA554C
:1005A000AA000000FF00101010FF00141414FF0038
:1005B0001010FF00FF1010F010F0141414FC0014C1
:1005C00014F700FF0000FF00FF1414F404FC1414DF
:1005D00017101F10101F101F1414141F00101010DC
:1005E000F0000000001F101010101F10101010F06D
:1005F00010000000FF101010101010101010FF104D
:10060000000000FF140000FF00FF00001F10170093
:1006100000FC04F414141710171414F404F400006C
:10062000FF00F714141414141414F700F71414141E
:10063000171410101F101F141414F4141010F010BD
:10064000F000001F101F0000001F14000000FC1429
:100650000000F010F01010FF10FF141414FF14101D
:1006600010101F00000000F010FFFFFFFFFFF0F070
:10067000F0F0F0FFFFFF0000000000FFFF0F0F0F82
:100680000F0F38444438447C2A2A3E147E02020666
:1006900006027E027E0263554941633844443C04AD
:1006A000407E201E2006027E020299A5E7A5991C25
:1006B0002A492A1C4C7201724C304A4D4D30304848
:1006C000784830BC625A463D3E494949007E0101A6
:1006D000017E2A2A2A2A2A44445F444440514A443B
:1006E0004040444A51400000FF0103E080FF000009
:1006F00008086B6B083612362436060F090F060001
:100700000018180000001010003040FF0101001F09
:1007100001011E00191D1712003C3C3C3C0000006A
:100720000000C80E11241FBECFEFDAE0DEBFCDBF40
:1007300011E0A0E0B1E0E2E1FFE102C005900D921E
:10074000AA33B107D9F725E0AAE3B1E001C01D92B1
:10075000AA3CB207E1F713E0C2E9D3E004C0219755
:10076000FE010E947C0FC139D107C9F70E941D0B01
:100770000C94870F0C940000FC0180914F018111B3
:1007800003C08FEF9FEF08959FB7F89482E08093A6
:10079000E9002091F20030E01216130614F421E073
:1007A00030E02115310559F0289884E680934E01F8
:1007B0008091F10080838091F200882319F09FBF1F
:1007C000C90108958BE68093E800F9CF2FB7F8941C
:1007D00083E08093E9009091E800892F807295FF73
:1007E00004C09091F20080E4891B2FBF089580918E
:1007F0006C0581110DC082E08093680584E08093D0
:10080000690510926B0510926A0581E080936C0572
:1008100088E695E00895CF93DF931F92CDB7DEB7BA
:100820006983DC01ED91FC910280F381E02D41E0D0
:1008300050E0BE016F5F7F4F09950F90DF91CF9120
:10084000089583E08093E9008091F200882319F0F5
:100850008AE38093E80008950E94E60390E00895FB
:10086000CF93DF931F92CDB7DEB7FC0184859585CA
:1008700097FD05C02FEF3FEF358724870BC0CE01D2
:1008800001960E94BC03019719F4898190E002C08F
:100890008FEF9FEF0F90DF91CF9108950F931F93EC
:1008A000CF93DF931F92CDB7DEB78C01FC01848517
:1008B000958597FF0EC0CE0101960E94BC0301975B
:1008C00019F4298130E002C02FEF3FEFF80135879E
:1008D0002487F801848595850F90DF91CF911F9132
:1008E0000F910895FC018485958597FD0BC09FB7F6
:1008F000F89482E08093E9008091F2009FBF90E03D
:10090000019608959FB7F89482E08093E900809162
:10091000F2009FBF90E008958F929F92AF92BF9296
:10092000CF92DF92EF92FF920F931F93CF93DF93BB
:100930005C016B017A0180910B01882309F45BC093
:1009400080914F01882309F456C080914D0180FFAA
:1009500005C08091E00082608093E000E70110E034
:100960000AEF83E0882E9AE3992E2097D9F10E940E
:10097000E60381110AC0015009F43DC061E070E056
:1009800080E090E00E94470AF0CF282F30E0C217A5
:10099000D3070CF48C2F4FB7F8948092E900909114
:1009A000E80095FF1DC0282F30E0C21BD30BF601D5
:1009B000982F915020F081918093F100FACFC20ED0
:1009C000D31E112319F09092E80009C08091E8002D
:1009D00085FD06C09092E80011E0209709F010E034
:1009E0004FBFC3CF1111C3CF5D9884E680936705D5
:1009F0001E141F0444F081E090E0F501938382838C
:100A000080E090E001C0C701DF91CF911F910F916D
:100A1000FF90EF90DF90CF90BF90AF909F908F901E
:100A20000895DF92EF92FF920F931F93CF93DF937E
:100A3000D82E8A017B01E40EF51EEB01CE15DF05F1
:100A400071F0D7FE03C0FE01849101C088810E942D
:100A5000E20A21968111F2CF8FEF9FEF01C0C8010A
:100A6000DF91CF911F910F91FF90EF90DF9008954C
:100A70000F931F93CF93DF931F92CDB7DEB782E022
:100A8000898342E450E066EB71E080E80E94110542
:100A90000E94F703DC0112960D911C91139701152A
:100AA000110569F0D801ED91FC910280F381E02DF0
:100AB000BE016F5F7F4FC801099597FF07C089810D
:100AC0000F90DF91CF911F910F910895F80100854C
:100AD0001185E5CF8F929F92AF92BF920F931F9394
:100AE000CF93DF93CDB7DEB7A1970FB6F894DEBFF3
:100AF0000FBECDBF19A2423008F44AE08E010F5D4F
:100B00001F4F842E912CA12CB12CA50194010E9481
:100B10005A0FE62FB901CA0101501109EA3014F445
:100B2000E05D01C0E95CD801EC93232B242B252B3D
:100B300061F70115110571F0F80101900020E9F746
:100B40003197AF01401B510BB80180E595E00E9441
:100B5000BD0802C080E090E0A1960FB6F894DEBF19
:100B60000FBECDBFDF91CF911F910F91BF90AF907E
:100B70009F908F9008950F931F93CF93DF938C01D5
:100B8000C0E0D0E0F801EC0FFD1F6491662371F026
:100B9000E0915005F09151050190F081E02D80E544
:100BA00095E00995892B11F02196ECCFCE01DF91CC
:100BB000CF911F910F91089590E0E0E5F1E0911140
:100BC0009FEF8FEF91939193919391938150D0F7F1
:100BD000E0E5F5E0128A118A108A178608951F93BE
:100BE000CF93DF9300D0CDB7DEB7182F5A9883E0AC
:100BF0006A8379830E94450A812F0E94450A798180
:100C0000872F0E94450A6A81862F0F900F90DF91EF
:100C1000CF911F910C94450AE0E5F1E0A0E0B8E027
:100C200000800EBC8111012C1197A0FDFDCF019217
:100C3000B9F70DB408951F920F920FB60F921124B9
:100C40008F939F938091E1009091E100937F909327
:100C5000E10083FF0FC01092E90091E09093EB0058
:100C60001092EC0092E39093ED0010924F0198E007
:100C70009093F00082FF20C093E09093E900909160
:100C8000F200992319F09AE39093E8009091670598
:100C9000992339F0909167059150909367059923B6
:100CA00089F190914E01992339F090914E01915024
:100CB00090934E01992341F184FF10C08091E2008E
:100CC0008E7E81608093E2008091E1008F7E809330
:100CD000E10080914D018E7E806111C080FF16C0C1
:100CE0008091E2008E7E80618093E2008091E1003D
:100CF0008E7E8093E10080914D018E7E8160809395
:100D00004D0104C05D9ACDCF289AD6CF9F918F9187
:100D10000F900FBE0F901F9018951F920F920FB655
:100D20000F921124CF92DF92EF92FF920F931F93B5
:100D30002F933F934F935F936F937F938F939F93E3
:100D4000AF93BF93EF93FF93CF93DF93CDB7DEB70E
:100D50006C97DEBFCDBF1092E9008091E80083FF61
:100D6000EDC168E0CE0145960E94100B82EF8093A2
:100D7000E8008D8987FF05C09091E80090FFFCCFC7
:100D800003C09EEF9093E800982F907609F0C6C0BC
:100D90009E892F89188D91110CC0803829F480917B
:100DA0004C018093F10002C01092F1001092F1000A
:100DB00048C1422F50E0512B913051F4811141C173
:100DC0004130510509F03DC180914C018D7F0BC030
:100DD000933061F4811135C14130510509F031C1C1
:100DE00080914C01826080934C012BC1953041F47D
:100DF0008091E80080FFFCCF20682093E30021C1B0
:100E0000963009F05FC0EB8CFC8C1092E9001092D8
:100E10004A0110924901123091F510924801109246
:100E200047010E94380599E0BE016F5F7F4FDB01EB
:100E3000E92F1D92EA95E9F799831A8391E09E8341
:100E400090EA98879AEF99872091490130914A0159
:100E5000275F3F4F3C832B838D831092E9001092D4
:100E60004A0110924901F0924801E092470149E09D
:100E700050E080E00E9411050E943805E2C0F09227
:100E80004801E09247010E94F703DC011296ED90C1
:100E9000FC901397E114F10409F4C0C0D701ED915F
:100EA000FC910480F581E02DBE016B5E7F4FC70190
:100EB0000995009719F00CF0C4C0C7C0F701E08491
:100EC000F184E8CF973009F4C0C0983021F481E074
:100ED0008093F100B6C0993009F0B3C0837009F077
:100EE000B4C0EDE0F1E081E021E036E390819923A8
:100EF00061F08093E9002093EB0091919093EC00D6
:100F00003093ED008F5F873089F78EE78093EA009A
:100F10001092EA008F8980934F0193C08B8D9C8D36
:100F20001092E90010924A011092490190934801F1
:100F300080934701898D811156C08E899D89913A90
:100F400059F4813209F081C047E050E064E071E07B
:100F500080E00E94110575C0913209F076C083329D
:100F600089F4888D90E0982F88272F89822BA0E024
:100F7000B0E08093000190930101A0930201B0932F
:100F800003015FC0803269F48091E80082FFFCCFEA
:100F900067E084E091E00E94100B8BEF8093E80003
:100FA00006C0823209F04DC08F8980930B01809179
:100FB0004B01882319F0EEEFFAE002C0E0E0F8E020
:100FC0008091040190910501A0910601B091070163
:100FD000803B9440A105B10509F07BC080910B01D5
:100FE00080FF93C076C00E94F703DC0112960D913A
:100FF0001C9113970115110541F1D801ED91FC9158
:101000000190F081E02DBE016B5E7F4FC801099514
:10101000811117C0F80100851185ECCF113009F45A
:101020004EC0133091F48F89882309F445C0823073
:1010300081F440E867E08AE192E00E948B0E882309
:1010400021F08EEF8093E80079C081E28093EB007D
:1010500075C0813029F440E86BE08EE092E0EDCF7E
:10106000833099F70E94F703DC011296ED90FC9013
:1010700013978E010F5F1F4F6801E114F10479F09F
:10108000D701ED91FC910680F781E02DB801C701F1
:101090000995080F111DF701E084F184EECFD80106
:1010A0001C92F60101900020E9F73197BF016C19FD
:1010B0007D0940E0C601C1CF68EF71E002C06CEF6E
:1010C00071E06115710509F2FB01449150E080E87F
:1010D00040CF0FB6F894A895809160008861809306
:1010E0006000109260000FBEA895EE3F2AE0F20764
:1010F00039F08091FE0A9091FF0A91838083A1CFFD
:101100001092FF0A1092FE0A9CCFEE3F8AE0F80789
:1011100031F0808191819093FF0A8093FE0A87E7E6
:1011200097E7918380839BE088E10FB6F894A895B8
:10113000809360000FBE9093600083CF6C960FB6D3
:10114000F894DEBF0FBECDBFDF91CF91FF91EF913D
:10115000BF91AF919F918F917F916F915F914F91CF
:101160003F912F911F910F91FF90EF90DF90CF90C3
:101170000F900FBE0F901F901895CF92DF92EF92B5
:10118000FF920F931F93CF93DF936C017A018B0132
:10119000C0E0D0E0CE15DF0589F0D8016D918D015A
:1011A000D601ED91FC910190F081E02DC6010995E9
:1011B000892B11F47E0102C02196ECCFC701DF918B
:1011C000CF911F910F91FF90EF90DF90CF900895F6
:1011D0002F923F924F925F926F927F928F929F9247
:1011E000AF92BF92CF92DF92EF92FF920F931F9335
:1011F000CF93DF93CDB7DEB728970FB6F894DEBF55
:101200000FBECDBF98878F836A30A1F4DC0155965D
:101210002C91559751968D919C915297B8E02B9FA8
:10122000800D911D1124EF81F885928B818B108A9E
:101230001786BEC06D3009F4BBC0AF81B885559626
:10124000BC91BC83EF81F88554884388E188F2889B
:101250008785908980389105C4F0AF81B88555960F
:101260002C915597422F50E01F968D919C9150974D
:10127000B6E02B9F800D911D1124EF81F885908B96
:101280008787268921117FC093C0F0E4EF16F1040F
:1012900024F79C015C8145E0549F200D311D1124F1
:1012A00012161306D4F6C52ED12C9701A8E05A9F2A
:1012B000200D311D1124121613067CF655E0659F92
:1012C000F00111249F012E5D3D4F3E832D83912C13
:1012D00030E1732EED81FE818490F5E09F1201C014
:1012E000812C870128E0622E80FC02C0552D01C0B0
:1012F000542D511109C0541007C086946A940C0DE6
:101300001D1D6110F1CF33C09C0151705B83322EE3
:10131000622F681B5C81651780F7B801A62FA01BA0
:101320004C81A41708F520383105D8F460347105D4
:10133000C0F4FB0141E0E1FD44E0E0FD440FE2FDCB
:101340004295E87F7E9ED0011124A30DBA83A98324
:10135000A05BBE4FBC90B42A5B81511101C0B42682
:10136000BC926F5F7F4FDACF2F5F3F4FD0CF939408
:101370008C0D9D1DED81FE813196FE83ED83F6E09F
:101380009F12A8CF6ACF6AEF64039001659F300D6A
:10139000112420583F4F2817390754F48F8198851E
:1013A000DC01ED91FC910190F081E02D6AE009955E
:1013B00081E090E028960FB6F894DEBF0FBECDBF57
:1013C000DF91CF911F910F91FF90EF90DF90CF9021
:1013D000BF90AF909F908F907F906F905F904F9055
:1013E0003F902F9008950895089580E090E008952B
:1013F0000DB407FEFDCF8EB51EBC08950DB407FEDB
:10140000FDCF8EB55A9A08953FB7F8948091C605DE
:101410009091C705A091C805B091C90526B5A89BB4
:1014200002C02F3F99F43FBFBA2FA92F982F8827CA
:10143000820F911DA11DB11DBC01CD0142E0660FBF
:10144000771F881F991F4A95D1F708950196A11D0E
:10145000B11DE9CF0E94820F2D9A08958FB180951A
:10146000807F669B88601C9B846008958EBD000011
:101470000DB407FEFDCF8EB508950C94440F0E9465
:10148000F809982F0E94FE0908950C94360A8F924D
:101490009F92AF92BF92CF92DF92EF92FF926B0139
:1014A0007C010E94040A4B015C01C114D104E104D7
:1014B000F104F1F00E94040ADC01CB0188199909BA
:1014C000AA09BB09883E9340A105B10570F381E0EC
:1014D000C81AD108E108F10828EE820E23E0921E16
:1014E000A11CB11CC114D104E104F104F1F2E2CF5A
:1014F000FF90EF90DF90CF90BF90AF909F908F9034
:101500000895BC0180E090E00C94470A1F920F926E
:101510000FB60F9211242F933F938F939F93AF9306
:10152000BF9380913A0190913B01A0913C01B09111
:101530003D013091C50523E0230F2D3720F401969E
:10154000A11DB11D05C026E8230F0296A11DB11DE6
:101550002093C50580933A0190933B01A0933C01F1
:10156000B0933D018091C6059091C705A091C80533
:10157000B091C9050196A11DB11D8093C605909338
:10158000C705A093C805B093C905BF91AF919F91BE
:101590008F913F912F910F900FBE0F901F90189534
:1015A000CF93C82F803130F44AE060E070E0CB0187
:1015B0000E946A056C2F70E080E090E040E1CF91DE
:1015C0000C946A054091490150914A0120914701CC
:1015D0003091480142175307B4F49091E800957098
:1015E000E1F39091E80092FD19C08093F1008091A1
:1015F000490190914A0101968F739927892B19F41B
:101600008EEF8093E8008091490190914A01019604
:1016100090934A018093490181E0089580E0089504
:10162000615030F02091F100FC0120830196F8CF49
:10163000289884E680934E010895789484B582605A
:1016400084BD84B5816084BD85B5826085BD85B566
:10165000816085BD80916E00816080936E001092E4
:10166000810080918100826080938100809181005F
:1016700081608093810080918000816080938000F0
:1016800080919100826080939100809191008160AF
:101690008093910080919000816080939000809170
:1016A000C10084608093C1008091C10082608093FA
:1016B000C1008091C10081608093C1008091C3000E
:1016C00081608093C3008091C00082608093C000DD
:1016D0008091C20081608093C20080917A00846012
:1016E00080937A0080917A00826080937A00809162
:1016F0007A00816080937A0080917A00806880937C
:101700007A0010924F0110924C0110924D0180917D
:10171000D70081608093D70080EA8093D80089B594
:10172000806189BD89B5826089BD09B400FEFDCFA5
:1017300061E070E080E090E00E94470A8091D8006C
:101740008F7C80618093D8008091E000807F8093BF
:10175000E0008091E1008E7E8093E1008DE0809337
:10176000E200559A209AEEEFFFE7859194918B3F26
:101770009C4D19F481E080934B0181EC80937C00B7
:1017800081EF85B987EE84B984E38BB984EF8AB998
:10179000769A6E9880EF81BB10BA80E58CBDC1E06F
:1017A000CDBD85E090E00E94810A5F9902C05F9AFA
:1017B000F8CF5C98ECE5F1E09DE085910E94360A57
:1017C0009A95D9F75C9A81E880936400C09365008C
:1017D00081E00E940C060E942E0A87FF21C05C98BF
:1017E00085EA0E94360A5C9A2E982F982D9880914F
:1017F000640080628093640081E083BF889513BE9B
:10180000FCCF2D980E942E0A8478843871F00E94B3
:101810002E0A8471843131F188EC90E00E94810AB3
:101820000E942E0A82FDEDCF3AC00E942C0A88EC5D
:1018300090E00E94810A2F9882E090E00E94440F7D
:101840008F3F29F06FEF82E090E00E944C0F84EF11
:1018500091E00E94810A2F9A0E942E0A847884388F
:10186000D9F3D5CF0E942C0A88EC90E00E94810A1F
:101870002E9882E090E00E94440F882329F060E0D7
:1018800082E090E00E944C0F84EF91E00E94810A78
:101890002E9A0E942E0A84718431D9F3BDCF0E9402
:1018A0002C0A82E090E00E94440F882331F03E9A97
:1018B0003F9A81E080933E0104C010923E013E9821
:1018C0003F9881E090E00E943D0A81FF81C082FB49
:1018D000992490F882FD2E98C0EFDFEF08E010E029
:1018E0000E942E0A86FF04C02E9A2F9A2D9A70C04D
:1018F000992029F0C430D10511F42E9A2F9881E057
:101900000E940C068C2F8770882E9E0143E035952F
:1019100027954A95E1F7B9017695762F6627779551
:10192000679540E050E05801A81AB108FB01E05863
:10193000FF4F7F012E3FFFEF3F0749F42F5F3F4FDF
:10194000485A5F4FB701403B510581F721C0DB0189
:10195000AC51BE4F80E090E02F3FEFEF3E0709F41F
:10196000B7C1FC01E40FF51FE455FF4FE4916D0191
:10197000CE18DF08C60ED71EF0E02F01082C01C0DC
:10198000440C0A94EAF7F601708047284082A0C10F
:1019900080E00E940C068FE090E00E94810A219670
:1019A000C931D10509F09CCF992011F02F9A2D98BB
:1019B00080E991E00E94810A0E942C0AE09154057E
:1019C000F09155050190F081E02D84E595E00995B1
:1019D00082E390E00E94810A0E942E0A8111F8CFD2
:1019E00082E480935B050E94DC0584E290E09093A2
:1019F000600580935F0510926205109261058AE987
:101A000091E00E94BB051092600510925F0583E192
:101A100090E0909362058093610587E891E00E94D1
:101A2000BB051092600510925F0585E290E09093EF
:101A300062058093610584E791E00E94BB058EE119
:101A400090E09093600580935F0588E390E0909329
:101A500062058093610589E691E00E94BB055E9A6C
:101A6000E4E1F0E0859194918831954969F4E6E1EB
:101A7000F0E08491E7E1F0E0E491F0E0F82BF093FE
:101A80004001E0933F0106C088E499EE9093400145
:101A900080933F015A988BEA0E94450A5A9A60E067
:101AA00070E080E00E94EF051EBC0E943F0A823574
:101AB000914489F49924939400E010E0BB24B394FA
:101AC00092E1E92EF12CC8E1D0E028E2C22ED12C1F
:101AD00032E0A32E26C080913A0187FF02C02E9AE1
:101AE00001C02E987C99F7CFF89487E7809300087F
:101AF00080930108A89588E18093600088E0809336
:101B00006000FFCF90915B05891720F58F5F8917E3
:101B100018F493BE889513BE0115110511F00E94AB
:101B200000008FB7F89440913A0150913B016091C9
:101B30003C0170913D018FBF80915C05942F981BF3
:101B4000892F90915D059923E9F280935E051092AB
:101B50005D05E2CFB0925D0540935C05809157052D
:101B60009091580501969093580580935705809160
:101B7000590580935A050E942E0A80935905909129
:101B80005A0593FD02C083FDBCC092FD02C082FDD8
:101B9000BBC0809146018130F9F0823009F092C0DB
:101BA0006091440170914501CB01A0E0EAE0880F0B
:101BB000991FAA1FEA95D9F7BC018A2F00903F010F
:101BC000700D00904001801D0E94EF051EBC80E555
:101BD000682E81E0782E59C05A988FE90E94450AF4
:101BE00080E00E94360A8093410180E00E94360A1C
:101BF0008093420180E00E94360A809343015A9A02
:101C00000E94DC05F0926005E0925F05D0936205CA
:101C1000C09361058CEA91E00E94BB05809141016F
:101C20000E94D00A809142010E94D00A8091430113
:101C30000E94D00AD0936005C0935F05D0926205E0
:101C4000C092610584EA91E00E94BB055A9885E143
:101C50000E94450A80E00E94360A0E94D00A5A9AE1
:101C60005A9885E30E94450A80E00E94360A0E9445
:101C7000D00A5A9A5A9885E00E94450A80E00E944C
:101C8000360A0E94D00A5A9A1DC00E94F809F30130
:101C900081933F01F0E56F16F5E07F06B1F75A9AA0
:101CA000809144019091450101968E3A25E092077A
:101CB00029F0909345018093440104C0109245019E
:101CC000109244015E9880E00E940C065E9A24CF38
:101CD000882081F0FC01E40FF51FE455FF4FE491EB
:101CE000F0E00A2C02C0F595E7950A94E2F7DC9043
:101CF000ED29EC93019611968835910509F02CCECB
:101D00001DCEB092460141CFA092460110924501EE
:101D1000109244013ECFCF92DF92EF92FF920F9349
:101D20001F93CF93DF931F92CDB7DEB7182F062FE7
:101D3000E42E862F880F8E5F99830E94E20A83E04B
:101D40000E94E20AF12EC12E9981D92E8C2D8F1975
:101D5000801798F4F601E7FE02C0849101C08081EB
:101D60000E94E20A182F80E00E94E20A8123FFEF1E
:101D7000CF1ADF0A8111EACF01C081E00F90DF9115
:101D8000CF911F910F91FF90EF90DF90CF9008952A
:101D9000E4E7F5E01382128288EE93E0A0E0B0E081
:101DA00084839583A683B78387E191E091838083C1
:101DB0008FEF9FEF9587848787E090E00E943D0A30
:101DC0008093C405E0E5F5E0138212821186128645
:101DD00080E1838710861782158689E291E09183DE
:101DE000808387E391E095838483108A1786128A23
:101DF000118A81E0838B148A858B168A08950F934C
:101E00001F93CF93DF938C0181E090E00E943D0A05
:101E100080FF32C08AE090E00E943D0A9FEF980F59
:101E20009E3F50F522E330E0D80150963C932E932C
:101E30001F9728E330E052963C932E935197CBE0C6
:101E4000D0E0D801ED91FC910190F081E02D682F58
:101E5000C8010995CE010E943D0A2196C131D105E4
:101E600081F780E00E940C0688EE93E0DF91CF912D
:101E70001F910F910C94810ADF91CF911F910F91C7
:101E8000089504970C94FF0EF999FECF92BD81BD81
:101E9000F89A992780B50895262FF999FECF1FBA91
:101EA00092BD81BD20BD0FB6F894FA9AF99A0FBE83
:101EB00001960895A1E21A2EAA1BBB1BFD010DC0BD
:101EC000AA1FBB1FEE1FFF1FA217B307E407F507EA
:101ED00020F0A21BB30BE40BF50B661F771F881FC6
:101EE000991F1A9469F760957095809590959B015C
:101EF000AC01BD01CF010895EE0FFF1F0590F491D5
:101F0000E02D099481E090E0F8940C94870FF89408
:021F1000FFCF01
:101F1200FFFFFFFF00E100000000000000C1808120
:101F2200000000000000000B048C042C0421047249
:101F32000430044E0400000000E808BD08F509F46E
:0A1F420009FF0EFCFF0000410F0034
:00000001FF
