:100000000C9463170C948B170C948B170C948B1710
:100010000C948B170C948B170C948B170C948B17D8
:100020000C948B170C948B170C9455220C94C722AC
:100030000C948B170C948B170C948B170C948B17B8
:100040000C948B170C948B170C948B170C948B17A8
:100050000C948B170C948B170C948B170C944B18D7
:100060000C948B170C948B170C948B170C948B1788
:100070000C948B170C948B170C948B170C948B1778
:100080000C948B170C948B170C948B170C948B1768
:100090000C948B170C948B170C948B170C948B1758
:1000A0000C948B170C94B21D0C948B17F0F89C8E4B
:1000B0008783878E9CF8F00000FEFF030303030391
:1000C000070EFCF80000FEFF0303030303070EFC0A
:1000D000F80000FFFF00000000000000FFFF00002C
:1000E000FEFF8383838383C7EE7C380000F8FC0E19
:1000F00007030303070EFCF800003F7FE0C0808089
:10010000C0E07F3FFFFF01010101010101FFFF008E
:1001100000FFFF0C0C0C0C1C3E77E3C100007FFFBE
:10012000C0C0C0C0C0E0703F1F00001F3F70E0C0F3
:10013000C0C0E0703F1F00007FFFC1C1C1C1C1E36B
:10014000773E1C00001F3F70E0C0C0C0E0703F1F42
:10015000000000000001FFFF01000000D5F08D1439
:10016000A1C881CFD9F1AF20001800000500100010
:100170001B00210026006C0074007D008C00A7008D
:10018000AC00B100C000CF00F000F600FC000B0195
:1001900011015A01620166016C010612001640004D
:1001A0009D249F41FA0DA741F419A314A3FE41F425
:1001B0000DA30DA314A319A3FEFD0201FC02FEFC76
:1001C00001FC02FEFC02FD0103FC044CFEFC044C9D
:1001D000FCFC044DFC04FD0103FC044CFEFC044C3F
:1001E000FCFC044C03FC04FD01034C07FC044C051F
:1001F000FC044C03FD0104FD01034C07FC044C0509
:10020000FC044C03FC044DFC04FE4030FD0203FDE5
:1002100002019E07130017FD01059F31A72FA7318B
:10022000A72CA728A72CA725AFFE31A733A734A753
:1002300033A734A731A733A731A733A72FA731A7F7
:100240002FA731A7FE2DA731AFFE33A734AFFE385D
:10025000A736A738A734A72FA734A72CAFFE31A7FE
:100260002FA731A72CA728A32CA725B3FE31A7338E
:10027000A734A733A334A734A731A333A731A333BB
:10028000A733A72FA331A72FA331A731A3FEA32DF7
:10029000A331AFFEA333A334AFFE38A736A738A7E8
:1002A00034A72FA334A72CB3FE4000DFDFDFCF40FD
:1002B0003041E8FD0108FC09FC0AFD0108FC09FCCD
:1002C0000BFD010C4C07FC09FC0A4DFD010C4C0711
:1002D000FC09FC0B4DFD010DFC0EFC0FFD010DFC9E
:1002E0000EFC10FD01114C07FC0EFC0F4DFD011121
:1002F0004C07FC0EFC104D9F4904402041FAAFFE14
:10030000FD0314FEFD0215FD0214FC14FD0F15FC87
:1003100014FD0F159F1E18D5173C38000000000073
:1003200080F8FE0FE3FB1B0B0B8BFBF3F7F6F6F6E7
:100330000606ECECECECECECECECECECECECECECC9
:10034000EEE6F6F6F6F7F3FBFBCBCBFBE30FFEF89E
:10035000801E332121339E00000080F8FF0FE0F85B
:10036000F9F9F9F9F9F9F9F1F3F3F3F3F0F0FFFF23
:10037000FFFFFFFFFFFFFFFFFFFFFFFFFFFFFFFF8D
:10038000FFFFFFFFFFFFFF7F7FFEE00FFFF880060C
:100390000600000000000F3FF0C60704040707072F
:1003A000070707070707070707FFFFFFFFFFFFFF15
:1003B000FFFFFFFFFFFFFFFFFF0707070707078795
:1003C00087070726860707C6F03F1F0080800000CA
:1003D0000000000000030784C4E4E4E4E4E4E4E48F
:1003E000E4C49C000FE7E7E7E7E7E7E7E7E7E7C7ED
:1003F000870F1F0FC7E7E0ECE4E4E4E5E5E4C4049D
:100400000404070300C040C3031100000000000003
:10041000000000FFFFFFFFFF393939FFFFFF0FE04A
:10042000E0EFEF0FFFFF183879FFFFF703E0E0EF91
:10043000EF0FFFF9F0F0FCFDFDFD0DECE0E0E0005A
:1004400000012101000000000080C0602060C08029
:10045000000000000C0C007EFE803C3E1C1C1C1C9E
:100460001C0C0C0E0C0C0C0C0E1E1C1C1C1C3C3E04
:1004700080FE7E00000000C0E0E0C000000000033D
:100480000300000E1B3166C680D060311B0E0000D9
:100490003828380001471E3820202020301010D086
:1004A000D0101090103020202020381E07010000AE
:1004B000060600000101000000000000000000101E
:1004C0001800000000000000000000000000000014
:1004D000000000000000000000000000000000001C
:1004E000000000000000000000000000000000000C
:1004F00000000000000000000000000000000000FC
:1005000000000000000000000000000000000000EB
:1005100000000000000000000000000000000000DB
:10052000000000000000000000000000FEFCFEFCD7
:10053000FEFCFE00FE0000000000000000000000C5
:10054000000000000000000000000000FF3FFF3F2F
:10055000FF3FFF00FF00000000000000000000005F
:100560000000000000000000000000000F070F075F
:100570000F070F000F000000000000000000000047
:10058000000000000000FEFCFEFCFEFCFE00FE0081
:100590000000FEFCFEFCFEFCFE00FE000000000071
:1005A0000000000000000100010001000100010046
:1005B0000000010001000100010001000000000036
:1005C000000000000000000000000000000000002B
:1005D000000000000000000000000000000000001B
:1005E00000000000C080C080C080E0C0FEFCFEFCB7
:1005F000FE8CFE80FEE0FEFCFEFCFE84FE80CE0053
:10060000C000F060F361F3E1FFFDFFFFFF7FFF61DA
:10061000FFE1FFFFFF7FFF6FFF61FF61F301F30069
:10062000030000000E040F070F070F000F000F0656
:100630000F070F070F000F00000000000000000070
:10064000000000000000E0C0F0E0F8F0F870FFFEED
:10065000FFFEFF70FF70F8E0F800F00000000000FF
:10066000000000000000CF87DF0FDF0FBF1CFFFF7F
:10067000FFFFFF1CFFF8FFF8FDF0FD00F800000091
:1006800000000000000007030F070F070F077F3F60
:100690007F3F7F077F070F030F0107000300000064
:1006A0000000F870FCF8FE8CFE8CDE8CFEF8FE700C
:1006B000FC00F80080008000C080C000C000000086
:1006C0000000000079307B117F193F093F0CFFC407
:1006D000FFE6FF32FF337F31FFE1FBC0F300E000B4
:1006E0000000000000000000000000000000030106
:1006F00007030F060F060F060F030F010700030085
:100700000000000000000000F8F0FCF8FEFCFE9C79
:10071000FE1CFE1CBE1C7E387E007C00000000001B
:1007200000000000FCF8FEFCFFFEFF87FF07DF0F64
:10073000FF3FFF7CFFF8FEE0FEFCFE7CFE3CFE007F
:100740007E0000000100030107030F070F070F07DA
:100750000F070F070F030F070F070F070F040F00F7
:100760000E0000000000000000000000FEFCFEFC87
:10077000FEFCFE00FE000000000000000000000083
:100780000000000000000000000000000100010067
:100790000100010001000000000000000000000056
:1007A0000000000000000000000000000000000049
:1007B0000000000000000000000000000000000039
:1007C000000000000000000000008000F0E0FCF8E5
:1007D000FEFCFE1CFE043E000E00000000000000B7
:1007E00000000000000000000000FFFFFFFFFFFF0F
:1007F000FF00FF00010000000000000000000000FA
:100800000000000000000000000003011F0F7F3FF8
:10081000FF7EFF70FF40F800E000000000000000D5
:1008200000000000000000000E043E1CFEFCFEF86C
:10083000FEE0FC00F000800000000000000000006E
:100840000000000000000000000000000100FFFFA9
:10085000FFFFFFFFFF00FF0000000000000000009E
:100860000000000000000000E040F870FF7EFF3F45
:10087000FF0F7F011F0003000000000000000000C8
:1008800000000000C080C000C00080008000F0E0D8
:10089000F0E0F000F00080008000C080C000C000E8
:1008A00000000000E3C1F763FF77FF36FF1CFFFF86
:1008B000FFFFFF1CFF36FF77FF63FFC1F700E30078
:1008C000000000000100010001000000000007031B
:1008D00007030700070000000000010001000100FD
:1008E000000000000000000000000000E0C0E0C0C8
:1008F000E0C0E000E0000000000000000000000098
:1009000000003E1C3E1C3E1C3E1C3E1CFFFFFFFF29
:10091000FFFFFF1CFF1C3E1C3E1C3E1C3E003E0019
:1009200000000000000000000000000007030703B3
:10093000070307000700000000000000000000009F
:1009400000000000000000000000000000000000A7
:100950000000000000000000000000000000000097
:10096000000000000000000000000000C080C08007
:10097000C080C080C000C000000000000000000077
:100980000000000000000000000078307F3F7F1F63
:100990007F0F3F071F000F00000000000000000055
:1009A0000000000000000000000000000000000047
:1009B0000000000000000000000000000000000037
:1009C000000000007C387C387C387C387C387C38EF
:1009D0007C387C387C387C387C387C387C007C00E7
:1009E0000000000000000000000000000000000007
:1009F00000000000000000000000000000000000F7
:100A000000000000000000000000000000000000E6
:100A100000000000000000000000000000000000D6
:100A2000000000000000000000000000C080C08046
:100A3000C080C080C000C0000000000000000000B6
:100A40000000000000000000000000000F070F077A
:100A50000F070F070F000F0000000000000000004C
:100A60000000000000000000000000000000000086
:100A7000C080F0E0FC78FE1CFE043E000E0000008A
:100A800000000000000000008000E0C0FCF8FF3E15
:100A9000FF0F7F011F0003000000000000000000A6
:100AA0000000000038103E1C3F0F3F031F000700EE
:100AB0000100000000000000000000000000000035
:100AC00000000000E0C0F8F0FCF8FE3CFE1C7E1CBC
:100AD000FEBCFEFCFEFCFEF8FEF0FCC0F800E000F0
:100AE00000000000FF7FFFFFFFFFFFF0FFFCFFBEE5
:100AF000FF0FFF03DF81FFFFFFFFFF7FFF00FF000E
:100B0000000000000000030107030F070F070F0795
:100B10000F070F070F070F030F0107000300000067
:100B200000000000000000007C387C387E1CFEFCC9
:100B3000FEFCFEFCFE00FE000000000000000000C5
:100B40000000000000008000800080008000FFFFA7
:100B5000FFFFFFFFFF00FF0080008000800080009B
:100B60000000000000000F070F070F070F070F0717
:100B70000F070F070F070F070F070F070F000F00D3
:100B8000000000007C387C387E1C7E1C3E1C3E1C15
:100B90003E1C7E3CFEF8FEF8FCE0FC00F00000008D
:100BA000000000008000C080E0C0F0E0F870FC3879
:100BB000FE1CFF0EBF079F038F018700830000000C
:100BC000000000000F070F070F070F070F070F07A1
:100BD0000F070F070F070F070F070F000F00000089
:100BE0000000000000007C387E1C7E1C3E1C3E1C69
:100BF0003E1CFE3CFEF8FEF8FCF0FC00F800000095
:100C000000000000C080C000C0009F0E9F0E9F0E1D
:100C10009F0EFF9FFFFBFFFBFFF1FF00FB000000AB
:100C20000000000007030F070F070F070F070F074C
:100C30000F070F070F030F03070107000300000052
:100C400000000000000000008000E0C0F8F0FC7828
:100C5000FEFCFEFCFEFCFE00FE00000000000000AA
:100C600000000000F8F0FEFCFFFFFFE7FFE1FFE0FF
:100C7000FFFFFFFFFFFFFFE0FFE0F000F0000000DC
:100C8000000000000100010001000100010001005E
:100C90000F070F070F070F000F00010001000000F2
:100CA000000000000000FEFCFEFCFEFCFE1CFE1C22
:100CB000BE1CBE1CBE1CBE1C3E003E000000000050
:100CC00000000000C080DF0FDF079F078F078F073E
:100CD0008F07DF8FFFFEFFFEFFF8FF00FC00000024
:100CE0000000000007030F070F070F070F070F078C
:100CF0000F070F070F030F0107000300010000009B
:100D000000000000E0C0F8F0FCF8FC78FE3CFE1C9F
:100D1000FE1CBE1CBE1CFE38FE007C000000000055
:100D200000000000FF7FFFFFFFFFFF8EFF07DF07D0
:100D30008F07DF8FFFFFFFFEFFF8FF00FC000000C2
:100D4000000000000000030107030F070F070F0753
:100D50000F070F070F030F03070007000100000034
:100D6000000000003E1C3E1C3E1C3E1C3E1C3E1C67
:100D7000BE1CFEFCFEFCFEFCFE3CFE007E000000F5
:100D800000000000000000000000C080F0E0FEFC59
:100D9000FFFFFF1FFF073F000F00010000000000E2
:100DA00000000000000000000E040F070F070F03F3
:100DB0000F0007000100000000000000000000001C
:100DC00000000000F8F0FCF8FCF8FE3CFE1CFE1CE5
:100DD0003E1CFE3CFEF8FEF8FCF0FC00F8000000B3
:100DE00000000000FBF1FFFBFFFBFF9FFF0EFF0E6B
:100DF0009F0EFF9FFFFBFFFBFFF1FF00FB000000CA
:100E0000000000000301070307030F070F070F0788
:100E10000F070F070F030F03070107000300000070
:100E200000000000F0E0FCF8FCF8FE3CFE1C7E1C1C
:100E30003E1C7E3CFEF8FEF0FCC0F800E000000026
:100E4000000000000703DF8FFF1FFF1EBF1CBF1C39
:100E5000FE9CFFCEFFFFFFFFFF7FFF00FF000000B3
:100E600000000000000007030F070F070F070F0720
:100E70000F070F030F030701070003000000000026
:100E8000000000000000000000000000C080C080E2
:100E9000C080C080C000C000000000000000000052
:100EA000000000000000000000000000CF87CF8796
:100EB000CF87CF87CF00CF000000000000000000E8
:100EC0000000000000000000000000000F070F07F6
:100ED0000F070F070F000F000000000000000000C8
:100EE000000000000000000000000000C080C08082
:100EF000C080C080C000C0000000000000000000F2
:100F0000000000000000000000000000CF87CF8735
:100F1000CF87CF87CF00CF00000000000000000087
:100F20000000000000000000000078307F3F7F1FBD
:100F30007F0F3F071F000F000000000000000000AF
:100F400000000000000000000000000000000000A1
:100F500080008000C080C080C080E0C0E000E00071
:100F6000000000007E3C7E3C7E3CFF7EFF66FF660C
:100F7000FFE7FFC3FFC3E7C3E781E781C300C30007
:100F80000000000000000000000000000000000061
:100F9000010001000301030103010703070007002B
:100FA0000000000080008000800080008000800041
:100FB0008000800080008000800080008000800031
:100FC00000000000FFE7FFE7FFE7FFE7FFE7FFE7BD
:100FD000FFE7FFE7FFE7FFE7FFE7FFE7FF00FF00AF
:100FE00000000000010001000100010001000100FB
:100FF00001000100010001000100010001000100E9
:1010000000000000E0C0E080E080C080C000C000C0
:1010100080008000000000000000000000000000D0
:1010200000000000C381C381E7C3E7C3E7C3FFE754
:10103000FF66FF66FF7EFF3CFF3C7E3C7E007E003D
:10104000000000000703070107010301030003007C
:10105000010001000000000000000000000000008E
:1010600000000000000000007C387E1C7E1C3E1C3E
:101070003E1CBE1CFEFCFEF8FEF0FC00F80000006A
:10108000000000000000000000000000FC78FE7C72
:10109000FF7EFF07FF030F010700030001000000B0
:1010A0000000000000000000000000000F070F0714
:1010B0000F070F000F0000000000000000000000FC
:1010C00000000000E0C0F0E0F870F830FC18FC18F8
:1010D000BC18BC18BC18FC30FCF0F8C0F800E000EC
:1010E0000000FFFEFFFFFF01FF00FF7CFFFEFFC7C8
:1010F000FF83EF83C783EFC6FFFFFFFFFF00FF0003
:101100000000010007031F0F1F0C3F187F387F31BD
:101110007F317B317B317B307F397F117F003B001A
:101120000000000000000000E0C0FEFCFEFCFE1C11
:10113000FEFCFEFCFEC0FE00E0000000000000001F
:1011400000000000F0E0FEFCFFFFFF7FFF73FF7078
:10115000FF73FF7FFFFFFFFCFFE0FE00F0000000D9
:1011600000000F060F070F070F030F000700000016
:101170000000000007030F070F070F060F000F0006
:1011800000000000FEFCFEFCFEFCFE1CFE1C3E1CE3
:101190003E1CFE3CFEF8FEF8FCF0FC00F8000000EF
:1011A00000000000FFFFFFFFFFFFFF0EFF0E9F0E7E
:1011B0009F0E9F0FFF9BFFFBFFF9FFF0FF00F80062
:1011C000000000000F070F070F070F070F070F079B
:1011D0000F070F070F070F030F0307010700030097
:1011E000000000000000C080F0E0F8F0FC78FE3C59
:1011F000FE1C7E1C3E1C3E1C7E3CFE78FE00FC005D
:101200000000000000007F3FFFFFFFFFFFC0FF80E6
:10121000E000C00080008000C080E0C0E000E0008E
:1012200000000000000000000100030107030F0799
:101230000F070F070F070F070F070F030F00070018
:10124000000000000000FEFCFEFCFEFCFE1CFE1C7C
:101250003E1C3E1C7E38FE78FCF0FCE0F880F0007E
:10126000C00000000000FFFFFFFFFFFFFF00FF00C6
:1012700080008000C080E0C0FFFFFFFFFF3FFF0055
:101280007F00000000000F070F070F070F070F0771
:101290000F070F070F030F030701070003000100EB
:1012A000000000000000FEFCFEFCFEFCFE1CFE1C1C
:1012B0003E1C3E1C3E1C3E1C3E1C3E1C3E003E0096
:1012C000000000000000FFFFFFFFFFFFFF0EFF0E0A
:1012D0009F0E9F0E9F0E9F0E9F0E9F009F008000EF
:1012E0000000000000000F070F070F070F070F0790
:1012F0000F070F070F070F070F070F070F000F004C
:10130000000000000000FEFCFEFCFEFCFE1CFE1CBB
:101310003E1C3E1C3E1C3E1C3E1C3E1C3E003E0035
:10132000000000000000FFFFFFFFFFFFFF0EFF0EA9
:101330001F0E1F0E1F0E1F0E1F0E1F001F0000008E
:101340000000000000000F070F070F070F000F003D
:10135000000000000000000000000000000000008D
:1013600000000000C080F0E0F8F0FC78FE3CFE1CBD
:101370007E1C3E1C3E1C7E3C7E387E007C000000B5
:10138000000000007F3FFFFFFFFFFFC0FF80E00085
:10139000C000BE1CBE1CFEFCFEFCFEFCFE00FE00EF
:1013A0000000000000000100030107030F070F0702
:1013B0000F070F070F070F070F030F0307000700A3
:1013C000000000000000FEFCFEFCFEFCFE00FE0033
:1013D000000000000000FEFCFEFCFEFCFE00FE0023
:1013E000000000000000FFFFFFFFFFFFFF0EFF0EE9
:1013F0001F0E1F0E1F0EFFFFFFFFFFFFFF00FF006E
:101400000000000000000F070F070F070F000F007C
:101410000000000000000F070F070F070F000F006C
:101420000000000000003E1C3E1C3E1CFEFCFEFCBA
:10143000FEFCFE1CFE1C3E1C3E003E0000000000A8
:10144000000000000000800080008000FFFFFFFF20
:10145000FFFFFF00FF008000800080000000000010
:101460000000000000000F070F070F070F070F070E
:101470000F070F070F070F070F000F0000000000F6
:101480000000000000000000000000003E1C3E1CA8
:101490003E1C3E1CFEFCFEFCFEFCFE00FE000000AE
:1014A00000000000E0C0E080E000C000800080009C
:1014B0008000C080FFFFFFFFFFFFFF00FF00000074
:1014C0000000000007030F070F070F070F070F07A4
:1014D0000F070F070F030F030700070001000000AD
:1014E00000000000FEFCFEFCFEFCFE00FE80F0E0C2
:1014F000F8F0FCF8FE3CFE1C7E0C3E041E000E00C4
:1015000000000000FFFFFFFFFFFFFF1FFF073F1F5F
:10151000FF7FFFFCFFF0FFC0F800E000800000004C
:10152000000000000F070F070F070F000F0000005B
:10153000000003010F070F070F070F040F000E0035
:101540000000000000000000FEFCFEFCFEFCFE00AF
:10155000FE0000000000000000000000000000008D
:101560000000000000000000FFFFFFFFFFFFFF0082
:10157000FF008000800080008000800080008000EC
:1015800000000000000000000F070F070F070F0703
:101590000F070F070F070F070F070F070F000F00A9
:1015A00000000000FEFCFEFCFEFCFEFCFEF0FE0067
:1015B000F800F8F0FEFCFEFCFEFCFEFCFE00FE0067
:1015C00000000000FFFFFFFFFFFFFF00FF0F3F1FB6
:1015D0003F1F3F0F3F00FFFFFFFFFFFFFF00FF0028
:1015E000000000000F070F070F070F000F0000009B
:1015F0000000000000000F070F070F070F000F008B
:1016000000000000FEFCFEFCFEFCFEFCFEF0FE8086
:10161000F800C000FEFCFEFCFEFCFE00FE00000028
:1016200000000000FFFFFFFFFFFFFF00FF077F3FFD
:10163000FFFCFFE0FFFFFFFFFFFFFF00FF000000D8
:10164000000000000F070F070F070F000F0000003A
:1016500001000F070F070F070F070F000F00000013
:1016600000000000E0C0F8F0FCF8FE7CFE1CFE1C50
:101670003E1C3E1CFE7CFEF8FEF0FCC0F800E000C4
:1016800000000000FF7FFFFFFFFFFFC0FF00E00042
:1016900080008000E0C0FFFFFFFFFF7FFF00FF0032
:1016A000000000000000030107030F070F070F07EA
:1016B0000F070F070F070F030F01070003000000BC
:1016C000000000000000FEFCFEFCFEFCFE1CFE1CF8
:1016D0003E1C3E1CFE3CFEF8FEF8FCF0FC00F80050
:1016E000000000000000FFFFFFFFFFFFFF0EFF0EE6
:1016F0001F0E1F0E1F0F1F071F070F030F000700EE
:101700000000000000000F070F070F070F000F0079
:1017100000000000000000000000000000000000C9
:1017200000000000E0C0F8F0FCF8FE7CFE1CFE1C8F
:101730003E1C3E1CFE7CFEF8FEF0FCC0F800E00003
:1017400000000000FF7FFFFFFFFFFFC0FF00E00081
:1017500080008000E0C0FFFFFFFFFF7FFF00FF0071
:101760000000000000000301070307030F070F0735
:101770000F071F0F3F1F7F3F7F197F003F000000B3
:10178000000000000000FEFCFEFCFEFCFE1CFE1C37
:101790003E1C3E1CFE3CFEF8FEF8FCF0FC00F8008F
:1017A000000000000000FFFFFFFFFFFFFF0EFF0E25
:1017B0001F0E3F1EFF7FFFFFFFF3FFC1FF00E3008F
:1017C0008000000000000F070F070F070F000F0039
:1017D00000000000000003010F070F070F070F00B4
:1017E0000F0000000000F8F0FCF8FCF8FE9CFE1C66
:1017F000FE1CBE1CBE1C7E3CFE78FE00FC000000F1
:10180000000000000000E3C1E783EF87CF07DF0F90
:101810009F0F9F0EFF9EFFFCFFFCFEF0FE00F800F6
:1018200000000000000007030F070F070F070F0756
:101830000F070F070F070F030F0307010700030030
:10184000000000003E1C3E1C3E1C3E1CFEFCFEFC3C
:10185000FEFCFE1CFE1C3E1C3E1C3E003E0000002A
:10186000000000000000000000000000FFFFFFFF7C
:10187000FFFFFF00FF00000000000000000000006C
:101880000000000000000000000000000F070F072C
:101890000F070F000F000000000000000000000014
:1018A00000000000FEFCFEFCFEFCFE00FE0000004E
:1018B00000000000FEFCFEFCFEFCFE00FE0000003E
:1018C00000000000FFFFFFFFFFFFFF80FF00C000E0
:1018D0008000C080FFFFFFFFFFFFFF00FF00000050
:1018E000000000000100070307030F070F070F07A1
:1018F0000F070F070F030F03070007000100000089
:10190000000000001E0CFEFCFEFCFEF8FE80FC0049
:10191000C0000000C080FCF8FEFCFEFCFE0CFE00D7
:101920001E000000000001001F0FFFFFFFFFFFF07F
:10193000FF00F8F0FFFFFFFFFF0FFF001F00010097
:101940000000000000000000000001000F070F076A
:101950000F060F070F070F000F0001000000000027
:1019600000007E3CFEFCFEFCFE00FE00C080E0C0ED
:10197000E0C0E080E000C000FEFCFEFCFE3CFE009B
:101980007E0000007F3FFFFFFFFFFFE0FFFFFF0F34
:10199000FF0FFFFFFFF0FFFCFFFFFF7FFF00FF00D7
:1019A0000000000000000F070F070F070F010F00D6
:1019B000030003010F070F070F070F000F000000C0
:1019C00000000E043E1C7E3CFEFCFEF0FEC0F880D3
:1019D000E0C0F8F0FEFCFE3CFE1C7E043E000E0063
:1019E000000000008000C080F1E0FFFBFF7FFF1FD0
:1019F000FF7FFFFBFFE0FFC0F100E0008000000080
:101A000000000E040F070F070F070F010F00030060
:101A1000000003010F070F070F070F040F000E0050
:101A200000000E043E1CFE7CFEFCFEF0FEC0F80032
:101A3000E0C0F8F0FEFCFE7CFE1CFE043E000E0042
:101A4000000000000000000003010F07FFFFFFFE81
:101A5000FFFFFF07FF010F00030000000000000070
:101A60000000000000000000000000000F070F074A
:101A70000F070F000F000000000000000000000032
:101A8000000000003E1C3E1C3E1C3E1C3E1CBE1CBA
:101A9000FE9CFEDCFEFCFEFCFE7CFE1CFE003E000E
:101AA000000000008000E0C0F0E0FCF8FE7CFF3F9A
:101AB000FF0FFF079F038F008700810080008000D9
:101AC000000000000F070F070F070F070F070F0792
:101AD0000F070F070F070F070F070F070F000F0064
:101AE000000000000000000000000000FEFCFEFC02
:101AF000FEFCFE0CFE0C1E0C1E001E000000000072
:101B0000000000000000000000000000FFFFFFFFD9
:101B1000FFFFFF00FF0000000000000000000000C9
:101B2000000000000000000000000000FF7FFF7FB9
:101B3000FF7FFF60FF60F060F000F0000000000039
:101B4000000000000E043E1CFEFCFEF0FE80F800CB
:101B5000C0000000000000000000000000000000C5
:101B60000000000000000000010007031F0F7F3E7F
:101B7000FFF8FFE0FC80F000C00000000000000063
:101B80000000000000000000000000000000000055
:101B900001000F073F1F3F1C3F103E0038000000B0
:101BA000000000000000000000001E0C1E0C1E0CB7
:101BB000FEFCFEFCFEFCFE00FE000000000000003B
:101BC0000000000000000000000000000000000015
:101BD000FFFFFFFFFFFFFF00FF000000000000000D
:101BE00000000000000000000000783078307830FD
:101BF0007F3F7F3F7F3F7F007F00000000000000AD
:101C000000000000C080E0C0F0E0F870FC78FE3C0E
:101C1000FE1C7E3CFE78FE70FCE0F8C0F080E00028
:101C2000C0000000010001000100010001000000EF
:101C300000000000000000000100010001000100A0
:101C40000100000000000000000000000000000093
:101C50000000000000000000000000000000000084
:101C60000000000000000000000000000000000074
:101C70000000000000000000000000000000000064
:101C80000000000000000000000000000000000054
:101C90000000000000000000000000000000000044
:101CA0000000F060F060F060F060F060F060F06004
:101CB000F060F060F060F060F060F060F060F00004
:101CC000F0000000000007020F061F0E3F1C3F1827
:101CD0003E103C0038000000000000000000000042
:101CE00000000000000000000000000000000000F4
:101CF00000000000000000000000000000000000E4
:101D000000000000000000000000000000000000D3
:101D100000000000000000000000000000000000C3
:101D2000000000000000C080E0C0E0C0E0C0E0C0F3
:101D3000E0C0E0C0E0C0E080E080C000C000000083
:101D400000000000F0E0FFF3FFF9FF39FF39FF3931
:101D5000FF39FF39FFBBFFFFFFFFFFFEFF00FF0062
:101D600000000000030107030F070F070F070F070D
:101D70000F070F030F030F070F070F070F000F00C9
:101D800000000000FEFCFEFCFEFCFE00FE80E0C049
:101D9000E0C0E0C0E0C0E080E000C00080000000E3
:101DA00000000000FFFFFFFFFFFFFF83FF01C701EF
:101DB00083018301C783FFFFFFFFFFFEFF00FF00DA
:101DC000000000000F070F070F070F010F030F0799
:101DD0000F070F070F070F030F0107000300010094
:101DE00000000000000000008000C080C080E0C053
:101DF000E0C0E0C0E0C0E0C0E0C0E080E000C000C3
:101E0000000000000000FE7CFFFFFFFFFFC7FF8314
:101E1000EF01C701830183018301C783C700C700A6
:101E200000000000000000000301070307030F0784
:101E30000F070F070F070F070F070F030F0007000C
:101E40000000000000008000C080E0C0E0C0E0C0F2
:101E5000E0C0E080E000FEFCFEFCFEFCFE00FE00B8
:101E600000000000FFFEFFFFFFFFFF83FF01C7012F
:101E700083018301C783FFFFFFFFFFFFFF00FF0018
:101E8000000000000100030107030F070F070F0701
:101E90000F070F030F010F070F070F070F000F00AA
:101EA0000000000000008000C080E0C0E0C0E0C092
:101EB000E0C0E0C0E0C0E080E000C00080000000C2
:101EC00000000000FEFCFFFFFFFFFFBBFF39FF39F2
:101ED000FF39FF39FF3BFF3FFFBFFF3EFF007F00A1
:101EE000000000000100030107030F070F070F07A1
:101EF0000F070F070F070F070F030F000700000062
:101F0000000000000000E0C0E0C0E0C0FCF8FEFC03
:101F1000FEFCFEDCFEDCFEDCFEDCFE00FE00000063
:101F2000000000000000030103010301FFFFFFFFA9
:101F3000FFFFFF01FF010301030103000300000095
:101F40000000000000000000000000000F070F0765
:101F50000F070F000F00000000000000000000004D
:101F60000000000000008000C080E0C0E0C0E0C0D1
:101F7000E0C0E080E080E0C0E0C0E0C0E000E00061
:101F800000000000FFFEFFFFFFFFFF83FF01C7010E
:101F900083018301C783FFFFFFFFFFFFFF00FF00F7
:101FA000000000000100FB71FFE3FFE7FFE7FFE730
:101FB000FFE7FFE7FFF3FF7FFF7FFF1FFF003F000B
:101FC000000000000000FEFCFEFCFEFCFE80FE8027
:101FD000E0C0E0C0E0C0E0C0E080E000C000800001
:101FE000000000000000FFFFFFFFFFFFFF03FF01F5
:101FF000070103010703FFFFFFFFFFFFFF00FF00D3
:102000000000000000000F070F070F070F000F0070
:102010000000000000000F070F070F070F000F0060
:102020000000000000000000E0C0E0C0E0C0FFCF02
:10203000FFCFFFCFFF00FF00000000000000000006
:102040000000000000008000830183018301FFFF86
:10205000FFFFFFFFFF00FF00800080008000800086
:102060000000000000000F070F070F070F070F0702
:102070000F070F070F070F070F070F070F000F00BE
:102080000000000000000000E0C0E0C0E0C0FFCFA2
:10209000FFCFFFCFFF00FF000000000000000000A6
:1020A0000000000000000000030103010301FFFF26
:1020B000FFFFFFFFFF00FF00000000000000000026
:1020C00000000000F0E0F0E0F0E0F0E0F0E0FFFF02
:1020D000FF7FFF3FFF007F000000000000000000C6
:1020E000000000000000FEFCFEFCFEFCFE00FE0006
:1020F0008000C080E0C0E0C0E0C0E040E000E00060
:10210000000000000000FFFFFFFFFFFFFF3CFF1E7D
:10211000FF7FFFFFFFF3FFC1FF80E300C10000006E
:102120000000000000000F070F070F070F000F004F
:102130000000010007030F070F070F060F040F0031
:102140000E0000003E1C3E1C3E1CFEFCFEFCFEFC85
:10215000FE00FE0000000000000000000000000083
:1021600000000000000000000000FFFFFFFFFFFF75
:10217000FF80FF00C0008000800080008000000021
:1021800000000000000000000000030107030F072B
:102190000F070F070F070F070F070F000F000000B3
:1021A00000000000E0C0E0C0E080E0C0E0C0E0C0AF
:1021B000E080E0C0E0C0E0C0E0C0E000E0008000FF
:1021C00000000000FFFFFFFFFF01FF010301FFFF11
:1021D000FFFFFF01FF010301FFFFFFFFFF00FF0003
:1021E000000000000F070F070F000F0000000F078F
:1021F0000F070F000F0000000F070F070F000F0061
:10220000000000000000E0C0E0C0E0C0E080E0802E
:10221000E0C0E0C0E0C0E0C0E080E000C0008000BE
:10222000000000000000FFFFFFFFFFFFFF03FF01B2
:10223000070103010703FFFFFFFFFFFFFF00FF0090
:102240000000000000000F070F070F070F000F002E
:102250000000000000000F070F070F070F000F001E
:102260000000000000008000C080E0C0E0C0E0C0CE
:10227000E0C0E0C0E0C0E080E000C00080000000FE
:1022800000000000FE7CFFFFFFFFFF83FF01C7018E
:1022900083018301C783FFFFFFFFFF7CFF00FE0078
:1022A000000000000000030107030F070F070F07DE
:1022B0000F070F070F070F030F01070003000000B0
:1022C00000000000E0C0E0C0E0C0E000E080E0C04E
:1022D000E0C0E0C0E0C0E080E000C000800000009E
:1022E00000000000FFFFFFFFFFFFFF83FF01C701AA
:1022F00083018301C783FFFFFFFFFFFEFF00FF0095
:1023000000000000FFFFFFFFFFFFFF01FF030F07BB
:102310000F070F070F070F030F010700030001004E
:102320000000000000008000C080E0C0E0C0E0C00D
:10233000E0C0E080E000E0C0E0C0E0C0E000E0001D
:1023400000000000FFFEFFFFFFFFFF83FF01C7014A
:1023500083018301C783FFFFFFFFFFFFFF00FF0033
:10236000000000000100030107030F070F070F071C
:102370000F070F030F01FFFFFFFFFFFFFF00FF002D
:102380000000000000000000E0C0E0C0E0C0E0008D
:10239000E080E0C0E0C0E0C0E0C0E080E000C0005D
:1023A0000000000000000000FFFFFFFFFFFFFF0331
:1023B000FF030701070103010301070307000700EB
:1023C00000000000000000000F070F070F070F00BC
:1023D0000F000000000000000000000000000000EE
:1023E0000000000000008000C080E0C0E0C0E0C04D
:1023F000E0C0E0C0E0C0E0C0E080E000C00000005D
:10240000000000000000DF8FFF9FFF1FFF1DFF394E
:10241000FF39FF39FF39FFF9FFF3FFE0FF00F0005C
:10242000000000000000070307030F070F070F0756
:102430000F070F070F070F070F030F010700030018
:1024400000000000E0C0E0C0E0C0FEFCFEFCFEFCBE
:10245000FEC0FEC0E0C0E0C0E000E0000000000000
:1024600000000000030103010301FFFFFFFFFFFF66
:10247000FF01FF018301830183008300000000004E
:1024800000000000000000000000030107030F0728
:102490000F070F070F070F070F000F0000000000C6
:1024A000000000000000E0C0E0C0E0C0E000E0008C
:1024B000000000000000E0C0E0C0E0C0E000E0007C
:1024C000000000000000FFFFFFFFFFFFFF80FF0094
:1024D000C0008000C080FFFFFFFFFFFFFF00FF0084
:1024E000000000000000030107030F070F070F079C
:1024F0000F070F030F030F070F070F070F000F0042
:1025000000000000E0C0E0C0E0C0E080E000C000EB
:1025100000000000C080E0C0E0C0E0C0E000E000DB
:102520000000000001000F077F3FFFFFFFF8FFC022
:10253000FCC0FEFCFFFFFF3FFF077F000F00010014
:102540000000000000000000000003010F070F075B
:102550000F070F070F010F0003000000000000002D
:102560000000E0C0E0C0E0C0E000E00000000000CB
:102570000000000000000000E0C0E0C0E0C0E0009B
:10258000E00003017F3FFFFFFFF8FF80FEFCFF3EFE
:10259000FF3EFFFCFF80FEF8FFFFFF3FFF017F00D3
:1025A0000300000000000F070F070F070F070F00C1
:1025B0000F000F070F070F070F070F000F00000096
:1025C00000000000E040E0C0E0C0E0C0E080E000CB
:1025D000C000C080E0C0E0C0E0C0E040E000E0003B
:1025E0000000000000000100C783EFC7FFFFFFFEEF
:1025F000FFFEFFFFFFE7FF83FF00C70001000000B1
:10260000000000000E040F060F070F070F030F0056
:10261000070007030F070F070F060F040F000E0038
:1026200000000000E040E0C0E0C0E0C0E000E000EA
:1026300000000000E0C0E0C0E0C0E040E000E000DA
:1026400000000000000007033F1FFF7FFFFEFFF0B8
:10265000FFE0FEFCFFFFFF1FFF033F00070000003D
:10266000000000000000F0E0F0E0F0E0FFFBFF7F82
:10267000FF3FFF077F000F00010000000000000087
:1026800000000000E0C0E0C0E0C0E0C0E0C0E0C08A
:10269000E0C0E0C0E0C0E0C0E0C0E000E00000005A
:1026A000000000008301C381E3C1F3E1FFF9FF7D76
:1026B000FF1FFF0FBF079F038F01870083000000EC
:1026C000000000000F070F070F070F070F070F0786
:1026D0000F070F070F070F070F070F000F0000006E
:1026E000000000000000000000000000FCF8FEFCFC
:1026F000FEFCFE0CFE0C1E0C1E001E000000000066
:1027000000000000000078307830FC78FFFFFFFF09
:10271000FFCFFF00FF0000000000000000000000ED
:102720000000000000000000000000007F3FFF7F6D
:10273000FF7FFF60FF60F060F000F000000000002D
:102740000000000000000000000000000000FEFC8F
:10275000FEFCFEFCFE00FE00000000000000000089
:102760000000000000000000000000000000FFFF6B
:10277000FFFFFFFFFF00FF0000000000000000005F
:102780000000000000000000000000000000FFFF4B
:10279000FFFFFFFFFF00FF0000000000000000003F
:1027A0000000000000001E0C1E0C1E0CFEFCFEFCB7
:1027B000FEF8FE00FC000000000000000000000029
:1027C000000000000000000000000000FFCFFFFF3D
:1027D000FFFFFF78FF30FC30783078007800000091
:1027E000000000000000F060F060F060FF7FFF7FFD
:1027F000FF3FFF007F00000000000000000000001D
:1028000000000000000000000000000000000000C8
:1028100000000000000000000000000000000000B8
:10282000000078307E3C7F1E7F0E3F0E3F1E7F3CB7
:10283000FF70FEE0F8C0F0C0F870F830F8107800D3
:102840003800000000000000000000000000000050
:102850000000010001000100010001000000000073
:102860000048656C6C6F20616761696E2066726FED
:102870006D205445414D20612E722E672E20746FBD
:1028800020616C6C2041726475626F792066616EA4
:1028900073206F7574207468657265202020202075
:1028A000202020202020202020205468616E6B737F
:1028B00020746F2053636F74747920666F72207474
:1028C000686520696D6167652E202020202020200A
:1028D0002020202020202020416C736F206D616E0D
:1028E00079207468616E6B7320746F204A6F206664
:1028F0006F722068656C70696E67207769746820F4
:102900007468652041544D20656469746F722E208F
:102910002020202020202020202020202020412096
:1029200062696720484920746F205354472C2074F3
:10293000686520627261696E7320626568696E64A1
:1029400020746865206368697074756E65206C69B1
:1029500062726172792021202020202020202020F6
:102960002020202020205374696C6C20656E6A6FD3
:1029700079696E6720486F7420427574746572209F
:1029800061726520796F75203F2020202020202053
:1029900020202020202020205765276C6C20626595
:1029A000206261636B20736F6F6E2077697468209B
:1029B000736F6D6520636F6F6C206E657720676144
:1029C0006D65732C20736F20737461792074756E3C
:1029D0006564203A29008040003D3D3B3B7B037706
:1029E0007775EAEBEBD7D757AFAFAF575BBDBEBF3D
:1029F0007F7FBFDFEFF7F7FBFCFCFCFDFF7FBFCF66
:102A00009391A1C0E0E0F0F8FC7CBEDFEFF77B7DA6
:102A10003E1F0F07030181C0E0E070381C0F070361
:102A20000180C0E0F0E0C080000000000000000075
:102A30000000000000000000000000000000000096
:102A40000000000000000000000000000000000086
:102A50000000000000000000000000000000000076
:102A60000000000000010100030307070F0E0E061F
:102A70001D3F3E7E7DF5EBEBD7D7EBDDDEFFBF7F65
:102A8000FF7FBFDF2FB7BBBD7E7F7F7FB3A44890A2
:102A9000E0F0783C1E0F07030180C0E0F0F8FCFE78
:102AA000FF7FBFDFEFF7FBFD7F3E1C0800000080CB
:102AB000C080800000000000000000000000000056
:102AC0000000000000000000000000000000000006
:102AD00000000000000000000080C0E0F0F87C3E34
:102AE0001FFFFFFE003E3E3C7CFCFCF87878F8F0CF
:102AF00000F0F0F0E0C0800180C3C7870F1F3E7D6B
:102B000018FFFFF300FF01DD6DF3FBFBFDFD7CBF54
:102B1000DFECF9F2F4F8FCFEFF7FBFDFEFF7FBFD1F
:102B2000FE7F3F1F0F03010080E0F0783C1E0F077F
:102B3000030180C0E0F07818000000008000000071
:102B40000000000000000000000000000000000085
:102B5000000000000000000000FFFFFF1D1C1C1C07
:102B60001CFFFFFF0000000000FFFFFF000000014E
:102B700000FFFFFF077FFFFF1FFFFFFF000000E0D8
:102B8000F0F1F3F3E0FF00FEFDFEFD6BD7AEFFDFDB
:102B9000BF7FBFDFEFF7FBFDFEFFFFFFFFFF67C952
:102BA000C8D0E0F0F83C1E0F07030180C0E0F0FC45
:102BB0007E3F0F07010080C0F038CCF3FCFF7F0F91
:102BC00003000080E0F8F8F000000000C0C0C0C0C2
:102BD0008080008080808080007FFFFF00000000F8
:102BE000007FFFFF00000000007FFFFF00000000EB
:102BF000007FFFFF00000001007FFFFF00F0F0F109
:102C00000303B3B3B33100F0D1D3A7001F3F7FFF5D
:102C1000FF0FFEFDEBD7AF5F9F6FF7FBFDFEFFFFE2
:102C2000FFFF7FBFD8F1F1F2F8FEFF3F4F478380EF
:102C30000080E0F0FC3ECFF3FCFFFF7F0F010000BF
:102C400000C0F8FFFFFF0F00000080F8FFFFFFFF4C
:102C5000FF1FE0FFFFFFFFFF00020606060686C615
:102C6000E6E6E6E6E6E6E6E6E60606C6E6E6E6C604
:102C700006060606E6E6E6E6E68666E2E0C78707BB
:102C800006000707E7E7E067260687C0C0C0C0C0A8
:102C90000100078F9FBF81FFFE7DFAF5F56BD7AB73
:102CA0005DBE7FFFFF7F9FEFF7FBFFFFFEFEFCFC9B
:102CB000FE3FCFF3FCFFFFFFFFFFC988909090E03D
:102CC000FEFFFFFF4F00808080F8FFFFFFFFFFFF48
:102CD000FF78FFFFFFFFFFFF0000008FFFFFFFE314
:102CE000E3E1E170787F3F9FC7F0FCFF3F0F0300F7
:102CF00000C0F8FFBF838181FFFFFC01070F1F3F6A
:102D0000FEFCF8FF7F0FE3FCFEFFCFC7C7C7030140
:102D1000FEFF070383C3E3F77F3F1E010F003F7FE2
:102D20007FFEFDFA14F5EBD7D7AF5F5FBF3F4F7360
:102D3000FCFFFFFFFFFFFFFFFF7F8FF3FFFFFFFFA2
:102D4000FFFFFFFFFC0CFCFCFFFFFFFFFFFFFFFF8F
:102D50007F80FFFFFFFFFFFF787C7E3F1F070100A2
:102D6000000000387C7E7F7F7F7F7B787838007022
:102D70007E7F3F07030303073F7F7F780060787EF5
:102D80007F7F1F43787F7F7F737171713100607C1B
:102D90007F7F3E1F1F1F0D0E0E0E0E1E1E1E1E1CC1
:102DA0001C1C3D39383B3B3B3D3D3D3E1E1F0F4FFC
:102DB0006671F5F5EBEBD7D711B6AFAFAFAFAFAFED
:102DC000AF6F5F5F415E5F5F5F5FDFBFBFBFBFBF72
:102DD00080BFBFBFBFBFBFBF0000060115012601F6
:102DE00037014A015D01720188019F01B801D201DA
:102DF000EE010B022A024B026E029302BA02E402B7
:102E000010033F037003A403DC0317045504970465
:102E1000DD0427057505C80520067D06E00649077F
:102E2000B8072D08A9082D09B9094D0AEA0A900B1F
:102E3000400CFA0CC00D910E6F0F5A1053115B121B
:102E400072139A14D41520178018F519801B231DAE
:102E5000DE1EB420A622B524080B000202020100E7
:102E600009040000010202000005240010010524ED
:102E7000010101042402060524060001070581035F
:102E800010004009040100020A00000007050202C8
:102E900040000007058302400000040309041201FA
:102EA0000002EF02014041233680000101020301CC
:102EB00041726475696E6F204C4C430041726475B9
:102EC000626F79003A2711241FBECFEFDAE0DEBF30
:102ED000CDBF11E0A0E0B1E0EEEBFFE402C0059051
:102EE0000D92A033B107D9F726E0A0E3B1E001C00D
:102EF0001D92A73AB207E1F717E1C3E6D7E104C094
:102F00002197FE010E94D727C236D107C9F70E9438
:102F1000C4240C94DD270C940000CF92DF92EF9232
:102F2000FF920F931F93CF93DF936C017A018B0174
:102F3000C0E0D0E0CE15DF0589F0D8016D918D019C
:102F4000D601ED91FC910190F081E02DC60109952B
:102F5000892B11F47E0102C02196ECCFC701DF91CD
:102F6000CF911F910F91FF90EF90DF90CF90089538
:102F7000A2E3B2E02FB7F8947D918D919C9166B554
:102F80002FBFA89B05C06F3F18F47F5F8F4F9F4FE7
:102F900022E0660F771F881F991F2A95D1F70895A1
:102FA0000895089580E090E00895CF92DF92EF9227
:102FB000FF920F93CF93DF930AEF20E046ED59E2A3
:102FC00060E070E080E090E00E94961F8091020136
:102FD000909103019C01215031093093030120930A
:102FE00002017C012EE1E20EF11C21E6C22E28E254
:102FF000D22EEC01CA58DB4EEC16FD06B9F0C70123
:103000004F97EFE9EE16F10450F4F60124912052A7
:1030100003E04FEB54E062E070E00E94961FFEE098
:10302000EF0EF11C2FEFC21AD20AE6CFDF91CF913B
:103030000F91FF90EF90DF90CF9008950F93CF9373
:10304000C0912D02CF5FC0932D020AEF20E049E12D
:1030500053E064E070E082E290E00E94961FC53B7E
:1030600018F081E080932A02CF910F910895FC011E
:103070000E94B817319728F068517C4F8F4F9F4FAF
:10308000F9CFAB01FC010E94B817641775078E07D2
:103090009F07C8F308950F930FB70F931F92112442
:1030A0008F939F93EF93FF93E6E2F2E080913102DA
:1030B00091E08D5F8D3710F08D579395809331029D
:1030C0008081890F80839181911D91830281011DEF
:1030D00002838381811D838309270F70092702954D
:1030E0000093300235D0811100932E02803989F48B
:1030F00000912F02901B963070F087E780930008B4
:103100008093010888E198E08093600090936000CC
:10311000FFCF90932F028091A106815018F08093E9
:10312000A10659F3E2E3F2E0808191810196808368
:10313000918382819381811D911D82839383FF916D
:10314000EF919F918F911F900F910FBF0F91189545
:103150008FB18095807F669B88601C9B84600895FA
:103160002091330190913401E22FF92FE80FF11DE6
:10317000E80FF11D85919491209131013091320138
:10318000820F931F08952F923F924F925F926F92FA
:103190007F928F929F92AF92BF92CF92DF92EF92E7
:1031A000FF920F931F93CF93DF93CDB7DEB7649752
:1031B0000FB6F894DEBF0FBECDBF2CE431E03C8BE0
:1031C0002B8B03E711E025E331E038872F8331E7CC
:1031D000E32E31E0F32E49E7C42E41E0D42E5BE725
:1031E000452E51E0552E65E7262E61E0362E24E768
:1031F00031E03A87298727E731E03C832B837CE75E
:10320000A72E71E0B72E2FE631E03E832D83E0E755
:103210006E2EE1E07E2E2EE431E03A832983812C6C
:10322000912C1B86AB89BC899E96EC91EE23F1F024
:10323000D2018C91482F50E02E2F237030E042179E
:1032400053078CF0F0E0F595E795F595E795EE0FCF
:10325000FF1FE852F24D85919491EF81F88592839A
:1032600081831C9203C08F5FF2018083AB89BC898C
:10327000D4969C91D497992309F43DC0D5968C910E
:10328000482F50E0292F2F77022E000C330B4217C6
:1032900053076CF197FF06C0E981FA818081815064
:1032A000808305C0A981BA818C918F5F8C93E9815D
:1032B000FA818081811103C081E0808306C080345F
:1032C00020F08FE3A981BA818C93A981BA81EC9116
:1032D000F0E0EE0FFF1FE852F24D85919491F70157
:1032E00091838083AB89BC89D5961C9204C08F5F83
:1032F000EB89FC8985ABA985BA855C915523D9F109
:10330000EB89FC8922A5211128C0D1013C91432FD2
:10331000407436FF04C0F7018081918103C0D80159
:103320008C9190E0850F911D57FD9A9537FD0DC04A
:1033300097FD09C0442379F0863BB4E29B073CF03B
:1033400085EB94E204C080E090E0442321F0F70193
:103350009183808302C0D8018C9381E0820FEB8936
:10336000FC8982A730E0D1018C918F7390E02817FF
:1033700039070CF012A6EB81FC816081662309F409
:103380004AC0A981BA819C91992309F444C0F601ED
:103390008081AB89BC899C967C91482F4F7150E00D
:1033A000272F2F7130E0421753071CF48F5F808363
:1033B00032C0807E21F480E2F60180830BC080322F
:1033C00039F476FD05C06F3F19F080E4808302C0B8
:1033D000F6011082D6018C91807E69F06F3F29F052
:1033E000262F22952F70920F01C090E0803419F49F
:1033F000862F8F70980FD501EC910E2E000CFF0BCD
:10340000E90FF11DEE0FFF1FE852F24D85919491E7
:10341000F70191838083AB89BC89D1964C91D19778
:10342000442309F447C0D2963C91632F607436FF61
:1034300004C0F7018081918103C0D8018C9190E094
:10344000EB89FC8923A950E027FF03C0840F951F57
:1034500002C0841B950B97FD09C0662379F0863B5B
:10346000F4E29F073CF085EB94E204C080E090E03A
:10347000662321F0D7018D939C9302C0F8018083CD
:10348000422F4F7150E03F71832F90E0481759074A
:1034900034F42F5FAB89BC89D3962C930BC027FFE4
:1034A00004C0EB89FC8913AA05C080E8AB89BC89FC
:1034B000D3968C93EB89FC8981A192A1009709F0A6
:1034C00097C2C4010496B1E001C0BB0F8A95EAF728
:1034D000B88B4BE1489D9001499D300D11243D87EB
:1034E0002C87A6E3A89DC001A99D900D11249C01E5
:1034F000245B3E4F3F872E87AB89BC898D919C9181
:103500001197BC016F5F7F4F6D937C93FC014491D9
:10351000403428F5A981BA814C93442321F0F50168
:103520008081480F4C93A981BA81EC91F0E0EE0FB5
:10353000FF1FE852F24D85919491F70191838083AA
:10354000D1018C91811104C0F2018081D8018C934A
:10355000EB89FC8984A585FF44C2D60136C1403A77
:1035600008F06DC1242F30E0205431092C30310592
:1035700009F4E0C00CF050C02530310509F4ACC0AE
:10358000BCF42230310509F4A7C04CF421153105F3
:1035900009F485C02130310509F48DC022C22330E1
:1035A000310509F4ABC02430310509F484C019C2D7
:1035B0002830310509F4A5C0E4F42630310509F4BA
:1035C0009DC02730310509F00CC2FB016491AB812D
:1035D000BC816C939C012D5F3F4FEB89FC8931834B
:1035E0002083FC013296E491AB89BC899C96EC93D4
:1035F000F8C12A30310509F488C002962B30310514
:103600000CF088C0AB89BC8911969C938E93FB010A
:1036100064919E966C93E5C12331310509F4C2C0D3
:10362000ACF42F30310509F4ACC04CF42D30310529
:1036300009F48AC02E30310509F488C0D2C1213185
:10364000310509F49EC00CF0A1C080C02C353105B5
:1036500009F4BDC05CF42431310509F4A7C025315B
:10366000310509F0BEC1AB81BC81AFC02E3531053B
:1036700009F4D0C00CF4BBC02F35310509F0B1C13D
:10368000809100012889822780930001D8011C9233
:103690002FEF3FEFEB89FC8932A321A3A2C1029651
:1036A000EB89FC8991838083FB016491D8016C9341
:1036B000F201608396C10296AB89BC898D939C937D
:1036C000FB016491A985BA856C93413411F080E4C3
:1036D00001C080E0F1016CC1FB016491A985BA854C
:1036E0006C939C012D5F3F4FEB89FC8931832083D4
:1036F000FC013296E491D101EC9373C1E985FA851E
:1037000002C0EB81FC8110826CC1AB89BC899E96A2
:103710001C9267C1EB89FC8991838083FB016491D2
:10372000D5018C91062E000C770B680F711D87FD5B
:103730007A9508C00296EB89FC8991838083FB010E
:103740006491D5016C934DC1F501DDCFFB0125914D
:103750003491AB89BC89D1962C93D1979C012D5F74
:103760003F4F2D933C93FC013296859194914E34BA
:1037700011F020E401C020E0820FEB89FC8982ABCC
:1037800030C1AB89BC89D1961C922BC10296EB89C2
:10379000FC8991838083FB016491AB89BC89D496B9
:1037A0006C931FC1EB89FC8914AA1BC1EFEFAB819D
:1037B000BC81EC930296AB89BC8911969C938E9345
:1037C000FB0164919C966C930CC11C920AC10296F9
:1037D000EB89FC8991838083FB01649180914B018B
:1037E00070E0680F711D60934B0177270AC0029645
:1037F000AB89BC898D939C93FB01649160934B01D1
:1038000070E089E09DE30E94AF2770934A016093C6
:103810004901E7C020E030E0FB014491F901E45B9D
:10382000FE4F40A32A5C3F4F6F5F7F4F283D31051D
:1038300099F70596AB89BC898D939C93D2C0403E85
:1038400050F450E04F595109AB89BC8992965C9372
:103850004E939197C6C0403EC1F4AB89BC8980E0CD
:1038600090E09695982F882797958795ED91FD91F3
:10387000E4912E2F2F77822BE7FDF3CF8F5B9F4FA5
:10388000EB89FC8992A381A3ACC04C3F08F4A9C08A
:1038900024E0240F223008F049C04C3F41F002964A
:1038A000AB89BC898D939C93FB01649101C060E05E
:1038B000AB89BC89ED91FC9111979F012F5F3F4F20
:1038C0002D933C93E491D3015C91E51759F1AB89B9
:1038D000BC895F964C91842F90E0AD81BE817C9134
:1038E000AE85BF85A80FB91F51967C935197589606
:1038F0005C93AC85BD85A80FB91FAA0FBB1FA45B45
:10390000BE4F8091310190913201281B390B1496E2
:103910003C932E9313974F5FAB89BC895F964C9372
:10392000D301EC93ED81FE81608313C04E3F09F01B
:1039300041C0AD81BE818C91811107C0AB89BC892A
:103940005F96EC91EE2329F00DC08150ED81FE8150
:103950008083D3018C910E94B018EB89FC899183FC
:1039600080833FC0E150AB89BC895F96EC93F0E067
:10397000AC85BD85AE0FBF1FAA0FBB1FA45BBE4F9A
:10398000809131019091320113962D913C911497C1
:10399000820F931FAB89BC898D939C932E853F85A5
:1039A000E20FF31F8189AD81BE818C93808DF3017D
:1039B000808317C0AB89BC8980E090E09695982FF2
:1039C000882797958795ED91FD91E4912E2F2F777C
:1039D000822BE7FDF3CF680F791FAB89BC896D930C
:1039E0007C93EB89FC8981A192A1009709F484CD95
:1039F0008F3FFFEF9F0739F00197AB89BC89929603
:103A00009C938E93919720910001822F90E0082C37
:103A100002C0959587950A94E2F780FD15C03B8515
:103A2000333041F4D8018C9190E095958795EF81E2
:103A3000F88509C0D7018D919C91EF81F88592831B
:103A40008183D8018C918083207F89F59091D80162
:103A50008091A201890F90910E02890F90916C01C3
:103A6000890FE9F02CE631E0F9018081298B3A8B4E
:103A70000E94B01829893A89F901B097918380830F
:103A8000D90112961C921E9211972A5C3F4FB2E008
:103A900024343B0749F780EF8093000108C088ED8C
:103AA000ECE4F1E011928A95E9F7109272002B850F
:103AB0002F5F2B873FEF831A930A2B893C892A5C5F
:103AC0003F4F3C8B2B8B0A5C1F4F2F8138852B5F20
:103AD0003F4F38872F8336E3E30EF11C46E3C40ED5
:103AE000D11C86E3480E511C96E3290E311C298512
:103AF0003A852A5C3F4F3A8729872B813C812A5C93
:103B00003F4F3C832B8336E3A30EB11C2D813E81B6
:103B10002A5C3F4F3E832D8336E3630E711C29815F
:103B20003A812A5C3F4F3A8329833B85343009F040
:103B300079CB64960FB6F894DEBF0FBECDBFDF9190
:103B4000CF911F910F91FF90EF90DF90CF90BF909A
:103B5000AF909F908F907F906F905F904F903F902D
:103B60002F9008952F922FB62F9320912C022095FD
:103B700020932C0209F08BC0BF93AF930F921F923A
:103B80002091400100904201020E009242012091DA
:103B9000410110904301121E10924301B12DB7FD57
:103BA000B095BB0FA0913F01B058BA02110CA12DE6
:103BB0002091360100903801020E009238012091C8
:103BC000370110903901121E10923901212D220F58
:103BD0002121B091350127FDB195AB0F20913B011B
:103BE00000903D01020E00923D0120913C01109099
:103BF0003E01121E10923E01B0913A0117FCB195A0
:103C0000AB0FB1E00090450110904601000C111C73
:103C100017FC0B2616FC0B2600924501109246015C
:103C2000B091440117FCB195AB0FB0910101AB0FFE
:103C3000A093CF00B0912502A0912402119729F002
:103C4000B0932502A09324021EC0B0914A01A09116
:103C50004901B0932502A093240278943F934F9397
:103C60005F936F937F938F939F93EF93FF931124B1
:103C70000E94C318FF91EF919F918F917F916F9157
:103C80005F914F913F911F900F90AF91BF912F91F6
:103C90002FBE2F9018952D9A08950C9437180E94D6
:103CA000A81808953E9A3F9A81E0809330010895C4
:103CB000FC0180913902811103C08FEF9FEF0895BD
:103CC0009FB7F89482E08093E9002091F20030E001
:103CD0001216130614F421E030E02115310559F0D5
:103CE000289884E6809338028091F1008083809147
:103CF000F200882319F09FBFC90108958BE68093D5
:103D0000E800F9CF2FB7F89483E08093E900909111
:103D1000E800892F807295FF04C09091F20080E442
:103D2000891B2FBF0895CF93DF931F92CDB7DEB7C6
:103D30006983DC01ED91FC910280F381E02D41E08B
:103D400050E0BE016F5F7F4F09950F90DF91CF91DB
:103D5000089583E08093E9008091F200882319F0B0
:103D60008AE38093E80008950E94821E90E00895FF
:103D7000CF93DF931F92CDB7DEB7FC018485958585
:103D800097FD05C02FEF3FEF358724870BC0CE018D
:103D900001960E94581E019719F4898190E002C093
:103DA0008FEF9FEF0F90DF91CF9108950F931F93A7
:103DB000CF93DF931F92CDB7DEB78C01FC018485D2
:103DC000958597FF0EC0CE0101960E94581E01975F
:103DD00019F4298130E002C02FEF3FEFF801358759
:103DE0002487F801848595850F90DF91CF911F91ED
:103DF0000F910895FC018485958597FD0BC09FB7B1
:103E0000F89482E08093E9008091F2009FBF90E0F7
:103E1000019608959FB7F89482E08093E90080911D
:103E2000F2009FBF90E008958F929F92AF92BF9251
:103E3000CF92DF92EF92FF920F931F93CF93DF9376
:103E40006C015B017A0180910B01882309F458C051
:103E500080913902882309F453C08091370280FF92
:103E600005C08091E00082608093E000E70110E0EF
:103E70000AEF83E0882E9AE3992E2097C1F10E94E1
:103E8000821E811107C00150D9F181E090E00E94AB
:103E90003718F3CF282F30E0C217D3070CF48C2F3C
:103EA0004FB7F8948092E9009091E80095FF1DC00B
:103EB000282F30E0C21BD30BF501982F915020F032
:103EC00081918093F100FACFA20EB31E112319F055
:103ED0009092E80009C08091E80085FD06C09092AC
:103EE000E80011E0209709F010E04FBFC6CF111194
:103EF000C6CF5D9884E6809336021E141F0444F0FA
:103F000081E090E0F6019383828380E090E001C03D
:103F1000C701DF91CF911F910F91FF90EF90DF903C
:103F2000CF90BF90AF909F908F9008956F927F92A7
:103F30008F929F92AF92BF92CF92DF92EF92FF92B9
:103F40000F931F93CF93DF9300D000D0CDB7DEB790
:103F50006C014115510509F4DEC1A0E0B0E0FA01A1
:103F600090E015918591211511F49115B1F047E07C
:103F7000480F479546954695033009F4440F419FF5
:103F8000A001249FE00DF11D259FF00D109629F052
:103F9000949FA00DB11D959FB00D11240F3F21F4EA
:103FA000109602E009F001E0E12EF12CA6014E0D81
:103FB0005F1D141615060CF0AEC190E8C916D104A9
:103FC0000CF0A9C19B01280F311D121613060CF02D
:103FD000A2C1603471050CF09EC1309709F49BC1F9
:103FE000962F9770992E5B0177FF03C097E0A90E7B
:103FF000B11C93E0B594A7949A95E1F72A2D77FF29
:1040000004C0992011F02FEF2A0DD7FE05C0AA2475
:10401000BB24AC18BD0802C0A12CB12C40385105FE
:104020001CF030E83C1901C0312F3A19422F022E02
:10403000000C550B2F3F1CF4742E709401C0712C92
:1040400091E0682F677009F490E0869586958695D3
:10405000980F490F511D4930510514F098E0921BFB
:104060009719270DB60140E82403600D711D112436
:104070006A0D7B1D719EA00CB11C1124AF014A0D6D
:104080005B1DE1E0F0E06F01092C02C0CC0CDD1CEF
:104090000A94E2F7033009F4FAC0A0F4013009F4FD
:1040A000ADC0023009F037C18FEF8C9D80018D9D2E
:1040B000100D1124009510951C830B838C80792E94
:1040C000720E27C00A3F31F00B3F09F024C1B92E10
:1040D000B20E80C0B92EB20E4BC0FA01E80FF91F24
:1040E000E491EC9D5001ED9DB00C1124BA82A9829F
:1040F00027FD04C0EC91E023AE2AAC92911012C0CF
:1041000001961196831748F32F5F4E0D5F1D60587F
:104110007F4F271509F4FFC0DB01A65CBD4F80E08F
:1041200090E0F0CF273064F7FD01E058FF4FB080FA
:10413000B820AA80BA28B082E3CFFA01E80FF91FAD
:10414000E491EC9D8001ED9D100D11241A830983EB
:1041500027FD03C0EC910E2B0C93911012C0019619
:104160001196831750F32F5F4E0D5F1D60587F4FE0
:104170002B1509F4D0C0DB01A65CBD4F80E090E0B8
:10418000F0CF273064F78D0100581F4FF801A08051
:10419000EA81AE2AF801A082E2CFFA01E00FF11F16
:1041A000E491EC9DC001ED9D900D11249A838983CB
:1041B00027FD04C080959C9189238C93911013C096
:1041C0000F5F1F4F1196031740F32F5F4E0D5F1DBA
:1041D00060587F4F2B1509F49EC0DB01A65CBD4FD4
:1041E00000E010E0F0CF27305CF7FD01E058FF4F12
:1041F0008A818095908189238083E2CFAA0DBB1D9F
:10420000892E820E281509F486C0CB01865C9D4F4D
:104210005C0100E010E0031790F5FD01E00FF11FD5
:10422000E491EC9DC001ED9D900D11248095909539
:104230009C838B83FA01E00FF11FE491EC9D300128
:10424000ED9D700C11247A82698227FD05C0F5016D
:1042500090818923682A6082992059F027304CF494
:10426000F501E058FF4F90818C8189239A81892B39
:1042700080830F5F1F4FFFEFAF1ABF0ACCCF2F5FB6
:104280004E0D5F1DAE0DBF1D60587F4FBBCF632E1F
:10429000712CFA01EA0DFB1DDB01A65CBD4F60E845
:1042A00070E08B0106191709E618F708B701660FC9
:1042B000771F592FE32ECF93DF93ED01EF96EF9603
:1042C00022966590A590992059F06C9C3001AC9C89
:1042D000500127302CF4F880B094FB20F728F99295
:1042E00022233AF0FC90A094FA20F628FD920C9438
:1042F0007A2111963A9529F75A9551F03E2D23953A
:104300001124E60FF11DA00FB11DC00FD11DD9CF93
:10431000DF91CF9111240F900F900F900F90DF91AC
:10432000CF911F910F91FF90EF90DF90CF90BF90B2
:10433000AF909F908F907F906F900895EAE3F2E0A6
:10434000A0E0B8E000800EBC8111012C1197A0FD07
:10435000FDCF0192B9F70DB40895809149068111FE
:104360000DC082E08093450684E08093460610925B
:1043700048061092470681E08093490685E496E05E
:1043800008954091A5065091A6062091A30630916C
:10439000A40642175307B4F49091E8009570E1F336
:1043A0009091E80092FD19C08093F1008091A506DC
:1043B0009091A60601968F739927892B19F48EEF99
:1043C0008093E8008091A5069091A60601969093AF
:1043D000A6068093A50681E0089580E00895DF9207
:1043E000EF92FF920F931F93CF93DF93D82E8A0102
:1043F0007B01E40EF51EEB01CE15DF0571F0D7FE53
:1044000003C0FE01849101C088810E94C1212196D0
:104410008111F2CF8FEF9FEF01C0C801DF91CF91E3
:104420001F910F91FF90EF90DF900895615030F051
:104430002091F100FC0120830196F8CF289884E6B2
:104440008093380208950F931F93CF93DF931F92A9
:10445000CDB7DEB782E0898342E450E068E57EE2D2
:1044600080E80E94EF210E94AD21DC0112960D919F
:104470001C9113970115110569F0D801ED91FC917C
:104480000280F381E02DBE016F5F7F4FC801099567
:1044900097FF07C089810F90DF91CF911F910F91F6
:1044A0000895F80100851185E5CF1F920F920FB690
:1044B0000F9211248F939F938091E1009091E100DE
:1044C000937F9093E10083FF0FC01092E90091E089
:1044D0009093EB001092EC0092E39093ED00109219
:1044E000390298E09093F00082FF20C093E090930F
:1044F000E9009091F200992319F09AE39093E80073
:1045000090913602992339F0909136029150909310
:104510003602992389F190913802992339F09091CC
:104520003802915090933802992341F184FF10C0D2
:104530008091E2008E7E81608093E2008091E100B4
:104540008F7E8093E100809137028E7E806111C062
:1045500080FF16C08091E2008E7E80618093E20031
:104560008091E1008E7E8093E100809137028E7E03
:1045700081608093370204C05D9ACDCF289AD6CF50
:104580009F918F910F900FBE0F901F9018951F92C3
:104590000F920FB60F921124CF92DF92EF92FF92FB
:1045A0000F931F932F933F934F935F936F937F933B
:1045B0008F939F93AF93BF93EF93FF93CF93DF932B
:1045C000CDB7DEB76C97DEBFCDBF1092E90080910A
:1045D000E80083FFBAC168E0CE0145960E9416222A
:1045E00082EF8093E8008D8987FF05C09091E800F5
:1045F00090FFFCCF03C09EEF9093E800982F907639
:1046000009F0C6C09E892F89188D91110CC0803881
:1046100029F48091A2068093F10002C01092F1006B
:104620001092F10047C1422F50E0512B913051F4CC
:10463000811140C14130510509F03CC18091A20671
:104640008D7F0BC0933061F4811134C1413051052D
:1046500009F030C18091A20682608093A2062AC12F
:10466000953041F48091E80080FFFCCF20682093D2
:10467000E30020C1963009F05FC0EB8CFC8C1092F7
:10468000E9001092A6061092A506123091F510923C
:10469000A4061092A3060E94232299E0BE016F5F38
:1046A0007F4FDB01E92F1D92EA95E9F799831A8381
:1046B00091E09E8390EA98879AEF99872091A506CA
:1046C0003091A606275F3F4F3C832B838D8310924A
:1046D000E9001092A6061092A506F092A406E092B8
:1046E000A30649E050E080E00E94EF210E942322CF
:1046F000E1C0F092A406E092A3060E94AD21DC0185
:104700001296ED90FC901397E114F10409F4BFC0E8
:10471000D701ED91FC910480F581E02DBE016B5E27
:104720007F4FC7010995009719F00CF0C3C0C6C0B0
:10473000F701E084F184E8CF973009F4BFC09830E6
:1047400021F481E08093F100B5C0993009F0B2C046
:10475000837009F0B3C0E9E2F1E081E021E036E3E3
:104760009081992361F08093E9002093EB0091916F
:104770009093EC003093ED008F5F873089F78EE7E0
:104780008093EA001092EA008F898093390292C0E8
:104790008B8D9C8D1092E9001092A6061092A506B2
:1047A0009093A4068093A306898D811155C08E89AC
:1047B0009D89913A59F4813209F080C047E050E078
:1047C00064E071E080E00E94EF2174C0913209F052
:1047D00075C0833289F4888D90E0982F88272F89BF
:1047E000822BA0E0B0E080930C0190930D01A09388
:1047F0000E01B0930F015EC0803269F48091E80031
:1048000082FFFCCF67E084E091E00E9416228BEFEC
:104810008093E80006C0823209F04CC08F898093F3
:104820000B018091040190910501A0910601B091C6
:104830000701803B9440A105B10509F083C0809138
:104840000B0180FD7FC088E78093A1068091640002
:104850008F7D809364002EC00E94AD21DC011296F2
:104860000D911C9113970115110541F1D801ED919E
:10487000FC910190F081E02DBE016B5E7F4FC8017D
:104880000995811117C0F80100851185ECCF113011
:1048900009F44EC0133091F48F89882309F445C080
:1048A000823081F440E867E08CEB9EE20E945C2756
:1048B000882321F08EEF8093E80047C081E2809347
:1048C000EB0043C0813029F440E86BE080EB9EE2CE
:1048D000EDCF833099F70E94AD21DC011296ED9067
:1048E000FC9013978E010F5F1F4F6801E114F104D4
:1048F00079F0D701ED91FC910680F781E02DB801A8
:10490000C7010995080F111DF701E084F184EECF6E
:10491000D8011C92F60101900020E9F73197BF0100
:104920006C197D0940E0C601C1CF6AE97EE202C090
:104930006EE97EE26115710509F2FB01449150E0D8
:1049400080E841CF1092A106B5CF6C960FB6F894CF
:10495000DEBF0FBECDBFDF91CF91FF91EF91BF9131
:10496000AF919F918F917F916F915F914F913F9107
:104970002F911F910F91FF90EF90DF90CF900F90AC
:104980000FBE0F901F901895789483E084BD83E04C
:1049900085BD81E080936E00E1E8F0E083E08083F4
:1049A000E0E881E08083E1E983E08083E0E981E081
:1049B0008083E1EC87E08083E3EC81E08083E0ECBE
:1049C00082E08083E2EC81E08083EAE787E0808315
:1049D00080688083109239021092A20610923702EA
:1049E0008091D70081608093D70080EA8093D800BF
:1049F00089B5806189BD89B5826089BD09B400FE31
:104A0000FDCF81E090E00E9437188091D8008F7C24
:104A100080618093D8008091E000807F8093E000E7
:104A20008091E1008E7E8093E1008DE08093E20032
:104A3000559A209A81EC80937C0081EF85B987EEAE
:104A400084B984E38BB984EF8AB9769A6E9880EF43
:104A500081BB10BA80E58CBD81E08DBD85E090E022
:104A60000E944D1E5F9902C05F9AF8CF5C98ECE5FA
:104A7000F1E09DE085918EBD00000DB407FEFDCFF5
:104A80008EB59A95B9F75C9A81E88093640081E0CD
:104A9000809365000E949E210E944F1E87FF20C0C8
:104AA0005C9885EA8EBD00000DB407FEFDCF8EB583
:104AB0005C9A2E982F982D9881E083BF889513BE1D
:104AC000FCCF2D980E944F1E8478843871F00E948C
:104AD0004F1E8471843131F188EC90E00E944D1EAC
:104AE0000E944F1E82FDEDCF3AC00E944B1E88EC03
:104AF00090E00E944D1E2F9882E090E00E9499273E
:104B00008F3F29F06FEF82E090E00E94A12784EFB1
:104B100091E00E944D1E2F9A0E944F1E8478843887
:104B2000D9F3D5CF0E944B1E88EC90E00E944D1E19
:104B30002E9882E090E00E949927882329F060E077
:104B400082E090E00E94A12784EF91E00E944D1E38
:104B50002E9A0E944F1E84718431D9F3BDCF0E94DA
:104B60004B1E82E090E00E949927882319F00E9452
:104B7000521E04C0109230013E983F9881E090E0B0
:104B80000E94992782FBDD24D0F881E090E00E940A
:104B9000992781FF74C0D1102E98C0EFDFEFE8E0B5
:104BA000AE2EB12C0E944F1E86FF04C02E9A2F9A63
:104BB0002D9A65C0DD2029F0C430D10511F42E9A5C
:104BC0002F9881E00E949E212C2F2770C22EAE01CB
:104BD00063E0559547956A95E1F78A011695102F80
:104BE00000271795079560E070E04501821A91084B
:104BF000C80180589F4F4E3FAFEF5A0749F44F5FAF
:104C00005F4F685A7F4F8C01603B710589F721C067
:104C1000D801A253BD4F20E030E04F3FEFEF5E07D9
:104C200009F402C1F901E60FF71FE455FF4FE491C3
:104C30007D01E81AF90AE00EF11EF0E02F010C2CBC
:104C400001C0440C0A94EAF7F701708047284082BB
:104C5000EBC080E00E949E218FE090E00E944D1EFC
:104C60002196C931D10509F09DCFDD2011F02F9A91
:104C70002D9880E991E00E944D1E0E944B1E82E318
:104C800090E00E944D1E0E944F1E8111F8CF80E1DE
:104C9000809341060E94521E1092720081E090E0C3
:104CA000909325028093240228EDECE4F1E0DF01EB
:104CB0001D922A95E9F720EF2093000129E1209326
:104CC0004B0121E732E030934A0120934901909350
:104CD000460180934501909314028093130282E46D
:104CE0008093C00081E08093C1008FEF8093D1005A
:104CF00080E88093CF00E9E6F1E0C491C0932B02F5
:104D00008AE691E09093340180933301D0E0CC0F98
:104D1000DD1FC659DE4FCE01049690933201809379
:104D200031013CE4E32E31E0F32E00E010E0FE011F
:104D3000E00FF11F84910E94B018F70191838083E6
:104D40000F5F1F4FF6E3EF0EF11C0430110579F7EA
:104D500084E080937200DD24D394CAE3D2E094E02F
:104D6000E92E00E010E0CC24C394909126028091BB
:104D70004206292F281B822FF0904306FF2029F09E
:104D8000209344061092430648C0209141068217A2
:104D900040F48F5F821708F040C0D3BE889513BEE1
:104DA0003CC0C09243069093420680913D0690918C
:104DB0003E06019690933E0680933D0680913F0605
:104DC000809340060E944F1E80933F069F2DFE0158
:104DD00091119FEF8FEF91939193919391938150C4
:104DE000D0F7E0912A02F0E0EE0FFF1FEB5EFC4FE0
:104DF00085919491FC0109959091400692FD04C023
:104E000080913F0682FD2AC093FD04C080913F0639
:104E100083FD2AC080E00E949E210115110509F43E
:104E2000A4CF0E940000A1CFCC2081F0F901E60FB1
:104E3000F71FE455FF4FE491F0E0082C02C0F59510
:104E4000E7950A94E2F7FC90EF29EC932F5F3F4F30
:104E500011962835310509F0E0CED1CE809172004F
:104E60008E2580937200D0CF809172008E25809322
:104E70007200D0CFE1E5F6E01382128288EE93E073
:104E8000A0E0B0E084839583A683B78384E191E0BA
:104E9000918380838FEF9FEF95878487EAE3F6E025
:104EA00086E291E0918380831582168280E1878378
:104EB0001482138211860895CF92DF92EF92FF92AF
:104EC0000F931F93CF93DF931F92CDB7DEB7182FA9
:104ED000062FE42E862F880F8E5F99830E94C121B2
:104EE00083E00E94C121F12EC12E9981D92E8C2DF3
:104EF0008F19801798F4F601E7FE02C0849101C073
:104F000080810E94C121182F80E00E94C12181234D
:104F1000FFEFCF1ADF0A8111EACF01C081E00F90C5
:104F2000DF91CF911F910F91FF90EF90DF90CF9085
:104F30000895F999FECF92BD81BDF89A992780B561
:104F40000895262FF999FECF1FBA92BD81BD20BDCD
:104F50000FB6F894FA9AF99A0FBE0196089597FB46
:104F6000072E16F4009407D077FD09D00E94C327BE
:104F700007FC05D03EF4909581959F4F089570955C
:104F800061957F4F0895AA1BBB1B51E107C0AA1F63
:104F9000BB1FA617B70710F0A61BB70B881F991FDA
:104FA0005A95A9F780959095BC01CD010895EE0F13
:0E4FB000FF1F0590F491E02D0994F894FFCFB7
:104FBE00F080800000E1000000000000FFFFFFFF16
:104FCE0000000000931E141FB41EA91EFA1EB81E68
:104FDE00D61E00000000D01700C180810000000026
:00000001FF
